{
  "contractName": "ArbitrationManager",
  "abi": [
    {
      "constant": true,
      "inputs": [],
      "name": "splytManager",
      "outputs": [
        {
          "name": "",
          "type": "address"
        }
      ],
      "payable": false,
      "stateMutability": "view",
      "type": "function"
    },
    {
      "constant": true,
      "inputs": [],
      "name": "owner",
      "outputs": [
        {
          "name": "",
          "type": "address"
        }
      ],
      "payable": false,
      "stateMutability": "view",
      "type": "function"
    },
    {
      "constant": true,
      "inputs": [],
      "name": "arbitrationData",
      "outputs": [
        {
          "name": "",
          "type": "address"
        }
      ],
      "payable": false,
      "stateMutability": "view",
      "type": "function"
    },
    {
      "constant": true,
      "inputs": [],
      "name": "pendingOwner",
      "outputs": [
        {
          "name": "",
          "type": "address"
        }
      ],
      "payable": false,
      "stateMutability": "view",
      "type": "function"
    },
    {
      "inputs": [
        {
          "name": "_splytManager",
          "type": "address"
        }
      ],
      "payable": false,
      "stateMutability": "nonpayable",
      "type": "constructor"
    },
    {
      "anonymous": false,
      "inputs": [
        {
          "indexed": false,
          "name": "_code",
          "type": "uint256"
        },
        {
          "indexed": false,
          "name": "_assetAddress",
          "type": "address"
        },
        {
          "indexed": false,
          "name": "_message",
          "type": "string"
        }
      ],
      "name": "Error",
      "type": "event"
    },
    {
      "anonymous": false,
      "inputs": [
        {
          "indexed": false,
          "name": "_code",
          "type": "uint256"
        },
        {
          "indexed": false,
          "name": "_address",
          "type": "address"
        }
      ],
      "name": "Success",
      "type": "event"
    },
    {
      "constant": false,
      "inputs": [
        {
          "name": "_arbitrationId",
          "type": "bytes12"
        },
        {
          "name": "_assetAddress",
          "type": "address"
        },
        {
          "name": "_reason",
          "type": "uint8"
        }
      ],
      "name": "createArbitration",
      "outputs": [],
      "payable": false,
      "stateMutability": "nonpayable",
      "type": "function"
    },
    {
      "constant": false,
      "inputs": [
        {
          "name": "_arbitrationId",
          "type": "bytes12"
        },
        {
          "name": "_winner",
          "type": "uint8"
        }
      ],
      "name": "setWinner",
      "outputs": [],
      "payable": false,
      "stateMutability": "nonpayable",
      "type": "function"
    },
    {
      "constant": true,
      "inputs": [
        {
          "name": "_arbitrationId",
          "type": "bytes12"
        }
      ],
      "name": "getWinner",
      "outputs": [
        {
          "name": "",
          "type": "uint8"
        }
      ],
      "payable": false,
      "stateMutability": "view",
      "type": "function"
    },
    {
      "constant": false,
      "inputs": [
        {
          "name": "_arbitrationId",
          "type": "bytes12"
        },
        {
          "name": "_arbitrator",
          "type": "address"
        }
      ],
      "name": "setArbitrator",
      "outputs": [],
      "payable": false,
      "stateMutability": "nonpayable",
      "type": "function"
    },
    {
      "constant": true,
      "inputs": [
        {
          "name": "_arbitrationId",
          "type": "bytes12"
        }
      ],
      "name": "getArbitrator",
      "outputs": [
        {
          "name": "",
          "type": "address"
        }
      ],
      "payable": false,
      "stateMutability": "view",
      "type": "function"
    },
    {
      "constant": true,
      "inputs": [
        {
          "name": "_arbitrationId",
          "type": "bytes12"
        }
      ],
      "name": "getStatus",
      "outputs": [
        {
          "name": "",
          "type": "uint8"
        }
      ],
      "payable": false,
      "stateMutability": "view",
      "type": "function"
    },
    {
      "constant": true,
      "inputs": [],
      "name": "getArbitrationsLength",
      "outputs": [
        {
          "name": "",
          "type": "uint256"
        }
      ],
      "payable": false,
      "stateMutability": "view",
      "type": "function"
    },
    {
      "constant": true,
      "inputs": [
        {
          "name": "_arbitrationId",
          "type": "bytes12"
        }
      ],
      "name": "getAddressById",
      "outputs": [
        {
          "name": "",
          "type": "address"
        }
      ],
      "payable": false,
      "stateMutability": "view",
      "type": "function"
    },
    {
      "constant": true,
      "inputs": [],
      "name": "getDataContractAddress",
      "outputs": [
        {
          "name": "",
          "type": "address"
        }
      ],
      "payable": false,
      "stateMutability": "view",
      "type": "function"
    },
    {
      "constant": false,
      "inputs": [
        {
          "name": "_arbitrationData",
          "type": "address"
        }
      ],
      "name": "setDataContract",
      "outputs": [],
      "payable": false,
      "stateMutability": "nonpayable",
      "type": "function"
    },
    {
      "constant": false,
      "inputs": [
        {
          "name": "_address",
          "type": "address"
        }
      ],
      "name": "setSplytManager",
      "outputs": [],
      "payable": false,
      "stateMutability": "nonpayable",
      "type": "function"
    },
    {
      "constant": true,
      "inputs": [
        {
          "name": "_arbitrationId",
          "type": "bytes12"
        }
      ],
      "name": "getAddressByArbitrationId",
      "outputs": [
        {
          "name": "",
          "type": "address"
        }
      ],
      "payable": false,
      "stateMutability": "view",
      "type": "function"
    },
    {
      "constant": true,
      "inputs": [
        {
          "name": "_arbitrationAddress",
          "type": "address"
        }
      ],
      "name": "getArbitrationIdByAddress",
      "outputs": [
        {
          "name": "",
          "type": "bytes12"
        }
      ],
      "payable": false,
      "stateMutability": "view",
      "type": "function"
    },
    {
      "constant": true,
      "inputs": [
        {
          "name": "_index",
          "type": "uint256"
        }
      ],
      "name": "getArbitrationByIndex",
      "outputs": [
        {
          "name": "",
          "type": "address"
        }
      ],
      "payable": false,
      "stateMutability": "view",
      "type": "function"
    },
    {
      "constant": false,
      "inputs": [
        {
          "name": "_arbitrationId",
          "type": "bytes12"
        }
      ],
      "name": "set2xStakeBySeller",
      "outputs": [],
      "payable": false,
      "stateMutability": "nonpayable",
      "type": "function"
    },
    {
      "constant": false,
      "inputs": [
        {
          "name": "_arbitrationId",
          "type": "bytes12"
        }
      ],
      "name": "set2xStakeByReporter",
      "outputs": [],
      "payable": false,
      "stateMutability": "nonpayable",
      "type": "function"
    },
    {
      "constant": true,
      "inputs": [
        {
          "name": "_address",
          "type": "address"
        }
      ],
      "name": "isManager",
      "outputs": [
        {
          "name": "",
          "type": "bool"
        }
      ],
      "payable": false,
      "stateMutability": "view",
      "type": "function"
    },
    {
      "constant": false,
      "inputs": [
        {
          "name": "_newAddress",
          "type": "address"
        }
      ],
      "name": "transferOwnership",
      "outputs": [],
      "payable": false,
      "stateMutability": "nonpayable",
      "type": "function"
    },
    {
      "constant": false,
      "inputs": [],
      "name": "acceptOwnership",
      "outputs": [],
      "payable": false,
      "stateMutability": "nonpayable",
      "type": "function"
    }
  ],
  "bytecode": "0x608060405234801561001057600080fd5b5060405160208062002e0883398101604052516000805433600160a060020a03199182161790915560028054909116600160a060020a038316179055610054610097565b604051809103906000f080158015610070573d6000803e3d6000fd5b5060038054600160a060020a031916600160a060020a0392909216919091179055506100a8565b60405161041a80620029ee83390190565b61293680620000b86000396000f3006080604052600436106101195763ffffffff60e060020a60003504166303959bb7811461011e578063078badca146101415780631c0063a51461017557806326fa90be146101a957806327d54d9b146101e75780632fa5a31f1461020957806358c02c171461024f57806361e91ea11461027157806379ba5097146102865780637b36563e1461029b5780638163615c146102b057806382f0d53d146102d857806387d55642146102ff5780638da5cb5b14610320578063916e476e1461033557806392497afc1461024f57806398baf91314610367578063a1ae7e0e14610395578063ac02fac0146103b7578063e30c3978146103cc578063e78463c9146103e1578063f2fde38b14610403578063f3ae241514610424575b600080fd5b34801561012a57600080fd5b5061013f600160a060020a0360043516610459565b005b34801561014d57600080fd5b5061013f600160a060020a031960043516602435600160a060020a031660ff60443516610492565b34801561018157600080fd5b5061018d600435610799565b60408051600160a060020a039092168252519081900360200190f35b3480156101b557600080fd5b506101ca600160a060020a0360043516610831565b60408051600160a060020a03199092168252519081900360200190f35b3480156101f357600080fd5b5061018d600160a060020a03196004351661089c565b34801561021557600080fd5b5061022b600160a060020a0319600435166109b8565b6040518082600281111561023b57fe5b60ff16815260200191505060405180910390f35b34801561025b57600080fd5b5061018d600160a060020a031960043516610aa1565b34801561027d57600080fd5b5061018d610afa565b34801561029257600080fd5b5061013f610b09565b3480156102a757600080fd5b5061018d610b8d565b3480156102bc57600080fd5b5061013f600160a060020a03196004351660ff60243516610b9c565b3480156102e457600080fd5b506102ed6113ba565b60408051918252519081900360200190f35b34801561030b57600080fd5b5061013f600160a060020a036004351661144a565b34801561032c57600080fd5b5061018d611483565b34801561034157600080fd5b50610357600160a060020a031960043516611492565b6040518082600481111561023b57fe5b34801561037357600080fd5b5061013f600160a060020a031960043516602435600160a060020a031661157b565b3480156103a157600080fd5b5061013f600160a060020a03196004351661169d565b3480156103c357600080fd5b5061018d611aca565b3480156103d857600080fd5b5061018d611ad9565b3480156103ed57600080fd5b5061013f600160a060020a031960043516611ae8565b34801561040f57600080fd5b5061013f600160a060020a0360043516611f99565b34801561043057600080fd5b50610445600160a060020a0360043516612032565b604080519115158252519081900360200190f35b600054600160a060020a0316331461047057600080fd5b60038054600160a060020a031916600160a060020a0392909216919091179055565b60008060008085935083600160a060020a0316635433e2f56040518163ffffffff1660e060020a028152600401602060405180830381600087803b1580156104d957600080fd5b505af11580156104ed573d6000803e3d6000fd5b505050506040513d602081101561050357600080fd5b50519250339150868686848661051761209d565b600160a060020a031986168152600160a060020a03851660208201526040810184600381111561054357fe5b60ff16815260200183600160a060020a0316600160a060020a0316815260200182815260200195505050505050604051809103906000f08015801561058c573d6000803e3d6000fd5b50600354604080517f5ea58c9c000000000000000000000000000000000000000000000000000000008152600160a060020a03198b166004820152600160a060020a0380851660248301529151939450911691635ea58c9c9160448082019260009290919082900301818387803b15801561060657600080fd5b505af115801561061a573d6000803e3d6000fd5b5050600280546040517f14fc5a5a000000000000000000000000000000000000000000000000000000008152600160a060020a038b811660048301908152921694506314fc5a5a93508a9291906024018260ff16815260200192505050600060405180830381600087803b15801561069157600080fd5b505af11580156106a5573d6000803e3d6000fd5b5050600254604080517f7f6cdfa6000000000000000000000000000000000000000000000000000000008152600160a060020a0387811660048301528981166024830152604482018990529151919092169350637f6cdfa6925060648083019260209291908290030181600087803b15801561072057600080fd5b505af1158015610734573d6000803e3d6000fd5b505050506040513d602081101561074a57600080fd5b50506040805160038152600160a060020a038316602082015281517f2539b4cc2b40f86b739ed651d0bf19a6b3db2c37cde9a6de9bd20707832c2677929181900390910190a150505050505050565b600354604080517fd8ab9208000000000000000000000000000000000000000000000000000000008152600481018490529051600092600160a060020a03169163d8ab920891602480830192602092919082900301818787803b1580156107ff57600080fd5b505af1158015610813573d6000803e3d6000fd5b505050506040513d602081101561082957600080fd5b505192915050565b600354604080517ff3c50711000000000000000000000000000000000000000000000000000000008152600160a060020a0384811660048301529151600093929092169163f3c507119160248082019260209290919082900301818787803b1580156107ff57600080fd5b6003546040805160e160020a6369b1f89d028152600160a060020a03198416600482015290516000928392600160a060020a039091169163d363f13a9160248082019260209290919082900301818787803b1580156108fa57600080fd5b505af115801561090e573d6000803e3d6000fd5b505050506040513d602081101561092457600080fd5b5051604080517f6cc6cde10000000000000000000000000000000000000000000000000000000081529051919250600160a060020a03831691636cc6cde1916004808201926020929091908290030181600087803b15801561098557600080fd5b505af1158015610999573d6000803e3d6000fd5b505050506040513d60208110156109af57600080fd5b50519392505050565b6003546040805160e160020a6369b1f89d028152600160a060020a03198416600482015290516000928392600160a060020a039091169163d363f13a9160248082019260209290919082900301818787803b158015610a1657600080fd5b505af1158015610a2a573d6000803e3d6000fd5b505050506040513d6020811015610a4057600080fd5b5051604080517fdfbf53ae0000000000000000000000000000000000000000000000000000000081529051919250600160a060020a0383169163dfbf53ae916004808201926020929091908290030181600087803b15801561098557600080fd5b6003546040805160e160020a6369b1f89d028152600160a060020a0319841660048201529051600092600160a060020a03169163d363f13a91602480830192602092919082900301818787803b1580156107ff57600080fd5b600354600160a060020a031690565b600054600160a060020a03163314610b2057600080fd5b600360009054906101000a9004600160a060020a0316600160a060020a03166379ba50976040518163ffffffff1660e060020a028152600401600060405180830381600087803b158015610b7357600080fd5b505af1158015610b87573d6000803e3d6000fd5b50505050565b600254600160a060020a031681565b6003546040805160e160020a6369b1f89d028152600160a060020a0319851660048201529051600092839283928392839289928492600160a060020a03169163d363f13a91602480830192602092919082900301818787803b158015610c0157600080fd5b505af1158015610c15573d6000803e3d6000fd5b505050506040513d6020811015610c2b57600080fd5b5051604080517f6cc6cde100000000000000000000000000000000000000000000000000000000815290519192503391600160a060020a03841691636cc6cde19160048083019260209291908290030181600087803b158015610c8d57600080fd5b505af1158015610ca1573d6000803e3d6000fd5b505050506040513d6020811015610cb757600080fd5b5051600160a060020a031614610ccc57600080fd5b6003546040805160e160020a6369b1f89d028152600160a060020a03198c1660048201529051600160a060020a039092169163d363f13a916024808201926020929091908290030181600087803b158015610d2657600080fd5b505af1158015610d3a573d6000803e3d6000fd5b505050506040513d6020811015610d5057600080fd5b50516040805160e060020a6338d52e0f0281529051919850889750600160a060020a038816916338d52e0f916004808201926020929091908290030181600087803b158015610d9e57600080fd5b505af1158015610db2573d6000803e3d6000fd5b505050506040513d6020811015610dc857600080fd5b50516040517ffda31178000000000000000000000000000000000000000000000000000000008152909550600160a060020a0387169063fda31178908a9060040180826002811115610e1657fe5b60ff168152602001915050600060405180830381600087803b158015610e3b57600080fd5b505af1158015610e4f573d6000803e3d6000fd5b50505050606486600160a060020a0316637bc742256040518163ffffffff1660e060020a028152600401602060405180830381600087803b158015610e9357600080fd5b505af1158015610ea7573d6000803e3d6000fd5b505050506040513d6020811015610ebd57600080fd5b5051604b02811515610ecb57fe5b049350606486600160a060020a0316637bc742256040518163ffffffff1660e060020a028152600401602060405180830381600087803b158015610f0e57600080fd5b505af1158015610f22573d6000803e3d6000fd5b505050506040513d6020811015610f3857600080fd5b5051601902811515610f4657fe5b0492506001886002811115610f5757fe5b14156110f457600254604080517f14fc5a5a000000000000000000000000000000000000000000000000000000008152600160a060020a03888116600483015260056024830152915191909216916314fc5a5a91604480830192600092919082900301818387803b158015610fcb57600080fd5b505af1158015610fdf573d6000803e3d6000fd5b50505050600260009054906101000a9004600160a060020a0316600160a060020a0316637f6cdfa68688600160a060020a031663010ec4416040518163ffffffff1660e060020a028152600401602060405180830381600087803b15801561104657600080fd5b505af115801561105a573d6000803e3d6000fd5b505050506040513d602081101561107057600080fd5b50516040805160e060020a63ffffffff8616028152600160a060020a039384166004820152929091166024830152604482018890525160648083019260209291908290030181600087803b1580156110c757600080fd5b505af11580156110db573d6000803e3d6000fd5b505050506040513d60208110156110f157600080fd5b50505b600288600281111561110257fe5b141561129f57600254604080517f14fc5a5a000000000000000000000000000000000000000000000000000000008152600160a060020a03888116600483015260016024830152915191909216916314fc5a5a91604480830192600092919082900301818387803b15801561117657600080fd5b505af115801561118a573d6000803e3d6000fd5b50505050600260009054906101000a9004600160a060020a0316600160a060020a0316637f6cdfa68687600160a060020a03166308551a536040518163ffffffff1660e060020a028152600401602060405180830381600087803b1580156111f157600080fd5b505af1158015611205573d6000803e3d6000fd5b505050506040513d602081101561121b57600080fd5b50516040805160e060020a63ffffffff8616028152600160a060020a039384166004820152929091166024830152604482018890525160648083019260209291908290030181600087803b15801561127257600080fd5b505af1158015611286573d6000803e3d6000fd5b505050506040513d602081101561129c57600080fd5b50505b600260009054906101000a9004600160a060020a0316600160a060020a0316637f6cdfa68688600160a060020a0316636cc6cde16040518163ffffffff1660e060020a028152600401602060405180830381600087803b15801561130257600080fd5b505af1158015611316573d6000803e3d6000fd5b505050506040513d602081101561132c57600080fd5b50516040805160e060020a63ffffffff8616028152600160a060020a039384166004820152929091166024830152604482018790525160648083019260209291908290030181600087803b15801561138357600080fd5b505af1158015611397573d6000803e3d6000fd5b505050506040513d60208110156113ad57600080fd5b5050505050505050505050565b600354604080517f2986c0e50000000000000000000000000000000000000000000000000000000081529051600092600160a060020a031691632986c0e591600480830192602092919082900301818787803b15801561141957600080fd5b505af115801561142d573d6000803e3d6000fd5b505050506040513d602081101561144357600080fd5b5051905090565b600054600160a060020a0316331461146157600080fd5b60028054600160a060020a031916600160a060020a0392909216919091179055565b600054600160a060020a031681565b6003546040805160e160020a6369b1f89d028152600160a060020a03198416600482015290516000928392600160a060020a039091169163d363f13a9160248082019260209290919082900301818787803b1580156114f057600080fd5b505af1158015611504573d6000803e3d6000fd5b505050506040513d602081101561151a57600080fd5b5051604080517f200d2ed20000000000000000000000000000000000000000000000000000000081529051919250600160a060020a0383169163200d2ed2916004808201926020929091908290030181600087803b15801561098557600080fd5b60008054600160a060020a0316331461159357600080fd5b6003546040805160e160020a6369b1f89d028152600160a060020a0319861660048201529051600160a060020a039092169163d363f13a916024808201926020929091908290030181600087803b1580156115ed57600080fd5b505af1158015611601573d6000803e3d6000fd5b505050506040513d602081101561161757600080fd5b5051604080517fb0eefabe000000000000000000000000000000000000000000000000000000008152600160a060020a03858116600483015291519293509083169163b0eefabe9160248082019260009290919082900301818387803b15801561168057600080fd5b505af1158015611694573d6000803e3d6000fd5b50505050505050565b6003546040805160e160020a6369b1f89d028152600160a060020a0319841660048201529051600092839285928492600160a060020a03169163d363f13a91602480830192602092919082900301818787803b1580156116fc57600080fd5b505af1158015611710573d6000803e3d6000fd5b505050506040513d602081101561172657600080fd5b5051604080517f010ec44100000000000000000000000000000000000000000000000000000000815290519192503391600160a060020a0384169163010ec4419160048083019260209291908290030181600087803b15801561178857600080fd5b505af115801561179c573d6000803e3d6000fd5b505050506040513d60208110156117b257600080fd5b5051600160a060020a0316146117c757600080fd5b6003546040805160e160020a6369b1f89d028152600160a060020a0319881660048201529051600160a060020a039092169163d363f13a916024808201926020929091908290030181600087803b15801561182157600080fd5b505af1158015611835573d6000803e3d6000fd5b505050506040513d602081101561184b57600080fd5b5051604080517f15e35c050000000000000000000000000000000000000000000000000000000081529051919550859450600160a060020a038516916315e35c059160048082019260009290919082900301818387803b1580156118ae57600080fd5b505af11580156118c2573d6000803e3d6000fd5b50505050600260009054906101000a9004600160a060020a0316600160a060020a0316637f6cdfa684600160a060020a031663010ec4416040518163ffffffff1660e060020a028152600401602060405180830381600087803b15801561192857600080fd5b505af115801561193c573d6000803e3d6000fd5b505050506040513d602081101561195257600080fd5b50516040805160e060020a6338d52e0f0281529051600160a060020a038816916338d52e0f9160048083019260209291908290030181600087803b15801561199957600080fd5b505af11580156119ad573d6000803e3d6000fd5b505050506040513d60208110156119c357600080fd5b5051604080517f76e7e23b0000000000000000000000000000000000000000000000000000000081529051600160a060020a038916916376e7e23b9160048083019260209291908290030181600087803b158015611a2057600080fd5b505af1158015611a34573d6000803e3d6000fd5b505050506040513d6020811015611a4a57600080fd5b50516040805160e060020a63ffffffff8716028152600160a060020a0394851660048201529290931660248301526044820152905160648083019260209291908290030181600087803b158015611aa057600080fd5b505af1158015611ab4573d6000803e3d6000fd5b505050506040513d602081101561169457600080fd5b600354600160a060020a031681565b600154600160a060020a031681565b6003546040805160e160020a6369b1f89d028152600160a060020a03198416600482015290516000928392859284928392600160a060020a039091169163d363f13a9160248082019260209290919082900301818787803b158015611b4c57600080fd5b505af1158015611b60573d6000803e3d6000fd5b505050506040513d6020811015611b7657600080fd5b50516040805160e060020a6338d52e0f0281529051919350600160a060020a038416916338d52e0f916004808201926020929091908290030181600087803b158015611bc157600080fd5b505af1158015611bd5573d6000803e3d6000fd5b505050506040513d6020811015611beb57600080fd5b5051604080517f08551a5300000000000000000000000000000000000000000000000000000000815290519192503391600160a060020a038416916308551a539160048083019260209291908290030181600087803b158015611c4d57600080fd5b505af1158015611c61573d6000803e3d6000fd5b505050506040513d6020811015611c7757600080fd5b5051600160a060020a031614611c8c57600080fd5b6003546040805160e160020a6369b1f89d028152600160a060020a0319891660048201529051600160a060020a039092169163d363f13a916024808201926020929091908290030181600087803b158015611ce657600080fd5b505af1158015611cfa573d6000803e3d6000fd5b505050506040513d6020811015611d1057600080fd5b5051604080517fd83f64d70000000000000000000000000000000000000000000000000000000081529051919650869550600160a060020a0386169163d83f64d79160048082019260009290919082900301818387803b158015611d7357600080fd5b505af1158015611d87573d6000803e3d6000fd5b50505050600260009054906101000a9004600160a060020a0316600160a060020a0316637f6cdfa685600160a060020a031663dbd0e1b66040518163ffffffff1660e060020a028152600401602060405180830381600087803b158015611ded57600080fd5b505af1158015611e01573d6000803e3d6000fd5b505050506040513d6020811015611e1757600080fd5b50516040805160e060020a6338d52e0f0281529051600160a060020a038916916338d52e0f9160048083019260209291908290030181600087803b158015611e5e57600080fd5b505af1158015611e72573d6000803e3d6000fd5b505050506040513d6020811015611e8857600080fd5b5051604080517f76e7e23b0000000000000000000000000000000000000000000000000000000081529051600160a060020a038a16916376e7e23b9160048083019260209291908290030181600087803b158015611ee557600080fd5b505af1158015611ef9573d6000803e3d6000fd5b505050506040513d6020811015611f0f57600080fd5b50516040805160e060020a63ffffffff8716028152600160a060020a0394851660048201529290931660248301526044820152905160648083019260209291908290030181600087803b158015611f6557600080fd5b505af1158015611f79573d6000803e3d6000fd5b505050506040513d6020811015611f8f57600080fd5b5050505050505050565b600054600160a060020a03163314611fb057600080fd5b600354604080517ff2fde38b000000000000000000000000000000000000000000000000000000008152600160a060020a0384811660048301529151919092169163f2fde38b91602480830192600092919082900301818387803b15801561201757600080fd5b505af115801561202b573d6000803e3d6000fd5b5050505050565b600254604080517ff3ae2415000000000000000000000000000000000000000000000000000000008152600160a060020a0384811660048301529151600093929092169163f3ae24159160248082019260209290919082900301818787803b1580156107ff57600080fd5b60405161085d806120ae833901905600608060405234801561001057600080fd5b5060405160a08061085d83398101604090815281516020830151918301516060840151608090940151600080546001606060020a031916740100000000000000000000000000000000000000008504179055600180549395929384919060ff19168183600381111561007e57fe5b0217905550600080546001606060020a03166c01000000000000000000000000600160a060020a0394851602178155600382905560028290556005805495909316620100000261010060b060020a0319909516949094179091556004805490910190555061076a915081906100f390396000f3006080604052600436106100fb5763ffffffff7c0100000000000000000000000000000000000000000000000000000000600035041663010ec44181146101005780630c973ee7146101315780630fceb7461461015857806315e35c051461016d578063163abfb714610184578063200d2ed21461019957806338d52e0f146101d25780636cc6cde1146101e757806376e7e23b146101fc5780637bc74225146102115780638e7ea5b214610226578063b0eefabe1461024b578063cf4050b51461026c578063d83f64d7146102ab578063dbd0e1b6146102c0578063dfbf53ae146102d5578063e134e33d146102ea578063fda311781461030f575b600080fd5b34801561010c57600080fd5b5061011561032a565b60408051600160a060020a039092168252519081900360200190f35b34801561013d57600080fd5b50610146610349565b60408051918252519081900360200190f35b34801561016457600080fd5b5061011561034f565b34801561017957600080fd5b5061018261035e565b005b34801561019057600080fd5b506101466103fa565b3480156101a557600080fd5b506101ae610400565b604051808260048111156101be57fe5b60ff16815260200191505060405180910390f35b3480156101de57600080fd5b5061011561040e565b3480156101f357600080fd5b50610115610423565b34801561020857600080fd5b50610146610432565b34801561021d57600080fd5b50610146610438565b34801561023257600080fd5b5061023b610442565b604051808260028111156101be57fe5b34801561025757600080fd5b50610182600160a060020a036004351661044b565b34801561027857600080fd5b506102816104f7565b6040805173ffffffffffffffffffffffffffffffffffffffff199092168252519081900360200190f35b3480156102b757600080fd5b50610182610514565b3480156102cc57600080fd5b506101156105b0565b3480156102e157600080fd5b5061023b61064f565b3480156102f657600080fd5b506102ff610658565b604051808260038111156101be57fe5b34801561031b57600080fd5b5061018260ff60043516610661565b6000546c010000000000000000000000009004600160a060020a031681565b60045481565b600654600160a060020a031690565b6040805160e060020a63f3ae24150281523360048201819052915163f3ae2415916024808201926020929091908290030181600087803b1580156103a157600080fd5b505af11580156103b5573d6000803e3d6000fd5b505050506040513d60208110156103cb57600080fd5b505115156001146103db57600080fd5b600254600380546005805461ff00191661020017905582019091019055565b60035481565b600554610100900460ff1681565b600554620100009004600160a060020a031681565b600654600160a060020a031681565b60025481565b6003546004540190565b60055460ff1690565b6040805160e060020a63f3ae24150281523360048201819052915163f3ae2415916024808201926020929091908290030181600087803b15801561048e57600080fd5b505af11580156104a2573d6000803e3d6000fd5b505050506040513d60208110156104b857600080fd5b505115156001146104c857600080fd5b6006805473ffffffffffffffffffffffffffffffffffffffff1916600160a060020a0392909216919091179055565b600054740100000000000000000000000000000000000000000281565b6040805160e060020a63f3ae24150281523360048201819052915163f3ae2415916024808201926020929091908290030181600087803b15801561055757600080fd5b505af115801561056b573d6000803e3d6000fd5b505050506040513d602081101561058157600080fd5b5051151560011461059157600080fd5b600254600480546005805461ff00191661010017905582019091019055565b6000600560029054906101000a9004600160a060020a0316600160a060020a03166308551a536040518163ffffffff167c0100000000000000000000000000000000000000000000000000000000028152600401602060405180830381600087803b15801561061e57600080fd5b505af1158015610632573d6000803e3d6000fd5b505050506040513d602081101561064857600080fd5b5051905090565b60055460ff1681565b60015460ff1681565b6040805160e060020a63f3ae24150281523360048201819052915163f3ae2415916024808201926020929091908290030181600087803b1580156106a457600080fd5b505af11580156106b8573d6000803e3d6000fd5b505050506040513d60208110156106ce57600080fd5b505115156001146106de57600080fd5b600554600290610100900460ff1660048111156106f757fe5b81600481111561070357fe5b1461070d57600080fd5b6005805483919060ff1916600183600281111561072657fe5b0217905550506005805461ff001916610300179055505600a165627a7a7230582001f0c56f43de1bf9fc34598e2213c6e9a82919ef9285195fd44cace0d50e07330029a165627a7a72305820055d092c32d931643c64ed8e0a2a326b3ef1b69808e3606d767c65057ce493150029608060405260008054600160a060020a031916331790556103f5806100256000396000f3006080604052600436106100985763ffffffff7c01000000000000000000000000000000000000000000000000000000006000350416632986c0e5811461009d5780635ea58c9c146100c457806379ba5097146101015780638da5cb5b14610116578063d363f13a14610147578063d8ab920814610176578063e30c39781461018e578063f2fde38b146101a3578063f3c50711146101c4575b600080fd5b3480156100a957600080fd5b506100b261020f565b60408051918252519081900360200190f35b3480156100d057600080fd5b506100ff73ffffffffffffffffffffffffffffffffffffffff1960043516602435600160a060020a0316610215565b005b34801561010d57600080fd5b506100ff6102be565b34801561012257600080fd5b5061012b610306565b60408051600160a060020a039092168252519081900360200190f35b34801561015357600080fd5b5061012b73ffffffffffffffffffffffffffffffffffffffff1960043516610315565b34801561018257600080fd5b5061012b600435610330565b34801561019a57600080fd5b5061012b61034b565b3480156101af57600080fd5b506100ff600160a060020a036004351661035a565b3480156101d057600080fd5b506101e5600160a060020a03600435166103a0565b6040805173ffffffffffffffffffffffffffffffffffffffff199092168252519081900360200190f35b60055481565b600054600160a060020a0316331461022c57600080fd5b600160a060020a0316600081815260026020908152604080832080546bffffffffffffffffffffffff191674010000000000000000000000000000000000000000870417905573ffffffffffffffffffffffffffffffffffffffff1994851683526003825280832080548616851790556005805484526004909252909120805490931690911790915580546001019055565b600154600160a060020a031633146102d557600080fd5b6001546000805473ffffffffffffffffffffffffffffffffffffffff1916600160a060020a03909216919091179055565b600054600160a060020a031681565b600360205260009081526040902054600160a060020a031681565b600460205260009081526040902054600160a060020a031681565b600154600160a060020a031681565b600054600160a060020a0316331461037157600080fd5b6001805473ffffffffffffffffffffffffffffffffffffffff1916600160a060020a0392909216919091179055565b6002602052600090815260409020547401000000000000000000000000000000000000000002815600a165627a7a7230582071030f659135c04defb543f1bc1c81d08e81c53d2d38557d5b684432cf69e93b0029",
  "source": "pragma solidity ^0.4.24;\n\nimport \"./Owned.sol\";\nimport \"./Events.sol\";\nimport \"./Arbitration.sol\";\nimport \"./ArbitrationData.sol\";\nimport \"./Asset.sol\";\nimport \"./SplytManager.sol\";\n\ncontract ArbitrationManager is Owned, Events {\n\n    SplytManager public splytManager;\n    ArbitrationData public arbitrationData;\n    \n    //middlware only arbitrator \n    modifier onlyArbitrator(bytes12 _arbitrationId) {\n        address arbitrationAddress = arbitrationData.addressByArbitrationId(_arbitrationId);      \n        require(Arbitration(arbitrationAddress).arbitrator() == msg.sender);\n        _;\n    }\n\n    modifier onlyReporter(bytes12 _arbitrationId) {\n         address arbitrationAddress = arbitrationData.addressByArbitrationId(_arbitrationId);\n        require(Arbitration(arbitrationAddress).reporter() == msg.sender);        \n        _;\n    }\n        \n    modifier onlySeller(bytes12 _arbitrationId) {\n        address arbitrationAddress = arbitrationData.addressByArbitrationId(_arbitrationId);\n        address assetAddress = Arbitration(arbitrationAddress).asset();\n        require(Asset(assetAddress).seller() == msg.sender);        \n        _;\n    }\n        \n\n    constructor(address _splytManager) public {\n        splytManager = SplytManager(_splytManager);\n        arbitrationData = new ArbitrationData();\n    }\n\n    function createArbitration(bytes12 _arbitrationId, address _assetAddress, Arbitration.Reasons _reason) public {\n\n        Asset asset = Asset(_assetAddress);\n        uint stakeAmount = asset.initialStakeAmount(); //get initital stake amount\n        \n        address reporter = msg.sender;\n\n        Arbitration arbitration = new Arbitration(_arbitrationId, _assetAddress, _reason, reporter, stakeAmount);\n        arbitrationData.save(_arbitrationId, address(arbitration));\n\n        //change status so no one can purchase during arbitration\n        splytManager.setAssetStatus(_assetAddress, Asset.Statuses.IN_ARBITRATION);\n        //set stake for reporter\n        splytManager.internalContribute(reporter, asset, stakeAmount);\n        \n        emit Success(3, address(arbitration));\n      \n    }\n\n    //TODO: write test to see if tokens gets distributed correctly to winner and arbitrator\n    function setWinner(bytes12 _arbitrationId, Arbitration.Winners _winner) public onlyArbitrator(_arbitrationId) {\n        \n        address arbitrationAddress = arbitrationData.addressByArbitrationId(_arbitrationId);\n        Arbitration arbitration = Arbitration(arbitrationAddress);\n        address assetAddress = arbitration.asset();\n        \n        arbitration.setWinner(_winner);\n        //TODO: rule:\n        //winner gets 75% of the stakes\n        //arbitrator gets the 25% stake \n        uint winnerStake = (arbitration.getTotalStake() * 75) / 100;\n        uint arbitratorReward = (arbitration.getTotalStake() * 25) / 100;\n\n        if (_winner == Arbitration.Winners.REPORTER) {\n            splytManager.setAssetStatus(assetAddress, Asset.Statuses.CLOSED);\n            splytManager.internalContribute(assetAddress, arbitration.reporter(), winnerStake);\n        }\n        if (_winner == Arbitration.Winners.SELLER) {\n            splytManager.setAssetStatus(assetAddress, Asset.Statuses.ACTIVE);\n            splytManager.internalContribute(assetAddress, Asset(assetAddress).seller(), winnerStake);\n        }\n        splytManager.internalContribute(assetAddress, arbitration.arbitrator(), arbitratorReward); \n    }    \n\n    function getWinner(bytes12 _arbitrationId) public view returns (Arbitration.Winners){\n        address arbitrationAddress = arbitrationData.addressByArbitrationId(_arbitrationId);           \n        return Arbitration(arbitrationAddress).winner();\n    }    \n\n\n    //@dev set arbitrator so that person resolves this arbitration\n    function setArbitrator(bytes12 _arbitrationId, address _arbitrator) public onlyOwner {\n        address arbitrationAddress = arbitrationData.addressByArbitrationId(_arbitrationId);   \n        Arbitration(arbitrationAddress).setArbitrator(_arbitrator);\n    } \n\n    //@dev get arbitrator\n    function getArbitrator(bytes12 _arbitrationId) public view returns (address) {\n        address arbitrationAddress = arbitrationData.addressByArbitrationId(_arbitrationId);   \n       return Arbitration(arbitrationAddress).arbitrator();\n    } \n\n    //@dev get arbitration status\n    function getStatus(bytes12 _arbitrationId) public view returns (Arbitration.Statuses) {\n        address arbitrationAddress = arbitrationData.addressByArbitrationId(_arbitrationId);  \n       return Arbitration(arbitrationAddress).status();\n    } \n\n\n    //@dev get number of arbitrations\n    function getArbitrationsLength() public view returns (uint) {\n       return arbitrationData.index();\n    }\n\n    //@dev  return address or arbitration\n    function getAddressById(bytes12 _arbitrationId) public view returns (address) {\n       return arbitrationData.addressByArbitrationId(_arbitrationId);\n    }\n\n    function getDataContractAddress() public view returns (address) {\n       return address(arbitrationData);\n    }\n\n    //@dev change data contract\n    function setDataContract(address _arbitrationData) public onlyOwner {\n       arbitrationData = ArbitrationData(_arbitrationData);\n    }\n    \n    //@dev set splytmanager\n    function setSplytManager(address _address) public onlyOwner {\n       splytManager = SplytManager(_address);\n    }\n\n    function getAddressByArbitrationId(bytes12 _arbitrationId) public view returns (address) {\n      return arbitrationData.addressByArbitrationId(_arbitrationId);\n    }\n    \n    function getArbitrationIdByAddress(address _arbitrationAddress) public view returns (bytes12) {\n      return arbitrationData.arbitrationIdByAddress(_arbitrationAddress);\n    }   \n\n    function getArbitrationByIndex(uint _index) public view returns (address) {\n      return arbitrationData.addressByIndex(_index);\n    }   \n\n\n    //@dev seller disputes reporter by staking initial stake amount\n    //@dev initial stake is asset contract\n    function set2xStakeBySeller(bytes12 _arbitrationId) public onlySeller(_arbitrationId) {\n        address arbitrationAddress = arbitrationData.addressByArbitrationId(_arbitrationId);           \n        Arbitration arbitration = Arbitration(arbitrationAddress);\n        arbitration.set2xStakeBySeller();\n\n        splytManager.internalContribute(arbitration.getSeller(), arbitration.asset(), arbitration.baseStake()); \n        // emit Success(4, address(arbitration)); \n    }      \n\n    //@dev report puts in 2x stake\n    function set2xStakeByReporter(bytes12 _arbitrationId) public onlyReporter(_arbitrationId) {\n        address arbitrationAddress = arbitrationData.addressByArbitrationId(_arbitrationId);   \n        Arbitration arbitration = Arbitration(arbitrationAddress);\n        arbitration.set2xStakeByReporter();\n        splytManager.internalContribute(arbitration.reporter(), arbitration.asset(), arbitration.baseStake()); \n    }\n\n    //@dev checks if address is authorized write to the data contracts\n    function isManager(address _address) public view returns (bool) {\n        return splytManager.isManager(_address);\n    }\n   \n       \n   //@dev new manager contract that's going to be replacing this\n   //Old manager call this function and proposes the new address\n    function transferOwnership(address _newAddress) public onlyOwner {\n        arbitrationData.transferOwnership(_newAddress);\n    }\n\n    //@dev if new data contract is deployed, the creator proposes manager adress then the manager needs to accept\n    function acceptOwnership() public onlyOwner {\n        arbitrationData.acceptOwnership();\n    }\n\n}",
  "sourcePath": "/Users/scott/git/splytprotocol/contracts/ArbitrationManager.sol",
  "compiler": {
    "name": "solc",
    "version": "0.4.24+commit.e67f0147.Emscripten.clang"
  },
  "schemaVersion": "2.0.1",
  "updatedAt": "2018-09-05T21:11:46.696Z"
}