{
  "contractName": "ArbitrationManager",
  "abi": [
    {
      "constant": true,
      "inputs": [],
      "name": "splytManager",
      "outputs": [
        {
          "name": "",
          "type": "address"
        }
      ],
      "payable": false,
      "stateMutability": "view",
      "type": "function"
    },
    {
      "constant": true,
      "inputs": [],
      "name": "owner",
      "outputs": [
        {
          "name": "",
          "type": "address"
        }
      ],
      "payable": false,
      "stateMutability": "view",
      "type": "function"
    },
    {
      "constant": true,
      "inputs": [],
      "name": "arbitrationData",
      "outputs": [
        {
          "name": "",
          "type": "address"
        }
      ],
      "payable": false,
      "stateMutability": "view",
      "type": "function"
    },
    {
      "constant": true,
      "inputs": [],
      "name": "pendingOwner",
      "outputs": [
        {
          "name": "",
          "type": "address"
        }
      ],
      "payable": false,
      "stateMutability": "view",
      "type": "function"
    },
    {
      "inputs": [
        {
          "name": "_splytManager",
          "type": "address"
        }
      ],
      "payable": false,
      "stateMutability": "nonpayable",
      "type": "constructor"
    },
    {
      "constant": false,
      "inputs": [
        {
          "name": "_assetAddress",
          "type": "address"
        },
        {
          "name": "_arbitrationId",
          "type": "bytes12"
        },
        {
          "name": "_reason",
          "type": "uint8"
        }
      ],
      "name": "createArbitration",
      "outputs": [],
      "payable": false,
      "stateMutability": "nonpayable",
      "type": "function"
    },
    {
      "constant": false,
      "inputs": [
        {
          "name": "_arbitrationAddress",
          "type": "address"
        },
        {
          "name": "_winner",
          "type": "uint8"
        }
      ],
      "name": "setWinner",
      "outputs": [],
      "payable": false,
      "stateMutability": "nonpayable",
      "type": "function"
    },
    {
      "constant": true,
      "inputs": [
        {
          "name": "_arbitrationAddress",
          "type": "address"
        }
      ],
      "name": "getWinner",
      "outputs": [
        {
          "name": "",
          "type": "uint8"
        }
      ],
      "payable": false,
      "stateMutability": "view",
      "type": "function"
    },
    {
      "constant": false,
      "inputs": [
        {
          "name": "_arbitrationAddress",
          "type": "address"
        },
        {
          "name": "_arbitrator",
          "type": "address"
        }
      ],
      "name": "setArbitrator",
      "outputs": [],
      "payable": false,
      "stateMutability": "nonpayable",
      "type": "function"
    },
    {
      "constant": true,
      "inputs": [
        {
          "name": "_arbitrationAddress",
          "type": "address"
        }
      ],
      "name": "getArbitrator",
      "outputs": [
        {
          "name": "",
          "type": "address"
        }
      ],
      "payable": false,
      "stateMutability": "view",
      "type": "function"
    },
    {
      "constant": true,
      "inputs": [
        {
          "name": "_arbitrationAddress",
          "type": "address"
        }
      ],
      "name": "getStatus",
      "outputs": [
        {
          "name": "",
          "type": "uint8"
        }
      ],
      "payable": false,
      "stateMutability": "view",
      "type": "function"
    },
    {
      "constant": true,
      "inputs": [],
      "name": "getArbitrationsLength",
      "outputs": [
        {
          "name": "",
          "type": "uint256"
        }
      ],
      "payable": false,
      "stateMutability": "view",
      "type": "function"
    },
    {
      "constant": true,
      "inputs": [
        {
          "name": "_arbitrationId",
          "type": "bytes12"
        }
      ],
      "name": "getAddressById",
      "outputs": [
        {
          "name": "",
          "type": "address"
        }
      ],
      "payable": false,
      "stateMutability": "view",
      "type": "function"
    },
    {
      "constant": true,
      "inputs": [],
      "name": "getDataContractAddress",
      "outputs": [
        {
          "name": "",
          "type": "address"
        }
      ],
      "payable": false,
      "stateMutability": "view",
      "type": "function"
    },
    {
      "constant": false,
      "inputs": [
        {
          "name": "_arbitrationData",
          "type": "address"
        }
      ],
      "name": "setDataContract",
      "outputs": [],
      "payable": false,
      "stateMutability": "nonpayable",
      "type": "function"
    },
    {
      "constant": false,
      "inputs": [
        {
          "name": "_address",
          "type": "address"
        }
      ],
      "name": "setSplytManager",
      "outputs": [],
      "payable": false,
      "stateMutability": "nonpayable",
      "type": "function"
    },
    {
      "constant": true,
      "inputs": [
        {
          "name": "_arbitrationId",
          "type": "bytes12"
        }
      ],
      "name": "getAddressByArbitrationId",
      "outputs": [
        {
          "name": "",
          "type": "address"
        }
      ],
      "payable": false,
      "stateMutability": "view",
      "type": "function"
    },
    {
      "constant": true,
      "inputs": [
        {
          "name": "_arbitrationAddress",
          "type": "address"
        }
      ],
      "name": "getArbitrationIdByAddress",
      "outputs": [
        {
          "name": "",
          "type": "bytes12"
        }
      ],
      "payable": false,
      "stateMutability": "view",
      "type": "function"
    },
    {
      "constant": false,
      "inputs": [
        {
          "name": "_arbitrationAddress",
          "type": "address"
        }
      ],
      "name": "set2xStakeBySeller",
      "outputs": [],
      "payable": false,
      "stateMutability": "nonpayable",
      "type": "function"
    },
    {
      "constant": false,
      "inputs": [
        {
          "name": "_arbitrationAddress",
          "type": "address"
        }
      ],
      "name": "set2xStakeByReporter",
      "outputs": [],
      "payable": false,
      "stateMutability": "nonpayable",
      "type": "function"
    },
    {
      "constant": true,
      "inputs": [
        {
          "name": "_address",
          "type": "address"
        }
      ],
      "name": "isManager",
      "outputs": [
        {
          "name": "",
          "type": "bool"
        }
      ],
      "payable": false,
      "stateMutability": "view",
      "type": "function"
    },
    {
      "constant": false,
      "inputs": [
        {
          "name": "_newAddress",
          "type": "address"
        }
      ],
      "name": "transferOwnership",
      "outputs": [],
      "payable": false,
      "stateMutability": "nonpayable",
      "type": "function"
    },
    {
      "constant": false,
      "inputs": [],
      "name": "acceptOwnership",
      "outputs": [],
      "payable": false,
      "stateMutability": "nonpayable",
      "type": "function"
    }
  ],
  "bytecode": "0x608060405234801561001057600080fd5b5060405160208061277b83398101604052516000805433600160a060020a03199182161790915560028054909116600160a060020a038316179055610053610096565b604051809103906000f08015801561006f573d6000803e3d6000fd5b5060038054600160a060020a031916600160a060020a0392909216919091179055506100a6565b6040516104e08061229b83390190565b6121e6806100b56000396000f30060806040526004361061010e5763ffffffff60e060020a60003504166303959bb7811461011357806326fa90be1461013657806330ccebb514610174578063388b0c02146101b957806358c02c17146101f657806361e91ea1146102185780636b0d4e571461022d5780636be1749f1461024e57806379ba5097146102755780637b36563e1461028a57806382f0d53d1461029f57806387d55642146102c65780638da5cb5b146102e757806390c261fa146102fc57806392497afc146101f6578063abde85611461031d578063ac02fac014610351578063b90c899d14610366578063e30c397814610397578063e6b7d3df146103ac578063f2fde38b146103d3578063f3ae2415146103f4575b600080fd5b34801561011f57600080fd5b50610134600160a060020a0360043516610429565b005b34801561014257600080fd5b50610157600160a060020a0360043516610462565b60408051600160a060020a03199092168252519081900360200190f35b34801561018057600080fd5b50610195600160a060020a03600435166104ff565b604051808260048111156101a557fe5b60ff16815260200191505060405180910390f35b3480156101c557600080fd5b506101da600160a060020a036004351661053f565b60408051600160a060020a039092168252519081900360200190f35b34801561020257600080fd5b506101da600160a060020a03196004351661057f565b34801561022457600080fd5b506101da6105ee565b34801561023957600080fd5b50610134600160a060020a03600435166105fd565b34801561025a57600080fd5b50610134600160a060020a0360043581169060243516610986565b34801561028157600080fd5b50610134610a0c565b34801561029657600080fd5b506101da610a90565b3480156102ab57600080fd5b506102b4610a9f565b60408051918252519081900360200190f35b3480156102d257600080fd5b50610134600160a060020a0360043516610b2f565b3480156102f357600080fd5b506101da610b68565b34801561030857600080fd5b50610134600160a060020a0360043516610b77565b34801561032957600080fd5b50610134600160a060020a0360043516600160a060020a03196024351660ff60443516610e7b565b34801561035d57600080fd5b506101da61113e565b34801561037257600080fd5b50610387600160a060020a036004351661114d565b604051808260028111156101a557fe5b3480156103a357600080fd5b506101da61118d565b3480156103b857600080fd5b50610134600160a060020a036004351660ff6024351661119c565b3480156103df57600080fd5b50610134600160a060020a0360043516611850565b34801561040057600080fd5b50610415600160a060020a03600435166118e2565b604080519115158252519081900360200190f35b600054600160a060020a0316331461044057600080fd5b60038054600160a060020a031916600160a060020a0392909216919091179055565b600354604080517f26fa90be000000000000000000000000000000000000000000000000000000008152600160a060020a038481166004830152915160009392909216916326fa90be9160248082019260209290919082900301818787803b1580156104cd57600080fd5b505af11580156104e1573d6000803e3d6000fd5b505050506040513d60208110156104f757600080fd5b505192915050565b600081600160a060020a031663200d2ed26040518163ffffffff1660e060020a028152600401602060405180830381600087803b1580156104cd57600080fd5b600081600160a060020a0316636cc6cde16040518163ffffffff1660e060020a028152600401602060405180830381600087803b1580156104cd57600080fd5b600354604080517f92497afc000000000000000000000000000000000000000000000000000000008152600160a060020a0319841660048201529051600092600160a060020a0316916392497afc91602480830192602092919082900301818787803b1580156104cd57600080fd5b600354600160a060020a031690565b600081600081600160a060020a03166338d52e0f6040518163ffffffff1660e060020a028152600401602060405180830381600087803b15801561064057600080fd5b505af1158015610654573d6000803e3d6000fd5b505050506040513d602081101561066a57600080fd5b5051604080517f08551a5300000000000000000000000000000000000000000000000000000000815290519192503391600160a060020a038416916308551a539160048083019260209291908290030181600087803b1580156106cc57600080fd5b505af11580156106e0573d6000803e3d6000fd5b505050506040513d60208110156106f657600080fd5b5051600160a060020a03161461070b57600080fd5b83925082600160a060020a031663d83f64d76040518163ffffffff1660e060020a028152600401600060405180830381600087803b15801561074c57600080fd5b505af1158015610760573d6000803e3d6000fd5b50505050600260009054906101000a9004600160a060020a0316600160a060020a0316637f6cdfa684600160a060020a031663dbd0e1b66040518163ffffffff1660e060020a028152600401602060405180830381600087803b1580156107c657600080fd5b505af11580156107da573d6000803e3d6000fd5b505050506040513d60208110156107f057600080fd5b5051604080517f38d52e0f0000000000000000000000000000000000000000000000000000000081529051600160a060020a038816916338d52e0f9160048083019260209291908290030181600087803b15801561084d57600080fd5b505af1158015610861573d6000803e3d6000fd5b505050506040513d602081101561087757600080fd5b5051604080517f76e7e23b0000000000000000000000000000000000000000000000000000000081529051600160a060020a038916916376e7e23b9160048083019260209291908290030181600087803b1580156108d457600080fd5b505af11580156108e8573d6000803e3d6000fd5b505050506040513d60208110156108fe57600080fd5b50516040805160e060020a63ffffffff8716028152600160a060020a0394851660048201529290931660248301526044820152905160648083019260209291908290030181600087803b15801561095457600080fd5b505af1158015610968573d6000803e3d6000fd5b505050506040513d602081101561097e57600080fd5b505050505050565b600054600160a060020a0316331461099d57600080fd5b81600160a060020a031663b0eefabe826040518263ffffffff1660e060020a0281526004018082600160a060020a0316600160a060020a03168152602001915050600060405180830381600087803b1580156109f857600080fd5b505af115801561097e573d6000803e3d6000fd5b600054600160a060020a03163314610a2357600080fd5b600360009054906101000a9004600160a060020a0316600160a060020a03166379ba50976040518163ffffffff1660e060020a028152600401600060405180830381600087803b158015610a7657600080fd5b505af1158015610a8a573d6000803e3d6000fd5b50505050565b600254600160a060020a031681565b600354604080517f99dda7ca0000000000000000000000000000000000000000000000000000000081529051600092600160a060020a0316916399dda7ca91600480830192602092919082900301818787803b158015610afe57600080fd5b505af1158015610b12573d6000803e3d6000fd5b505050506040513d6020811015610b2857600080fd5b5051905090565b600054600160a060020a03163314610b4657600080fd5b60028054600160a060020a031916600160a060020a0392909216919091179055565b600054600160a060020a031681565b60008133600160a060020a031681600160a060020a031663010ec4416040518163ffffffff1660e060020a028152600401602060405180830381600087803b158015610bc257600080fd5b505af1158015610bd6573d6000803e3d6000fd5b505050506040513d6020811015610bec57600080fd5b5051600160a060020a031614610c0157600080fd5b82915081600160a060020a03166315e35c056040518163ffffffff1660e060020a028152600401600060405180830381600087803b158015610c4257600080fd5b505af1158015610c56573d6000803e3d6000fd5b50505050600260009054906101000a9004600160a060020a0316600160a060020a0316637f6cdfa683600160a060020a031663010ec4416040518163ffffffff1660e060020a028152600401602060405180830381600087803b158015610cbc57600080fd5b505af1158015610cd0573d6000803e3d6000fd5b505050506040513d6020811015610ce657600080fd5b5051604080517f38d52e0f0000000000000000000000000000000000000000000000000000000081529051600160a060020a038716916338d52e0f9160048083019260209291908290030181600087803b158015610d4357600080fd5b505af1158015610d57573d6000803e3d6000fd5b505050506040513d6020811015610d6d57600080fd5b5051604080517f76e7e23b0000000000000000000000000000000000000000000000000000000081529051600160a060020a038816916376e7e23b9160048083019260209291908290030181600087803b158015610dca57600080fd5b505af1158015610dde573d6000803e3d6000fd5b505050506040513d6020811015610df457600080fd5b50516040805160e060020a63ffffffff8716028152600160a060020a0394851660048201529290931660248301526044820152905160648083019260209291908290030181600087803b158015610e4a57600080fd5b505af1158015610e5e573d6000803e3d6000fd5b505050506040513d6020811015610e7457600080fd5b5050505050565b60008060008086935083600160a060020a0316635433e2f56040518163ffffffff1660e060020a028152600401602060405180830381600087803b158015610ec257600080fd5b505af1158015610ed6573d6000803e3d6000fd5b505050506040513d6020811015610eec57600080fd5b505192503391508686868486610f0061194d565b600160a060020a0386168152600160a060020a03198516602082015260408101846003811115610f2c57fe5b60ff16815260200183600160a060020a0316600160a060020a0316815260200182815260200195505050505050604051809103906000f080158015610f75573d6000803e3d6000fd5b50600354604080517f5ea58c9c000000000000000000000000000000000000000000000000000000008152600160a060020a03198a166004820152600160a060020a0380851660248301529151939450911691635ea58c9c9160448082019260009290919082900301818387803b158015610fef57600080fd5b505af1158015611003573d6000803e3d6000fd5b5050600280546040517f14fc5a5a000000000000000000000000000000000000000000000000000000008152600160a060020a038c811660048301908152921694506314fc5a5a93508b9291906024018260ff16815260200192505050600060405180830381600087803b15801561107a57600080fd5b505af115801561108e573d6000803e3d6000fd5b5050600254604080517f7f6cdfa6000000000000000000000000000000000000000000000000000000008152600160a060020a0387811660048301528981166024830152604482018990529151919092169350637f6cdfa6925060648083019260209291908290030181600087803b15801561110957600080fd5b505af115801561111d573d6000803e3d6000fd5b505050506040513d602081101561113357600080fd5b505050505050505050565b600354600160a060020a031681565b600081600160a060020a031663dfbf53ae6040518163ffffffff1660e060020a028152600401602060405180830381600087803b1580156104cd57600080fd5b600154600160a060020a031681565b6000806000808533600160a060020a031681600160a060020a0316636cc6cde16040518163ffffffff1660e060020a028152600401602060405180830381600087803b1580156111eb57600080fd5b505af11580156111ff573d6000803e3d6000fd5b505050506040513d602081101561121557600080fd5b5051600160a060020a03161461122a57600080fd5b86945084600160a060020a03166338d52e0f6040518163ffffffff1660e060020a028152600401602060405180830381600087803b15801561126b57600080fd5b505af115801561127f573d6000803e3d6000fd5b505050506040513d602081101561129557600080fd5b50516040517ffda31178000000000000000000000000000000000000000000000000000000008152909450600160a060020a0386169063fda31178908890600401808260028111156112e357fe5b60ff168152602001915050600060405180830381600087803b15801561130857600080fd5b505af115801561131c573d6000803e3d6000fd5b50505050606485600160a060020a0316637bc742256040518163ffffffff1660e060020a028152600401602060405180830381600087803b15801561136057600080fd5b505af1158015611374573d6000803e3d6000fd5b505050506040513d602081101561138a57600080fd5b5051604b0281151561139857fe5b049250606485600160a060020a0316637bc742256040518163ffffffff1660e060020a028152600401602060405180830381600087803b1580156113db57600080fd5b505af11580156113ef573d6000803e3d6000fd5b505050506040513d602081101561140557600080fd5b505160190281151561141357fe5b049150600186600281111561142457fe5b14156115c157600254604080517f14fc5a5a000000000000000000000000000000000000000000000000000000008152600160a060020a03878116600483015260056024830152915191909216916314fc5a5a91604480830192600092919082900301818387803b15801561149857600080fd5b505af11580156114ac573d6000803e3d6000fd5b50505050600260009054906101000a9004600160a060020a0316600160a060020a0316637f6cdfa68587600160a060020a031663010ec4416040518163ffffffff1660e060020a028152600401602060405180830381600087803b15801561151357600080fd5b505af1158015611527573d6000803e3d6000fd5b505050506040513d602081101561153d57600080fd5b50516040805160e060020a63ffffffff8616028152600160a060020a039384166004820152929091166024830152604482018790525160648083019260209291908290030181600087803b15801561159457600080fd5b505af11580156115a8573d6000803e3d6000fd5b505050506040513d60208110156115be57600080fd5b50505b60028660028111156115cf57fe5b141561176c57600254604080517f14fc5a5a000000000000000000000000000000000000000000000000000000008152600160a060020a03878116600483015260016024830152915191909216916314fc5a5a91604480830192600092919082900301818387803b15801561164357600080fd5b505af1158015611657573d6000803e3d6000fd5b50505050600260009054906101000a9004600160a060020a0316600160a060020a0316637f6cdfa68586600160a060020a03166308551a536040518163ffffffff1660e060020a028152600401602060405180830381600087803b1580156116be57600080fd5b505af11580156116d2573d6000803e3d6000fd5b505050506040513d60208110156116e857600080fd5b50516040805160e060020a63ffffffff8616028152600160a060020a039384166004820152929091166024830152604482018790525160648083019260209291908290030181600087803b15801561173f57600080fd5b505af1158015611753573d6000803e3d6000fd5b505050506040513d602081101561176957600080fd5b50505b600260009054906101000a9004600160a060020a0316600160a060020a0316637f6cdfa68587600160a060020a0316636cc6cde16040518163ffffffff1660e060020a028152600401602060405180830381600087803b1580156117cf57600080fd5b505af11580156117e3573d6000803e3d6000fd5b505050506040513d60208110156117f957600080fd5b50516040805160e060020a63ffffffff8616028152600160a060020a039384166004820152929091166024830152604482018690525160648083019260209291908290030181600087803b15801561110957600080fd5b600054600160a060020a0316331461186757600080fd5b600354604080517ff2fde38b000000000000000000000000000000000000000000000000000000008152600160a060020a0384811660048301529151919092169163f2fde38b91602480830192600092919082900301818387803b1580156118ce57600080fd5b505af1158015610e74573d6000803e3d6000fd5b600254604080517ff3ae2415000000000000000000000000000000000000000000000000000000008152600160a060020a0384811660048301529151600093929092169163f3ae24159160248082019260209290919082900301818787803b1580156104cd57600080fd5b60405161085d8061195e833901905600608060405234801561001057600080fd5b5060405160a08061085d83398101604090815281516020830151918301516060840151608090940151600080546001606060020a031916740100000000000000000000000000000000000000008604179055600180549395929384919060ff19168183600381111561007e57fe5b0217905550600080546001606060020a03166c01000000000000000000000000600160a060020a0394851602178155600382905560028290556005805496909316620100000261010060b060020a0319909616959095179091556004805490910190555061076a918291506100f390396000f3006080604052600436106100fb5763ffffffff7c0100000000000000000000000000000000000000000000000000000000600035041663010ec44181146101005780630c973ee7146101315780630fceb7461461015857806315e35c051461016d578063163abfb714610184578063200d2ed21461019957806338d52e0f146101d25780636cc6cde1146101e757806376e7e23b146101fc5780637bc74225146102115780638e7ea5b214610226578063b0eefabe1461024b578063cf4050b51461026c578063d83f64d7146102ab578063dbd0e1b6146102c0578063dfbf53ae146102d5578063e134e33d146102ea578063fda311781461030f575b600080fd5b34801561010c57600080fd5b5061011561032a565b60408051600160a060020a039092168252519081900360200190f35b34801561013d57600080fd5b50610146610349565b60408051918252519081900360200190f35b34801561016457600080fd5b5061011561034f565b34801561017957600080fd5b5061018261035e565b005b34801561019057600080fd5b506101466103fa565b3480156101a557600080fd5b506101ae610400565b604051808260048111156101be57fe5b60ff16815260200191505060405180910390f35b3480156101de57600080fd5b5061011561040e565b3480156101f357600080fd5b50610115610423565b34801561020857600080fd5b50610146610432565b34801561021d57600080fd5b50610146610438565b34801561023257600080fd5b5061023b610442565b604051808260028111156101be57fe5b34801561025757600080fd5b50610182600160a060020a036004351661044b565b34801561027857600080fd5b506102816104f7565b6040805173ffffffffffffffffffffffffffffffffffffffff199092168252519081900360200190f35b3480156102b757600080fd5b50610182610514565b3480156102cc57600080fd5b506101156105b0565b3480156102e157600080fd5b5061023b61064f565b3480156102f657600080fd5b506102ff610658565b604051808260038111156101be57fe5b34801561031b57600080fd5b5061018260ff60043516610661565b6000546c010000000000000000000000009004600160a060020a031681565b60045481565b600654600160a060020a031690565b6040805160e060020a63f3ae24150281523360048201819052915163f3ae2415916024808201926020929091908290030181600087803b1580156103a157600080fd5b505af11580156103b5573d6000803e3d6000fd5b505050506040513d60208110156103cb57600080fd5b505115156001146103db57600080fd5b600254600380546005805461ff00191661020017905582019091019055565b60035481565b600554610100900460ff1681565b600554620100009004600160a060020a031681565b600654600160a060020a031681565b60025481565b6003546004540190565b60055460ff1690565b6040805160e060020a63f3ae24150281523360048201819052915163f3ae2415916024808201926020929091908290030181600087803b15801561048e57600080fd5b505af11580156104a2573d6000803e3d6000fd5b505050506040513d60208110156104b857600080fd5b505115156001146104c857600080fd5b6006805473ffffffffffffffffffffffffffffffffffffffff1916600160a060020a0392909216919091179055565b600054740100000000000000000000000000000000000000000281565b6040805160e060020a63f3ae24150281523360048201819052915163f3ae2415916024808201926020929091908290030181600087803b15801561055757600080fd5b505af115801561056b573d6000803e3d6000fd5b505050506040513d602081101561058157600080fd5b5051151560011461059157600080fd5b600254600480546005805461ff00191661010017905582019091019055565b6000600560029054906101000a9004600160a060020a0316600160a060020a03166308551a536040518163ffffffff167c0100000000000000000000000000000000000000000000000000000000028152600401602060405180830381600087803b15801561061e57600080fd5b505af1158015610632573d6000803e3d6000fd5b505050506040513d602081101561064857600080fd5b5051905090565b60055460ff1681565b60015460ff1681565b6040805160e060020a63f3ae24150281523360048201819052915163f3ae2415916024808201926020929091908290030181600087803b1580156106a457600080fd5b505af11580156106b8573d6000803e3d6000fd5b505050506040513d60208110156106ce57600080fd5b505115156001146106de57600080fd5b600554600290610100900460ff1660048111156106f757fe5b81600481111561070357fe5b1461070d57600080fd5b6005805483919060ff1916600183600281111561072657fe5b0217905550506005805461ff001916610300179055505600a165627a7a72305820a3bfe7c773366334c75a789c7643d4f07541eeffe8b0f8844ec38ed626f3a0020029a165627a7a72305820bfa086cb3708022b1387b7af1f63dcbde56caf307b35ab4de5704905323ef58b0029608060405260008054600160a060020a031916331790556104bb806100256000396000f3006080604052600436106100c45763ffffffff7c010000000000000000000000000000000000000000000000000000000060003504166326fa90be81146100c95780635ea58c9c1461010757806379ba5097146101375780638da5cb5b1461014c57806392497afc1461017d57806399dda7ca1461019f578063ce10cf88146101c6578063cf4050b5146101de578063d363f13a146101f3578063d8ab920814610215578063e30c39781461022d578063f2fde38b14610242578063f3c5071114610263575b600080fd5b3480156100d557600080fd5b506100ea600160a060020a0360043516610284565b60408051600160a060020a03199092168252519081900360200190f35b34801561011357600080fd5b50610135600160a060020a031960043516602435600160a060020a03166102b6565b005b34801561014357600080fd5b50610135610352565b34801561015857600080fd5b5061016161038d565b60408051600160a060020a039092168252519081900360200190f35b34801561018957600080fd5b50610161600160a060020a03196004351661039c565b3480156101ab57600080fd5b506101b46103c1565b60408051918252519081900360200190f35b3480156101d257600080fd5b506101616004356103c7565b3480156101ea57600080fd5b506101b46103e2565b3480156101ff57600080fd5b50610161600160a060020a0319600435166103e8565b34801561022157600080fd5b50610161600435610403565b34801561023957600080fd5b5061016161041e565b34801561024e57600080fd5b50610135600160a060020a036004351661042d565b34801561026f57600080fd5b506100ea600160a060020a0360043516610466565b600160a060020a0316600090815260026020526040902054740100000000000000000000000000000000000000000290565b600054600160a060020a031633146102cd57600080fd5b600160a060020a0316600081815260026020908152604080832080546bffffffffffffffffffffffff1916740100000000000000000000000000000000000000008704179055600160a060020a031994851683526003825280832080548616851790556006805484526004909252909120805490931690911790915580546001019055565b600154600160a060020a0316331461036957600080fd5b60015460008054600160a060020a031916600160a060020a03909216919091179055565b600054600160a060020a031681565b600160a060020a031916600090815260036020526040902054600160a060020a031690565b60065481565b600090815260046020526040902054600160a060020a031690565b60055481565b600360205260009081526040902054600160a060020a031681565b600460205260009081526040902054600160a060020a031681565b600154600160a060020a031681565b600054600160a060020a0316331461044457600080fd5b60018054600160a060020a031916600160a060020a0392909216919091179055565b6002602052600090815260409020547401000000000000000000000000000000000000000002815600a165627a7a723058204960f2ff4f112ffc8173903d66d899bf6b8e6b638bf7354c50fbd7304c71d2470029",
  "source": "pragma solidity ^0.4.24;\n\nimport \"./Owned.sol\";\nimport \"./Arbitration.sol\";\nimport \"./ArbitrationData.sol\";\nimport \"./Asset.sol\";\nimport \"./SplytManager.sol\";\n\ncontract ArbitrationManager is Owned {\n\n    SplytManager public splytManager;\n    ArbitrationData public arbitrationData;\n    \n    //middlware only arbitrator \n    modifier onlyArbitrator(address _arbitrationAddress) {\n        require(Arbitration(_arbitrationAddress).arbitrator() == msg.sender);\n        _;\n    }\n\n    modifier onlyReporter(address _arbitrationAddress) {\n        require(Arbitration(_arbitrationAddress).reporter() == msg.sender);        \n        _;\n    }\n        \n    modifier onlySeller(address _arbitrationAddress) {\n        address assetAddress = Arbitration(_arbitrationAddress).asset();\n        require(Asset(assetAddress).seller() == msg.sender);        \n        _;\n    }\n        \n\n    constructor(address _splytManager) public {\n        splytManager = SplytManager(_splytManager);\n        arbitrationData = new ArbitrationData();\n    }\n\n    function createArbitration(address _assetAddress, bytes12 _arbitrationId, Arbitration.Reasons _reason) public {\n\n        Asset asset = Asset(_assetAddress);\n        uint stakeAmount = asset.initialStakeAmount(); //get initital stake amount\n        \n        address reporter = msg.sender;\n\n        Arbitration arbitration = new Arbitration(_assetAddress, _arbitrationId, _reason, reporter, stakeAmount);\n        arbitrationData.save(_arbitrationId, address(arbitration));\n\n        //change status so no one can purchase during arbitration\n        splytManager.setAssetStatus(_assetAddress, Asset.Statuses.IN_ARBITRATION);\n        //set stake for reporter\n        splytManager.internalContribute(reporter, asset, stakeAmount);\n      \n    }\n\n    //TODO: write test to see if tokens gets distributed correctly to winner and arbitrator\n    function setWinner(address _arbitrationAddress, Arbitration.Winners _winner) public onlyArbitrator(_arbitrationAddress) {\n        \n        Arbitration arbitration = Arbitration(_arbitrationAddress);\n        address assetAddress = arbitration.asset();\n        \n        arbitration.setWinner(_winner);\n        //TODO: rule:\n        //winner gets 75% of the stakes\n        //arbitrator gets the 25% stake \n        uint winnerStake = (arbitration.getTotalStake() * 75) / 100;\n        uint arbitratorReward = (arbitration.getTotalStake() * 25) / 100;\n\n        if (_winner == Arbitration.Winners.REPORTER) {\n            splytManager.setAssetStatus(assetAddress, Asset.Statuses.CLOSED);\n            splytManager.internalContribute(assetAddress, arbitration.reporter(), winnerStake);\n        }\n        if (_winner == Arbitration.Winners.SELLER) {\n            splytManager.setAssetStatus(assetAddress, Asset.Statuses.ACTIVE);\n            splytManager.internalContribute(assetAddress, Asset(assetAddress).seller(), winnerStake);\n        }\n        splytManager.internalContribute(assetAddress, arbitration.arbitrator(), arbitratorReward); \n    }    \n\n    function getWinner(address _arbitrationAddress) public view returns (Arbitration.Winners){\n        \n        return Arbitration(_arbitrationAddress).winner();\n    }    \n\n\n    //@desc set arbitrator so that person resolves this arbitration\n    function setArbitrator(address _arbitrationAddress, address _arbitrator) public onlyOwner {\n        Arbitration(_arbitrationAddress).setArbitrator(_arbitrator);\n    } \n\n    //@desc get arbitrator\n    function getArbitrator(address _arbitrationAddress) public view returns (address) {\n       return Arbitration(_arbitrationAddress).arbitrator();\n    } \n\n    //@desc get arbitration status\n    function getStatus(address _arbitrationAddress) public view returns (Arbitration.Statuses) {\n       return Arbitration(_arbitrationAddress).status();\n    } \n\n\n    //@desc get number of arbitrations\n    function getArbitrationsLength() public view returns (uint) {\n       return arbitrationData.arbitrationIndex();\n    }\n\n    //@desc  return address or arbitration\n    function getAddressById(bytes12 _arbitrationId) public view returns (address) {\n       return arbitrationData.getAddressByArbitrationId(_arbitrationId);\n    }\n\n    function getDataContractAddress() public view returns (address) {\n       return address(arbitrationData);\n    }\n\n    //@desc change data contract\n    function setDataContract(address _arbitrationData) public onlyOwner {\n       arbitrationData = ArbitrationData(_arbitrationData);\n    }\n    \n    //@desc set splytmanager\n    function setSplytManager(address _address) public onlyOwner {\n       splytManager = SplytManager(_address);\n    }\n\n    function getAddressByArbitrationId(bytes12 _arbitrationId) public view returns (address) {\n      return arbitrationData.getAddressByArbitrationId(_arbitrationId);\n    }\n    \n    function getArbitrationIdByAddress(address _arbitrationAddress) public view returns (bytes12) {\n      return arbitrationData.getArbitrationIdByAddress(_arbitrationAddress);\n    }   \n\n    //@desc seller disputes reporter by staking initial stake amount\n    //@desc initial stake is asset contract\n    function set2xStakeBySeller(address _arbitrationAddress) public onlySeller(_arbitrationAddress) {\n        Arbitration arbitration = Arbitration(_arbitrationAddress);\n        arbitration.set2xStakeBySeller();\n\n        splytManager.internalContribute(arbitration.getSeller(), arbitration.asset(), arbitration.baseStake()); \n        // emit Success(4, address(arbitration)); \n    }      \n\n    //@desc report puts in 2x stake\n    function set2xStakeByReporter(address _arbitrationAddress) public onlyReporter(_arbitrationAddress) {\n        Arbitration arbitration = Arbitration(_arbitrationAddress);\n        arbitration.set2xStakeByReporter();\n        splytManager.internalContribute(arbitration.reporter(), arbitration.asset(), arbitration.baseStake()); \n    }\n\n    //@desc checks if address is authorized write to the data contracts\n    function isManager(address _address) public view returns (bool) {\n        return splytManager.isManager(_address);\n    }\n   \n       \n   //@desc new manager contract that's going to be replacing this\n   //Old manager call this function and proposes the new address\n    function transferOwnership(address _newAddress) public onlyOwner {\n        arbitrationData.transferOwnership(_newAddress);\n    }\n\n    //@desc if new data contract is deployed, the creator proposes manager adress then the manager needs to accept\n    function acceptOwnership() public onlyOwner {\n        arbitrationData.acceptOwnership();\n    }\n\n}",
  "sourcePath": "/Users/scott/git/splytprotocol/contracts/ArbitrationManager.sol",
  "compiler": {
    "name": "solc",
    "version": "0.4.24+commit.e67f0147.Emscripten.clang"
  },
  "schemaVersion": "2.0.1",
  "updatedAt": "2018-08-27T20:01:18.360Z"
}