{
  "contractName": "ArbitrationManager",
  "abi": [
    {
      "constant": true,
      "inputs": [],
      "name": "splytManager",
      "outputs": [
        {
          "name": "",
          "type": "address"
        }
      ],
      "payable": false,
      "stateMutability": "view",
      "type": "function"
    },
    {
      "constant": true,
      "inputs": [],
      "name": "owner",
      "outputs": [
        {
          "name": "",
          "type": "address"
        }
      ],
      "payable": false,
      "stateMutability": "view",
      "type": "function"
    },
    {
      "constant": true,
      "inputs": [],
      "name": "arbitrationData",
      "outputs": [
        {
          "name": "",
          "type": "address"
        }
      ],
      "payable": false,
      "stateMutability": "view",
      "type": "function"
    },
    {
      "constant": true,
      "inputs": [],
      "name": "pendingOwner",
      "outputs": [
        {
          "name": "",
          "type": "address"
        }
      ],
      "payable": false,
      "stateMutability": "view",
      "type": "function"
    },
    {
      "inputs": [
        {
          "name": "_splytManager",
          "type": "address"
        }
      ],
      "payable": false,
      "stateMutability": "nonpayable",
      "type": "constructor"
    },
    {
      "anonymous": false,
      "inputs": [
        {
          "indexed": false,
          "name": "_code",
          "type": "uint256"
        },
        {
          "indexed": false,
          "name": "_assetAddress",
          "type": "address"
        },
        {
          "indexed": false,
          "name": "_message",
          "type": "string"
        }
      ],
      "name": "Error",
      "type": "event"
    },
    {
      "anonymous": false,
      "inputs": [
        {
          "indexed": false,
          "name": "_code",
          "type": "uint256"
        },
        {
          "indexed": false,
          "name": "_address",
          "type": "address"
        }
      ],
      "name": "Success",
      "type": "event"
    },
    {
      "constant": false,
      "inputs": [
        {
          "name": "_arbitrationId",
          "type": "bytes12"
        },
        {
          "name": "_assetAddress",
          "type": "address"
        },
        {
          "name": "_reason",
          "type": "uint8"
        }
      ],
      "name": "createArbitration",
      "outputs": [],
      "payable": false,
      "stateMutability": "nonpayable",
      "type": "function"
    },
    {
      "constant": false,
      "inputs": [
        {
          "name": "_arbitrationId",
          "type": "bytes12"
        },
        {
          "name": "_winner",
          "type": "uint8"
        }
      ],
      "name": "setWinner",
      "outputs": [],
      "payable": false,
      "stateMutability": "nonpayable",
      "type": "function"
    },
    {
      "constant": true,
      "inputs": [
        {
          "name": "_arbitrationId",
          "type": "bytes12"
        }
      ],
      "name": "getWinner",
      "outputs": [
        {
          "name": "",
          "type": "uint8"
        }
      ],
      "payable": false,
      "stateMutability": "view",
      "type": "function"
    },
    {
      "constant": false,
      "inputs": [
        {
          "name": "_arbitrationId",
          "type": "bytes12"
        },
        {
          "name": "_arbitrator",
          "type": "address"
        }
      ],
      "name": "setArbitrator",
      "outputs": [],
      "payable": false,
      "stateMutability": "nonpayable",
      "type": "function"
    },
    {
      "constant": true,
      "inputs": [
        {
          "name": "_arbitrationId",
          "type": "bytes12"
        }
      ],
      "name": "getArbitrator",
      "outputs": [
        {
          "name": "",
          "type": "address"
        }
      ],
      "payable": false,
      "stateMutability": "view",
      "type": "function"
    },
    {
      "constant": true,
      "inputs": [
        {
          "name": "_arbitrationId",
          "type": "bytes12"
        }
      ],
      "name": "getStatus",
      "outputs": [
        {
          "name": "",
          "type": "uint8"
        }
      ],
      "payable": false,
      "stateMutability": "view",
      "type": "function"
    },
    {
      "constant": true,
      "inputs": [],
      "name": "getArbitrationsLength",
      "outputs": [
        {
          "name": "",
          "type": "uint256"
        }
      ],
      "payable": false,
      "stateMutability": "view",
      "type": "function"
    },
    {
      "constant": true,
      "inputs": [
        {
          "name": "_arbitrationId",
          "type": "bytes12"
        }
      ],
      "name": "getAddressById",
      "outputs": [
        {
          "name": "",
          "type": "address"
        }
      ],
      "payable": false,
      "stateMutability": "view",
      "type": "function"
    },
    {
      "constant": true,
      "inputs": [],
      "name": "getDataContractAddress",
      "outputs": [
        {
          "name": "",
          "type": "address"
        }
      ],
      "payable": false,
      "stateMutability": "view",
      "type": "function"
    },
    {
      "constant": false,
      "inputs": [
        {
          "name": "_arbitrationData",
          "type": "address"
        }
      ],
      "name": "setDataContract",
      "outputs": [],
      "payable": false,
      "stateMutability": "nonpayable",
      "type": "function"
    },
    {
      "constant": false,
      "inputs": [
        {
          "name": "_address",
          "type": "address"
        }
      ],
      "name": "setSplytManager",
      "outputs": [],
      "payable": false,
      "stateMutability": "nonpayable",
      "type": "function"
    },
    {
      "constant": true,
      "inputs": [
        {
          "name": "_arbitrationId",
          "type": "bytes12"
        }
      ],
      "name": "getAddressByArbitrationId",
      "outputs": [
        {
          "name": "",
          "type": "address"
        }
      ],
      "payable": false,
      "stateMutability": "view",
      "type": "function"
    },
    {
      "constant": true,
      "inputs": [
        {
          "name": "_arbitrationAddress",
          "type": "address"
        }
      ],
      "name": "getArbitrationIdByAddress",
      "outputs": [
        {
          "name": "",
          "type": "bytes12"
        }
      ],
      "payable": false,
      "stateMutability": "view",
      "type": "function"
    },
    {
      "constant": true,
      "inputs": [
        {
          "name": "_index",
          "type": "uint256"
        }
      ],
      "name": "getArbitrationByIndex",
      "outputs": [
        {
          "name": "",
          "type": "address"
        }
      ],
      "payable": false,
      "stateMutability": "view",
      "type": "function"
    },
    {
      "constant": true,
      "inputs": [
        {
          "name": "_index",
          "type": "uint256"
        }
      ],
      "name": "getArbitrationInfoByIndex",
      "outputs": [
        {
          "name": "",
          "type": "bytes12"
        },
        {
          "name": "",
          "type": "uint8"
        },
        {
          "name": "",
          "type": "address"
        },
        {
          "name": "",
          "type": "uint8"
        },
        {
          "name": "",
          "type": "uint8"
        },
        {
          "name": "",
          "type": "address"
        },
        {
          "name": "",
          "type": "address"
        },
        {
          "name": "",
          "type": "address"
        }
      ],
      "payable": false,
      "stateMutability": "view",
      "type": "function"
    },
    {
      "constant": true,
      "inputs": [
        {
          "name": "_arbitrationId",
          "type": "bytes12"
        }
      ],
      "name": "getArbitrationInfoByArbitrationId",
      "outputs": [
        {
          "name": "",
          "type": "bytes12"
        },
        {
          "name": "",
          "type": "uint8"
        },
        {
          "name": "",
          "type": "address"
        },
        {
          "name": "",
          "type": "uint8"
        },
        {
          "name": "",
          "type": "uint8"
        },
        {
          "name": "",
          "type": "address"
        },
        {
          "name": "",
          "type": "address"
        },
        {
          "name": "",
          "type": "address"
        }
      ],
      "payable": false,
      "stateMutability": "view",
      "type": "function"
    },
    {
      "constant": false,
      "inputs": [
        {
          "name": "_arbitrationId",
          "type": "bytes12"
        }
      ],
      "name": "set2xStakeBySeller",
      "outputs": [],
      "payable": false,
      "stateMutability": "nonpayable",
      "type": "function"
    },
    {
      "constant": false,
      "inputs": [
        {
          "name": "_arbitrationId",
          "type": "bytes12"
        }
      ],
      "name": "set2xStakeByReporter",
      "outputs": [],
      "payable": false,
      "stateMutability": "nonpayable",
      "type": "function"
    },
    {
      "constant": true,
      "inputs": [
        {
          "name": "_address",
          "type": "address"
        }
      ],
      "name": "isManager",
      "outputs": [
        {
          "name": "",
          "type": "bool"
        }
      ],
      "payable": false,
      "stateMutability": "view",
      "type": "function"
    },
    {
      "constant": false,
      "inputs": [
        {
          "name": "_newAddress",
          "type": "address"
        }
      ],
      "name": "transferOwnership",
      "outputs": [],
      "payable": false,
      "stateMutability": "nonpayable",
      "type": "function"
    },
    {
      "constant": false,
      "inputs": [],
      "name": "acceptOwnership",
      "outputs": [],
      "payable": false,
      "stateMutability": "nonpayable",
      "type": "function"
    }
  ],
  "bytecode": "0x60806040523480156200001157600080fd5b506040516020806200381e83398101604052516000805433600160a060020a03199182161790915560028054909116600160a060020a038316179055620000576200009c565b604051809103906000f08015801562000074573d6000803e3d6000fd5b5060038054600160a060020a031916600160a060020a039290921691909117905550620000ad565b60405161041a806200340483390190565b61334780620000bd6000396000f30060806040526004361061012f5763ffffffff60e060020a60003504166303959bb78114610134578063050bf68914610157578063078badca1461020c5780631c0063a51461024057806326fa90be1461027457806327d54d9b146102b25780632fa5a31f146102d457806358c02c171461031a5780635a6d56341461033c57806361e91ea11461035457806379ba5097146103695780637b36563e1461037e5780638163615c1461039357806382f0d53d146103bb57806387d55642146103e25780638da5cb5b14610403578063916e476e1461041857806392497afc1461031a57806398baf9131461044a578063a1ae7e0e14610478578063ac02fac01461049a578063e30c3978146104af578063e78463c9146104c4578063f2fde38b146104e6578063f3ae241514610507575b600080fd5b34801561014057600080fd5b50610155600160a060020a036004351661053c565b005b34801561016357600080fd5b50610179600160a060020a031960043516610575565b604051600160a060020a0319891681526020810188600381111561019957fe5b60ff168152600160a060020a03881660208201526040018660048111156101bc57fe5b60ff1681526020018560058111156101d057fe5b60ff168152600160a060020a03948516602082015292841660408085019190915291909316606083015251908190036080019650945050505050f35b34801561021857600080fd5b50610155600160a060020a031960043516602435600160a060020a031660ff604435166109de565b34801561024c57600080fd5b50610258600435610ce5565b60408051600160a060020a039092168252519081900360200190f35b34801561028057600080fd5b50610295600160a060020a0360043516610d7d565b60408051600160a060020a03199092168252519081900360200190f35b3480156102be57600080fd5b50610258600160a060020a031960043516610de8565b3480156102e057600080fd5b506102f6600160a060020a031960043516610f04565b6040518082600481111561030657fe5b60ff16815260200191505060405180910390f35b34801561032657600080fd5b50610258600160a060020a031960043516610fed565b34801561034857600080fd5b50610179600435611046565b34801561036057600080fd5b506102586110b2565b34801561037557600080fd5b506101556110c1565b34801561038a57600080fd5b50610258611145565b34801561039f57600080fd5b50610155600160a060020a03196004351660ff60243516611154565b3480156103c757600080fd5b506103d0611a91565b60408051918252519081900360200190f35b3480156103ee57600080fd5b50610155600160a060020a0360043516611b21565b34801561040f57600080fd5b50610258611b5a565b34801561042457600080fd5b5061043a600160a060020a031960043516611b69565b6040518082600581111561030657fe5b34801561045657600080fd5b50610155600160a060020a031960043516602435600160a060020a0316611c52565b34801561048457600080fd5b50610155600160a060020a031960043516611e91565b3480156104a657600080fd5b506102586123d8565b3480156104bb57600080fd5b506102586123e7565b3480156104d057600080fd5b50610155600160a060020a0319600435166123f6565b3480156104f257600080fd5b50610155600160a060020a03600435166129c3565b34801561051357600080fd5b50610528600160a060020a0360043516612a5c565b604080519115158252519081900360200190f35b600054600160a060020a0316331461055357600080fd5b60038054600160a060020a031916600160a060020a0392909216919091179055565b6000806000806000806000806000600360009054906101000a9004600160a060020a0316600160a060020a031663d363f13a8b6040518263ffffffff1660e060020a0281526004018082600160a060020a031916600160a060020a0319168152602001915050602060405180830381600087803b1580156105f557600080fd5b505af1158015610609573d6000803e3d6000fd5b505050506040513d602081101561061f57600080fd5b5051604080517fcf4050b50000000000000000000000000000000000000000000000000000000081529051919250600160a060020a0383169163cf4050b5916004808201926020929091908290030181600087803b15801561068057600080fd5b505af1158015610694573d6000803e3d6000fd5b505050506040513d60208110156106aa57600080fd5b5051604080517fe134e33d0000000000000000000000000000000000000000000000000000000081529051600160a060020a0384169163e134e33d9160048083019260209291908290030181600087803b15801561070757600080fd5b505af115801561071b573d6000803e3d6000fd5b505050506040513d602081101561073157600080fd5b5051604080517f010ec4410000000000000000000000000000000000000000000000000000000081529051600160a060020a0385169163010ec4419160048083019260209291908290030181600087803b15801561078e57600080fd5b505af11580156107a2573d6000803e3d6000fd5b505050506040513d60208110156107b857600080fd5b5051604080517fdfbf53ae0000000000000000000000000000000000000000000000000000000081529051600160a060020a0386169163dfbf53ae9160048083019260209291908290030181600087803b15801561081557600080fd5b505af1158015610829573d6000803e3d6000fd5b505050506040513d602081101561083f57600080fd5b5051604080517f200d2ed20000000000000000000000000000000000000000000000000000000081529051600160a060020a0387169163200d2ed29160048083019260209291908290030181600087803b15801561089c57600080fd5b505af11580156108b0573d6000803e3d6000fd5b505050506040513d60208110156108c657600080fd5b50516040805160e060020a6338d52e0f0281529051600160a060020a038816916338d52e0f9160048083019260209291908290030181600087803b15801561090d57600080fd5b505af1158015610921573d6000803e3d6000fd5b505050506040513d602081101561093757600080fd5b5051604080517f6cc6cde10000000000000000000000000000000000000000000000000000000081529051600160a060020a03891691636cc6cde19160048083019260209291908290030181600087803b15801561099457600080fd5b505af11580156109a8573d6000803e3d6000fd5b505050506040513d60208110156109be57600080fd5b5051959e50939c50919a5098509650945092509050919395975091939597565b60008060008085935083600160a060020a0316635433e2f56040518163ffffffff1660e060020a028152600401602060405180830381600087803b158015610a2557600080fd5b505af1158015610a39573d6000803e3d6000fd5b505050506040513d6020811015610a4f57600080fd5b505192503391508686868486610a63612ac7565b600160a060020a031986168152600160a060020a038516602082015260408101846003811115610a8f57fe5b60ff16815260200183600160a060020a0316600160a060020a0316815260200182815260200195505050505050604051809103906000f080158015610ad8573d6000803e3d6000fd5b50600354604080517f5ea58c9c000000000000000000000000000000000000000000000000000000008152600160a060020a03198b166004820152600160a060020a0380851660248301529151939450911691635ea58c9c9160448082019260009290919082900301818387803b158015610b5257600080fd5b505af1158015610b66573d6000803e3d6000fd5b5050600280546040517f14fc5a5a000000000000000000000000000000000000000000000000000000008152600160a060020a038b811660048301908152921694506314fc5a5a93508a9291906024018260ff16815260200192505050600060405180830381600087803b158015610bdd57600080fd5b505af1158015610bf1573d6000803e3d6000fd5b5050600254604080517f7f6cdfa6000000000000000000000000000000000000000000000000000000008152600160a060020a0387811660048301528981166024830152604482018990529151919092169350637f6cdfa6925060648083019260209291908290030181600087803b158015610c6c57600080fd5b505af1158015610c80573d6000803e3d6000fd5b505050506040513d6020811015610c9657600080fd5b50506040805160038152600160a060020a038316602082015281517f2539b4cc2b40f86b739ed651d0bf19a6b3db2c37cde9a6de9bd20707832c2677929181900390910190a150505050505050565b600354604080517fd8ab9208000000000000000000000000000000000000000000000000000000008152600481018490529051600092600160a060020a03169163d8ab920891602480830192602092919082900301818787803b158015610d4b57600080fd5b505af1158015610d5f573d6000803e3d6000fd5b505050506040513d6020811015610d7557600080fd5b505192915050565b600354604080517ff3c50711000000000000000000000000000000000000000000000000000000008152600160a060020a0384811660048301529151600093929092169163f3c507119160248082019260209290919082900301818787803b158015610d4b57600080fd5b6003546040805160e160020a6369b1f89d028152600160a060020a03198416600482015290516000928392600160a060020a039091169163d363f13a9160248082019260209290919082900301818787803b158015610e4657600080fd5b505af1158015610e5a573d6000803e3d6000fd5b505050506040513d6020811015610e7057600080fd5b5051604080517f6cc6cde10000000000000000000000000000000000000000000000000000000081529051919250600160a060020a03831691636cc6cde1916004808201926020929091908290030181600087803b158015610ed157600080fd5b505af1158015610ee5573d6000803e3d6000fd5b505050506040513d6020811015610efb57600080fd5b50519392505050565b6003546040805160e160020a6369b1f89d028152600160a060020a03198416600482015290516000928392600160a060020a039091169163d363f13a9160248082019260209290919082900301818787803b158015610f6257600080fd5b505af1158015610f76573d6000803e3d6000fd5b505050506040513d6020811015610f8c57600080fd5b5051604080517fdfbf53ae0000000000000000000000000000000000000000000000000000000081529051919250600160a060020a0383169163dfbf53ae916004808201926020929091908290030181600087803b158015610ed157600080fd5b6003546040805160e160020a6369b1f89d028152600160a060020a0319841660048201529051600092600160a060020a03169163d363f13a91602480830192602092919082900301818787803b158015610d4b57600080fd5b6000806000806000806000806000600360009054906101000a9004600160a060020a0316600160a060020a031663d8ab92088b6040518263ffffffff1660e060020a02815260040180828152602001915050602060405180830381600087803b1580156105f557600080fd5b600354600160a060020a031690565b600054600160a060020a031633146110d857600080fd5b600360009054906101000a9004600160a060020a0316600160a060020a03166379ba50976040518163ffffffff1660e060020a028152600401600060405180830381600087803b15801561112b57600080fd5b505af115801561113f573d6000803e3d6000fd5b50505050565b600254600160a060020a031681565b6003546040805160e160020a6369b1f89d028152600160a060020a0319851660048201529051600092839283928392839289928492600160a060020a03169163d363f13a91602480830192602092919082900301818787803b1580156111b957600080fd5b505af11580156111cd573d6000803e3d6000fd5b505050506040513d60208110156111e357600080fd5b5051604080517f6cc6cde100000000000000000000000000000000000000000000000000000000815290519192503391600160a060020a03841691636cc6cde19160048083019260209291908290030181600087803b15801561124557600080fd5b505af1158015611259573d6000803e3d6000fd5b505050506040513d602081101561126f57600080fd5b5051600160a060020a03161461128457600080fd5b600380546040805160e160020a6369b1f89d028152600160a060020a03198d16600482015290518c9392600092600160a060020a039091169163d363f13a9160248082019260209290919082900301818787803b1580156112e457600080fd5b505af11580156112f8573d6000803e3d6000fd5b505050506040513d602081101561130e57600080fd5b5051905081600581111561131e57fe5b81600160a060020a031663200d2ed26040518163ffffffff1660e060020a028152600401602060405180830381600087803b15801561135c57600080fd5b505af1158015611370573d6000803e3d6000fd5b505050506040513d602081101561138657600080fd5b5051600581111561139357fe5b1461139d57600080fd5b6003546040805160e160020a6369b1f89d028152600160a060020a03198f1660048201529051600160a060020a039092169163d363f13a916024808201926020929091908290030181600087803b1580156113f757600080fd5b505af115801561140b573d6000803e3d6000fd5b505050506040513d602081101561142157600080fd5b50516040805160e060020a6338d52e0f0281529051919b508b9a50600160a060020a038b16916338d52e0f916004808201926020929091908290030181600087803b15801561146f57600080fd5b505af1158015611483573d6000803e3d6000fd5b505050506040513d602081101561149957600080fd5b50516040517ffda31178000000000000000000000000000000000000000000000000000000008152909850600160a060020a038a169063fda31178908d90600490810190819083908111156114ea57fe5b60ff168152602001915050600060405180830381600087803b15801561150f57600080fd5b505af1158015611523573d6000803e3d6000fd5b50505050606489600160a060020a0316637bc742256040518163ffffffff1660e060020a028152600401602060405180830381600087803b15801561156757600080fd5b505af115801561157b573d6000803e3d6000fd5b505050506040513d602081101561159157600080fd5b5051604b0281151561159f57fe5b049650606489600160a060020a0316637bc742256040518163ffffffff1660e060020a028152600401602060405180830381600087803b1580156115e257600080fd5b505af11580156115f6573d6000803e3d6000fd5b505050506040513d602081101561160c57600080fd5b505160190281151561161a57fe5b04955060018b600481111561162b57fe5b14156117c857600254604080517f14fc5a5a000000000000000000000000000000000000000000000000000000008152600160a060020a038b8116600483015260056024830152915191909216916314fc5a5a91604480830192600092919082900301818387803b15801561169f57600080fd5b505af11580156116b3573d6000803e3d6000fd5b50505050600260009054906101000a9004600160a060020a0316600160a060020a0316637f6cdfa6898b600160a060020a031663010ec4416040518163ffffffff1660e060020a028152600401602060405180830381600087803b15801561171a57600080fd5b505af115801561172e573d6000803e3d6000fd5b505050506040513d602081101561174457600080fd5b50516040805160e060020a63ffffffff8616028152600160a060020a039384166004820152929091166024830152604482018b90525160648083019260209291908290030181600087803b15801561179b57600080fd5b505af11580156117af573d6000803e3d6000fd5b505050506040513d60208110156117c557600080fd5b50505b60028b60048111156117d657fe5b141561197357600254604080517f14fc5a5a000000000000000000000000000000000000000000000000000000008152600160a060020a038b8116600483015260016024830152915191909216916314fc5a5a91604480830192600092919082900301818387803b15801561184a57600080fd5b505af115801561185e573d6000803e3d6000fd5b50505050600260009054906101000a9004600160a060020a0316600160a060020a0316637f6cdfa6898a600160a060020a03166308551a536040518163ffffffff1660e060020a028152600401602060405180830381600087803b1580156118c557600080fd5b505af11580156118d9573d6000803e3d6000fd5b505050506040513d60208110156118ef57600080fd5b50516040805160e060020a63ffffffff8616028152600160a060020a039384166004820152929091166024830152604482018b90525160648083019260209291908290030181600087803b15801561194657600080fd5b505af115801561195a573d6000803e3d6000fd5b505050506040513d602081101561197057600080fd5b50505b600260009054906101000a9004600160a060020a0316600160a060020a0316637f6cdfa6898b600160a060020a0316636cc6cde16040518163ffffffff1660e060020a028152600401602060405180830381600087803b1580156119d657600080fd5b505af11580156119ea573d6000803e3d6000fd5b505050506040513d6020811015611a0057600080fd5b50516040805160e060020a63ffffffff8616028152600160a060020a039384166004820152929091166024830152604482018a90525160648083019260209291908290030181600087803b158015611a5757600080fd5b505af1158015611a6b573d6000803e3d6000fd5b505050506040513d6020811015611a8157600080fd5b5050505050505050505050505050565b600354604080517f2986c0e50000000000000000000000000000000000000000000000000000000081529051600092600160a060020a031691632986c0e591600480830192602092919082900301818787803b158015611af057600080fd5b505af1158015611b04573d6000803e3d6000fd5b505050506040513d6020811015611b1a57600080fd5b5051905090565b600054600160a060020a03163314611b3857600080fd5b60028054600160a060020a031916600160a060020a0392909216919091179055565b600054600160a060020a031681565b6003546040805160e160020a6369b1f89d028152600160a060020a03198416600482015290516000928392600160a060020a039091169163d363f13a9160248082019260209290919082900301818787803b158015611bc757600080fd5b505af1158015611bdb573d6000803e3d6000fd5b505050506040513d6020811015611bf157600080fd5b5051604080517f200d2ed20000000000000000000000000000000000000000000000000000000081529051919250600160a060020a0383169163200d2ed2916004808201926020929091908290030181600087803b158015610ed157600080fd5b60008054600160a060020a03163314611c6a57600080fd5b6003546040805160e160020a6369b1f89d028152600160a060020a03198616600482015290518592600292600092600160a060020a039092169163d363f13a9160248082019260209290919082900301818787803b158015611ccb57600080fd5b505af1158015611cdf573d6000803e3d6000fd5b505050506040513d6020811015611cf557600080fd5b50519050816005811115611d0557fe5b81600160a060020a031663200d2ed26040518163ffffffff1660e060020a028152600401602060405180830381600087803b158015611d4357600080fd5b505af1158015611d57573d6000803e3d6000fd5b505050506040513d6020811015611d6d57600080fd5b50516005811115611d7a57fe5b14611d8457600080fd5b6003546040805160e160020a6369b1f89d028152600160a060020a0319891660048201529051600160a060020a039092169163d363f13a916024808201926020929091908290030181600087803b158015611dde57600080fd5b505af1158015611df2573d6000803e3d6000fd5b505050506040513d6020811015611e0857600080fd5b5051604080517fb0eefabe000000000000000000000000000000000000000000000000000000008152600160a060020a03888116600483015291519296509086169163b0eefabe9160248082019260009290919082900301818387803b158015611e7157600080fd5b505af1158015611e85573d6000803e3d6000fd5b50505050505050505050565b6003546040805160e160020a6369b1f89d028152600160a060020a0319841660048201529051600092839285928492600160a060020a03169163d363f13a91602480830192602092919082900301818787803b158015611ef057600080fd5b505af1158015611f04573d6000803e3d6000fd5b505050506040513d6020811015611f1a57600080fd5b5051604080517f010ec44100000000000000000000000000000000000000000000000000000000815290519192503391600160a060020a0384169163010ec4419160048083019260209291908290030181600087803b158015611f7c57600080fd5b505af1158015611f90573d6000803e3d6000fd5b505050506040513d6020811015611fa657600080fd5b5051600160a060020a031614611fbb57600080fd5b6003546040805160e160020a6369b1f89d028152600160a060020a03198816600482015290518792600192600092600160a060020a039092169163d363f13a9160248082019260209290919082900301818787803b15801561201c57600080fd5b505af1158015612030573d6000803e3d6000fd5b505050506040513d602081101561204657600080fd5b5051905081600581111561205657fe5b81600160a060020a031663200d2ed26040518163ffffffff1660e060020a028152600401602060405180830381600087803b15801561209457600080fd5b505af11580156120a8573d6000803e3d6000fd5b505050506040513d60208110156120be57600080fd5b505160058111156120cb57fe5b146120d557600080fd5b6003546040805160e160020a6369b1f89d028152600160a060020a03198b1660048201529051600160a060020a039092169163d363f13a916024808201926020929091908290030181600087803b15801561212f57600080fd5b505af1158015612143573d6000803e3d6000fd5b505050506040513d602081101561215957600080fd5b5051604080517f15e35c050000000000000000000000000000000000000000000000000000000081529051919850889750600160a060020a038816916315e35c059160048082019260009290919082900301818387803b1580156121bc57600080fd5b505af11580156121d0573d6000803e3d6000fd5b50505050600260009054906101000a9004600160a060020a0316600160a060020a0316637f6cdfa687600160a060020a031663010ec4416040518163ffffffff1660e060020a028152600401602060405180830381600087803b15801561223657600080fd5b505af115801561224a573d6000803e3d6000fd5b505050506040513d602081101561226057600080fd5b50516040805160e060020a6338d52e0f0281529051600160a060020a038b16916338d52e0f9160048083019260209291908290030181600087803b1580156122a757600080fd5b505af11580156122bb573d6000803e3d6000fd5b505050506040513d60208110156122d157600080fd5b5051604080517f76e7e23b0000000000000000000000000000000000000000000000000000000081529051600160a060020a038c16916376e7e23b9160048083019260209291908290030181600087803b15801561232e57600080fd5b505af1158015612342573d6000803e3d6000fd5b505050506040513d602081101561235857600080fd5b50516040805160e060020a63ffffffff8716028152600160a060020a0394851660048201529290931660248301526044820152905160648083019260209291908290030181600087803b1580156123ae57600080fd5b505af11580156123c2573d6000803e3d6000fd5b505050506040513d6020811015611e8557600080fd5b600354600160a060020a031681565b600154600160a060020a031681565b6003546040805160e160020a6369b1f89d028152600160a060020a03198416600482015290516000928392859284928392600160a060020a039091169163d363f13a9160248082019260209290919082900301818787803b15801561245a57600080fd5b505af115801561246e573d6000803e3d6000fd5b505050506040513d602081101561248457600080fd5b50516040805160e060020a6338d52e0f0281529051919350600160a060020a038416916338d52e0f916004808201926020929091908290030181600087803b1580156124cf57600080fd5b505af11580156124e3573d6000803e3d6000fd5b505050506040513d60208110156124f957600080fd5b5051604080517f08551a5300000000000000000000000000000000000000000000000000000000815290519192503391600160a060020a038416916308551a539160048083019260209291908290030181600087803b15801561255b57600080fd5b505af115801561256f573d6000803e3d6000fd5b505050506040513d602081101561258557600080fd5b5051600160a060020a03161461259a57600080fd5b6003546040805160e160020a6369b1f89d028152600160a060020a031989166004820152905188926000928392600160a060020a039092169163d363f13a9160248082019260209290919082900301818787803b1580156125fa57600080fd5b505af115801561260e573d6000803e3d6000fd5b505050506040513d602081101561262457600080fd5b5051905081600581111561263457fe5b81600160a060020a031663200d2ed26040518163ffffffff1660e060020a028152600401602060405180830381600087803b15801561267257600080fd5b505af1158015612686573d6000803e3d6000fd5b505050506040513d602081101561269c57600080fd5b505160058111156126a957fe5b146126b357600080fd5b6003546040805160e160020a6369b1f89d028152600160a060020a03198c1660048201529051600160a060020a039092169163d363f13a916024808201926020929091908290030181600087803b15801561270d57600080fd5b505af1158015612721573d6000803e3d6000fd5b505050506040513d602081101561273757600080fd5b5051604080517fd83f64d70000000000000000000000000000000000000000000000000000000081529051919950899850600160a060020a0389169163d83f64d79160048082019260009290919082900301818387803b15801561279a57600080fd5b505af11580156127ae573d6000803e3d6000fd5b50505050600260009054906101000a9004600160a060020a0316600160a060020a0316637f6cdfa688600160a060020a031663dbd0e1b66040518163ffffffff1660e060020a028152600401602060405180830381600087803b15801561281457600080fd5b505af1158015612828573d6000803e3d6000fd5b505050506040513d602081101561283e57600080fd5b50516040805160e060020a6338d52e0f0281529051600160a060020a038c16916338d52e0f9160048083019260209291908290030181600087803b15801561288557600080fd5b505af1158015612899573d6000803e3d6000fd5b505050506040513d60208110156128af57600080fd5b5051604080517f76e7e23b0000000000000000000000000000000000000000000000000000000081529051600160a060020a038d16916376e7e23b9160048083019260209291908290030181600087803b15801561290c57600080fd5b505af1158015612920573d6000803e3d6000fd5b505050506040513d602081101561293657600080fd5b50516040805160e060020a63ffffffff8716028152600160a060020a0394851660048201529290931660248301526044820152905160648083019260209291908290030181600087803b15801561298c57600080fd5b505af11580156129a0573d6000803e3d6000fd5b505050506040513d60208110156129b657600080fd5b5050505050505050505050565b600054600160a060020a031633146129da57600080fd5b600354604080517ff2fde38b000000000000000000000000000000000000000000000000000000008152600160a060020a0384811660048301529151919092169163f2fde38b91602480830192600092919082900301818387803b158015612a4157600080fd5b505af1158015612a55573d6000803e3d6000fd5b5050505050565b600254604080517ff3ae2415000000000000000000000000000000000000000000000000000000008152600160a060020a0384811660048301529151600093929092169163f3ae24159160248082019260209290919082900301818787803b158015610d4b57600080fd5b60405161084480612ad8833901905600608060405234801561001057600080fd5b5060405160a08061084483398101604090815281516020830151918301516060840151608090940151600080546001606060020a031916740100000000000000000000000000000000000000008504179055600180549395929384919060ff19168183600381111561007e57fe5b0217905550600080546001606060020a03166c01000000000000000000000000600160a060020a0394851602178155600382905560028290556005805495909316620100000261010060b060020a03199095169490941790915560048054909101905550610751915081906100f390396000f3006080604052600436106100fb5763ffffffff7c0100000000000000000000000000000000000000000000000000000000600035041663010ec44181146101005780630c973ee7146101315780630fceb7461461015857806315e35c051461016d578063163abfb714610184578063200d2ed21461019957806338d52e0f146101d25780636cc6cde1146101e757806376e7e23b146101fc5780637bc74225146102115780638e7ea5b214610226578063b0eefabe1461024b578063cf4050b51461026c578063d83f64d7146102ab578063dbd0e1b6146102c0578063dfbf53ae146102d5578063e134e33d146102ea578063fda311781461030f575b600080fd5b34801561010c57600080fd5b5061011561032a565b60408051600160a060020a039092168252519081900360200190f35b34801561013d57600080fd5b50610146610349565b60408051918252519081900360200190f35b34801561016457600080fd5b5061011561034f565b34801561017957600080fd5b5061018261035e565b005b34801561019057600080fd5b506101466103fa565b3480156101a557600080fd5b506101ae610400565b604051808260058111156101be57fe5b60ff16815260200191505060405180910390f35b3480156101de57600080fd5b5061011561040e565b3480156101f357600080fd5b50610115610423565b34801561020857600080fd5b50610146610432565b34801561021d57600080fd5b50610146610438565b34801561023257600080fd5b5061023b610442565b604051808260048111156101be57fe5b34801561025757600080fd5b50610182600160a060020a036004351661044b565b34801561027857600080fd5b5061028161050a565b6040805173ffffffffffffffffffffffffffffffffffffffff199092168252519081900360200190f35b3480156102b757600080fd5b50610182610527565b3480156102cc57600080fd5b506101156105c3565b3480156102e157600080fd5b5061023b610662565b3480156102f657600080fd5b506102ff61066b565b604051808260038111156101be57fe5b34801561031b57600080fd5b5061018260ff60043516610674565b6000546c010000000000000000000000009004600160a060020a031681565b60045481565b600654600160a060020a031690565b6040805160e060020a63f3ae24150281523360048201819052915163f3ae2415916024808201926020929091908290030181600087803b1580156103a157600080fd5b505af11580156103b5573d6000803e3d6000fd5b505050506040513d60208110156103cb57600080fd5b505115156001146103db57600080fd5b600254600380546005805461ff00191661020017905582019091019055565b60035481565b600554610100900460ff1681565b600554620100009004600160a060020a031681565b600654600160a060020a031681565b60025481565b6003546004540190565b60055460ff1690565b6040805160e060020a63f3ae24150281523360048201819052915163f3ae2415916024808201926020929091908290030181600087803b15801561048e57600080fd5b505af11580156104a2573d6000803e3d6000fd5b505050506040513d60208110156104b857600080fd5b505115156001146104c857600080fd5b6006805473ffffffffffffffffffffffffffffffffffffffff1916600160a060020a038316179055600580546003919061ff001916610100835b021790555050565b600054740100000000000000000000000000000000000000000281565b6040805160e060020a63f3ae24150281523360048201819052915163f3ae2415916024808201926020929091908290030181600087803b15801561056a57600080fd5b505af115801561057e573d6000803e3d6000fd5b505050506040513d602081101561059457600080fd5b505115156001146105a457600080fd5b600254600480546005805461ff00191661010017905582019091019055565b6000600560029054906101000a9004600160a060020a0316600160a060020a03166308551a536040518163ffffffff167c0100000000000000000000000000000000000000000000000000000000028152600401602060405180830381600087803b15801561063157600080fd5b505af1158015610645573d6000803e3d6000fd5b505050506040513d602081101561065b57600080fd5b5051905090565b60055460ff1681565b60015460ff1681565b6040805160e060020a63f3ae24150281523360048201819052915163f3ae2415916024808201926020929091908290030181600087803b1580156106b757600080fd5b505af11580156106cb573d6000803e3d6000fd5b505050506040513d60208110156106e157600080fd5b505115156001146106f157600080fd5b6005805482919060ff1916600183600481111561070a57fe5b0217905550600580546004919061ff001916610100836105025600a165627a7a72305820e8f6ab0654e92dd1893d4a8fe73200fdbcec77cf73cd9cc4019e6ebcf394af2f0029a165627a7a7230582001cc935b4c42522640358b6bb61fb61d3a687daf6be532a8a5b45992401e3c840029608060405260008054600160a060020a031916331790556103f5806100256000396000f3006080604052600436106100985763ffffffff7c01000000000000000000000000000000000000000000000000000000006000350416632986c0e5811461009d5780635ea58c9c146100c457806379ba5097146101015780638da5cb5b14610116578063d363f13a14610147578063d8ab920814610176578063e30c39781461018e578063f2fde38b146101a3578063f3c50711146101c4575b600080fd5b3480156100a957600080fd5b506100b261020f565b60408051918252519081900360200190f35b3480156100d057600080fd5b506100ff73ffffffffffffffffffffffffffffffffffffffff1960043516602435600160a060020a0316610215565b005b34801561010d57600080fd5b506100ff6102be565b34801561012257600080fd5b5061012b610306565b60408051600160a060020a039092168252519081900360200190f35b34801561015357600080fd5b5061012b73ffffffffffffffffffffffffffffffffffffffff1960043516610315565b34801561018257600080fd5b5061012b600435610330565b34801561019a57600080fd5b5061012b61034b565b3480156101af57600080fd5b506100ff600160a060020a036004351661035a565b3480156101d057600080fd5b506101e5600160a060020a03600435166103a0565b6040805173ffffffffffffffffffffffffffffffffffffffff199092168252519081900360200190f35b60055481565b600054600160a060020a0316331461022c57600080fd5b600160a060020a0316600081815260026020908152604080832080546bffffffffffffffffffffffff191674010000000000000000000000000000000000000000870417905573ffffffffffffffffffffffffffffffffffffffff1994851683526003825280832080548616851790556005805484526004909252909120805490931690911790915580546001019055565b600154600160a060020a031633146102d557600080fd5b6001546000805473ffffffffffffffffffffffffffffffffffffffff1916600160a060020a03909216919091179055565b600054600160a060020a031681565b600360205260009081526040902054600160a060020a031681565b600460205260009081526040902054600160a060020a031681565b600154600160a060020a031681565b600054600160a060020a0316331461037157600080fd5b6001805473ffffffffffffffffffffffffffffffffffffffff1916600160a060020a0392909216919091179055565b6002602052600090815260409020547401000000000000000000000000000000000000000002815600a165627a7a7230582035492839488cf547a0271679727ab1604ba6a8bfd9519b0a236991dbeac2e1bf0029",
  "source": "pragma solidity ^0.4.24;\n\nimport \"./Owned.sol\";\nimport \"./Events.sol\";\nimport \"./Arbitration.sol\";\nimport \"./ArbitrationData.sol\";\nimport \"./Asset.sol\";\nimport \"./SplytManager.sol\";\n\ncontract ArbitrationManager is Owned, Events {\n\n    SplytManager public splytManager;\n    ArbitrationData public arbitrationData;\n    \n    //middlware only arbitrator \n    modifier onlyArbitrator(bytes12 _arbitrationId) {\n        address arbitrationAddress = arbitrationData.addressByArbitrationId(_arbitrationId);      \n        require(Arbitration(arbitrationAddress).arbitrator() == msg.sender);\n        _;\n    }\n\n    modifier onlyReporter(bytes12 _arbitrationId) {\n         address arbitrationAddress = arbitrationData.addressByArbitrationId(_arbitrationId);\n        require(Arbitration(arbitrationAddress).reporter() == msg.sender);        \n        _;\n    }\n        \n    modifier onlySeller(bytes12 _arbitrationId) {\n        address arbitrationAddress = arbitrationData.addressByArbitrationId(_arbitrationId);\n        address assetAddress = Arbitration(arbitrationAddress).asset();\n        require(Asset(assetAddress).seller() == msg.sender);        \n        _;\n    }\n\n    modifier onlyStatus(bytes12 _arbitrationId, Arbitration.Statuses _status) {\n        address arbitrationAddress = arbitrationData.addressByArbitrationId(_arbitrationId);\n        require(Arbitration(arbitrationAddress).status() == _status); \n        _;\n    }        \n\n    constructor(address _splytManager) public {\n        splytManager = SplytManager(_splytManager);\n        arbitrationData = new ArbitrationData();\n    }\n\n    function createArbitration(bytes12 _arbitrationId, address _assetAddress, Arbitration.Reasons _reason) public {\n\n        Asset asset = Asset(_assetAddress);\n        uint stakeAmount = asset.initialStakeAmount(); //get initital stake amount\n        \n        address reporter = msg.sender;\n\n        Arbitration arbitration = new Arbitration(_arbitrationId, _assetAddress, _reason, reporter, stakeAmount);\n        arbitrationData.save(_arbitrationId, address(arbitration));\n\n        //change status so no one can purchase during arbitration\n        splytManager.setAssetStatus(_assetAddress, Asset.Statuses.IN_ARBITRATION);\n        //set stake for reporter\n        splytManager.internalContribute(reporter, asset, stakeAmount);\n        \n        emit Success(3, address(arbitration));\n      \n    }\n\n    //TODO: write test to see if tokens gets distributed correctly to winner and arbitrator\n    function setWinner(bytes12 _arbitrationId, Arbitration.Winners _winner) public onlyArbitrator(_arbitrationId) onlyStatus(_arbitrationId, Arbitration.Statuses.PENDING_ARBITRATOR_DECISION) {\n        \n        address arbitrationAddress = arbitrationData.addressByArbitrationId(_arbitrationId);\n        Arbitration arbitration = Arbitration(arbitrationAddress);\n        address assetAddress = arbitration.asset();\n        \n        arbitration.setWinner(_winner);\n        //TODO: rule:\n        //winner gets 75% of the stakes\n        //arbitrator gets the 25% stake \n        uint winnerStake = (arbitration.getTotalStake() * 75) / 100;\n        uint arbitratorReward = (arbitration.getTotalStake() * 25) / 100;\n\n        if (_winner == Arbitration.Winners.REPORTER) {\n            splytManager.setAssetStatus(assetAddress, Asset.Statuses.CLOSED);\n            splytManager.internalContribute(assetAddress, arbitration.reporter(), winnerStake);\n        }\n        if (_winner == Arbitration.Winners.SELLER) {\n            splytManager.setAssetStatus(assetAddress, Asset.Statuses.ACTIVE);\n            splytManager.internalContribute(assetAddress, Asset(assetAddress).seller(), winnerStake);\n        }\n        splytManager.internalContribute(assetAddress, arbitration.arbitrator(), arbitratorReward); \n    }    \n\n    function getWinner(bytes12 _arbitrationId) public view returns (Arbitration.Winners){\n        address arbitrationAddress = arbitrationData.addressByArbitrationId(_arbitrationId);           \n        return Arbitration(arbitrationAddress).winner();\n    }    \n\n\n    //@dev set arbitrator so that person resolves this arbitration\n    function setArbitrator(bytes12 _arbitrationId, address _arbitrator) public onlyOwner onlyStatus(_arbitrationId, Arbitration.Statuses.REPORTER_STAKED_2X){\n        address arbitrationAddress = arbitrationData.addressByArbitrationId(_arbitrationId);   \n        Arbitration(arbitrationAddress).setArbitrator(_arbitrator);\n    } \n\n    //@dev get arbitrator\n    function getArbitrator(bytes12 _arbitrationId) public view returns (address) {\n        address arbitrationAddress = arbitrationData.addressByArbitrationId(_arbitrationId);   \n       return Arbitration(arbitrationAddress).arbitrator();\n    } \n\n    //@dev get arbitration status\n    function getStatus(bytes12 _arbitrationId) public view returns (Arbitration.Statuses) {\n        address arbitrationAddress = arbitrationData.addressByArbitrationId(_arbitrationId);  \n       return Arbitration(arbitrationAddress).status();\n    } \n\n\n    //@dev get number of arbitrations\n    function getArbitrationsLength() public view returns (uint) {\n       return arbitrationData.index();\n    }\n\n    //@dev  return address or arbitration\n    function getAddressById(bytes12 _arbitrationId) public view returns (address) {\n       return arbitrationData.addressByArbitrationId(_arbitrationId);\n    }\n\n    function getDataContractAddress() public view returns (address) {\n       return address(arbitrationData);\n    }\n\n    //@dev change data contract\n    function setDataContract(address _arbitrationData) public onlyOwner {\n       arbitrationData = ArbitrationData(_arbitrationData);\n    }\n    \n    //@dev set splytmanager\n    function setSplytManager(address _address) public onlyOwner {\n       splytManager = SplytManager(_address);\n    }\n\n    function getAddressByArbitrationId(bytes12 _arbitrationId) public view returns (address) {\n      return arbitrationData.addressByArbitrationId(_arbitrationId);\n    }\n    \n    function getArbitrationIdByAddress(address _arbitrationAddress) public view returns (bytes12) {\n      return arbitrationData.arbitrationIdByAddress(_arbitrationAddress);\n    }   \n\n    function getArbitrationByIndex(uint _index) public view returns (address) {\n      return arbitrationData.addressByIndex(_index);\n    }   \n\n    function getArbitrationInfoByIndex(uint _index) public view returns (bytes12, Arbitration.Reasons, address, Arbitration.Winners, Arbitration.Statuses, address, address, address) {\n      Arbitration a = Arbitration(arbitrationData.addressByIndex(_index));\n\n      return (a.arbitrationId(), a.reason(), a.reporter(), a.winner(), a.status(), a.asset(), a.arbitrator(), address(a));\n    }   \n\n    function getArbitrationInfoByArbitrationId(bytes12 _arbitrationId) public view returns (bytes12, Arbitration.Reasons, address, Arbitration.Winners, Arbitration.Statuses, address, address, address) {\n      Arbitration a = Arbitration(arbitrationData.addressByArbitrationId(_arbitrationId));\n      return (a.arbitrationId(), a.reason(), a.reporter(), a.winner(), a.status(), a.asset(), a.arbitrator(), address(a));\n    }   \n\n    //@dev seller disputes reporter by staking initial stake amount\n    //@dev initial stake is asset contract\n    function set2xStakeBySeller(bytes12 _arbitrationId) public onlySeller(_arbitrationId) onlyStatus(_arbitrationId, Arbitration.Statuses.REPORTED){\n        address arbitrationAddress = arbitrationData.addressByArbitrationId(_arbitrationId);           \n        Arbitration arbitration = Arbitration(arbitrationAddress);\n        arbitration.set2xStakeBySeller();\n\n        splytManager.internalContribute(arbitration.getSeller(), arbitration.asset(), arbitration.baseStake()); \n        // emit Success(4, address(arbitration)); \n    }      \n\n    //@dev report puts in 2x stake\n    function set2xStakeByReporter(bytes12 _arbitrationId) public onlyReporter(_arbitrationId) onlyStatus(_arbitrationId, Arbitration.Statuses.SELLER_STAKED_2X){\n        address arbitrationAddress = arbitrationData.addressByArbitrationId(_arbitrationId);   \n        Arbitration arbitration = Arbitration(arbitrationAddress);\n        arbitration.set2xStakeByReporter();\n        splytManager.internalContribute(arbitration.reporter(), arbitration.asset(), arbitration.baseStake()); \n    }\n\n    //@dev checks if address is authorized write to the data contracts\n    function isManager(address _address) public view returns (bool) {\n        return splytManager.isManager(_address);\n    }\n   \n       \n   //@dev new manager contract that's going to be replacing this\n   //Old manager call this function and proposes the new address\n    function transferOwnership(address _newAddress) public onlyOwner {\n        arbitrationData.transferOwnership(_newAddress);\n    }\n\n    //@dev if new data contract is deployed, the creator proposes manager adress then the manager needs to accept\n    function acceptOwnership() public onlyOwner {\n        arbitrationData.acceptOwnership();\n    }\n\n}",
  "sourcePath": "/Users/scottkim/git/splytprotocol/contracts/ArbitrationManager.sol",
  "compiler": {
    "name": "solc",
    "version": "0.4.24+commit.e67f0147.Emscripten.clang"
  },
  "schemaVersion": "2.0.1",
  "updatedAt": "2018-11-29T21:16:30.720Z"
}