{
  "contractName": "AssetManager",
  "abi": [
    {
      "constant": true,
      "inputs": [],
      "name": "splytManager",
      "outputs": [
        {
          "name": "",
          "type": "address"
        }
      ],
      "payable": false,
      "stateMutability": "view",
      "type": "function"
    },
    {
      "constant": true,
      "inputs": [],
      "name": "assetData",
      "outputs": [
        {
          "name": "",
          "type": "address"
        }
      ],
      "payable": false,
      "stateMutability": "view",
      "type": "function"
    },
    {
      "constant": true,
      "inputs": [],
      "name": "owner",
      "outputs": [
        {
          "name": "",
          "type": "address"
        }
      ],
      "payable": false,
      "stateMutability": "view",
      "type": "function"
    },
    {
      "constant": true,
      "inputs": [],
      "name": "pendingOwner",
      "outputs": [
        {
          "name": "",
          "type": "address"
        }
      ],
      "payable": false,
      "stateMutability": "view",
      "type": "function"
    },
    {
      "inputs": [
        {
          "name": "_splytManager",
          "type": "address"
        }
      ],
      "payable": false,
      "stateMutability": "nonpayable",
      "type": "constructor"
    },
    {
      "anonymous": false,
      "inputs": [
        {
          "indexed": false,
          "name": "_code",
          "type": "uint256"
        },
        {
          "indexed": false,
          "name": "_assetAddress",
          "type": "address"
        },
        {
          "indexed": false,
          "name": "_message",
          "type": "string"
        }
      ],
      "name": "Error",
      "type": "event"
    },
    {
      "anonymous": false,
      "inputs": [
        {
          "indexed": false,
          "name": "_code",
          "type": "uint256"
        },
        {
          "indexed": false,
          "name": "_address",
          "type": "address"
        }
      ],
      "name": "Success",
      "type": "event"
    },
    {
      "constant": false,
      "inputs": [
        {
          "name": "_assetId",
          "type": "bytes12"
        },
        {
          "name": "_term",
          "type": "uint256"
        },
        {
          "name": "_seller",
          "type": "address"
        },
        {
          "name": "_title",
          "type": "string"
        },
        {
          "name": "_totalCost",
          "type": "uint256"
        },
        {
          "name": "_expirationDate",
          "type": "uint256"
        },
        {
          "name": "_mpAddress",
          "type": "address"
        },
        {
          "name": "_mpAmount",
          "type": "uint256"
        },
        {
          "name": "_inventoryCount",
          "type": "uint256"
        }
      ],
      "name": "createAsset",
      "outputs": [],
      "payable": false,
      "stateMutability": "nonpayable",
      "type": "function"
    },
    {
      "constant": true,
      "inputs": [
        {
          "name": "_assetId",
          "type": "bytes12"
        }
      ],
      "name": "getAssetInfoByAssetId",
      "outputs": [
        {
          "name": "",
          "type": "address"
        },
        {
          "name": "",
          "type": "bytes12"
        },
        {
          "name": "",
          "type": "uint8"
        },
        {
          "name": "",
          "type": "uint256"
        },
        {
          "name": "",
          "type": "uint256"
        },
        {
          "name": "",
          "type": "address"
        },
        {
          "name": "",
          "type": "uint256"
        }
      ],
      "payable": false,
      "stateMutability": "view",
      "type": "function"
    },
    {
      "constant": true,
      "inputs": [
        {
          "name": "_assetAddress",
          "type": "address"
        }
      ],
      "name": "getAssetInfoByAddress",
      "outputs": [
        {
          "name": "",
          "type": "address"
        },
        {
          "name": "",
          "type": "bytes12"
        },
        {
          "name": "",
          "type": "uint8"
        },
        {
          "name": "",
          "type": "uint256"
        },
        {
          "name": "",
          "type": "uint256"
        },
        {
          "name": "",
          "type": "address"
        },
        {
          "name": "",
          "type": "uint256"
        }
      ],
      "payable": false,
      "stateMutability": "view",
      "type": "function"
    },
    {
      "constant": true,
      "inputs": [
        {
          "name": "_index",
          "type": "uint256"
        }
      ],
      "name": "getAssetInfoByIndex",
      "outputs": [
        {
          "name": "",
          "type": "address"
        },
        {
          "name": "",
          "type": "bytes12"
        },
        {
          "name": "",
          "type": "uint8"
        },
        {
          "name": "",
          "type": "uint256"
        },
        {
          "name": "",
          "type": "uint256"
        },
        {
          "name": "",
          "type": "address"
        },
        {
          "name": "",
          "type": "uint256"
        }
      ],
      "payable": false,
      "stateMutability": "view",
      "type": "function"
    },
    {
      "constant": true,
      "inputs": [],
      "name": "getAssetsLength",
      "outputs": [
        {
          "name": "",
          "type": "uint256"
        }
      ],
      "payable": false,
      "stateMutability": "view",
      "type": "function"
    },
    {
      "constant": true,
      "inputs": [],
      "name": "getDataContractAddress",
      "outputs": [
        {
          "name": "",
          "type": "address"
        }
      ],
      "payable": false,
      "stateMutability": "view",
      "type": "function"
    },
    {
      "constant": false,
      "inputs": [
        {
          "name": "_assetData",
          "type": "address"
        }
      ],
      "name": "setDataContract",
      "outputs": [],
      "payable": false,
      "stateMutability": "nonpayable",
      "type": "function"
    },
    {
      "constant": true,
      "inputs": [
        {
          "name": "_assetAddress",
          "type": "address"
        }
      ],
      "name": "getType",
      "outputs": [
        {
          "name": "",
          "type": "uint8"
        }
      ],
      "payable": false,
      "stateMutability": "view",
      "type": "function"
    },
    {
      "constant": true,
      "inputs": [
        {
          "name": "_assetAddress",
          "type": "address"
        }
      ],
      "name": "getStatus",
      "outputs": [
        {
          "name": "",
          "type": "uint8"
        }
      ],
      "payable": false,
      "stateMutability": "view",
      "type": "function"
    },
    {
      "constant": false,
      "inputs": [
        {
          "name": "_assetAddress",
          "type": "address"
        },
        {
          "name": "_marketPlace",
          "type": "address"
        }
      ],
      "name": "addMarketPlace",
      "outputs": [],
      "payable": false,
      "stateMutability": "nonpayable",
      "type": "function"
    },
    {
      "constant": false,
      "inputs": [
        {
          "name": "_assetAddress",
          "type": "address"
        },
        {
          "name": "_status",
          "type": "uint8"
        }
      ],
      "name": "setStatus",
      "outputs": [],
      "payable": false,
      "stateMutability": "nonpayable",
      "type": "function"
    },
    {
      "constant": false,
      "inputs": [
        {
          "name": "_assetAddress",
          "type": "address"
        },
        {
          "name": "_count",
          "type": "uint256"
        }
      ],
      "name": "setInventory",
      "outputs": [],
      "payable": false,
      "stateMutability": "nonpayable",
      "type": "function"
    },
    {
      "constant": false,
      "inputs": [
        {
          "name": "_assetAddress",
          "type": "address"
        },
        {
          "name": "_qty",
          "type": "uint256"
        }
      ],
      "name": "addInventory",
      "outputs": [],
      "payable": false,
      "stateMutability": "nonpayable",
      "type": "function"
    },
    {
      "constant": false,
      "inputs": [
        {
          "name": "_assetAddress",
          "type": "address"
        },
        {
          "name": "_qty",
          "type": "uint256"
        }
      ],
      "name": "subtractInventory",
      "outputs": [],
      "payable": false,
      "stateMutability": "nonpayable",
      "type": "function"
    },
    {
      "constant": false,
      "inputs": [
        {
          "name": "_address",
          "type": "address"
        }
      ],
      "name": "setSplytManager",
      "outputs": [],
      "payable": false,
      "stateMutability": "nonpayable",
      "type": "function"
    },
    {
      "constant": true,
      "inputs": [
        {
          "name": "_assetId",
          "type": "bytes12"
        }
      ],
      "name": "getAddressById",
      "outputs": [
        {
          "name": "",
          "type": "address"
        }
      ],
      "payable": false,
      "stateMutability": "view",
      "type": "function"
    },
    {
      "constant": true,
      "inputs": [
        {
          "name": "_assetAddress",
          "type": "address"
        }
      ],
      "name": "getIdByAddress",
      "outputs": [
        {
          "name": "",
          "type": "bytes12"
        }
      ],
      "payable": false,
      "stateMutability": "view",
      "type": "function"
    },
    {
      "constant": true,
      "inputs": [
        {
          "name": "_index",
          "type": "uint256"
        }
      ],
      "name": "getAddressByIndex",
      "outputs": [
        {
          "name": "",
          "type": "address"
        }
      ],
      "payable": false,
      "stateMutability": "view",
      "type": "function"
    },
    {
      "constant": true,
      "inputs": [
        {
          "name": "_address",
          "type": "address"
        }
      ],
      "name": "isManager",
      "outputs": [
        {
          "name": "",
          "type": "bool"
        }
      ],
      "payable": false,
      "stateMutability": "view",
      "type": "function"
    },
    {
      "constant": false,
      "inputs": [
        {
          "name": "_newAddress",
          "type": "address"
        }
      ],
      "name": "transferOwnership",
      "outputs": [],
      "payable": false,
      "stateMutability": "nonpayable",
      "type": "function"
    },
    {
      "constant": false,
      "inputs": [],
      "name": "acceptOwnership",
      "outputs": [],
      "payable": false,
      "stateMutability": "nonpayable",
      "type": "function"
    }
  ],
  "bytecode": "0x608060405234801561001057600080fd5b5060405160208061267c833981016040525160008054600160a060020a0319163317905561003c61008d565b604051809103906000f080158015610058573d6000803e3d6000fd5b5060028054600160a060020a03928316600160a060020a0319918216179091556003805493909216921691909117905561009d565b6040516104348061224883390190565b61219c806100ac6000396000f300608060405260043610620001495763ffffffff60e060020a60003504166303959bb781146200014e5780631e155f0d1462000174578063278e07ce146200020d5780632ca8b9b5146200023757806330ccebb514620002bd5780633b3bec2e14620003065780634666dbcf146200032a5780635286d1ad146200035157806358c02c17146200037657806361e91ea114620003b757806379ba509714620003cf5780637a34748a14620003e75780637b36563e146200040e57806387d5564214620004265780638d449358146200044a5780638da5cb5b1462000462578063a89d490c146200047a578063ce10cf8814620004a4578063d3add99714620004bf578063dff3b49714620004e9578063e30c3978146200052a578063eb95f04a1462000542578063f2fde38b1462000569578063f3ae2415146200058d578063f429f19b14620005c5575b600080fd5b3480156200015b57600080fd5b5062000172600160a060020a0360043516620005fa565b005b3480156200018157600080fd5b50604080516020601f6064356004818101359283018490048402850184019095528184526200017294600160a060020a0319813516946024803595604435600160a060020a0316953695608494930191819084018382808284375094975050843595505050602083013592600160a060020a036040820135169250606081013591506080013562000634565b3480156200021a57600080fd5b5062000172600160a060020a036004351660ff6024351662000a32565b3480156200024457600080fd5b506200025260043562000aef565b60408051600160a060020a0389168152600160a060020a0319881660208201529081018660068111156200028257fe5b60ff168152602081019590955250604080850193909352600160a060020a0390911660608401526080830152519081900360a0019350915050f35b348015620002ca57600080fd5b50620002e1600160a060020a036004351662000ee1565b60405180826006811115620002f257fe5b60ff16815260200191505060405180910390f35b3480156200031357600080fd5b5062000252600160a060020a036004351662000f56565b3480156200033757600080fd5b5062000172600160a060020a036004351660243562000fa5565b3480156200035e57600080fd5b5062000252600160a060020a0319600435166200101f565b3480156200038357600080fd5b506200039b600160a060020a031960043516620010a0565b60408051600160a060020a039092168252519081900360200190f35b348015620003c457600080fd5b506200039b62001110565b348015620003dc57600080fd5b50620001726200111f565b348015620003f457600080fd5b5062000172600160a060020a0360043516602435620011a6565b3480156200041b57600080fd5b506200039b62001220565b3480156200043357600080fd5b5062000172600160a060020a03600435166200122f565b3480156200045757600080fd5b506200039b62001281565b3480156200046f57600080fd5b506200039b62001290565b3480156200048757600080fd5b50620004926200129f565b60408051918252519081900360200190f35b348015620004b157600080fd5b506200039b60043562001332565b348015620004cc57600080fd5b5062000172600160a060020a036004358116906024351662001399565b348015620004f657600080fd5b506200050d600160a060020a036004351662001425565b60408051600160a060020a03199092168252519081900360200190f35b3480156200053757600080fd5b506200039b62001491565b3480156200054f57600080fd5b5062000172600160a060020a0360043516602435620014a0565b3480156200057657600080fd5b5062000172600160a060020a03600435166200151a565b3480156200059a57600080fd5b50620005b1600160a060020a0360043516620015ce565b604080519115158252519081900360200190f35b348015620005d257600080fd5b50620005e9600160a060020a03600435166200163a565b60405180826001811115620002f257fe5b600054600160a060020a031633146200061257600080fd5b60028054600160a060020a031916600160a060020a0392909216919091179055565b600354604080517ff8b2cb4f000000000000000000000000000000000000000000000000000000008152600160a060020a038a8116600483015291516000938493849391169163f8b2cb4f9160248082019260209290919082900301818787803b158015620006a257600080fd5b505af1158015620006b7573d6000803e3d6000fd5b505050506040513d6020811015620006ce57600080fd5b5051600354604080517f4a528837000000000000000000000000000000000000000000000000000000008152600481018c90529051929550600160a060020a0390911691634a528837916024808201926020929091908290030181600087803b1580156200073b57600080fd5b505af115801562000750573d6000803e3d6000fd5b505050506040513d60208110156200076757600080fd5b50519150828211156200077957600080fd5b8b8b8b8b8b8b8b8b8b8a6200078d6200167b565b808b600160a060020a031916600160a060020a03191681526020018a815260200189600160a060020a0316600160a060020a031681526020018060200188815260200187815260200186600160a060020a0316600160a060020a03168152602001858152602001848152602001838152602001828103825289818151815260200191508051906020019080838360005b83811015620008375781810151838201526020016200081d565b50505050905090810190601f168015620008655780820380516001836020036101000a031916815260200191505b509b505050505050505050505050604051809103906000f08015801562000890573d6000803e3d6000fd5b50600354604080517f7f6cdfa6000000000000000000000000000000000000000000000000000000008152600160a060020a038e811660048301528085166024830152604482018790529151939450911691637f6cdfa6916064808201926020929091908290030181600087803b1580156200090b57600080fd5b505af115801562000920573d6000803e3d6000fd5b505050506040513d60208110156200093757600080fd5b5050600254604080517f5ea58c9c000000000000000000000000000000000000000000000000000000008152600160a060020a03198f166004820152600160a060020a03848116602483015291519190921691635ea58c9c9160448083019260209291908290030181600087803b158015620009b257600080fd5b505af1158015620009c7573d6000803e3d6000fd5b505050506040513d6020811015620009de57600080fd5b50506040805160018152600160a060020a038316602082015281517f2539b4cc2b40f86b739ed651d0bf19a6b3db2c37cde9a6de9bd20707832c2677929181900390910190a1505050505050505050505050565b600054600160a060020a031633148062000a565750600354600160a060020a031633145b151562000a6257600080fd5b6040517f2e49d78b000000000000000000000000000000000000000000000000000000008152600160a060020a03831690632e49d78b9083906004018082600681111562000aac57fe5b60ff168152602001915050600060405180830381600087803b15801562000ad257600080fd5b505af115801562000ae7573d6000803e3d6000fd5b505050505050565b600080600080600080600080600260009054906101000a9004600160a060020a0316600160a060020a031663d8ab92088a6040518263ffffffff1660e060020a02815260040180828152602001915050602060405180830381600087803b15801562000b5a57600080fd5b505af115801562000b6f573d6000803e3d6000fd5b505050506040513d602081101562000b8657600080fd5b5051604080517f44de240a00000000000000000000000000000000000000000000000000000000815290519192508291600160a060020a038316916344de240a9160048083019260209291908290030181600087803b15801562000be957600080fd5b505af115801562000bfe573d6000803e3d6000fd5b505050506040513d602081101562000c1557600080fd5b5051604080517f200d2ed20000000000000000000000000000000000000000000000000000000081529051600160a060020a0385169163200d2ed29160048083019260209291908290030181600087803b15801562000c7357600080fd5b505af115801562000c88573d6000803e3d6000fd5b505050506040513d602081101562000c9f57600080fd5b5051604080517fa10ffbed0000000000000000000000000000000000000000000000000000000081529051600160a060020a0386169163a10ffbed9160048083019260209291908290030181600087803b15801562000cfd57600080fd5b505af115801562000d12573d6000803e3d6000fd5b505050506040513d602081101562000d2957600080fd5b5051604080517f5b98c83d0000000000000000000000000000000000000000000000000000000081529051600160a060020a03871691635b98c83d9160048083019260209291908290030181600087803b15801562000d8757600080fd5b505af115801562000d9c573d6000803e3d6000fd5b505050506040513d602081101562000db357600080fd5b5051604080517f08551a530000000000000000000000000000000000000000000000000000000081529051600160a060020a038816916308551a539160048083019260209291908290030181600087803b15801562000e1157600080fd5b505af115801562000e26573d6000803e3d6000fd5b505050506040513d602081101562000e3d57600080fd5b5051604080517f3c5e6c970000000000000000000000000000000000000000000000000000000081529051600160a060020a03891691633c5e6c979160048083019260209291908290030181600087803b15801562000e9b57600080fd5b505af115801562000eb0573d6000803e3d6000fd5b505050506040513d602081101562000ec757600080fd5b5051959f949e50929c50909a509850965090945092505050565b600081600160a060020a031663200d2ed26040518163ffffffff1660e060020a028152600401602060405180830381600087803b15801562000f2257600080fd5b505af115801562000f37573d6000803e3d6000fd5b505050506040513d602081101562000f4e57600080fd5b505192915050565b6000806000806000806000808890508081600160a060020a03166344de240a6040518163ffffffff1660e060020a028152600401602060405180830381600087803b15801562000be957600080fd5b600054600160a060020a031633148062000fc95750600354600160a060020a031633145b151562000fd557600080fd5b81600160a060020a031663423135c7826040518263ffffffff1660e060020a02815260040180828152602001915050600060405180830381600087803b15801562000ad257600080fd5b600254604080517f803936ba000000000000000000000000000000000000000000000000000000008152600160a060020a03198416600482015290516000928392839283928392839283928392600160a060020a039091169163803936ba9160248082019260209290919082900301818787803b15801562000b5a57600080fd5b600254604080517f803936ba000000000000000000000000000000000000000000000000000000008152600160a060020a0319841660048201529051600092600160a060020a03169163803936ba91602480830192602092919082900301818787803b15801562000f2257600080fd5b600254600160a060020a031690565b600054600160a060020a031633146200113757600080fd5b600260009054906101000a9004600160a060020a0316600160a060020a03166379ba50976040518163ffffffff1660e060020a028152600401600060405180830381600087803b1580156200118b57600080fd5b505af1158015620011a0573d6000803e3d6000fd5b50505050565b600054600160a060020a0316331480620011ca5750600354600160a060020a031633145b1515620011d657600080fd5b81600160a060020a0316630adb719f826040518263ffffffff1660e060020a02815260040180828152602001915050600060405180830381600087803b15801562000ad257600080fd5b600354600160a060020a031681565b600054600160a060020a0316331480620012535750600354600160a060020a031633145b15156200125f57600080fd5b60038054600160a060020a031916600160a060020a0392909216919091179055565b600254600160a060020a031681565b600054600160a060020a031681565b600254604080517f2986c0e50000000000000000000000000000000000000000000000000000000081529051600092600160a060020a031691632986c0e591600480830192602092919082900301818787803b158015620012ff57600080fd5b505af115801562001314573d6000803e3d6000fd5b505050506040513d60208110156200132b57600080fd5b5051905090565b600254604080517fd8ab9208000000000000000000000000000000000000000000000000000000008152600481018490529051600092600160a060020a03169163d8ab920891602480830192602092919082900301818787803b15801562000f2257600080fd5b600054600160a060020a0316331480620013bd5750600354600160a060020a031633145b1515620013c957600080fd5b81600160a060020a031663d2245241826040518263ffffffff1660e060020a0281526004018082600160a060020a0316600160a060020a03168152602001915050600060405180830381600087803b15801562000ad257600080fd5b600254604080517fca5ed9d9000000000000000000000000000000000000000000000000000000008152600160a060020a0384811660048301529151600093929092169163ca5ed9d99160248082019260209290919082900301818787803b15801562000f2257600080fd5b600154600160a060020a031681565b600054600160a060020a0316331480620014c45750600354600160a060020a031633145b1515620014d057600080fd5b81600160a060020a031663de77240c826040518263ffffffff1660e060020a02815260040180828152602001915050600060405180830381600087803b15801562000ad257600080fd5b600054600160a060020a03163314806200153e5750600354600160a060020a031633145b15156200154a57600080fd5b600254604080517ff2fde38b000000000000000000000000000000000000000000000000000000008152600160a060020a0384811660048301529151919092169163f2fde38b91602480830192600092919082900301818387803b158015620015b257600080fd5b505af1158015620015c7573d6000803e3d6000fd5b5050505050565b600354604080517ff3ae2415000000000000000000000000000000000000000000000000000000008152600160a060020a0384811660048301529151600093929092169163f3ae24159160248082019260209290919082900301818787803b15801562000f2257600080fd5b600081600160a060020a0316633fe3347a6040518163ffffffff1660e060020a028152600401602060405180830381600087803b15801562000f2257600080fd5b604051610ae4806200168d8339019056006080604052600060045534801561001557600080fd5b50604051610ae4380380610ae48339810160409081528151602080840151928401516060850151608086015160a087015160c088015160e08901516101008a01516101208b0151600280546001606060020a031916740100000000000000000000000000000000000000008c0417905560038b9055600080546201000060b060020a03191662010000600160a060020a038b160217905595909a018051989a96989097949693959294919392916100d1916008918a019061017a565b5060058690556006859055600783905560018054808201825560009182527fb10e2d527612073b26eecdfd717e6a320cf44b4afac2b0732d9fcbe2b7fa0cf6018054600160a060020a031916600160a060020a0387161790556009829055600c839055805461ff001916610100178155891161014e576000610151565b60015b6000805460ff19166001838181111561016657fe5b021790555050505050505050505050610215565b828054600181600116156101000203166002900490600052602060002090601f016020900481019282601f106101bb57805160ff19168380011785556101e8565b828001600101855582156101e8579182015b828111156101e85782518255916020019190600101906101cd565b506101f49291506101f8565b5090565b61021291905b808211156101f457600081556001016101fe565b90565b6108c0806102246000396000f30060806040526004361061011c5763ffffffff7c010000000000000000000000000000000000000000000000000000000060003504166308551a5381146101215780630adb719f14610152578063200d2ed21461016c5780632e49d78b146101a55780633c5e6c97146101c05780633fe3347a146101e7578063423135c71461020c57806344de240a146102245780634a79d50c146102635780635433e2f5146102ed5780635b98c83d146103025780635c40b9dc146103175780635e2b956d1461032f57806362030a86146103445780638622d35f1461035c5780638f620487146103715780639b73235014610386578063a10ffbed1461039b578063d2245241146103b0578063de77240c146103d1578063f9c36fde146103e9575b600080fd5b34801561012d57600080fd5b506101366103fe565b60408051600160a060020a039092168252519081900360200190f35b34801561015e57600080fd5b5061016a600435610413565b005b34801561017857600080fd5b5061018161049b565b6040518082600681111561019157fe5b60ff16815260200191505060405180910390f35b3480156101b157600080fd5b5061016a60ff600435166104a9565b3480156101cc57600080fd5b506101d5610549565b60408051918252519081900360200190f35b3480156101f357600080fd5b506101fc61054f565b6040518082600181111561019157fe5b34801561021857600080fd5b5061016a600435610558565b34801561023057600080fd5b506102396105da565b6040805173ffffffffffffffffffffffffffffffffffffffff199092168252519081900360200190f35b34801561026f57600080fd5b506102786105f7565b6040805160208082528351818301528351919283929083019185019080838360005b838110156102b257818101518382015260200161029a565b50505050905090810190601f1680156102df5780820380516001836020036101000a031916815260200191505b509250505060405180910390f35b3480156102f957600080fd5b506101d5610685565b34801561030e57600080fd5b506101d561068b565b34801561032357600080fd5b50610136600435610691565b34801561033b57600080fd5b506101d56106b9565b34801561035057600080fd5b506101366004356106bf565b34801561036857600080fd5b506101d56106eb565b34801561037d57600080fd5b506101d56106f1565b34801561039257600080fd5b506101366106f7565b3480156103a757600080fd5b506101d5610706565b3480156103bc57600080fd5b5061016a600160a060020a036004351661070c565b3480156103dd57600080fd5b5061016a6004356107e7565b3480156103f557600080fd5b506101d561088e565b600054620100009004600160a060020a031681565b6040805160e060020a63f3ae24150281523360048201819052915163f3ae2415916024808201926020929091908290030181600087803b15801561045657600080fd5b505af115801561046a573d6000803e3d6000fd5b505050506040513d602081101561048057600080fd5b5051151560011461049057600080fd5b600c80549091019055565b600054610100900460ff1681565b6040805160e060020a63f3ae24150281523360048201819052915163f3ae2415916024808201926020929091908290030181600087803b1580156104ec57600080fd5b505af1158015610500573d6000803e3d6000fd5b505050506040513d602081101561051657600080fd5b5051151560011461052657600080fd5b6000805482919061ff00191661010083600681111561054157fe5b021790555050565b60055481565b60005460ff1681565b6040805160e060020a63f3ae24150281523360048201819052915163f3ae2415916024808201926020929091908290030181600087803b15801561059b57600080fd5b505af11580156105af573d6000803e3d6000fd5b505050506040513d60208110156105c557600080fd5b505115156001146105d557600080fd5b600c55565b600254740100000000000000000000000000000000000000000281565b6008805460408051602060026001851615610100026000190190941693909304601f8101849004840282018401909252818152929183018282801561067d5780601f106106525761010080835404028352916020019161067d565b820191906000526020600020905b81548152906001019060200180831161066057829003601f168201915b505050505081565b60095481565b600c5481565b600180548290811061069f57fe5b600091825260209091200154600160a060020a0316905081565b60075481565b60006001828154811015156106d057fe5b600091825260209091200154600160a060020a031692915050565b60015490565b60065481565b600b54600160a060020a031681565b60035481565b6040805160e060020a63f3ae24150281523360048201819052915163f3ae2415916024808201926020929091908290030181600087803b15801561074f57600080fd5b505af1158015610763573d6000803e3d6000fd5b505050506040513d602081101561077957600080fd5b5051151560011461078957600080fd5b6001805480820182556000919091527fb10e2d527612073b26eecdfd717e6a320cf44b4afac2b0732d9fcbe2b7fa0cf601805473ffffffffffffffffffffffffffffffffffffffff1916600160a060020a0392909216919091179055565b6040805160e060020a63f3ae24150281523360048201819052915163f3ae2415916024808201926020929091908290030181600087803b15801561082a57600080fd5b505af115801561083e573d6000803e3d6000fd5b505050506040513d602081101561085457600080fd5b5051151560011461086457600080fd5b600c805482900390819055151561088b57600080546004919061ff00191661010083610541565b50565b600454815600a165627a7a72305820c88bbc6b0d29984d86db5fe1f8b793f4887a8b118080ef882f29d9a2f7a747370029a165627a7a72305820aed4a8cf3ecad0b339051a1355d7227ebcc99f1bfb48ffbb4100871ebd2e14e90029608060405260008054600160a060020a0319163317905561040f806100256000396000f3006080604052600436106100985763ffffffff7c01000000000000000000000000000000000000000000000000000000006000350416632986c0e5811461009d5780635ea58c9c146100c457806379ba509714610113578063803936ba1461012a5780638da5cb5b14610175578063ca5ed9d91461018a578063d8ab9208146101d5578063e30c3978146101ed578063f2fde38b14610202575b600080fd5b3480156100a957600080fd5b506100b2610223565b60408051918252519081900360200190f35b3480156100d057600080fd5b506100ff73ffffffffffffffffffffffffffffffffffffffff1960043516602435600160a060020a0316610229565b604080519115158252519081900360200190f35b34801561011f57600080fd5b506101286102d8565b005b34801561013657600080fd5b5061015973ffffffffffffffffffffffffffffffffffffffff1960043516610320565b60408051600160a060020a039092168252519081900360200190f35b34801561018157600080fd5b5061015961033b565b34801561019657600080fd5b506101ab600160a060020a036004351661034a565b6040805173ffffffffffffffffffffffffffffffffffffffff199092168252519081900360200190f35b3480156101e157600080fd5b50610159600435610373565b3480156101f957600080fd5b5061015961038e565b34801561020e57600080fd5b50610128600160a060020a036004351661039d565b60055481565b60008054600160a060020a0316331461024157600080fd5b50600160a060020a0316600081815260026020908152604080832080546bffffffffffffffffffffffff191674010000000000000000000000000000000000000000870417905573ffffffffffffffffffffffffffffffffffffffff199485168352600382528083208054861685179055600580548452600490925290912080549093169091179091558054600190810190915590565b600154600160a060020a031633146102ef57600080fd5b6001546000805473ffffffffffffffffffffffffffffffffffffffff1916600160a060020a03909216919091179055565b600360205260009081526040902054600160a060020a031681565b600054600160a060020a031681565b600260205260009081526040902054740100000000000000000000000000000000000000000281565b600460205260009081526040902054600160a060020a031681565b600154600160a060020a031681565b600054600160a060020a031633146103b457600080fd5b6001805473ffffffffffffffffffffffffffffffffffffffff1916600160a060020a03929092169190911790555600a165627a7a72305820407ebe2c2ff45ccc148661fd808de67bf1c8ce192c67569bbdd2e5baeefb6c7c0029",
  "source": "pragma solidity ^0.4.24;\n\nimport \"./Owned.sol\";\nimport \"./Events.sol\";\nimport \"./Asset.sol\";\nimport \"./AssetData.sol\";\nimport \"./SplytManager.sol\";\n\ncontract AssetManager is Owned, Events {\n    \n    AssetData public assetData;\n    SplytManager public splytManager;\n\n    //allow owner or splytManager\n    modifier onlyOwnerOrSplyt() {\n        require(owner == msg.sender || address(splytManager) == msg.sender);\n        _;\n    }\n\n    constructor(address _splytManager) public {\n        assetData = new AssetData();\n        splytManager = SplytManager(_splytManager);\n    }\n\n    function createAsset(\n        bytes12 _assetId, \n        uint _term, \n        address _seller, \n        string _title, \n        uint _totalCost, \n        uint _expirationDate, \n        address _mpAddress, \n        uint _mpAmount,\n        uint _inventoryCount) public {\n\n        //calculate stake\n        uint sellersBal = splytManager.getBalance(_seller);\n        uint stakeTokens = splytManager.calculateStakeTokens(_totalCost);\n\n        if(stakeTokens > sellersBal) {\n            revert();\n        }\n\n         Asset asset = new Asset(\n            _assetId, \n            _term, \n            _seller, \n            _title, \n            _totalCost, \n            _expirationDate, \n            _mpAddress, \n            _mpAmount,\n            _inventoryCount,\n            stakeTokens\n            ); \n\n        splytManager.internalContribute(_seller, asset, stakeTokens);\n        assetData.save(_assetId, address(asset));\n        emit Success(1, address(asset));\n    }\n\n    function getAssetInfoByAssetId(bytes12 _assetId) public view returns (address, bytes12, Asset.Statuses, uint, uint, address, uint) {\n        Asset asset = Asset(assetData.addressByAssetId(_assetId));  \n        return (address(asset), asset.assetId(), asset.status(), asset.term(), asset.inventoryCount(), asset.seller(), asset.totalCost());\n    }\n\n    function getAssetInfoByAddress(address _assetAddress) public view returns (address, bytes12, Asset.Statuses, uint, uint, address, uint) {\n        Asset asset = Asset(_assetAddress);\n        return (address(asset), asset.assetId(), asset.status(), asset.term(), asset.inventoryCount(), asset.seller(), asset.totalCost());        \n    }\n\n    function getAssetInfoByIndex(uint _index) public view returns (address, bytes12, Asset.Statuses, uint, uint, address, uint){\n        Asset asset = Asset(assetData.addressByIndex(_index));\n        return (address(asset), asset.assetId(), asset.status(), asset.term(), asset.inventoryCount(), asset.seller(), asset.totalCost());                   \n    }\n\n\n    function getAssetsLength() public view returns (uint){\n        return (assetData.index());\n    }\n\n    function getDataContractAddress() public view returns (address) {\n       return address(assetData);\n    }\n\n\n    //@dev update data contract address\n    function setDataContract(address _assetData) onlyOwner public {\n       assetData = AssetData(_assetData);\n    }\n\n    //@dev get asset status\n    function getType(address _assetAddress) public view returns (Asset.AssetTypes) {\n        return Asset(_assetAddress).assetType();\n    }\n\n    //@dev get asset status\n    function getStatus(address _assetAddress) public view returns (Asset.Statuses) {\n        return Asset(_assetAddress).status();\n    }\n\n    //@dev update data contract address\n    function addMarketPlace(address _assetAddress, address _marketPlace) onlyOwnerOrSplyt public {\n        Asset(_assetAddress).addMarketPlace(_marketPlace);\n    }\n\n    //@dev update data contract address\n    function setStatus(address _assetAddress, Asset.Statuses _status) onlyOwnerOrSplyt public {\n        Asset(_assetAddress).setStatus(_status);\n    }\n\n    //@dev update data contract address\n    function setInventory(address _assetAddress, uint _count) onlyOwnerOrSplyt public {\n        Asset(_assetAddress).setInventory(_count);\n    }\n\n\n    function addInventory(address _assetAddress, uint _qty) public onlyOwnerOrSplyt {\n       Asset(_assetAddress).addInventory(_qty);\n    }\n\n    function subtractInventory(address _assetAddress, uint _qty) public onlyOwnerOrSplyt {\n       Asset(_assetAddress).subtractInventory(_qty);\n    }\n   \n\n    function setSplytManager(address _address) public onlyOwnerOrSplyt {\n        splytManager = SplytManager(_address);\n    }\n\n\n    function getAddressById(bytes12 _assetId) public view returns (address) {\n      return assetData.addressByAssetId(_assetId);\n    }\n    \n    function getIdByAddress(address _assetAddress) public view returns (bytes12) {\n      return assetData.assetIdByAddress(_assetAddress);\n    }    \n\n    function getAddressByIndex(uint _index) public view returns (address) {\n      return assetData.addressByIndex(_index);\n    }    \n\n    //@dev checks if address is authorized write to the data contracts\n    function isManager(address _address) public view returns (bool) {\n        return splytManager.isManager(_address);\n    }\n   \n   //@dev new manager contract that's going to be replacing this\n   //Old manager call this function and proposes the new address\n    function transferOwnership(address _newAddress) public onlyOwnerOrSplyt {\n        assetData.transferOwnership(_newAddress);\n    }\n\n    //@dev if new data contract is deployed, the creator proposes manager adress then the manager needs to accept\n    //The new updated manager contract calls this function\n    function acceptOwnership() public onlyOwner {\n        assetData.acceptOwnership();\n    }\n\n} ",
  "sourcePath": "/Users/scott/git/splytprotocol/contracts/AssetManager.sol",
  "compiler": {
    "name": "solc",
    "version": "0.4.24+commit.e67f0147.Emscripten.clang"
  },
  "schemaVersion": "2.0.1",
  "updatedAt": "2018-09-10T23:03:05.570Z"
}