{
  "contractName": "AssetManager",
  "abi": [
    {
      "constant": true,
      "inputs": [],
      "name": "splytManager",
      "outputs": [
        {
          "name": "",
          "type": "address"
        }
      ],
      "payable": false,
      "stateMutability": "view",
      "type": "function"
    },
    {
      "constant": true,
      "inputs": [],
      "name": "assetData",
      "outputs": [
        {
          "name": "",
          "type": "address"
        }
      ],
      "payable": false,
      "stateMutability": "view",
      "type": "function"
    },
    {
      "constant": true,
      "inputs": [],
      "name": "owner",
      "outputs": [
        {
          "name": "",
          "type": "address"
        }
      ],
      "payable": false,
      "stateMutability": "view",
      "type": "function"
    },
    {
      "constant": true,
      "inputs": [],
      "name": "pendingOwner",
      "outputs": [
        {
          "name": "",
          "type": "address"
        }
      ],
      "payable": false,
      "stateMutability": "view",
      "type": "function"
    },
    {
      "inputs": [
        {
          "name": "_splytManager",
          "type": "address"
        }
      ],
      "payable": false,
      "stateMutability": "nonpayable",
      "type": "constructor"
    },
    {
      "constant": false,
      "inputs": [
        {
          "name": "_assetId",
          "type": "bytes12"
        },
        {
          "name": "_term",
          "type": "uint256"
        },
        {
          "name": "_seller",
          "type": "address"
        },
        {
          "name": "_title",
          "type": "string"
        },
        {
          "name": "_totalCost",
          "type": "uint256"
        },
        {
          "name": "_expirationDate",
          "type": "uint256"
        },
        {
          "name": "_mpAddress",
          "type": "address"
        },
        {
          "name": "_mpAmount",
          "type": "uint256"
        },
        {
          "name": "_inventoryCount",
          "type": "uint256"
        }
      ],
      "name": "createAsset",
      "outputs": [],
      "payable": false,
      "stateMutability": "nonpayable",
      "type": "function"
    },
    {
      "constant": true,
      "inputs": [
        {
          "name": "_assetAddress",
          "type": "address"
        }
      ],
      "name": "getAssetInfo",
      "outputs": [
        {
          "name": "",
          "type": "bytes12"
        },
        {
          "name": "",
          "type": "uint256"
        },
        {
          "name": "",
          "type": "uint256"
        }
      ],
      "payable": false,
      "stateMutability": "view",
      "type": "function"
    },
    {
      "constant": true,
      "inputs": [],
      "name": "getDataContractAddress",
      "outputs": [
        {
          "name": "",
          "type": "address"
        }
      ],
      "payable": false,
      "stateMutability": "view",
      "type": "function"
    },
    {
      "constant": false,
      "inputs": [
        {
          "name": "_assetData",
          "type": "address"
        }
      ],
      "name": "setDataContract",
      "outputs": [],
      "payable": false,
      "stateMutability": "nonpayable",
      "type": "function"
    },
    {
      "constant": true,
      "inputs": [
        {
          "name": "_assetAddress",
          "type": "address"
        }
      ],
      "name": "getType",
      "outputs": [
        {
          "name": "",
          "type": "uint8"
        }
      ],
      "payable": false,
      "stateMutability": "view",
      "type": "function"
    },
    {
      "constant": true,
      "inputs": [
        {
          "name": "_assetAddress",
          "type": "address"
        }
      ],
      "name": "getStatus",
      "outputs": [
        {
          "name": "",
          "type": "uint8"
        }
      ],
      "payable": false,
      "stateMutability": "view",
      "type": "function"
    },
    {
      "constant": false,
      "inputs": [
        {
          "name": "_assetAddress",
          "type": "address"
        },
        {
          "name": "_marketPlace",
          "type": "address"
        }
      ],
      "name": "addMarketPlace",
      "outputs": [],
      "payable": false,
      "stateMutability": "nonpayable",
      "type": "function"
    },
    {
      "constant": false,
      "inputs": [
        {
          "name": "_assetAddress",
          "type": "address"
        },
        {
          "name": "_status",
          "type": "uint8"
        }
      ],
      "name": "setStatus",
      "outputs": [],
      "payable": false,
      "stateMutability": "nonpayable",
      "type": "function"
    },
    {
      "constant": false,
      "inputs": [
        {
          "name": "_assetAddress",
          "type": "address"
        },
        {
          "name": "_count",
          "type": "uint256"
        }
      ],
      "name": "setInventory",
      "outputs": [],
      "payable": false,
      "stateMutability": "nonpayable",
      "type": "function"
    },
    {
      "constant": false,
      "inputs": [
        {
          "name": "_assetAddress",
          "type": "address"
        },
        {
          "name": "_qty",
          "type": "uint256"
        }
      ],
      "name": "addInventory",
      "outputs": [],
      "payable": false,
      "stateMutability": "nonpayable",
      "type": "function"
    },
    {
      "constant": false,
      "inputs": [
        {
          "name": "_assetAddress",
          "type": "address"
        },
        {
          "name": "_qty",
          "type": "uint256"
        }
      ],
      "name": "subtractInventory",
      "outputs": [],
      "payable": false,
      "stateMutability": "nonpayable",
      "type": "function"
    },
    {
      "constant": false,
      "inputs": [
        {
          "name": "_address",
          "type": "address"
        }
      ],
      "name": "setSplytManager",
      "outputs": [],
      "payable": false,
      "stateMutability": "nonpayable",
      "type": "function"
    },
    {
      "constant": true,
      "inputs": [
        {
          "name": "_assetId",
          "type": "bytes12"
        }
      ],
      "name": "getAddressById",
      "outputs": [
        {
          "name": "",
          "type": "address"
        }
      ],
      "payable": false,
      "stateMutability": "view",
      "type": "function"
    },
    {
      "constant": true,
      "inputs": [
        {
          "name": "_assetAddress",
          "type": "address"
        }
      ],
      "name": "getIdByAddress",
      "outputs": [
        {
          "name": "",
          "type": "bytes12"
        }
      ],
      "payable": false,
      "stateMutability": "view",
      "type": "function"
    },
    {
      "constant": true,
      "inputs": [
        {
          "name": "_address",
          "type": "address"
        }
      ],
      "name": "isManager",
      "outputs": [
        {
          "name": "",
          "type": "bool"
        }
      ],
      "payable": false,
      "stateMutability": "view",
      "type": "function"
    },
    {
      "constant": false,
      "inputs": [
        {
          "name": "_newAddress",
          "type": "address"
        }
      ],
      "name": "transferOwnership",
      "outputs": [],
      "payable": false,
      "stateMutability": "nonpayable",
      "type": "function"
    },
    {
      "constant": false,
      "inputs": [],
      "name": "acceptOwnership",
      "outputs": [],
      "payable": false,
      "stateMutability": "nonpayable",
      "type": "function"
    }
  ],
  "bytecode": "0x608060405234801561001057600080fd5b5060405160208061216a833981016040525160008054600160a060020a0319163317905561003c61008d565b604051809103906000f080158015610058573d6000803e3d6000fd5b5060028054600160a060020a03928316600160a060020a0319918216179091556003805493909216921691909117905561009d565b60405161043780611d3383390190565b611c87806100ac6000396000f300608060405260043610620001195763ffffffff60e060020a60003504166303959bb781146200011e5780631e155f0d1462000144578063278e07ce14620001dd57806330ccebb514620002075780634666dbcf146200025057806358c02c17146200027757806361e91ea114620002b857806379ba509714620002d05780637a34748a14620002e85780637b36563e146200030f57806387d5564214620003275780638d449358146200034b5780638da5cb5b1462000363578063afad2e16146200037b578063d3add99714620003c8578063dff3b49714620003f2578063e30c39781462000433578063eb95f04a146200044b578063f2fde38b1462000472578063f3ae24151462000496578063f429f19b14620004ce575b600080fd5b3480156200012b57600080fd5b5062000142600160a060020a036004351662000503565b005b3480156200015157600080fd5b50604080516020601f6064356004818101359283018490048402850184019095528184526200014294600160a060020a0319813516946024803595604435600160a060020a0316953695608494930191819084018382808284375094975050843595505050602083013592600160a060020a03604082013516925060608101359150608001356200053d565b348015620001ea57600080fd5b5062000142600160a060020a036004351660ff60243516620008f7565b3480156200021457600080fd5b506200022b600160a060020a0360043516620009b4565b604051808260068111156200023c57fe5b60ff16815260200191505060405180910390f35b3480156200025d57600080fd5b5062000142600160a060020a036004351660243562000a29565b3480156200028457600080fd5b506200029c600160a060020a03196004351662000aa3565b60408051600160a060020a039092168252519081900360200190f35b348015620002c557600080fd5b506200029c62000b13565b348015620002dd57600080fd5b506200014262000b22565b348015620002f557600080fd5b5062000142600160a060020a036004351660243562000ba9565b3480156200031c57600080fd5b506200029c62000c23565b3480156200033457600080fd5b5062000142600160a060020a036004351662000c32565b3480156200035857600080fd5b506200029c62000c84565b3480156200037057600080fd5b506200029c62000c93565b3480156200038857600080fd5b506200039f600160a060020a036004351662000ca2565b60408051600160a060020a03199094168452602084019290925282820152519081900360600190f35b348015620003d557600080fd5b5062000142600160a060020a036004358116906024351662000e3a565b348015620003ff57600080fd5b5062000416600160a060020a036004351662000ec6565b60408051600160a060020a03199092168252519081900360200190f35b3480156200044057600080fd5b506200029c62000f32565b3480156200045857600080fd5b5062000142600160a060020a036004351660243562000f41565b3480156200047f57600080fd5b5062000142600160a060020a036004351662000fbb565b348015620004a357600080fd5b50620004ba600160a060020a03600435166200106f565b604080519115158252519081900360200190f35b348015620004db57600080fd5b50620004f2600160a060020a0360043516620010db565b604051808260018111156200023c57fe5b600054600160a060020a031633146200051b57600080fd5b60028054600160a060020a031916600160a060020a0392909216919091179055565b600354604080517ff8b2cb4f000000000000000000000000000000000000000000000000000000008152600160a060020a038a8116600483015291516000938493849391169163f8b2cb4f9160248082019260209290919082900301818787803b158015620005ab57600080fd5b505af1158015620005c0573d6000803e3d6000fd5b505050506040513d6020811015620005d757600080fd5b5051600354604080517f4a528837000000000000000000000000000000000000000000000000000000008152600481018c90529051929550600160a060020a0390911691634a528837916024808201926020929091908290030181600087803b1580156200064457600080fd5b505af115801562000659573d6000803e3d6000fd5b505050506040513d60208110156200067057600080fd5b50519150828211156200068257600080fd5b8b8b8b8b8b8b8b8b8b8a620006966200111c565b808b600160a060020a031916600160a060020a03191681526020018a815260200189600160a060020a0316600160a060020a031681526020018060200188815260200187815260200186600160a060020a0316600160a060020a03168152602001858152602001848152602001838152602001828103825289818151815260200191508051906020019080838360005b838110156200074057818101518382015260200162000726565b50505050905090810190601f1680156200076e5780820380516001836020036101000a031916815260200191505b509b505050505050505050505050604051809103906000f08015801562000799573d6000803e3d6000fd5b50600354604080517f7f6cdfa6000000000000000000000000000000000000000000000000000000008152600160a060020a038e811660048301528085166024830152604482018790529151939450911691637f6cdfa6916064808201926020929091908290030181600087803b1580156200081457600080fd5b505af115801562000829573d6000803e3d6000fd5b505050506040513d60208110156200084057600080fd5b5050600254604080517f5ea58c9c000000000000000000000000000000000000000000000000000000008152600160a060020a03198f166004820152600160a060020a03848116602483015291519190921691635ea58c9c9160448083019260209291908290030181600087803b158015620008bb57600080fd5b505af1158015620008d0573d6000803e3d6000fd5b505050506040513d6020811015620008e757600080fd5b5050505050505050505050505050565b600054600160a060020a03163314806200091b5750600354600160a060020a031633145b15156200092757600080fd5b6040517f2e49d78b000000000000000000000000000000000000000000000000000000008152600160a060020a03831690632e49d78b908390600401808260068111156200097157fe5b60ff168152602001915050600060405180830381600087803b1580156200099757600080fd5b505af1158015620009ac573d6000803e3d6000fd5b505050505050565b600081600160a060020a031663200d2ed26040518163ffffffff1660e060020a028152600401602060405180830381600087803b158015620009f557600080fd5b505af115801562000a0a573d6000803e3d6000fd5b505050506040513d602081101562000a2157600080fd5b505192915050565b600054600160a060020a031633148062000a4d5750600354600160a060020a031633145b151562000a5957600080fd5b81600160a060020a031663423135c7826040518263ffffffff1660e060020a02815260040180828152602001915050600060405180830381600087803b1580156200099757600080fd5b600254604080517f3baf43df000000000000000000000000000000000000000000000000000000008152600160a060020a0319841660048201529051600092600160a060020a031691633baf43df91602480830192602092919082900301818787803b158015620009f557600080fd5b600254600160a060020a031690565b600054600160a060020a0316331462000b3a57600080fd5b600260009054906101000a9004600160a060020a0316600160a060020a03166379ba50976040518163ffffffff1660e060020a028152600401600060405180830381600087803b15801562000b8e57600080fd5b505af115801562000ba3573d6000803e3d6000fd5b50505050565b600054600160a060020a031633148062000bcd5750600354600160a060020a031633145b151562000bd957600080fd5b81600160a060020a0316630adb719f826040518263ffffffff1660e060020a02815260040180828152602001915050600060405180830381600087803b1580156200099757600080fd5b600354600160a060020a031681565b600054600160a060020a031633148062000c565750600354600160a060020a031633145b151562000c6257600080fd5b60038054600160a060020a031916600160a060020a0392909216919091179055565b600254600160a060020a031681565b600054600160a060020a031681565b60008060008084905080600160a060020a03166344de240a6040518163ffffffff1660e060020a028152600401602060405180830381600087803b15801562000cea57600080fd5b505af115801562000cff573d6000803e3d6000fd5b505050506040513d602081101562000d1657600080fd5b5051604080517fa10ffbed0000000000000000000000000000000000000000000000000000000081529051600160a060020a0384169163a10ffbed9160048083019260209291908290030181600087803b15801562000d7457600080fd5b505af115801562000d89573d6000803e3d6000fd5b505050506040513d602081101562000da057600080fd5b5051604080517f5b98c83d0000000000000000000000000000000000000000000000000000000081529051600160a060020a03851691635b98c83d9160048083019260209291908290030181600087803b15801562000dfe57600080fd5b505af115801562000e13573d6000803e3d6000fd5b505050506040513d602081101562000e2a57600080fd5b5051919790965090945092505050565b600054600160a060020a031633148062000e5e5750600354600160a060020a031633145b151562000e6a57600080fd5b81600160a060020a031663d2245241826040518263ffffffff1660e060020a0281526004018082600160a060020a0316600160a060020a03168152602001915050600060405180830381600087803b1580156200099757600080fd5b600254604080517ff7d645fb000000000000000000000000000000000000000000000000000000008152600160a060020a0384811660048301529151600093929092169163f7d645fb9160248082019260209290919082900301818787803b158015620009f557600080fd5b600154600160a060020a031681565b600054600160a060020a031633148062000f655750600354600160a060020a031633145b151562000f7157600080fd5b81600160a060020a031663de77240c826040518263ffffffff1660e060020a02815260040180828152602001915050600060405180830381600087803b1580156200099757600080fd5b600054600160a060020a031633148062000fdf5750600354600160a060020a031633145b151562000feb57600080fd5b600254604080517ff2fde38b000000000000000000000000000000000000000000000000000000008152600160a060020a0384811660048301529151919092169163f2fde38b91602480830192600092919082900301818387803b1580156200105357600080fd5b505af115801562001068573d6000803e3d6000fd5b5050505050565b600354604080517ff3ae2415000000000000000000000000000000000000000000000000000000008152600160a060020a0384811660048301529151600093929092169163f3ae24159160248082019260209290919082900301818787803b158015620009f557600080fd5b600081600160a060020a0316633fe3347a6040518163ffffffff1660e060020a028152600401602060405180830381600087803b158015620009f557600080fd5b604051610b2e806200112e833901905600608060405260006004556008805460ff1916600117905534801561002257600080fd5b50604051610b2e380380610b2e8339810160409081528151602080840151928401516060850151608086015160a087015160c088015160e08901516101008a01516101208b0151600280546001606060020a031916740100000000000000000000000000000000000000008c0417905560038b9055600080546201000060b060020a03191662010000600160a060020a038b160217905595909a018051989a96989097949693959294919392916100de916009918a0190610187565b5060058690556006859055600783905560018054808201825560009182527fb10e2d527612073b26eecdfd717e6a320cf44b4afac2b0732d9fcbe2b7fa0cf6018054600160a060020a031916600160a060020a038716179055600a829055600d839055805461ff001916610100178155891161015b57600061015e565b60015b6000805460ff19166001838181111561017357fe5b021790555050505050505050505050610222565b828054600181600116156101000203166002900490600052602060002090601f016020900481019282601f106101c857805160ff19168380011785556101f5565b828001600101855582156101f5579182015b828111156101f55782518255916020019190600101906101da565b50610201929150610205565b5090565b61021f91905b80821115610201576000815560010161020b565b90565b6108fd806102316000396000f3006080604052600436106101275763ffffffff7c010000000000000000000000000000000000000000000000000000000060003504166308551a53811461012c5780630adb719f1461015d578063200d2ed2146101775780632e49d78b146101b05780633c5e6c97146101cb5780633fe3347a146101f2578063423135c71461021757806344de240a1461022f5780634a79d50c1461026e5780635433e2f5146102f85780635b98c83d1461030d5780635c40b9dc146103225780635e2b956d1461033a57806362030a861461034f5780638622d35f146103675780638f6204871461037c5780639b73235014610391578063a10ffbed146103a6578063d2245241146103bb578063de77240c146103dc578063f7ec2f35146103f4578063f9c36fde1461041d575b600080fd5b34801561013857600080fd5b50610141610432565b60408051600160a060020a039092168252519081900360200190f35b34801561016957600080fd5b50610175600435610447565b005b34801561018357600080fd5b5061018c6104cf565b6040518082600681111561019c57fe5b60ff16815260200191505060405180910390f35b3480156101bc57600080fd5b5061017560ff600435166104dd565b3480156101d757600080fd5b506101e061057d565b60408051918252519081900360200190f35b3480156101fe57600080fd5b50610207610583565b6040518082600181111561019c57fe5b34801561022357600080fd5b5061017560043561058c565b34801561023b57600080fd5b5061024461060e565b6040805173ffffffffffffffffffffffffffffffffffffffff199092168252519081900360200190f35b34801561027a57600080fd5b5061028361062b565b6040805160208082528351818301528351919283929083019185019080838360005b838110156102bd5781810151838201526020016102a5565b50505050905090810190601f1680156102ea5780820380516001836020036101000a031916815260200191505b509250505060405180910390f35b34801561030457600080fd5b506101e06106b9565b34801561031957600080fd5b506101e06106bf565b34801561032e57600080fd5b506101416004356106c5565b34801561034657600080fd5b506101e06106ed565b34801561035b57600080fd5b506101416004356106f3565b34801561037357600080fd5b506101e061071f565b34801561038857600080fd5b506101e0610725565b34801561039d57600080fd5b5061014161072b565b3480156103b257600080fd5b506101e061073a565b3480156103c757600080fd5b50610175600160a060020a0360043516610740565b3480156103e857600080fd5b5061017560043561081b565b34801561040057600080fd5b506104096108c2565b604080519115158252519081900360200190f35b34801561042957600080fd5b506101e06108cb565b600054620100009004600160a060020a031681565b6040805160e060020a63f3ae24150281523360048201819052915163f3ae2415916024808201926020929091908290030181600087803b15801561048a57600080fd5b505af115801561049e573d6000803e3d6000fd5b505050506040513d60208110156104b457600080fd5b505115156001146104c457600080fd5b600d80549091019055565b600054610100900460ff1681565b6040805160e060020a63f3ae24150281523360048201819052915163f3ae2415916024808201926020929091908290030181600087803b15801561052057600080fd5b505af1158015610534573d6000803e3d6000fd5b505050506040513d602081101561054a57600080fd5b5051151560011461055a57600080fd5b6000805482919061ff00191661010083600681111561057557fe5b021790555050565b60055481565b60005460ff1681565b6040805160e060020a63f3ae24150281523360048201819052915163f3ae2415916024808201926020929091908290030181600087803b1580156105cf57600080fd5b505af11580156105e3573d6000803e3d6000fd5b505050506040513d60208110156105f957600080fd5b5051151560011461060957600080fd5b600d55565b600254740100000000000000000000000000000000000000000281565b6009805460408051602060026001851615610100026000190190941693909304601f810184900484028201840190925281815292918301828280156106b15780601f10610686576101008083540402835291602001916106b1565b820191906000526020600020905b81548152906001019060200180831161069457829003601f168201915b505050505081565b600a5481565b600d5481565b60018054829081106106d357fe5b600091825260209091200154600160a060020a0316905081565b60075481565b600060018281548110151561070457fe5b600091825260209091200154600160a060020a031692915050565b60015490565b60065481565b600c54600160a060020a031681565b60035481565b6040805160e060020a63f3ae24150281523360048201819052915163f3ae2415916024808201926020929091908290030181600087803b15801561078357600080fd5b505af1158015610797573d6000803e3d6000fd5b505050506040513d60208110156107ad57600080fd5b505115156001146107bd57600080fd5b6001805480820182556000919091527fb10e2d527612073b26eecdfd717e6a320cf44b4afac2b0732d9fcbe2b7fa0cf601805473ffffffffffffffffffffffffffffffffffffffff1916600160a060020a0392909216919091179055565b6040805160e060020a63f3ae24150281523360048201819052915163f3ae2415916024808201926020929091908290030181600087803b15801561085e57600080fd5b505af1158015610872573d6000803e3d6000fd5b505050506040513d602081101561088857600080fd5b5051151560011461089857600080fd5b600d80548290039081905515156108bf57600080546004919061ff00191661010083610575565b50565b60085460ff1681565b600454815600a165627a7a7230582062c54fdc83cdd6fbbb802c2c614cedfb216d7c2e1f56c943a2d5514d2754bf480029a165627a7a7230582076e3967e841a62d50d1e34ddbbf57e786e1a7facdfd8a0fb06395b4f805d98900029608060405260008054600160a060020a03191633179055610412806100256000396000f3006080604052600436106100a35763ffffffff7c01000000000000000000000000000000000000000000000000000000006000350416633baf43df81146100a857806344de240a146100e65780635ea58c9c1461010d57806379ba50971461014f578063803936ba146101665780638da5cb5b14610188578063ca5ed9d91461019d578063e30c3978146101db578063f2fde38b146101f0578063f7d645fb14610211575b600080fd5b3480156100b457600080fd5b506100ca600160a060020a031960043516610232565b60408051600160a060020a039092168252519081900360200190f35b3480156100f257600080fd5b506100fb610257565b60408051918252519081900360200190f35b34801561011957600080fd5b5061013b600160a060020a031960043516602435600160a060020a031661025d565b604080519115158252519081900360200190f35b34801561015b57600080fd5b506101646102de565b005b34801561017257600080fd5b506100ca600160a060020a031960043516610319565b34801561019457600080fd5b506100ca610334565b3480156101a957600080fd5b506101be600160a060020a0360043516610343565b60408051600160a060020a03199092168252519081900360200190f35b3480156101e757600080fd5b506100ca61036c565b3480156101fc57600080fd5b50610164600160a060020a036004351661037b565b34801561021d57600080fd5b506101be600160a060020a03600435166103b4565b600160a060020a031916600090815260036020526040902054600160a060020a031690565b60045481565b60008054600160a060020a0316331461027557600080fd5b50600160a060020a0316600081815260026020908152604080832080546bffffffffffffffffffffffff1916740100000000000000000000000000000000000000008704179055600160a060020a03199485168352600390915290208054909216179055600190565b600154600160a060020a031633146102f557600080fd5b60015460008054600160a060020a031916600160a060020a03909216919091179055565b600360205260009081526040902054600160a060020a031681565b600054600160a060020a031681565b600260205260009081526040902054740100000000000000000000000000000000000000000281565b600154600160a060020a031681565b600054600160a060020a0316331461039257600080fd5b60018054600160a060020a031916600160a060020a0392909216919091179055565b600160a060020a03166000908152600260205260409020547401000000000000000000000000000000000000000002905600a165627a7a72305820f8afef4701ddcf95de30de93d214f3eb8ea583654c3c3fc49d5092695f780f260029",
  "source": "pragma solidity ^0.4.24;\n\nimport \"./Owned.sol\";\nimport \"./Asset.sol\";\nimport \"./AssetData.sol\";\nimport \"./SplytManager.sol\";\n\ncontract AssetManager is Owned {\n    \n    AssetData public assetData;\n    SplytManager public splytManager;\n\n    //allow owner or splytManager\n    modifier onlyOwnerOrSplyt() {\n        require(owner == msg.sender || address(splytManager) == msg.sender);\n        _;\n    }\n\n    constructor(address _splytManager) public {\n        assetData = new AssetData();\n        splytManager = SplytManager(_splytManager);\n    }\n\n    function createAsset(\n        bytes12 _assetId, \n        uint _term, \n        address _seller, \n        string _title, \n        uint _totalCost, \n        uint _expirationDate, \n        address _mpAddress, \n        uint _mpAmount,\n        uint _inventoryCount) public {\n\n        //calculate stake\n        uint sellersBal = splytManager.getBalance(_seller);\n        uint stakeTokens = splytManager.calculateStakeTokens(_totalCost);\n\n        if(stakeTokens > sellersBal) {\n            revert();\n        }\n\n         Asset asset = new Asset(\n            _assetId, \n            _term, \n            _seller, \n            _title, \n            _totalCost, \n            _expirationDate, \n            _mpAddress, \n            _mpAmount,\n            _inventoryCount,\n            stakeTokens\n            ); \n\n        splytManager.internalContribute(_seller, asset, stakeTokens);\n        assetData.save(_assetId, address(asset));\n    }\n\n    //@desc update data contract address\n    function getAssetInfo(address _assetAddress) public view returns (bytes12, uint, uint){\n        Asset asset = Asset(_assetAddress);\n        return (asset.assetId(), asset.term(), asset.inventoryCount());\n    }\n\n    function getDataContractAddress() public view returns (address) {\n       return address(assetData);\n    }\n\n\n    //@desc update data contract address\n    function setDataContract(address _assetData) onlyOwner public {\n       assetData = AssetData(_assetData);\n    }\n\n    //@desc get asset status\n    function getType(address _assetAddress) public view returns (Asset.AssetTypes) {\n        return Asset(_assetAddress).assetType();\n    }\n\n    //@desc get asset status\n    function getStatus(address _assetAddress) public view returns (Asset.Statuses) {\n        return Asset(_assetAddress).status();\n    }\n\n    //@desc update data contract address\n    function addMarketPlace(address _assetAddress, address _marketPlace) onlyOwnerOrSplyt public {\n        Asset(_assetAddress).addMarketPlace(_marketPlace);\n    }\n\n    //@desc update data contract address\n    function setStatus(address _assetAddress, Asset.Statuses _status) onlyOwnerOrSplyt public {\n        Asset(_assetAddress).setStatus(_status);\n    }\n\n    //@desc update data contract address\n    function setInventory(address _assetAddress, uint _count) onlyOwnerOrSplyt public {\n        Asset(_assetAddress).setInventory(_count);\n    }\n\n\n    function addInventory(address _assetAddress, uint _qty) public onlyOwnerOrSplyt {\n       Asset(_assetAddress).addInventory(_qty);\n    }\n\n    function subtractInventory(address _assetAddress, uint _qty) public onlyOwnerOrSplyt {\n       Asset(_assetAddress).subtractInventory(_qty);\n    }\n   \n\n    function setSplytManager(address _address) public onlyOwnerOrSplyt {\n        splytManager = SplytManager(_address);\n    }\n\n\n    function getAddressById(bytes12 _assetId) public view returns (address) {\n      return assetData.getAddressByAssetId(_assetId);\n    }\n    \n    function getIdByAddress(address _assetAddress) public view returns (bytes12) {\n      return assetData.getAssetIdByAddress(_assetAddress);\n    }    \n\n    //@desc checks if address is authorized write to the data contracts\n    function isManager(address _address) public view returns (bool) {\n        return splytManager.isManager(_address);\n    }\n   \n   //@desc new manager contract that's going to be replacing this\n   //Old manager call this function and proposes the new address\n    function transferOwnership(address _newAddress) public onlyOwnerOrSplyt {\n        assetData.transferOwnership(_newAddress);\n    }\n\n    //@desc if new data contract is deployed, the creator proposes manager adress then the manager needs to accept\n    //The new updated manager contract calls this function\n    function acceptOwnership() public onlyOwner {\n        assetData.acceptOwnership();\n    }\n\n} ",
  "sourcePath": "/Users/scott/git/splytprotocol/contracts/AssetManager.sol",
  "compiler": {
    "name": "solc",
    "version": "0.4.24+commit.e67f0147.Emscripten.clang"
  },
  "schemaVersion": "2.0.1",
  "updatedAt": "2018-08-27T20:01:18.329Z"
}