{
  "contractName": "AssetManager",
  "abi": [
    {
      "constant": true,
      "inputs": [],
      "name": "splytManager",
      "outputs": [
        {
          "name": "",
          "type": "address"
        }
      ],
      "payable": false,
      "stateMutability": "view",
      "type": "function"
    },
    {
      "constant": true,
      "inputs": [],
      "name": "assetData",
      "outputs": [
        {
          "name": "",
          "type": "address"
        }
      ],
      "payable": false,
      "stateMutability": "view",
      "type": "function"
    },
    {
      "constant": true,
      "inputs": [],
      "name": "owner",
      "outputs": [
        {
          "name": "",
          "type": "address"
        }
      ],
      "payable": false,
      "stateMutability": "view",
      "type": "function"
    },
    {
      "constant": true,
      "inputs": [],
      "name": "pendingOwner",
      "outputs": [
        {
          "name": "",
          "type": "address"
        }
      ],
      "payable": false,
      "stateMutability": "view",
      "type": "function"
    },
    {
      "inputs": [
        {
          "name": "_splytManager",
          "type": "address"
        }
      ],
      "payable": false,
      "stateMutability": "nonpayable",
      "type": "constructor"
    },
    {
      "anonymous": false,
      "inputs": [
        {
          "indexed": false,
          "name": "_code",
          "type": "uint256"
        },
        {
          "indexed": false,
          "name": "_assetAddress",
          "type": "address"
        },
        {
          "indexed": false,
          "name": "_message",
          "type": "string"
        }
      ],
      "name": "Error",
      "type": "event"
    },
    {
      "anonymous": false,
      "inputs": [
        {
          "indexed": false,
          "name": "_code",
          "type": "uint256"
        },
        {
          "indexed": false,
          "name": "_address",
          "type": "address"
        }
      ],
      "name": "Success",
      "type": "event"
    },
    {
      "constant": false,
      "inputs": [
        {
          "name": "_assetId",
          "type": "bytes12"
        },
        {
          "name": "_term",
          "type": "uint256"
        },
        {
          "name": "_seller",
          "type": "address"
        },
        {
          "name": "_title",
          "type": "string"
        },
        {
          "name": "_totalCost",
          "type": "uint256"
        },
        {
          "name": "_expirationDate",
          "type": "uint256"
        },
        {
          "name": "_mpAddress",
          "type": "address"
        },
        {
          "name": "_mpAmount",
          "type": "uint256"
        },
        {
          "name": "_inventoryCount",
          "type": "uint256"
        }
      ],
      "name": "createAsset",
      "outputs": [],
      "payable": false,
      "stateMutability": "nonpayable",
      "type": "function"
    },
    {
      "constant": true,
      "inputs": [
        {
          "name": "_assetAddress",
          "type": "address"
        }
      ],
      "name": "getAssetInfo",
      "outputs": [
        {
          "name": "",
          "type": "bytes12"
        },
        {
          "name": "",
          "type": "uint256"
        },
        {
          "name": "",
          "type": "uint256"
        }
      ],
      "payable": false,
      "stateMutability": "view",
      "type": "function"
    },
    {
      "constant": true,
      "inputs": [],
      "name": "getDataContractAddress",
      "outputs": [
        {
          "name": "",
          "type": "address"
        }
      ],
      "payable": false,
      "stateMutability": "view",
      "type": "function"
    },
    {
      "constant": false,
      "inputs": [
        {
          "name": "_assetData",
          "type": "address"
        }
      ],
      "name": "setDataContract",
      "outputs": [],
      "payable": false,
      "stateMutability": "nonpayable",
      "type": "function"
    },
    {
      "constant": true,
      "inputs": [
        {
          "name": "_assetAddress",
          "type": "address"
        }
      ],
      "name": "getType",
      "outputs": [
        {
          "name": "",
          "type": "uint8"
        }
      ],
      "payable": false,
      "stateMutability": "view",
      "type": "function"
    },
    {
      "constant": true,
      "inputs": [
        {
          "name": "_assetAddress",
          "type": "address"
        }
      ],
      "name": "getStatus",
      "outputs": [
        {
          "name": "",
          "type": "uint8"
        }
      ],
      "payable": false,
      "stateMutability": "view",
      "type": "function"
    },
    {
      "constant": false,
      "inputs": [
        {
          "name": "_assetAddress",
          "type": "address"
        },
        {
          "name": "_marketPlace",
          "type": "address"
        }
      ],
      "name": "addMarketPlace",
      "outputs": [],
      "payable": false,
      "stateMutability": "nonpayable",
      "type": "function"
    },
    {
      "constant": false,
      "inputs": [
        {
          "name": "_assetAddress",
          "type": "address"
        },
        {
          "name": "_status",
          "type": "uint8"
        }
      ],
      "name": "setStatus",
      "outputs": [],
      "payable": false,
      "stateMutability": "nonpayable",
      "type": "function"
    },
    {
      "constant": false,
      "inputs": [
        {
          "name": "_assetAddress",
          "type": "address"
        },
        {
          "name": "_count",
          "type": "uint256"
        }
      ],
      "name": "setInventory",
      "outputs": [],
      "payable": false,
      "stateMutability": "nonpayable",
      "type": "function"
    },
    {
      "constant": false,
      "inputs": [
        {
          "name": "_assetAddress",
          "type": "address"
        },
        {
          "name": "_qty",
          "type": "uint256"
        }
      ],
      "name": "addInventory",
      "outputs": [],
      "payable": false,
      "stateMutability": "nonpayable",
      "type": "function"
    },
    {
      "constant": false,
      "inputs": [
        {
          "name": "_assetAddress",
          "type": "address"
        },
        {
          "name": "_qty",
          "type": "uint256"
        }
      ],
      "name": "subtractInventory",
      "outputs": [],
      "payable": false,
      "stateMutability": "nonpayable",
      "type": "function"
    },
    {
      "constant": false,
      "inputs": [
        {
          "name": "_address",
          "type": "address"
        }
      ],
      "name": "setSplytManager",
      "outputs": [],
      "payable": false,
      "stateMutability": "nonpayable",
      "type": "function"
    },
    {
      "constant": true,
      "inputs": [
        {
          "name": "_assetId",
          "type": "bytes12"
        }
      ],
      "name": "getAddressById",
      "outputs": [
        {
          "name": "",
          "type": "address"
        }
      ],
      "payable": false,
      "stateMutability": "view",
      "type": "function"
    },
    {
      "constant": true,
      "inputs": [
        {
          "name": "_assetAddress",
          "type": "address"
        }
      ],
      "name": "getIdByAddress",
      "outputs": [
        {
          "name": "",
          "type": "bytes12"
        }
      ],
      "payable": false,
      "stateMutability": "view",
      "type": "function"
    },
    {
      "constant": true,
      "inputs": [
        {
          "name": "_index",
          "type": "uint256"
        }
      ],
      "name": "getAddressByIndex",
      "outputs": [
        {
          "name": "",
          "type": "address"
        }
      ],
      "payable": false,
      "stateMutability": "view",
      "type": "function"
    },
    {
      "constant": true,
      "inputs": [
        {
          "name": "_address",
          "type": "address"
        }
      ],
      "name": "isManager",
      "outputs": [
        {
          "name": "",
          "type": "bool"
        }
      ],
      "payable": false,
      "stateMutability": "view",
      "type": "function"
    },
    {
      "constant": false,
      "inputs": [
        {
          "name": "_newAddress",
          "type": "address"
        }
      ],
      "name": "transferOwnership",
      "outputs": [],
      "payable": false,
      "stateMutability": "nonpayable",
      "type": "function"
    },
    {
      "constant": false,
      "inputs": [],
      "name": "acceptOwnership",
      "outputs": [],
      "payable": false,
      "stateMutability": "nonpayable",
      "type": "function"
    }
  ],
  "bytecode": "0x608060405234801561001057600080fd5b50604051602080612215833981016040525160008054600160a060020a0319163317905561003c61008d565b604051809103906000f080158015610058573d6000803e3d6000fd5b5060028054600160a060020a03928316600160a060020a0319918216179091556003805493909216921691909117905561009d565b60405161045a80611dbb83390190565b611d0f806100ac6000396000f300608060405260043610620001255763ffffffff60e060020a60003504166303959bb781146200012a5780631e155f0d1462000150578063278e07ce14620001e957806330ccebb514620002135780634666dbcf146200025c57806358c02c17146200028357806361e91ea114620002c457806379ba509714620002dc5780637a34748a14620002f45780637b36563e146200031b57806387d5564214620003335780638d44935814620003575780638da5cb5b146200036f578063afad2e161462000387578063ce10cf8814620003d4578063d3add99714620003ef578063dff3b4971462000419578063e30c3978146200045a578063eb95f04a1462000472578063f2fde38b1462000499578063f3ae241514620004bd578063f429f19b14620004f5575b600080fd5b3480156200013757600080fd5b506200014e600160a060020a03600435166200052a565b005b3480156200015d57600080fd5b50604080516020601f6064356004818101359283018490048402850184019095528184526200014e94600160a060020a0319813516946024803595604435600160a060020a0316953695608494930191819084018382808284375094975050843595505050602083013592600160a060020a036040820135169250606081013591506080013562000564565b348015620001f657600080fd5b506200014e600160a060020a036004351660ff6024351662000962565b3480156200022057600080fd5b5062000237600160a060020a036004351662000a1f565b604051808260068111156200024857fe5b60ff16815260200191505060405180910390f35b3480156200026957600080fd5b506200014e600160a060020a036004351660243562000a94565b3480156200029057600080fd5b50620002a8600160a060020a03196004351662000b0e565b60408051600160a060020a039092168252519081900360200190f35b348015620002d157600080fd5b50620002a862000b7e565b348015620002e957600080fd5b506200014e62000b8d565b3480156200030157600080fd5b506200014e600160a060020a036004351660243562000c14565b3480156200032857600080fd5b50620002a862000c8e565b3480156200034057600080fd5b506200014e600160a060020a036004351662000c9d565b3480156200036457600080fd5b50620002a862000cef565b3480156200037c57600080fd5b50620002a862000cfe565b3480156200039457600080fd5b50620003ab600160a060020a036004351662000d0d565b60408051600160a060020a03199094168452602084019290925282820152519081900360600190f35b348015620003e157600080fd5b50620002a860043562000ea5565b348015620003fc57600080fd5b506200014e600160a060020a036004358116906024351662000f0c565b3480156200042657600080fd5b506200043d600160a060020a036004351662000f98565b60408051600160a060020a03199092168252519081900360200190f35b3480156200046757600080fd5b50620002a862001004565b3480156200047f57600080fd5b506200014e600160a060020a036004351660243562001013565b348015620004a657600080fd5b506200014e600160a060020a03600435166200108d565b348015620004ca57600080fd5b50620004e1600160a060020a036004351662001141565b604080519115158252519081900360200190f35b3480156200050257600080fd5b5062000519600160a060020a0360043516620011ad565b604051808260018111156200024857fe5b600054600160a060020a031633146200054257600080fd5b60028054600160a060020a031916600160a060020a0392909216919091179055565b600354604080517ff8b2cb4f000000000000000000000000000000000000000000000000000000008152600160a060020a038a8116600483015291516000938493849391169163f8b2cb4f9160248082019260209290919082900301818787803b158015620005d257600080fd5b505af1158015620005e7573d6000803e3d6000fd5b505050506040513d6020811015620005fe57600080fd5b5051600354604080517f4a528837000000000000000000000000000000000000000000000000000000008152600481018c90529051929550600160a060020a0390911691634a528837916024808201926020929091908290030181600087803b1580156200066b57600080fd5b505af115801562000680573d6000803e3d6000fd5b505050506040513d60208110156200069757600080fd5b5051915082821115620006a957600080fd5b8b8b8b8b8b8b8b8b8b8a620006bd620011ee565b808b600160a060020a031916600160a060020a03191681526020018a815260200189600160a060020a0316600160a060020a031681526020018060200188815260200187815260200186600160a060020a0316600160a060020a03168152602001858152602001848152602001838152602001828103825289818151815260200191508051906020019080838360005b83811015620007675781810151838201526020016200074d565b50505050905090810190601f168015620007955780820380516001836020036101000a031916815260200191505b509b505050505050505050505050604051809103906000f080158015620007c0573d6000803e3d6000fd5b50600354604080517f7f6cdfa6000000000000000000000000000000000000000000000000000000008152600160a060020a038e811660048301528085166024830152604482018790529151939450911691637f6cdfa6916064808201926020929091908290030181600087803b1580156200083b57600080fd5b505af115801562000850573d6000803e3d6000fd5b505050506040513d60208110156200086757600080fd5b5050600254604080517f5ea58c9c000000000000000000000000000000000000000000000000000000008152600160a060020a03198f166004820152600160a060020a03848116602483015291519190921691635ea58c9c9160448083019260209291908290030181600087803b158015620008e257600080fd5b505af1158015620008f7573d6000803e3d6000fd5b505050506040513d60208110156200090e57600080fd5b50506040805160018152600160a060020a038316602082015281517f2539b4cc2b40f86b739ed651d0bf19a6b3db2c37cde9a6de9bd20707832c2677929181900390910190a1505050505050505050505050565b600054600160a060020a0316331480620009865750600354600160a060020a031633145b15156200099257600080fd5b6040517f2e49d78b000000000000000000000000000000000000000000000000000000008152600160a060020a03831690632e49d78b90839060040180826006811115620009dc57fe5b60ff168152602001915050600060405180830381600087803b15801562000a0257600080fd5b505af115801562000a17573d6000803e3d6000fd5b505050505050565b600081600160a060020a031663200d2ed26040518163ffffffff1660e060020a028152600401602060405180830381600087803b15801562000a6057600080fd5b505af115801562000a75573d6000803e3d6000fd5b505050506040513d602081101562000a8c57600080fd5b505192915050565b600054600160a060020a031633148062000ab85750600354600160a060020a031633145b151562000ac457600080fd5b81600160a060020a031663423135c7826040518263ffffffff1660e060020a02815260040180828152602001915050600060405180830381600087803b15801562000a0257600080fd5b600254604080517f803936ba000000000000000000000000000000000000000000000000000000008152600160a060020a0319841660048201529051600092600160a060020a03169163803936ba91602480830192602092919082900301818787803b15801562000a6057600080fd5b600254600160a060020a031690565b600054600160a060020a0316331462000ba557600080fd5b600260009054906101000a9004600160a060020a0316600160a060020a03166379ba50976040518163ffffffff1660e060020a028152600401600060405180830381600087803b15801562000bf957600080fd5b505af115801562000c0e573d6000803e3d6000fd5b50505050565b600054600160a060020a031633148062000c385750600354600160a060020a031633145b151562000c4457600080fd5b81600160a060020a0316630adb719f826040518263ffffffff1660e060020a02815260040180828152602001915050600060405180830381600087803b15801562000a0257600080fd5b600354600160a060020a031681565b600054600160a060020a031633148062000cc15750600354600160a060020a031633145b151562000ccd57600080fd5b60038054600160a060020a031916600160a060020a0392909216919091179055565b600254600160a060020a031681565b600054600160a060020a031681565b60008060008084905080600160a060020a03166344de240a6040518163ffffffff1660e060020a028152600401602060405180830381600087803b15801562000d5557600080fd5b505af115801562000d6a573d6000803e3d6000fd5b505050506040513d602081101562000d8157600080fd5b5051604080517fa10ffbed0000000000000000000000000000000000000000000000000000000081529051600160a060020a0384169163a10ffbed9160048083019260209291908290030181600087803b15801562000ddf57600080fd5b505af115801562000df4573d6000803e3d6000fd5b505050506040513d602081101562000e0b57600080fd5b5051604080517f5b98c83d0000000000000000000000000000000000000000000000000000000081529051600160a060020a03851691635b98c83d9160048083019260209291908290030181600087803b15801562000e6957600080fd5b505af115801562000e7e573d6000803e3d6000fd5b505050506040513d602081101562000e9557600080fd5b5051919790965090945092505050565b600254604080517fd8ab9208000000000000000000000000000000000000000000000000000000008152600481018490529051600092600160a060020a03169163d8ab920891602480830192602092919082900301818787803b15801562000a6057600080fd5b600054600160a060020a031633148062000f305750600354600160a060020a031633145b151562000f3c57600080fd5b81600160a060020a031663d2245241826040518263ffffffff1660e060020a0281526004018082600160a060020a0316600160a060020a03168152602001915050600060405180830381600087803b15801562000a0257600080fd5b600254604080517fca5ed9d9000000000000000000000000000000000000000000000000000000008152600160a060020a0384811660048301529151600093929092169163ca5ed9d99160248082019260209290919082900301818787803b15801562000a6057600080fd5b600154600160a060020a031681565b600054600160a060020a0316331480620010375750600354600160a060020a031633145b15156200104357600080fd5b81600160a060020a031663de77240c826040518263ffffffff1660e060020a02815260040180828152602001915050600060405180830381600087803b15801562000a0257600080fd5b600054600160a060020a0316331480620010b15750600354600160a060020a031633145b1515620010bd57600080fd5b600254604080517ff2fde38b000000000000000000000000000000000000000000000000000000008152600160a060020a0384811660048301529151919092169163f2fde38b91602480830192600092919082900301818387803b1580156200112557600080fd5b505af11580156200113a573d6000803e3d6000fd5b5050505050565b600354604080517ff3ae2415000000000000000000000000000000000000000000000000000000008152600160a060020a0384811660048301529151600093929092169163f3ae24159160248082019260209290919082900301818787803b15801562000a6057600080fd5b600081600160a060020a0316633fe3347a6040518163ffffffff1660e060020a028152600401602060405180830381600087803b15801562000a6057600080fd5b604051610ae480620012008339019056006080604052600060045534801561001557600080fd5b50604051610ae4380380610ae48339810160409081528151602080840151928401516060850151608086015160a087015160c088015160e08901516101008a01516101208b0151600280546001606060020a031916740100000000000000000000000000000000000000008c0417905560038b9055600080546201000060b060020a03191662010000600160a060020a038b160217905595909a018051989a96989097949693959294919392916100d1916008918a019061017a565b5060058690556006859055600783905560018054808201825560009182527fb10e2d527612073b26eecdfd717e6a320cf44b4afac2b0732d9fcbe2b7fa0cf6018054600160a060020a031916600160a060020a0387161790556009829055600c839055805461ff001916610100178155891161014e576000610151565b60015b6000805460ff19166001838181111561016657fe5b021790555050505050505050505050610215565b828054600181600116156101000203166002900490600052602060002090601f016020900481019282601f106101bb57805160ff19168380011785556101e8565b828001600101855582156101e8579182015b828111156101e85782518255916020019190600101906101cd565b506101f49291506101f8565b5090565b61021291905b808211156101f457600081556001016101fe565b90565b6108c0806102246000396000f30060806040526004361061011c5763ffffffff7c010000000000000000000000000000000000000000000000000000000060003504166308551a5381146101215780630adb719f14610152578063200d2ed21461016c5780632e49d78b146101a55780633c5e6c97146101c05780633fe3347a146101e7578063423135c71461020c57806344de240a146102245780634a79d50c146102635780635433e2f5146102ed5780635b98c83d146103025780635c40b9dc146103175780635e2b956d1461032f57806362030a86146103445780638622d35f1461035c5780638f620487146103715780639b73235014610386578063a10ffbed1461039b578063d2245241146103b0578063de77240c146103d1578063f9c36fde146103e9575b600080fd5b34801561012d57600080fd5b506101366103fe565b60408051600160a060020a039092168252519081900360200190f35b34801561015e57600080fd5b5061016a600435610413565b005b34801561017857600080fd5b5061018161049b565b6040518082600681111561019157fe5b60ff16815260200191505060405180910390f35b3480156101b157600080fd5b5061016a60ff600435166104a9565b3480156101cc57600080fd5b506101d5610549565b60408051918252519081900360200190f35b3480156101f357600080fd5b506101fc61054f565b6040518082600181111561019157fe5b34801561021857600080fd5b5061016a600435610558565b34801561023057600080fd5b506102396105da565b6040805173ffffffffffffffffffffffffffffffffffffffff199092168252519081900360200190f35b34801561026f57600080fd5b506102786105f7565b6040805160208082528351818301528351919283929083019185019080838360005b838110156102b257818101518382015260200161029a565b50505050905090810190601f1680156102df5780820380516001836020036101000a031916815260200191505b509250505060405180910390f35b3480156102f957600080fd5b506101d5610685565b34801561030e57600080fd5b506101d561068b565b34801561032357600080fd5b50610136600435610691565b34801561033b57600080fd5b506101d56106b9565b34801561035057600080fd5b506101366004356106bf565b34801561036857600080fd5b506101d56106eb565b34801561037d57600080fd5b506101d56106f1565b34801561039257600080fd5b506101366106f7565b3480156103a757600080fd5b506101d5610706565b3480156103bc57600080fd5b5061016a600160a060020a036004351661070c565b3480156103dd57600080fd5b5061016a6004356107e7565b3480156103f557600080fd5b506101d561088e565b600054620100009004600160a060020a031681565b6040805160e060020a63f3ae24150281523360048201819052915163f3ae2415916024808201926020929091908290030181600087803b15801561045657600080fd5b505af115801561046a573d6000803e3d6000fd5b505050506040513d602081101561048057600080fd5b5051151560011461049057600080fd5b600c80549091019055565b600054610100900460ff1681565b6040805160e060020a63f3ae24150281523360048201819052915163f3ae2415916024808201926020929091908290030181600087803b1580156104ec57600080fd5b505af1158015610500573d6000803e3d6000fd5b505050506040513d602081101561051657600080fd5b5051151560011461052657600080fd5b6000805482919061ff00191661010083600681111561054157fe5b021790555050565b60055481565b60005460ff1681565b6040805160e060020a63f3ae24150281523360048201819052915163f3ae2415916024808201926020929091908290030181600087803b15801561059b57600080fd5b505af11580156105af573d6000803e3d6000fd5b505050506040513d60208110156105c557600080fd5b505115156001146105d557600080fd5b600c55565b600254740100000000000000000000000000000000000000000281565b6008805460408051602060026001851615610100026000190190941693909304601f8101849004840282018401909252818152929183018282801561067d5780601f106106525761010080835404028352916020019161067d565b820191906000526020600020905b81548152906001019060200180831161066057829003601f168201915b505050505081565b60095481565b600c5481565b600180548290811061069f57fe5b600091825260209091200154600160a060020a0316905081565b60075481565b60006001828154811015156106d057fe5b600091825260209091200154600160a060020a031692915050565b60015490565b60065481565b600b54600160a060020a031681565b60035481565b6040805160e060020a63f3ae24150281523360048201819052915163f3ae2415916024808201926020929091908290030181600087803b15801561074f57600080fd5b505af1158015610763573d6000803e3d6000fd5b505050506040513d602081101561077957600080fd5b5051151560011461078957600080fd5b6001805480820182556000919091527fb10e2d527612073b26eecdfd717e6a320cf44b4afac2b0732d9fcbe2b7fa0cf601805473ffffffffffffffffffffffffffffffffffffffff1916600160a060020a0392909216919091179055565b6040805160e060020a63f3ae24150281523360048201819052915163f3ae2415916024808201926020929091908290030181600087803b15801561082a57600080fd5b505af115801561083e573d6000803e3d6000fd5b505050506040513d602081101561085457600080fd5b5051151560011461086457600080fd5b600c805482900390819055151561088b57600080546004919061ff00191661010083610541565b50565b600454815600a165627a7a72305820c88bbc6b0d29984d86db5fe1f8b793f4887a8b118080ef882f29d9a2f7a747370029a165627a7a723058205e03025a16ac23181687e1a8e68d922ee68efb4216465e6c7d2ca071719ad3800029608060405260008054600160a060020a03191633179055610435806100256000396000f3006080604052600436106100a35763ffffffff7c01000000000000000000000000000000000000000000000000000000006000350416632986c0e581146100a857806344de240a146100cf5780635ea58c9c146100e457806379ba509714610133578063803936ba1461014a5780638da5cb5b14610195578063ca5ed9d9146101aa578063d8ab9208146101f5578063e30c39781461020d578063f2fde38b14610222575b600080fd5b3480156100b457600080fd5b506100bd610243565b60408051918252519081900360200190f35b3480156100db57600080fd5b506100bd610249565b3480156100f057600080fd5b5061011f73ffffffffffffffffffffffffffffffffffffffff1960043516602435600160a060020a031661024f565b604080519115158252519081900360200190f35b34801561013f57600080fd5b506101486102fe565b005b34801561015657600080fd5b5061017973ffffffffffffffffffffffffffffffffffffffff1960043516610346565b60408051600160a060020a039092168252519081900360200190f35b3480156101a157600080fd5b50610179610361565b3480156101b657600080fd5b506101cb600160a060020a0360043516610370565b6040805173ffffffffffffffffffffffffffffffffffffffff199092168252519081900360200190f35b34801561020157600080fd5b50610179600435610399565b34801561021957600080fd5b506101796103b4565b34801561022e57600080fd5b50610148600160a060020a03600435166103c3565b60065481565b60055481565b60008054600160a060020a0316331461026757600080fd5b50600160a060020a0316600081815260026020908152604080832080546bffffffffffffffffffffffff191674010000000000000000000000000000000000000000870417905573ffffffffffffffffffffffffffffffffffffffff199485168352600382528083208054861685179055600680548452600490925290912080549093169091179091558054600190810190915590565b600154600160a060020a0316331461031557600080fd5b6001546000805473ffffffffffffffffffffffffffffffffffffffff1916600160a060020a03909216919091179055565b600360205260009081526040902054600160a060020a031681565b600054600160a060020a031681565b600260205260009081526040902054740100000000000000000000000000000000000000000281565b600460205260009081526040902054600160a060020a031681565b600154600160a060020a031681565b600054600160a060020a031633146103da57600080fd5b6001805473ffffffffffffffffffffffffffffffffffffffff1916600160a060020a03929092169190911790555600a165627a7a7230582047746c771c0fd7e0a30d55ed2d65a10eb2002297ebbfcbd1385ce8d324afd9b00029",
  "source": "pragma solidity ^0.4.24;\n\nimport \"./Owned.sol\";\nimport \"./Events.sol\";\nimport \"./Asset.sol\";\nimport \"./AssetData.sol\";\nimport \"./SplytManager.sol\";\n\ncontract AssetManager is Owned, Events {\n    \n    AssetData public assetData;\n    SplytManager public splytManager;\n\n    //allow owner or splytManager\n    modifier onlyOwnerOrSplyt() {\n        require(owner == msg.sender || address(splytManager) == msg.sender);\n        _;\n    }\n\n    constructor(address _splytManager) public {\n        assetData = new AssetData();\n        splytManager = SplytManager(_splytManager);\n    }\n\n    function createAsset(\n        bytes12 _assetId, \n        uint _term, \n        address _seller, \n        string _title, \n        uint _totalCost, \n        uint _expirationDate, \n        address _mpAddress, \n        uint _mpAmount,\n        uint _inventoryCount) public {\n\n        //calculate stake\n        uint sellersBal = splytManager.getBalance(_seller);\n        uint stakeTokens = splytManager.calculateStakeTokens(_totalCost);\n\n        if(stakeTokens > sellersBal) {\n            revert();\n        }\n\n         Asset asset = new Asset(\n            _assetId, \n            _term, \n            _seller, \n            _title, \n            _totalCost, \n            _expirationDate, \n            _mpAddress, \n            _mpAmount,\n            _inventoryCount,\n            stakeTokens\n            ); \n\n        splytManager.internalContribute(_seller, asset, stakeTokens);\n        assetData.save(_assetId, address(asset));\n        emit Success(1, address(asset));\n    }\n\n    //@dev update data contract address\n    function getAssetInfo(address _assetAddress) public view returns (bytes12, uint, uint){\n        Asset asset = Asset(_assetAddress);\n        return (asset.assetId(), asset.term(), asset.inventoryCount());\n    }\n\n    function getDataContractAddress() public view returns (address) {\n       return address(assetData);\n    }\n\n\n    //@dev update data contract address\n    function setDataContract(address _assetData) onlyOwner public {\n       assetData = AssetData(_assetData);\n    }\n\n    //@dev get asset status\n    function getType(address _assetAddress) public view returns (Asset.AssetTypes) {\n        return Asset(_assetAddress).assetType();\n    }\n\n    //@dev get asset status\n    function getStatus(address _assetAddress) public view returns (Asset.Statuses) {\n        return Asset(_assetAddress).status();\n    }\n\n    //@dev update data contract address\n    function addMarketPlace(address _assetAddress, address _marketPlace) onlyOwnerOrSplyt public {\n        Asset(_assetAddress).addMarketPlace(_marketPlace);\n    }\n\n    //@dev update data contract address\n    function setStatus(address _assetAddress, Asset.Statuses _status) onlyOwnerOrSplyt public {\n        Asset(_assetAddress).setStatus(_status);\n    }\n\n    //@dev update data contract address\n    function setInventory(address _assetAddress, uint _count) onlyOwnerOrSplyt public {\n        Asset(_assetAddress).setInventory(_count);\n    }\n\n\n    function addInventory(address _assetAddress, uint _qty) public onlyOwnerOrSplyt {\n       Asset(_assetAddress).addInventory(_qty);\n    }\n\n    function subtractInventory(address _assetAddress, uint _qty) public onlyOwnerOrSplyt {\n       Asset(_assetAddress).subtractInventory(_qty);\n    }\n   \n\n    function setSplytManager(address _address) public onlyOwnerOrSplyt {\n        splytManager = SplytManager(_address);\n    }\n\n\n    function getAddressById(bytes12 _assetId) public view returns (address) {\n      return assetData.addressByAssetId(_assetId);\n    }\n    \n    function getIdByAddress(address _assetAddress) public view returns (bytes12) {\n      return assetData.assetIdByAddress(_assetAddress);\n    }    \n\n    function getAddressByIndex(uint _index) public view returns (address) {\n      return assetData.addressByIndex(_index);\n    }    \n\n    //@dev checks if address is authorized write to the data contracts\n    function isManager(address _address) public view returns (bool) {\n        return splytManager.isManager(_address);\n    }\n   \n   //@dev new manager contract that's going to be replacing this\n   //Old manager call this function and proposes the new address\n    function transferOwnership(address _newAddress) public onlyOwnerOrSplyt {\n        assetData.transferOwnership(_newAddress);\n    }\n\n    //@dev if new data contract is deployed, the creator proposes manager adress then the manager needs to accept\n    //The new updated manager contract calls this function\n    function acceptOwnership() public onlyOwner {\n        assetData.acceptOwnership();\n    }\n\n} ",
  "sourcePath": "/Users/scott/git/splytprotocol/contracts/AssetManager.sol",
  "compiler": {
    "name": "solc",
    "version": "0.4.24+commit.e67f0147.Emscripten.clang"
  },
  "schemaVersion": "2.0.1",
  "updatedAt": "2018-09-05T22:29:40.028Z"
}