{
  "contractName": "AssetManager",
  "abi": [
    {
      "constant": true,
      "inputs": [],
      "name": "splytManager",
      "outputs": [
        {
          "name": "",
          "type": "address"
        }
      ],
      "payable": false,
      "stateMutability": "view",
      "type": "function"
    },
    {
      "constant": true,
      "inputs": [],
      "name": "assetData",
      "outputs": [
        {
          "name": "",
          "type": "address"
        }
      ],
      "payable": false,
      "stateMutability": "view",
      "type": "function"
    },
    {
      "constant": true,
      "inputs": [],
      "name": "owner",
      "outputs": [
        {
          "name": "",
          "type": "address"
        }
      ],
      "payable": false,
      "stateMutability": "view",
      "type": "function"
    },
    {
      "constant": true,
      "inputs": [],
      "name": "pendingOwner",
      "outputs": [
        {
          "name": "",
          "type": "address"
        }
      ],
      "payable": false,
      "stateMutability": "view",
      "type": "function"
    },
    {
      "inputs": [
        {
          "name": "_splytManager",
          "type": "address"
        }
      ],
      "payable": false,
      "stateMutability": "nonpayable",
      "type": "constructor"
    },
    {
      "anonymous": false,
      "inputs": [
        {
          "indexed": false,
          "name": "_code",
          "type": "uint256"
        },
        {
          "indexed": false,
          "name": "_assetAddress",
          "type": "address"
        },
        {
          "indexed": false,
          "name": "_message",
          "type": "string"
        }
      ],
      "name": "Error",
      "type": "event"
    },
    {
      "anonymous": false,
      "inputs": [
        {
          "indexed": false,
          "name": "_code",
          "type": "uint256"
        },
        {
          "indexed": false,
          "name": "_address",
          "type": "address"
        }
      ],
      "name": "Success",
      "type": "event"
    },
    {
      "constant": false,
      "inputs": [
        {
          "name": "_assetId",
          "type": "bytes12"
        },
        {
          "name": "_term",
          "type": "uint256"
        },
        {
          "name": "_seller",
          "type": "address"
        },
        {
          "name": "_title",
          "type": "string"
        },
        {
          "name": "_totalCost",
          "type": "uint256"
        },
        {
          "name": "_expirationDate",
          "type": "uint256"
        },
        {
          "name": "_mpAddress",
          "type": "address"
        },
        {
          "name": "_mpAmount",
          "type": "uint256"
        },
        {
          "name": "_inventoryCount",
          "type": "uint256"
        }
      ],
      "name": "createAsset",
      "outputs": [],
      "payable": false,
      "stateMutability": "nonpayable",
      "type": "function"
    },
    {
      "constant": true,
      "inputs": [
        {
          "name": "_assetId",
          "type": "bytes12"
        }
      ],
      "name": "getAssetInfoByAssetId",
      "outputs": [
        {
          "name": "",
          "type": "address"
        },
        {
          "name": "",
          "type": "bytes12"
        },
        {
          "name": "",
          "type": "uint8"
        },
        {
          "name": "",
          "type": "uint8"
        },
        {
          "name": "",
          "type": "uint256"
        },
        {
          "name": "",
          "type": "uint256"
        },
        {
          "name": "",
          "type": "address"
        },
        {
          "name": "",
          "type": "uint256"
        }
      ],
      "payable": false,
      "stateMutability": "view",
      "type": "function"
    },
    {
      "constant": true,
      "inputs": [
        {
          "name": "_assetAddress",
          "type": "address"
        }
      ],
      "name": "getAssetInfoByAddress",
      "outputs": [
        {
          "name": "",
          "type": "address"
        },
        {
          "name": "",
          "type": "bytes12"
        },
        {
          "name": "",
          "type": "uint8"
        },
        {
          "name": "",
          "type": "uint8"
        },
        {
          "name": "",
          "type": "uint256"
        },
        {
          "name": "",
          "type": "uint256"
        },
        {
          "name": "",
          "type": "address"
        },
        {
          "name": "",
          "type": "uint256"
        }
      ],
      "payable": false,
      "stateMutability": "view",
      "type": "function"
    },
    {
      "constant": true,
      "inputs": [
        {
          "name": "_index",
          "type": "uint256"
        }
      ],
      "name": "getAssetInfoByIndex",
      "outputs": [
        {
          "name": "",
          "type": "address"
        },
        {
          "name": "",
          "type": "bytes12"
        },
        {
          "name": "",
          "type": "uint8"
        },
        {
          "name": "",
          "type": "uint8"
        },
        {
          "name": "",
          "type": "uint256"
        },
        {
          "name": "",
          "type": "uint256"
        },
        {
          "name": "",
          "type": "address"
        },
        {
          "name": "",
          "type": "uint256"
        }
      ],
      "payable": false,
      "stateMutability": "view",
      "type": "function"
    },
    {
      "constant": true,
      "inputs": [],
      "name": "getAssetsLength",
      "outputs": [
        {
          "name": "",
          "type": "uint256"
        }
      ],
      "payable": false,
      "stateMutability": "view",
      "type": "function"
    },
    {
      "constant": true,
      "inputs": [],
      "name": "getDataContractAddress",
      "outputs": [
        {
          "name": "",
          "type": "address"
        }
      ],
      "payable": false,
      "stateMutability": "view",
      "type": "function"
    },
    {
      "constant": true,
      "inputs": [
        {
          "name": "_assetId",
          "type": "bytes12"
        }
      ],
      "name": "getMarketPlacesLengthByAssetId",
      "outputs": [
        {
          "name": "",
          "type": "uint256"
        }
      ],
      "payable": false,
      "stateMutability": "view",
      "type": "function"
    },
    {
      "constant": true,
      "inputs": [
        {
          "name": "_assetId",
          "type": "bytes12"
        },
        {
          "name": "_index",
          "type": "uint256"
        }
      ],
      "name": "getMarketPlaceByAssetIdAndIndex",
      "outputs": [
        {
          "name": "",
          "type": "address"
        }
      ],
      "payable": false,
      "stateMutability": "view",
      "type": "function"
    },
    {
      "constant": false,
      "inputs": [
        {
          "name": "_assetData",
          "type": "address"
        }
      ],
      "name": "setDataContract",
      "outputs": [],
      "payable": false,
      "stateMutability": "nonpayable",
      "type": "function"
    },
    {
      "constant": true,
      "inputs": [
        {
          "name": "_assetAddress",
          "type": "address"
        }
      ],
      "name": "getType",
      "outputs": [
        {
          "name": "",
          "type": "uint8"
        }
      ],
      "payable": false,
      "stateMutability": "view",
      "type": "function"
    },
    {
      "constant": true,
      "inputs": [
        {
          "name": "_assetAddress",
          "type": "address"
        }
      ],
      "name": "getStatus",
      "outputs": [
        {
          "name": "",
          "type": "uint8"
        }
      ],
      "payable": false,
      "stateMutability": "view",
      "type": "function"
    },
    {
      "constant": false,
      "inputs": [
        {
          "name": "_assetAddress",
          "type": "address"
        },
        {
          "name": "_marketPlace",
          "type": "address"
        }
      ],
      "name": "addMarketPlaceByAssetAddress",
      "outputs": [],
      "payable": false,
      "stateMutability": "nonpayable",
      "type": "function"
    },
    {
      "constant": false,
      "inputs": [
        {
          "name": "_assetId",
          "type": "bytes12"
        }
      ],
      "name": "addMarketPlaceByAssetId",
      "outputs": [],
      "payable": false,
      "stateMutability": "nonpayable",
      "type": "function"
    },
    {
      "constant": false,
      "inputs": [
        {
          "name": "_assetAddress",
          "type": "address"
        },
        {
          "name": "_status",
          "type": "uint8"
        }
      ],
      "name": "setStatus",
      "outputs": [],
      "payable": false,
      "stateMutability": "nonpayable",
      "type": "function"
    },
    {
      "constant": false,
      "inputs": [
        {
          "name": "_assetAddress",
          "type": "address"
        },
        {
          "name": "_count",
          "type": "uint256"
        }
      ],
      "name": "setInventory",
      "outputs": [],
      "payable": false,
      "stateMutability": "nonpayable",
      "type": "function"
    },
    {
      "constant": false,
      "inputs": [
        {
          "name": "_assetAddress",
          "type": "address"
        },
        {
          "name": "_qty",
          "type": "uint256"
        }
      ],
      "name": "addInventory",
      "outputs": [],
      "payable": false,
      "stateMutability": "nonpayable",
      "type": "function"
    },
    {
      "constant": false,
      "inputs": [
        {
          "name": "_assetAddress",
          "type": "address"
        },
        {
          "name": "_qty",
          "type": "uint256"
        }
      ],
      "name": "subtractInventory",
      "outputs": [],
      "payable": false,
      "stateMutability": "nonpayable",
      "type": "function"
    },
    {
      "constant": false,
      "inputs": [
        {
          "name": "_address",
          "type": "address"
        }
      ],
      "name": "setSplytManager",
      "outputs": [],
      "payable": false,
      "stateMutability": "nonpayable",
      "type": "function"
    },
    {
      "constant": true,
      "inputs": [
        {
          "name": "_assetId",
          "type": "bytes12"
        }
      ],
      "name": "getAddressById",
      "outputs": [
        {
          "name": "",
          "type": "address"
        }
      ],
      "payable": false,
      "stateMutability": "view",
      "type": "function"
    },
    {
      "constant": true,
      "inputs": [
        {
          "name": "_assetAddress",
          "type": "address"
        }
      ],
      "name": "getIdByAddress",
      "outputs": [
        {
          "name": "",
          "type": "bytes12"
        }
      ],
      "payable": false,
      "stateMutability": "view",
      "type": "function"
    },
    {
      "constant": true,
      "inputs": [
        {
          "name": "_index",
          "type": "uint256"
        }
      ],
      "name": "getAddressByIndex",
      "outputs": [
        {
          "name": "",
          "type": "address"
        }
      ],
      "payable": false,
      "stateMutability": "view",
      "type": "function"
    },
    {
      "constant": true,
      "inputs": [
        {
          "name": "_address",
          "type": "address"
        }
      ],
      "name": "isManager",
      "outputs": [
        {
          "name": "",
          "type": "bool"
        }
      ],
      "payable": false,
      "stateMutability": "view",
      "type": "function"
    },
    {
      "constant": false,
      "inputs": [
        {
          "name": "_newAddress",
          "type": "address"
        }
      ],
      "name": "transferOwnership",
      "outputs": [],
      "payable": false,
      "stateMutability": "nonpayable",
      "type": "function"
    },
    {
      "constant": false,
      "inputs": [],
      "name": "acceptOwnership",
      "outputs": [],
      "payable": false,
      "stateMutability": "nonpayable",
      "type": "function"
    }
  ],
  "bytecode": "0x608060405234801561001057600080fd5b50604051602080612b49833981016040525160008054600160a060020a0319163317905561003c61008d565b604051809103906000f080158015610058573d6000803e3d6000fd5b5060028054600160a060020a03928316600160a060020a0319918216179091556003805493909216921691909117905561009d565b6040516104348061271583390190565b612669806100ac6000396000f3006080604052600436106200016d5763ffffffff60e060020a60003504166303959bb78114620001725780631e155f0d1462000198578063278e07ce14620002315780632bb7af9f146200025b5780632ca8b9b5146200029257806330ccebb5146200032e5780633b3bec2e14620003775780634666dbcf146200039b5780635286d1ad14620003c257806358c02c1714620003e757806361e91ea1146200042857806367678b7b146200044057806379ba509714620004685780637a34748a14620004805780637b36563e14620004a757806387d5564214620004bf5780638d44935814620004e35780638da5cb5b14620004fb578063a89d490c1462000513578063ce10cf88146200052b578063d36906101462000546578063d95d16621462000570578063dff3b4971462000595578063e30c397814620005d6578063eb95f04a14620005ee578063f2fde38b1462000615578063f3ae24151462000639578063f429f19b1462000671575b600080fd5b3480156200017f57600080fd5b5062000196600160a060020a0360043516620006a6565b005b348015620001a557600080fd5b50604080516020601f6064356004818101359283018490048402850184019095528184526200019694600160a060020a0319813516946024803595604435600160a060020a0316953695608494930191819084018382808284375094975050843595505050602083013592600160a060020a0360408201351692506060810135915060800135620006e0565b3480156200023e57600080fd5b5062000196600160a060020a036004351660ff6024351662000b0b565b3480156200026857600080fd5b5062000280600160a060020a03196004351662000bc8565b60408051918252519081900360200190f35b3480156200029f57600080fd5b50620002ad60043562000cea565b60408051600160a060020a038a168152600160a060020a031989166020820152908101876006811115620002dd57fe5b60ff168152602001866001811115620002f257fe5b60ff168152602081019590955250604080850193909352600160a060020a0390911660608401526080830152519081900360a001945092505050f35b3480156200033b57600080fd5b5062000352600160a060020a036004351662001170565b604051808260068111156200036357fe5b60ff16815260200191505060405180910390f35b3480156200038457600080fd5b50620002ad600160a060020a0360043516620011e5565b348015620003a857600080fd5b5062000196600160a060020a036004351660243562001236565b348015620003cf57600080fd5b50620002ad600160a060020a031960043516620012b0565b348015620003f457600080fd5b506200040c600160a060020a03196004351662001331565b60408051600160a060020a039092168252519081900360200190f35b3480156200043557600080fd5b506200040c6200138b565b3480156200044d57600080fd5b506200040c600160a060020a0319600435166024356200139a565b3480156200047557600080fd5b5062000196620014c4565b3480156200048d57600080fd5b5062000196600160a060020a03600435166024356200154b565b348015620004b457600080fd5b506200040c620015c5565b348015620004cc57600080fd5b5062000196600160a060020a0360043516620015d4565b348015620004f057600080fd5b506200040c62001626565b3480156200050857600080fd5b506200040c62001635565b3480156200052057600080fd5b506200028062001644565b3480156200053857600080fd5b506200040c600435620016d7565b3480156200055357600080fd5b5062000196600160a060020a03600435811690602435166200173e565b3480156200057d57600080fd5b5062000196600160a060020a0319600435166200179a565b348015620005a257600080fd5b50620005b9600160a060020a0360043516620018a2565b60408051600160a060020a03199092168252519081900360200190f35b348015620005e357600080fd5b506200040c6200190e565b348015620005fb57600080fd5b5062000196600160a060020a03600435166024356200191d565b3480156200062257600080fd5b5062000196600160a060020a036004351662001997565b3480156200064657600080fd5b506200065d600160a060020a036004351662001a2f565b604080519115158252519081900360200190f35b3480156200067e57600080fd5b5062000695600160a060020a036004351662001a9b565b604051808260018111156200036357fe5b600054600160a060020a03163314620006be57600080fd5b60028054600160a060020a031916600160a060020a0392909216919091179055565b600354604080517ff8b2cb4f000000000000000000000000000000000000000000000000000000008152600160a060020a038a811660048301529151600093849384938493919092169163f8b2cb4f91602480830192602092919082900301818787803b1580156200075157600080fd5b505af115801562000766573d6000803e3d6000fd5b505050506040513d60208110156200077d57600080fd5b5051600354604080517f4a528837000000000000000000000000000000000000000000000000000000008152600481018d90529051929650600160a060020a0390911691634a528837916024808201926020929091908290030181600087803b158015620007ea57600080fd5b505af1158015620007ff573d6000803e3d6000fd5b505050506040513d60208110156200081657600080fd5b505192508483029150838211156200082d57600080fd5b8c8c8c8c8c8c8c8c8c8b6200084162001adc565b808b600160a060020a031916600160a060020a03191681526020018a815260200189600160a060020a0316600160a060020a031681526020018060200188815260200187815260200186600160a060020a0316600160a060020a03168152602001858152602001848152602001838152602001828103825289818151815260200191508051906020019080838360005b83811015620008eb578181015183820152602001620008d1565b50505050905090810190601f168015620009195780820380516001836020036101000a031916815260200191505b509b505050505050505050505050604051809103906000f08015801562000944573d6000803e3d6000fd5b50600354604080517f7f6cdfa6000000000000000000000000000000000000000000000000000000008152600160a060020a038f811660048301528085166024830152604482018790529151939450911691637f6cdfa6916064808201926020929091908290030181600087803b158015620009bf57600080fd5b505af1158015620009d4573d6000803e3d6000fd5b505050506040513d6020811015620009eb57600080fd5b810190808051906020019092919050505050600260009054906101000a9004600160a060020a0316600160a060020a0316635ea58c9c8e836040518363ffffffff1660e060020a0281526004018083600160a060020a031916600160a060020a031916815260200182600160a060020a0316600160a060020a0316815260200192505050602060405180830381600087803b15801562000a8a57600080fd5b505af115801562000a9f573d6000803e3d6000fd5b505050506040513d602081101562000ab657600080fd5b50506040805160018152600160a060020a038316602082015281517f2539b4cc2b40f86b739ed651d0bf19a6b3db2c37cde9a6de9bd20707832c2677929181900390910190a150505050505050505050505050565b600054600160a060020a031633148062000b2f5750600354600160a060020a031633145b151562000b3b57600080fd5b6040517f2e49d78b000000000000000000000000000000000000000000000000000000008152600160a060020a03831690632e49d78b9083906004018082600681111562000b8557fe5b60ff168152602001915050600060405180830381600087803b15801562000bab57600080fd5b505af115801562000bc0573d6000803e3d6000fd5b505050505050565b6002546040805160e160020a63401c9b5d028152600160a060020a03198416600482015290516000928392600160a060020a039091169163803936ba9160248082019260209290919082900301818787803b15801562000c2757600080fd5b505af115801562000c3c573d6000803e3d6000fd5b505050506040513d602081101562000c5357600080fd5b5051604080517f8622d35f0000000000000000000000000000000000000000000000000000000081529051919250600160a060020a03831691638622d35f916004808201926020929091908290030181600087803b15801562000cb557600080fd5b505af115801562000cca573d6000803e3d6000fd5b505050506040513d602081101562000ce157600080fd5b50519392505050565b6000806000806000806000806000600260009054906101000a9004600160a060020a0316600160a060020a031663d8ab92088b6040518263ffffffff1660e060020a02815260040180828152602001915050602060405180830381600087803b15801562000d5757600080fd5b505af115801562000d6c573d6000803e3d6000fd5b505050506040513d602081101562000d8357600080fd5b5051604080517f44de240a00000000000000000000000000000000000000000000000000000000815290519192508291600160a060020a038316916344de240a9160048083019260209291908290030181600087803b15801562000de657600080fd5b505af115801562000dfb573d6000803e3d6000fd5b505050506040513d602081101562000e1257600080fd5b5051604080517f200d2ed20000000000000000000000000000000000000000000000000000000081529051600160a060020a0385169163200d2ed29160048083019260209291908290030181600087803b15801562000e7057600080fd5b505af115801562000e85573d6000803e3d6000fd5b505050506040513d602081101562000e9c57600080fd5b5051604080517f3fe3347a0000000000000000000000000000000000000000000000000000000081529051600160a060020a03861691633fe3347a9160048083019260209291908290030181600087803b15801562000efa57600080fd5b505af115801562000f0f573d6000803e3d6000fd5b505050506040513d602081101562000f2657600080fd5b5051604080517fa10ffbed0000000000000000000000000000000000000000000000000000000081529051600160a060020a0387169163a10ffbed9160048083019260209291908290030181600087803b15801562000f8457600080fd5b505af115801562000f99573d6000803e3d6000fd5b505050506040513d602081101562000fb057600080fd5b5051604080517f5b98c83d0000000000000000000000000000000000000000000000000000000081529051600160a060020a03881691635b98c83d9160048083019260209291908290030181600087803b1580156200100e57600080fd5b505af115801562001023573d6000803e3d6000fd5b505050506040513d60208110156200103a57600080fd5b5051604080517f08551a530000000000000000000000000000000000000000000000000000000081529051600160a060020a038916916308551a539160048083019260209291908290030181600087803b1580156200109857600080fd5b505af1158015620010ad573d6000803e3d6000fd5b505050506040513d6020811015620010c457600080fd5b5051604080517f3c5e6c970000000000000000000000000000000000000000000000000000000081529051600160a060020a038a1691633c5e6c979160048083019260209291908290030181600087803b1580156200112257600080fd5b505af115801562001137573d6000803e3d6000fd5b505050506040513d60208110156200114e57600080fd5b5051969f50949d50929b50909950975095509350915050919395975091939597565b600081600160a060020a031663200d2ed26040518163ffffffff1660e060020a028152600401602060405180830381600087803b158015620011b157600080fd5b505af1158015620011c6573d6000803e3d6000fd5b505050506040513d6020811015620011dd57600080fd5b505192915050565b60008060008060008060008060008990508081600160a060020a03166344de240a6040518163ffffffff1660e060020a028152600401602060405180830381600087803b15801562000de657600080fd5b600054600160a060020a03163314806200125a5750600354600160a060020a031633145b15156200126657600080fd5b81600160a060020a031663423135c7826040518263ffffffff1660e060020a02815260040180828152602001915050600060405180830381600087803b15801562000bab57600080fd5b6000806000806000806000806000600260009054906101000a9004600160a060020a0316600160a060020a031663803936ba8b6040518263ffffffff1660e060020a0281526004018082600160a060020a031916600160a060020a0319168152602001915050602060405180830381600087803b15801562000d5757600080fd5b6002546040805160e160020a63401c9b5d028152600160a060020a0319841660048201529051600092600160a060020a03169163803936ba91602480830192602092919082900301818787803b158015620011b157600080fd5b600254600160a060020a031690565b6002546040805160e160020a63401c9b5d028152600160a060020a03198516600482015290516000928392600160a060020a039091169163803936ba9160248082019260209290919082900301818787803b158015620013f957600080fd5b505af11580156200140e573d6000803e3d6000fd5b505050506040513d60208110156200142557600080fd5b5051604080517f5c40b9dc000000000000000000000000000000000000000000000000000000008152600481018690529051919250600160a060020a03831691635c40b9dc916024808201926020929091908290030181600087803b1580156200148e57600080fd5b505af1158015620014a3573d6000803e3d6000fd5b505050506040513d6020811015620014ba57600080fd5b5051949350505050565b600054600160a060020a03163314620014dc57600080fd5b600260009054906101000a9004600160a060020a0316600160a060020a03166379ba50976040518163ffffffff1660e060020a028152600401600060405180830381600087803b1580156200153057600080fd5b505af115801562001545573d6000803e3d6000fd5b50505050565b600054600160a060020a03163314806200156f5750600354600160a060020a031633145b15156200157b57600080fd5b81600160a060020a0316630adb719f826040518263ffffffff1660e060020a02815260040180828152602001915050600060405180830381600087803b15801562000bab57600080fd5b600354600160a060020a031681565b600054600160a060020a0316331480620015f85750600354600160a060020a031633145b15156200160457600080fd5b60038054600160a060020a031916600160a060020a0392909216919091179055565b600254600160a060020a031681565b600054600160a060020a031681565b600254604080517f2986c0e50000000000000000000000000000000000000000000000000000000081529051600092600160a060020a031691632986c0e591600480830192602092919082900301818787803b158015620016a457600080fd5b505af1158015620016b9573d6000803e3d6000fd5b505050506040513d6020811015620016d057600080fd5b5051905090565b600254604080517fd8ab9208000000000000000000000000000000000000000000000000000000008152600481018490529051600092600160a060020a03169163d8ab920891602480830192602092919082900301818787803b158015620011b157600080fd5b81600160a060020a031663d2245241826040518263ffffffff1660e060020a0281526004018082600160a060020a0316600160a060020a03168152602001915050600060405180830381600087803b15801562000bab57600080fd5b6002546040805160e160020a63401c9b5d028152600160a060020a0319841660048201529051600160a060020a039092169163803936ba916024808201926020929091908290030181600087803b158015620017f557600080fd5b505af11580156200180a573d6000803e3d6000fd5b505050506040513d60208110156200182157600080fd5b5051604080517fd22452410000000000000000000000000000000000000000000000000000000081523360048201529051600160a060020a039092169163d22452419160248082019260009290919082900301818387803b1580156200188657600080fd5b505af11580156200189b573d6000803e3d6000fd5b5050505050565b600254604080517fca5ed9d9000000000000000000000000000000000000000000000000000000008152600160a060020a0384811660048301529151600093929092169163ca5ed9d99160248082019260209290919082900301818787803b158015620011b157600080fd5b600154600160a060020a031681565b600054600160a060020a0316331480620019415750600354600160a060020a031633145b15156200194d57600080fd5b81600160a060020a031663de77240c826040518263ffffffff1660e060020a02815260040180828152602001915050600060405180830381600087803b15801562000bab57600080fd5b600054600160a060020a0316331480620019bb5750600354600160a060020a031633145b1515620019c757600080fd5b600254604080517ff2fde38b000000000000000000000000000000000000000000000000000000008152600160a060020a0384811660048301529151919092169163f2fde38b91602480830192600092919082900301818387803b1580156200188657600080fd5b600354604080517ff3ae2415000000000000000000000000000000000000000000000000000000008152600160a060020a0384811660048301529151600093929092169163f3ae24159160248082019260209290919082900301818787803b158015620011b157600080fd5b600081600160a060020a0316633fe3347a6040518163ffffffff1660e060020a028152600401602060405180830381600087803b158015620011b157600080fd5b604051610b508062001aee8339019056006080604052600060045534801561001557600080fd5b50604051610b50380380610b508339810160409081528151602080840151928401516060850151608086015160a087015160c088015160e08901516101008a01516101208b0151600280546001606060020a031916740100000000000000000000000000000000000000008c0417905560038b9055600080546201000060b060020a03191662010000600160a060020a038b160217905595909a018051989a96989097949693959294919392916100d1916008918a019061017a565b5060058690556006859055600783905560018054808201825560009182527fb10e2d527612073b26eecdfd717e6a320cf44b4afac2b0732d9fcbe2b7fa0cf6018054600160a060020a031916600160a060020a038716179055600a829055600d839055805461ff001916610100178155891161014e576000610151565b60015b6000805460ff19166001838181111561016657fe5b021790555050505050505050505050610215565b828054600181600116156101000203166002900490600052602060002090601f016020900481019282601f106101bb57805160ff19168380011785556101e8565b828001600101855582156101e8579182015b828111156101e85782518255916020019190600101906101cd565b506101f49291506101f8565b5090565b61021291905b808211156101f457600081556001016101fe565b90565b61092c806102246000396000f3006080604052600436106101275763ffffffff7c010000000000000000000000000000000000000000000000000000000060003504166308551a53811461012c5780630adb719f1461015d578063200d2ed2146101775780632e49d78b146101b05780633c5e6c97146101cb5780633fe3347a146101f2578063423135c71461021757806344de240a1461022f5780634a79d50c1461026e5780635433e2f5146102f85780635b98c83d1461030d5780635c40b9dc146103225780635e2b956d1461033a57806362030a861461034f5780638622d35f146103675780638f6204871461037c5780639b73235014610391578063a10ffbed146103a6578063d2245241146103bb578063de77240c146103dc578063e676856c146103f4578063f9c36fde1461041d575b600080fd5b34801561013857600080fd5b50610141610432565b60408051600160a060020a039092168252519081900360200190f35b34801561016957600080fd5b50610175600435610447565b005b34801561018357600080fd5b5061018c6104cf565b6040518082600681111561019c57fe5b60ff16815260200191505060405180910390f35b3480156101bc57600080fd5b5061017560ff600435166104dd565b3480156101d757600080fd5b506101e061057d565b60408051918252519081900360200190f35b3480156101fe57600080fd5b50610207610583565b6040518082600181111561019c57fe5b34801561022357600080fd5b5061017560043561058c565b34801561023b57600080fd5b5061024461060e565b6040805173ffffffffffffffffffffffffffffffffffffffff199092168252519081900360200190f35b34801561027a57600080fd5b5061028361062b565b6040805160208082528351818301528351919283929083019185019080838360005b838110156102bd5781810151838201526020016102a5565b50505050905090810190601f1680156102ea5780820380516001836020036101000a031916815260200191505b509250505060405180910390f35b34801561030457600080fd5b506101e06106b9565b34801561031957600080fd5b506101e06106bf565b34801561032e57600080fd5b506101416004356106c5565b34801561034657600080fd5b506101e06106ed565b34801561035b57600080fd5b506101416004356106f3565b34801561037357600080fd5b506101e061071f565b34801561038857600080fd5b506101e0610725565b34801561039d57600080fd5b5061014161072b565b3480156103b257600080fd5b506101e061073a565b3480156103c757600080fd5b50610175600160a060020a0360043516610740565b3480156103e857600080fd5b5061017560043561081b565b34801561040057600080fd5b506104096108c2565b604080519115158252519081900360200190f35b34801561042957600080fd5b506101e06108fa565b600054620100009004600160a060020a031681565b6040805160e060020a63f3ae24150281523360048201819052915163f3ae2415916024808201926020929091908290030181600087803b15801561048a57600080fd5b505af115801561049e573d6000803e3d6000fd5b505050506040513d60208110156104b457600080fd5b505115156001146104c457600080fd5b600d80549091019055565b600054610100900460ff1681565b6040805160e060020a63f3ae24150281523360048201819052915163f3ae2415916024808201926020929091908290030181600087803b15801561052057600080fd5b505af1158015610534573d6000803e3d6000fd5b505050506040513d602081101561054a57600080fd5b5051151560011461055a57600080fd5b6000805482919061ff00191661010083600681111561057557fe5b021790555050565b60055481565b60005460ff1681565b6040805160e060020a63f3ae24150281523360048201819052915163f3ae2415916024808201926020929091908290030181600087803b1580156105cf57600080fd5b505af11580156105e3573d6000803e3d6000fd5b505050506040513d60208110156105f957600080fd5b5051151560011461060957600080fd5b600d55565b600254740100000000000000000000000000000000000000000281565b6008805460408051602060026001851615610100026000190190941693909304601f810184900484028201840190925281815292918301828280156106b15780601f10610686576101008083540402835291602001916106b1565b820191906000526020600020905b81548152906001019060200180831161069457829003601f168201915b505050505081565b600a5481565b600d5481565b60018054829081106106d357fe5b600091825260209091200154600160a060020a0316905081565b60075481565b600060018281548110151561070457fe5b600091825260209091200154600160a060020a031692915050565b60015490565b60065481565b600c54600160a060020a031681565b60035481565b6040805160e060020a63f3ae24150281523360048201819052915163f3ae2415916024808201926020929091908290030181600087803b15801561078357600080fd5b505af1158015610797573d6000803e3d6000fd5b505050506040513d60208110156107ad57600080fd5b505115156001146107bd57600080fd5b6001805480820182556000919091527fb10e2d527612073b26eecdfd717e6a320cf44b4afac2b0732d9fcbe2b7fa0cf601805473ffffffffffffffffffffffffffffffffffffffff1916600160a060020a0392909216919091179055565b6040805160e060020a63f3ae24150281523360048201819052915163f3ae2415916024808201926020929091908290030181600087803b15801561085e57600080fd5b505af1158015610872573d6000803e3d6000fd5b505050506040513d602081101561088857600080fd5b5051151560011461089857600080fd5b600d80548290039081905515156108bf57600080546004919061ff00191661010083610575565b50565b6000600160008154811015156108d457fe5b60009182526020822001549054620100009004600160a060020a03908116911614905090565b600454815600a165627a7a723058204422a8cc67160a95711377a073c4c6f77b5f1b2ae6a07b15e07204a49a0ae11d0029a165627a7a72305820a6970924a04515efa8a4735ab7f5a8ab00cef1bf28fe851372f3300944837fef0029608060405260008054600160a060020a0319163317905561040f806100256000396000f3006080604052600436106100985763ffffffff7c01000000000000000000000000000000000000000000000000000000006000350416632986c0e5811461009d5780635ea58c9c146100c457806379ba509714610113578063803936ba1461012a5780638da5cb5b14610175578063ca5ed9d91461018a578063d8ab9208146101d5578063e30c3978146101ed578063f2fde38b14610202575b600080fd5b3480156100a957600080fd5b506100b2610223565b60408051918252519081900360200190f35b3480156100d057600080fd5b506100ff73ffffffffffffffffffffffffffffffffffffffff1960043516602435600160a060020a0316610229565b604080519115158252519081900360200190f35b34801561011f57600080fd5b506101286102d8565b005b34801561013657600080fd5b5061015973ffffffffffffffffffffffffffffffffffffffff1960043516610320565b60408051600160a060020a039092168252519081900360200190f35b34801561018157600080fd5b5061015961033b565b34801561019657600080fd5b506101ab600160a060020a036004351661034a565b6040805173ffffffffffffffffffffffffffffffffffffffff199092168252519081900360200190f35b3480156101e157600080fd5b50610159600435610373565b3480156101f957600080fd5b5061015961038e565b34801561020e57600080fd5b50610128600160a060020a036004351661039d565b60055481565b60008054600160a060020a0316331461024157600080fd5b50600160a060020a0316600081815260026020908152604080832080546bffffffffffffffffffffffff191674010000000000000000000000000000000000000000870417905573ffffffffffffffffffffffffffffffffffffffff199485168352600382528083208054861685179055600580548452600490925290912080549093169091179091558054600190810190915590565b600154600160a060020a031633146102ef57600080fd5b6001546000805473ffffffffffffffffffffffffffffffffffffffff1916600160a060020a03909216919091179055565b600360205260009081526040902054600160a060020a031681565b600054600160a060020a031681565b600260205260009081526040902054740100000000000000000000000000000000000000000281565b600460205260009081526040902054600160a060020a031681565b600154600160a060020a031681565b600054600160a060020a031633146103b457600080fd5b6001805473ffffffffffffffffffffffffffffffffffffffff1916600160a060020a03929092169190911790555600a165627a7a72305820cf5821a01f6eb6f8cfe99cfea9abd79418b7cd260f09a595b1284cb80eabf0040029",
  "source": "pragma solidity ^0.4.24;\n\nimport \"./Owned.sol\";\nimport \"./Events.sol\";\nimport \"./Asset.sol\";\nimport \"./AssetData.sol\";\nimport \"./SplytManager.sol\";\n\ncontract AssetManager is Owned, Events {\n    \n    AssetData public assetData;\n    SplytManager public splytManager;\n\n    //allow owner or splytManager\n    modifier onlyOwnerOrSplyt() {\n        require(owner == msg.sender || address(splytManager) == msg.sender);\n        _;\n    }\n\n    constructor(address _splytManager) public {\n        assetData = new AssetData();\n        splytManager = SplytManager(_splytManager);\n    }\n\n    function createAsset(\n        bytes12 _assetId, \n        uint _term, \n        address _seller, \n        string _title, \n        uint _totalCost, \n        uint _expirationDate, \n        address _mpAddress, \n        uint _mpAmount,\n        uint _inventoryCount) public {\n\n        //calculate stake\n        uint sellersBal = splytManager.getBalance(_seller);\n        \n        uint stakeTokensPerAsset = splytManager.calculateStakeTokens(_totalCost);\n        uint stakeTokensTotal = stakeTokensPerAsset * _inventoryCount;\n\n        if(stakeTokensTotal > sellersBal) {\n            revert();\n        }\n\n         Asset asset = new Asset(\n            _assetId, \n            _term, \n            _seller, \n            _title, \n            _totalCost, \n            _expirationDate, \n            _mpAddress, \n            _mpAmount,\n            _inventoryCount,\n            stakeTokensPerAsset\n            ); \n\n        splytManager.internalContribute(_seller, asset, stakeTokensTotal);\n        assetData.save(_assetId, address(asset));\n        emit Success(1, address(asset));\n    }\n\n    function getAssetInfoByAssetId(bytes12 _assetId) public view returns (address, bytes12, Asset.Statuses, Asset.AssetTypes, uint, uint, address, uint) {\n        Asset asset = Asset(assetData.addressByAssetId(_assetId));  \n        return (address(asset), asset.assetId(), asset.status(), asset.assetType(), asset.term(), asset.inventoryCount(), asset.seller(), asset.totalCost());\n    }\n\n    function getAssetInfoByAddress(address _assetAddress) public view returns (address, bytes12, Asset.Statuses, Asset.AssetTypes, uint, uint, address, uint) {\n        Asset asset = Asset(_assetAddress);\n        return (address(asset), asset.assetId(), asset.status(), asset.assetType(), asset.term(), asset.inventoryCount(), asset.seller(), asset.totalCost());        \n    }\n\n    function getAssetInfoByIndex(uint _index) public view returns (address, bytes12, Asset.Statuses, Asset.AssetTypes, uint, uint, address, uint){\n        Asset asset = Asset(assetData.addressByIndex(_index));\n        return (address(asset), asset.assetId(), asset.status(), asset.assetType(), asset.term(), asset.inventoryCount(), asset.seller(), asset.totalCost());                   \n    }\n\n\n    function getAssetsLength() public view returns (uint){\n        return (assetData.index());\n    }\n\n    function getDataContractAddress() public view returns (address) {\n       return address(assetData);\n    }\n\n    function getMarketPlacesLengthByAssetId(bytes12 _assetId) public view returns (uint) {\n        Asset asset = Asset(assetData.addressByAssetId(_assetId));          \n        return (asset.getMarketPlacesLength());\n    }\n    \n    function getMarketPlaceByAssetIdAndIndex(bytes12 _assetId, uint _index) public view returns (address) {\n        Asset asset = Asset(assetData.addressByAssetId(_assetId));\n\n        return (asset.listOfMarketPlaces(_index));\n    }\n\n    //@dev update data contract address\n    function setDataContract(address _assetData) onlyOwner public {\n       assetData = AssetData(_assetData);\n    }\n\n    //@dev get asset status\n    function getType(address _assetAddress) public view returns (Asset.AssetTypes) {\n        return Asset(_assetAddress).assetType();\n    }\n\n    //@dev get asset status\n    function getStatus(address _assetAddress) public view returns (Asset.Statuses) {\n        return Asset(_assetAddress).status();\n    }\n\n    //@dev add marketplace to asset\n    function addMarketPlaceByAssetAddress(address _assetAddress, address _marketPlace) public {\n        Asset(_assetAddress).addMarketPlace(_marketPlace);\n    }\n\n    //@dev add marketplace to asset\n    function addMarketPlaceByAssetId(bytes12 _assetId) public {\n        Asset(assetData.addressByAssetId(_assetId)).addMarketPlace(msg.sender);\n    }\n\n\n    //@dev update data contract address\n    function setStatus(address _assetAddress, Asset.Statuses _status) onlyOwnerOrSplyt public {\n        Asset(_assetAddress).setStatus(_status);\n    }\n\n    //@dev update data contract address\n    function setInventory(address _assetAddress, uint _count) onlyOwnerOrSplyt public {\n        Asset(_assetAddress).setInventory(_count);\n    }\n\n\n    function addInventory(address _assetAddress, uint _qty) public onlyOwnerOrSplyt {\n       Asset(_assetAddress).addInventory(_qty);\n    }\n\n    function subtractInventory(address _assetAddress, uint _qty) public onlyOwnerOrSplyt {\n       Asset(_assetAddress).subtractInventory(_qty);\n    }\n   \n\n    function setSplytManager(address _address) public onlyOwnerOrSplyt {\n        splytManager = SplytManager(_address);\n    }\n\n\n    function getAddressById(bytes12 _assetId) public view returns (address) {\n      return assetData.addressByAssetId(_assetId);\n    }\n    \n    function getIdByAddress(address _assetAddress) public view returns (bytes12) {\n      return assetData.assetIdByAddress(_assetAddress);\n    }    \n\n    function getAddressByIndex(uint _index) public view returns (address) {\n      return assetData.addressByIndex(_index);\n    }    \n\n    //@dev checks if address is authorized write to the data contracts\n    function isManager(address _address) public view returns (bool) {\n        return splytManager.isManager(_address);\n    }\n   \n   //@dev new manager contract that's going to be replacing this\n   //Old manager call this function and proposes the new address\n    function transferOwnership(address _newAddress) public onlyOwnerOrSplyt {\n        assetData.transferOwnership(_newAddress);\n    }\n\n    //@dev if new data contract is deployed, the creator proposes manager adress then the manager needs to accept\n    //The new updated manager contract calls this function\n    function acceptOwnership() public onlyOwner {\n        assetData.acceptOwnership();\n    }\n\n} ",
  "sourcePath": "/Users/scott/git/splytprotocol/contracts/AssetManager.sol",
  "compiler": {
    "name": "solc",
    "version": "0.4.24+commit.e67f0147.Emscripten.clang"
  },
  "schemaVersion": "2.0.1",
  "updatedAt": "2018-12-11T22:00:36.191Z"
}