{
  "contractName": "ManagerTracker",
  "abi": [
    {
      "constant": false,
      "inputs": [],
      "name": "acceptOwnership",
      "outputs": [],
      "payable": false,
      "stateMutability": "nonpayable",
      "type": "function"
    },
    {
      "constant": true,
      "inputs": [],
      "name": "splytManager",
      "outputs": [
        {
          "name": "",
          "type": "address"
        }
      ],
      "payable": false,
      "stateMutability": "view",
      "type": "function"
    },
    {
      "constant": true,
      "inputs": [],
      "name": "managerData",
      "outputs": [
        {
          "name": "",
          "type": "address"
        }
      ],
      "payable": false,
      "stateMutability": "view",
      "type": "function"
    },
    {
      "constant": true,
      "inputs": [],
      "name": "owner",
      "outputs": [
        {
          "name": "",
          "type": "address"
        }
      ],
      "payable": false,
      "stateMutability": "view",
      "type": "function"
    },
    {
      "constant": true,
      "inputs": [],
      "name": "pendingOwner",
      "outputs": [
        {
          "name": "",
          "type": "address"
        }
      ],
      "payable": false,
      "stateMutability": "view",
      "type": "function"
    },
    {
      "constant": false,
      "inputs": [
        {
          "name": "newOwner",
          "type": "address"
        }
      ],
      "name": "transferOwnership",
      "outputs": [],
      "payable": false,
      "stateMutability": "nonpayable",
      "type": "function"
    },
    {
      "inputs": [
        {
          "name": "_splytManager",
          "type": "address"
        }
      ],
      "payable": false,
      "stateMutability": "nonpayable",
      "type": "constructor"
    },
    {
      "constant": false,
      "inputs": [
        {
          "name": "_managerAddress",
          "type": "address"
        }
      ],
      "name": "add",
      "outputs": [],
      "payable": false,
      "stateMutability": "nonpayable",
      "type": "function"
    },
    {
      "constant": true,
      "inputs": [],
      "name": "getDataContractAddress",
      "outputs": [
        {
          "name": "",
          "type": "address"
        }
      ],
      "payable": false,
      "stateMutability": "view",
      "type": "function"
    },
    {
      "constant": false,
      "inputs": [
        {
          "name": "_dataAddress",
          "type": "address"
        }
      ],
      "name": "setDataContract",
      "outputs": [],
      "payable": false,
      "stateMutability": "nonpayable",
      "type": "function"
    },
    {
      "constant": false,
      "inputs": [
        {
          "name": "_address",
          "type": "address"
        }
      ],
      "name": "disable",
      "outputs": [],
      "payable": false,
      "stateMutability": "nonpayable",
      "type": "function"
    },
    {
      "constant": true,
      "inputs": [
        {
          "name": "_address",
          "type": "address"
        }
      ],
      "name": "isManager",
      "outputs": [
        {
          "name": "",
          "type": "bool"
        }
      ],
      "payable": false,
      "stateMutability": "view",
      "type": "function"
    }
  ],
  "bytecode": "0x608060405234801561001057600080fd5b5060405160208061093a833981016040525160008054600160a060020a0319163317905561003c61008d565b604051809103906000f080158015610058573d6000803e3d6000fd5b5060028054600160a060020a03928316600160a060020a0319918216179091556003805493909216921691909117905561009d565b604051610370806105ca83390190565b61051e806100ac6000396000f3006080604052600436106100ae5763ffffffff7c010000000000000000000000000000000000000000000000000000000060003504166303959bb781146100b35780630a3b0a4f146100d657806361e91ea1146100f757806379ba5097146101285780637b36563e1461013d5780637d2c1bc4146101525780638da5cb5b14610167578063e30c39781461017c578063e6c09edf14610191578063f2fde38b146101b2578063f3ae2415146101d3575b600080fd5b3480156100bf57600080fd5b506100d4600160a060020a0360043516610208565b005b3480156100e257600080fd5b506100d4600160a060020a036004351661024e565b34801561010357600080fd5b5061010c6102fe565b60408051600160a060020a039092168252519081900360200190f35b34801561013457600080fd5b506100d461030d565b34801561014957600080fd5b5061010c610355565b34801561015e57600080fd5b5061010c610364565b34801561017357600080fd5b5061010c610373565b34801561018857600080fd5b5061010c610382565b34801561019d57600080fd5b506100d4600160a060020a0360043516610391565b3480156101be57600080fd5b506100d4600160a060020a036004351661040f565b3480156101df57600080fd5b506101f4600160a060020a0360043516610455565b604080519115158252519081900360200190f35b600054600160a060020a0316331461021f57600080fd5b6002805473ffffffffffffffffffffffffffffffffffffffff1916600160a060020a0392909216919091179055565b600054600160a060020a03163314806102715750600354600160a060020a031633145b151561027c57600080fd5b600254604080517f0a3b0a4f000000000000000000000000000000000000000000000000000000008152600160a060020a03848116600483015291519190921691630a3b0a4f91602480830192600092919082900301818387803b1580156102e357600080fd5b505af11580156102f7573d6000803e3d6000fd5b5050505050565b600254600160a060020a031690565b600154600160a060020a0316331461032457600080fd5b6001546000805473ffffffffffffffffffffffffffffffffffffffff1916600160a060020a03909216919091179055565b600354600160a060020a031681565b600254600160a060020a031681565b600054600160a060020a031681565b600154600160a060020a031681565b600054600160a060020a031633146103a857600080fd5b600254604080517fe6c09edf000000000000000000000000000000000000000000000000000000008152600160a060020a0384811660048301529151919092169163e6c09edf91602480830192600092919082900301818387803b1580156102e357600080fd5b600054600160a060020a0316331461042657600080fd5b6001805473ffffffffffffffffffffffffffffffffffffffff1916600160a060020a0392909216919091179055565b600254604080517ff3ae2415000000000000000000000000000000000000000000000000000000008152600160a060020a0384811660048301529151600093929092169163f3ae24159160248082019260209290919082900301818787803b1580156104c057600080fd5b505af11580156104d4573d6000803e3d6000fd5b505050506040513d60208110156104ea57600080fd5b5051929150505600a165627a7a72305820d919bac1f52064236b4906f1759629213f427cef7d0561f5926d032350c5e8ac0029608060405234801561001057600080fd5b5060008054600160a060020a0319163390811782558152600260205260409020805460ff191660011790556103268061004a6000396000f30060806040526004361061008d5763ffffffff7c01000000000000000000000000000000000000000000000000000000006000350416630a3b0a4f811461009257806379ba5097146100b55780638da5cb5b146100ca578063e30c3978146100fb578063e6c09edf14610110578063f2fde38b14610131578063f3ae241514610152578063fdff9b4d14610187575b600080fd5b34801561009e57600080fd5b506100b3600160a060020a03600435166101a8565b005b3480156100c157600080fd5b506100b36101e3565b3480156100d657600080fd5b506100df61022b565b60408051600160a060020a039092168252519081900360200190f35b34801561010757600080fd5b506100df61023a565b34801561011c57600080fd5b506100b3600160a060020a0360043516610249565b34801561013d57600080fd5b506100b3600160a060020a0360043516610281565b34801561015e57600080fd5b50610173600160a060020a03600435166102c7565b604080519115158252519081900360200190f35b34801561019357600080fd5b50610173600160a060020a03600435166102e5565b600054600160a060020a031633146101bf57600080fd5b600160a060020a03166000908152600260205260409020805460ff19166001179055565b600154600160a060020a031633146101fa57600080fd5b6001546000805473ffffffffffffffffffffffffffffffffffffffff1916600160a060020a03909216919091179055565b600054600160a060020a031681565b600154600160a060020a031681565b600054600160a060020a0316331461026057600080fd5b600160a060020a03166000908152600260205260409020805460ff19169055565b600054600160a060020a0316331461029857600080fd5b6001805473ffffffffffffffffffffffffffffffffffffffff1916600160a060020a0392909216919091179055565b600160a060020a031660009081526002602052604090205460ff1690565b60026020526000908152604090205460ff16815600a165627a7a72305820a440997dff433991c68589f40425e81e1f89035d3cbfa091208056263c36c2760029",
  "source": "pragma solidity ^0.4.24;\n\nimport \"./Owned.sol\";\nimport \"./ManagerData.sol\";\nimport \"./SplytManager.sol\";\n\n//@dev this contract keeps history of all the managers. This contract is used when a contract is owned by a previous manager contract. \n//This contract allows current managers access to write old contracts owned by depracated managers.\ncontract ManagerTracker is Owned {\n    \n    ManagerData public managerData;\n    SplytManager public splytManager;\n\n    //allow owner or splytManager\n    modifier onlyOwnerOrSplyt() {\n        require(owner == msg.sender || address(splytManager) == msg.sender);\n        _;\n    }\n\n    constructor(address _splytManager) public {\n        managerData = new ManagerData();\n        splytManager = SplytManager(_splytManager);\n    }\n\n    function add(address _managerAddress) public onlyOwnerOrSplyt {\n        managerData.add(_managerAddress);\n    }\n\n    function getDataContractAddress() public view returns (address) {\n       return address(managerData);\n    }\n\n    //@dev update data contract address\n    function setDataContract(address _dataAddress) onlyOwner public {\n       managerData = ManagerData(_dataAddress);\n    }\n\n\n    function disable(address _address) public onlyOwner {\n        managerData.disable(_address);\n    }  \n\n    function isManager(address _address) public view returns (bool) {\n        return managerData.isManager(_address);\n    }  \n\n} ",
  "sourcePath": "/Users/scott/git/splytprotocol/contracts/ManagerTracker.sol",
  "compiler": {
    "name": "solc",
    "version": "0.4.24+commit.e67f0147.Emscripten.clang"
  },
  "schemaVersion": "2.0.1",
  "updatedAt": "2018-09-05T21:11:46.720Z"
}