{
  "contractName": "OrderManager",
  "abi": [
    {
      "constant": true,
      "inputs": [],
      "name": "orderData",
      "outputs": [
        {
          "name": "",
          "type": "address"
        }
      ],
      "payable": false,
      "stateMutability": "view",
      "type": "function"
    },
    {
      "constant": true,
      "inputs": [],
      "name": "splytManager",
      "outputs": [
        {
          "name": "",
          "type": "address"
        }
      ],
      "payable": false,
      "stateMutability": "view",
      "type": "function"
    },
    {
      "constant": true,
      "inputs": [],
      "name": "owner",
      "outputs": [
        {
          "name": "",
          "type": "address"
        }
      ],
      "payable": false,
      "stateMutability": "view",
      "type": "function"
    },
    {
      "constant": true,
      "inputs": [],
      "name": "pendingOwner",
      "outputs": [
        {
          "name": "",
          "type": "address"
        }
      ],
      "payable": false,
      "stateMutability": "view",
      "type": "function"
    },
    {
      "inputs": [
        {
          "name": "_splytManager",
          "type": "address"
        }
      ],
      "payable": false,
      "stateMutability": "nonpayable",
      "type": "constructor"
    },
    {
      "anonymous": false,
      "inputs": [
        {
          "indexed": false,
          "name": "_code",
          "type": "uint256"
        },
        {
          "indexed": false,
          "name": "_assetAddress",
          "type": "address"
        },
        {
          "indexed": false,
          "name": "_message",
          "type": "string"
        }
      ],
      "name": "Error",
      "type": "event"
    },
    {
      "anonymous": false,
      "inputs": [
        {
          "indexed": false,
          "name": "_code",
          "type": "uint256"
        },
        {
          "indexed": false,
          "name": "_address",
          "type": "address"
        }
      ],
      "name": "Success",
      "type": "event"
    },
    {
      "constant": false,
      "inputs": [
        {
          "name": "_orderId",
          "type": "bytes12"
        },
        {
          "name": "_assetAddress",
          "type": "address"
        },
        {
          "name": "_qty",
          "type": "uint256"
        },
        {
          "name": "_tokenAmount",
          "type": "uint256"
        }
      ],
      "name": "purchase",
      "outputs": [
        {
          "name": "",
          "type": "bool"
        }
      ],
      "payable": false,
      "stateMutability": "nonpayable",
      "type": "function"
    },
    {
      "constant": false,
      "inputs": [
        {
          "name": "_orderId",
          "type": "bytes12"
        },
        {
          "name": "_status",
          "type": "uint8"
        }
      ],
      "name": "setStatus",
      "outputs": [
        {
          "name": "",
          "type": "bool"
        }
      ],
      "payable": false,
      "stateMutability": "nonpayable",
      "type": "function"
    },
    {
      "constant": true,
      "inputs": [
        {
          "name": "_orderId",
          "type": "bytes12"
        }
      ],
      "name": "getStatus",
      "outputs": [
        {
          "name": "",
          "type": "uint8"
        }
      ],
      "payable": false,
      "stateMutability": "view",
      "type": "function"
    },
    {
      "constant": true,
      "inputs": [
        {
          "name": "_totalCost",
          "type": "uint256"
        },
        {
          "name": "_length",
          "type": "uint256"
        },
        {
          "name": "_kickbackAmount",
          "type": "uint256"
        }
      ],
      "name": "calcDistribution",
      "outputs": [
        {
          "name": "",
          "type": "uint256"
        },
        {
          "name": "",
          "type": "uint256"
        }
      ],
      "payable": false,
      "stateMutability": "pure",
      "type": "function"
    },
    {
      "constant": false,
      "inputs": [
        {
          "name": "_orderId",
          "type": "bytes12"
        }
      ],
      "name": "approveRefund",
      "outputs": [],
      "payable": false,
      "stateMutability": "nonpayable",
      "type": "function"
    },
    {
      "constant": false,
      "inputs": [
        {
          "name": "_orderId",
          "type": "bytes12"
        }
      ],
      "name": "requestRefund",
      "outputs": [],
      "payable": false,
      "stateMutability": "nonpayable",
      "type": "function"
    },
    {
      "constant": true,
      "inputs": [
        {
          "name": "_orderId",
          "type": "bytes12"
        }
      ],
      "name": "getTotalContributions",
      "outputs": [
        {
          "name": "",
          "type": "uint256"
        }
      ],
      "payable": false,
      "stateMutability": "view",
      "type": "function"
    },
    {
      "constant": true,
      "inputs": [
        {
          "name": "_orderId",
          "type": "bytes12"
        }
      ],
      "name": "getMyContributions",
      "outputs": [
        {
          "name": "",
          "type": "uint256"
        }
      ],
      "payable": false,
      "stateMutability": "view",
      "type": "function"
    },
    {
      "constant": false,
      "inputs": [
        {
          "name": "_address",
          "type": "address"
        }
      ],
      "name": "setSplytManager",
      "outputs": [],
      "payable": false,
      "stateMutability": "nonpayable",
      "type": "function"
    },
    {
      "constant": true,
      "inputs": [],
      "name": "getDataContractAddress",
      "outputs": [
        {
          "name": "",
          "type": "address"
        }
      ],
      "payable": false,
      "stateMutability": "view",
      "type": "function"
    },
    {
      "constant": false,
      "inputs": [
        {
          "name": "_orderData",
          "type": "address"
        }
      ],
      "name": "setDataContract",
      "outputs": [],
      "payable": false,
      "stateMutability": "nonpayable",
      "type": "function"
    },
    {
      "constant": true,
      "inputs": [
        {
          "name": "_orderId",
          "type": "bytes12"
        }
      ],
      "name": "getOrderByOrderId",
      "outputs": [
        {
          "name": "",
          "type": "uint256"
        },
        {
          "name": "",
          "type": "bytes12"
        },
        {
          "name": "",
          "type": "address"
        },
        {
          "name": "",
          "type": "address"
        },
        {
          "name": "",
          "type": "uint256"
        },
        {
          "name": "",
          "type": "uint256"
        },
        {
          "name": "",
          "type": "uint8"
        }
      ],
      "payable": false,
      "stateMutability": "view",
      "type": "function"
    },
    {
      "constant": true,
      "inputs": [],
      "name": "getDataVersion",
      "outputs": [
        {
          "name": "",
          "type": "uint256"
        }
      ],
      "payable": false,
      "stateMutability": "view",
      "type": "function"
    },
    {
      "constant": true,
      "inputs": [
        {
          "name": "_assetAddress",
          "type": "address"
        }
      ],
      "name": "getFractionalOrderIdByAsset",
      "outputs": [
        {
          "name": "",
          "type": "bytes12"
        }
      ],
      "payable": false,
      "stateMutability": "view",
      "type": "function"
    },
    {
      "constant": true,
      "inputs": [],
      "name": "getOrdersLength",
      "outputs": [
        {
          "name": "",
          "type": "uint256"
        }
      ],
      "payable": false,
      "stateMutability": "view",
      "type": "function"
    },
    {
      "constant": false,
      "inputs": [
        {
          "name": "_newAddress",
          "type": "address"
        }
      ],
      "name": "transferOwnership",
      "outputs": [],
      "payable": false,
      "stateMutability": "nonpayable",
      "type": "function"
    },
    {
      "constant": false,
      "inputs": [],
      "name": "acceptOwnership",
      "outputs": [],
      "payable": false,
      "stateMutability": "nonpayable",
      "type": "function"
    }
  ],
  "bytecode": "0x60806040523480156200001157600080fd5b50604051602080620037ca833981016040525160008054600160a060020a031916331790556200004062000093565b604051809103906000f0801580156200005d573d6000803e3d6000fd5b5060028054600160a060020a03928316600160a060020a03199182161790915560038054939092169216919091179055620000a4565b604051610f6c806200285e83390190565b6127aa80620000b46000396000f3006080604052600436106101035763ffffffff60e060020a60003504166303959bb7811461010857806307c2e16c1461012b5780630bfc23ff1461015257806310617ac414610167578063229e81fb146101895780634e1a9756146101ba57806352e064841461020257806361e91ea11461023957806379ba50971461024e5780637b36563e14610263578063848b06631461027857806387d55642146102a05780638da5cb5b146102c1578063916e476e146102d65780639c8796b71461031c578063c321fa96146103a7578063cba9a1a4146103c9578063d8f1626e146103eb578063e30c397814610429578063f2fde38b1461043e578063f6fd35ed1461045f575b600080fd5b34801561011457600080fd5b50610129600160a060020a0360043516610481565b005b34801561013757600080fd5b506101406104ba565b60408051918252519081900360200190f35b34801561015e57600080fd5b5061014061054a565b34801561017357600080fd5b50610140600160a060020a0319600435166105a9565b34801561019557600080fd5b5061019e61064a565b60408051600160a060020a039092168252519081900360200190f35b3480156101c657600080fd5b506101ee600160a060020a031960043516602435600160a060020a0316604435606435610659565b604080519115158252519081900360200190f35b34801561020e57600080fd5b50610220600435602435604435610794565b6040805192835260208301919091528051918290030190f35b34801561024557600080fd5b5061019e6107b5565b34801561025a57600080fd5b506101296107c4565b34801561026f57600080fd5b5061019e610848565b34801561028457600080fd5b506101ee600160a060020a03196004351660ff60243516610857565b3480156102ac57600080fd5b50610129600160a060020a0360043516610914565b3480156102cd57600080fd5b5061019e61094d565b3480156102e257600080fd5b506102f8600160a060020a03196004351661095c565b6040518082600781111561030857fe5b60ff16815260200191505060405180910390f35b34801561032857600080fd5b5061033e600160a060020a0319600435166109cb565b60408051888152600160a060020a031988166020820152600160a060020a038781169282019290925290851660608201526080810184905260a0810183905260c0810182600781111561038d57fe5b60ff16815260200197505050505050505060405180910390f35b3480156103b357600080fd5b50610129600160a060020a031960043516610aa8565b3480156103d557600080fd5b50610129600160a060020a031960043516610c07565b3480156103f757600080fd5b5061040c600160a060020a0360043516611638565b60408051600160a060020a03199092168252519081900360200190f35b34801561043557600080fd5b5061019e611757565b34801561044a57600080fd5b50610129600160a060020a0360043516611766565b34801561046b57600080fd5b50610140600160a060020a0319600435166117f8565b600054600160a060020a0316331461049857600080fd5b60028054600160a060020a031916600160a060020a0392909216919091179055565b600254604080517f2986c0e50000000000000000000000000000000000000000000000000000000081529051600092600160a060020a031691632986c0e591600480830192602092919082900301818787803b15801561051957600080fd5b505af115801561052d573d6000803e3d6000fd5b505050506040513d602081101561054357600080fd5b5051905090565b600254604080517f54fd4d500000000000000000000000000000000000000000000000000000000081529051600092600160a060020a0316916354fd4d5091600480830192602092919082900301818787803b15801561051957600080fd5b600254604080517f10617ac4000000000000000000000000000000000000000000000000000000008152600160a060020a0319841660048201529051600092600160a060020a0316916310617ac491602480830192602092919082900301818787803b15801561061857600080fd5b505af115801561062c573d6000803e3d6000fd5b505050506040513d602081101561064257600080fd5b505192915050565b600254600160a060020a031681565b60008060018580600160a060020a031663200d2ed26040518163ffffffff1660e060020a028152600401602060405180830381600087803b15801561069d57600080fd5b505af11580156106b1573d6000803e3d6000fd5b505050506040513d60208110156106c757600080fd5b505160068111156106d457fe5b8260068111156106e057fe5b146106ea57600080fd5b869250600083600160a060020a0316633fe3347a6040518163ffffffff1660e060020a028152600401602060405180830381600087803b15801561072d57600080fd5b505af1158015610741573d6000803e3d6000fd5b505050506040513d602081101561075757600080fd5b5051600181111561076457fe5b141561077b576107768884888861186d565b610786565b610786888487611fcd565b506001979650505050505050565b60008060008085858115156107a557fe5b0497958802909603955050505050565b600254600160a060020a031690565b600054600160a060020a031633146107db57600080fd5b600260009054906101000a9004600160a060020a0316600160a060020a03166379ba50976040518163ffffffff1660e060020a028152600401600060405180830381600087803b15801561082e57600080fd5b505af1158015610842573d6000803e3d6000fd5b50505050565b600354600160a060020a031681565b6002546040517f848b0663000000000000000000000000000000000000000000000000000000008152600160a060020a0319841660048201908152600092600160a060020a03169163848b06639186918691906024018260078111156108b957fe5b60ff16815260200192505050602060405180830381600087803b1580156108df57600080fd5b505af11580156108f3573d6000803e3d6000fd5b505050506040513d602081101561090957600080fd5b506001949350505050565b600054600160a060020a0316331461092b57600080fd5b60038054600160a060020a031916600160a060020a0392909216919091179055565b600054600160a060020a031681565b600254604080517f916e476e000000000000000000000000000000000000000000000000000000008152600160a060020a0319841660048201529051600092600160a060020a03169163916e476e91602480830192602092919082900301818787803b15801561061857600080fd5b600254604080517f9c8796b7000000000000000000000000000000000000000000000000000000008152600160a060020a0319841660048201529051600092839283928392839283928392600160a060020a031691639c8796b79160248083019260e092919082900301818787803b158015610a4657600080fd5b505af1158015610a5a573d6000803e3d6000fd5b505050506040513d60e0811015610a7057600080fd5b508051602082015160408301516060840151608085015160a086015160c090960151949e939d50919b50995097509195509350915050565b600254604080517f65c0ea78000000000000000000000000000000000000000000000000000000008152600160a060020a03198416600482015290518392600092600160a060020a03909116916365c0ea789160248082019260209290919082900301818787803b158015610b1c57600080fd5b505af1158015610b30573d6000803e3d6000fd5b505050506040513d6020811015610b4657600080fd5b50519050600160a060020a0381163314610b5f57600080fd5b600254604080517f848b0663000000000000000000000000000000000000000000000000000000008152600160a060020a031986166004820152600360248201529051600160a060020a039092169163848b0663916044808201926020929091908290030181600087803b158015610bd657600080fd5b505af1158015610bea573d6000803e3d6000fd5b505050506040513d6020811015610c0057600080fd5b5050505050565b600254604080517f5c5c9a31000000000000000000000000000000000000000000000000000000008152600160a060020a031984166004820152905160009283928392839283928392839283928b928492600160a060020a031691635c5c9a3191602480830192602092919082900301818787803b158015610c8857600080fd5b505af1158015610c9c573d6000803e3d6000fd5b505050506040513d6020811015610cb257600080fd5b5051604080517f08551a530000000000000000000000000000000000000000000000000000000081529051600160a060020a03909216916308551a53916004808201926020929091908290030181600087803b158015610d1157600080fd5b505af1158015610d25573d6000803e3d6000fd5b505050506040513d6020811015610d3b57600080fd5b50519050600160a060020a0381163314610d5457600080fd5b600354604080517ff8b2cb4f0000000000000000000000000000000000000000000000000000000081523360048201529051600160a060020a039092169163f8b2cb4f916024808201926020929091908290030181600087803b158015610dba57600080fd5b505af1158015610dce573d6000803e3d6000fd5b505050506040513d6020811015610de457600080fd5b5051600254604080517f53219fff000000000000000000000000000000000000000000000000000000008152600160a060020a03198f1660048201529051929c50600160a060020a03909116916353219fff916024808201926020929091908290030181600087803b158015610e5957600080fd5b505af1158015610e6d573d6000803e3d6000fd5b505050506040513d6020811015610e8357600080fd5b5051600254604080517f3062a198000000000000000000000000000000000000000000000000000000008152600160a060020a03198f1660048201529051929b50600160a060020a0390911691633062a198916024808201926020929091908290030181600087803b158015610ef857600080fd5b505af1158015610f0c573d6000803e3d6000fd5b505050506040513d6020811015610f2257600080fd5b50519750888a1015610f3357600080fd5b600254604080517f0c2a8f37000000000000000000000000000000000000000000000000000000008152600160a060020a03198e1660048201529051600160a060020a0390921691630c2a8f37916024808201926020929091908290030181600087803b158015610fa357600080fd5b505af1158015610fb7573d6000803e3d6000fd5b505050506040513d6020811015610fcd57600080fd5b50516040805160e060020a633c5e6c97028152905191965086955061115d91600160a060020a03871691633c5e6c979160048083019260209291908290030181600087803b15801561101e57600080fd5b505af1158015611032573d6000803e3d6000fd5b505050506040513d602081101561104857600080fd5b5051604080517f8622d35f0000000000000000000000000000000000000000000000000000000081529051600160a060020a03881691638622d35f9160048083019260209291908290030181600087803b1580156110a557600080fd5b505af11580156110b9573d6000803e3d6000fd5b505050506040513d60208110156110cf57600080fd5b5051604080517f5e2b956d0000000000000000000000000000000000000000000000000000000081529051600160a060020a03891691635e2b956d9160048083019260209291908290030181600087803b15801561112c57600080fd5b505af1158015611140573d6000803e3d6000fd5b505050506040513d602081101561115657600080fd5b5051610794565b8097508198505050600360009054906101000a9004600160a060020a0316600160a060020a0316637f6cdfa633600260009054906101000a9004600160a060020a0316600160a060020a03166365c0ea788f6040518263ffffffff1660e060020a0281526004018082600160a060020a031916600160a060020a0319168152602001915050602060405180830381600087803b1580156111fc57600080fd5b505af1158015611210573d6000803e3d6000fd5b505050506040513d602081101561122657600080fd5b50516040805160e060020a63ffffffff8616028152600160a060020a039384166004820152929091166024830152604482018a90525160648083019260209291908290030181600087803b15801561127d57600080fd5b505af1158015611291573d6000803e3d6000fd5b505050506040513d60208110156112a757600080fd5b505060008711156114fe57600092505b83600160a060020a0316638622d35f6040518163ffffffff1660e060020a028152600401602060405180830381600087803b1580156112f557600080fd5b505af1158015611309573d6000803e3d6000fd5b505050506040513d602081101561131f57600080fd5b50518310156114fe57600354604080517f62030a86000000000000000000000000000000000000000000000000000000008152600481018690529051600160a060020a0392831692637f6cdfa692908816916362030a86916024808201926020929091908290030181600087803b15801561139957600080fd5b505af11580156113ad573d6000803e3d6000fd5b505050506040513d60208110156113c357600080fd5b8101908080519060200190929190505050600260009054906101000a9004600160a060020a0316600160a060020a03166365c0ea788f6040518263ffffffff1660e060020a0281526004018082600160a060020a031916600160a060020a0319168152602001915050602060405180830381600087803b15801561144657600080fd5b505af115801561145a573d6000803e3d6000fd5b505050506040513d602081101561147057600080fd5b50516040805160e060020a63ffffffff8616028152600160a060020a039384166004820152929091166024830152604482018b90525160648083019260209291908290030181600087803b1580156114c757600080fd5b505af11580156114db573d6000803e3d6000fd5b505050506040513d60208110156114f157600080fd5b50506001909201916112b7565b600354604080517f7a34748a000000000000000000000000000000000000000000000000000000008152600160a060020a038881166004830152602482018c905291519190921691637a34748a91604480830192600092919082900301818387803b15801561156c57600080fd5b505af1158015611580573d6000803e3d6000fd5b50506002546040517f848b0663000000000000000000000000000000000000000000000000000000008152600160a060020a03198f166004828101918252600160a060020a03909316945063848b066393508f92916024018260ff16815260200192505050602060405180830381600087803b1580156115ff57600080fd5b505af1158015611613573d6000803e3d6000fd5b505050506040513d602081101561162957600080fd5b50505050505050505050505050565b60008180600160a060020a0316633fe3347a6040518163ffffffff1660e060020a028152600401602060405180830381600087803b15801561167957600080fd5b505af115801561168d573d6000803e3d6000fd5b505050506040513d60208110156116a357600080fd5b505160018111156116b057fe5b6001146116bc57600080fd5b600254604080517fd8f1626e000000000000000000000000000000000000000000000000000000008152600160a060020a0386811660048301529151919092169163d8f1626e9160248083019260209291908290030181600087803b15801561172457600080fd5b505af1158015611738573d6000803e3d6000fd5b505050506040513d602081101561174e57600080fd5b50519392505050565b600154600160a060020a031681565b600054600160a060020a0316331461177d57600080fd5b600254604080517ff2fde38b000000000000000000000000000000000000000000000000000000008152600160a060020a0384811660048301529151919092169163f2fde38b91602480830192600092919082900301818387803b1580156117e457600080fd5b505af1158015610c00573d6000803e3d6000fd5b600254604080517fd113033c000000000000000000000000000000000000000000000000000000008152600160a060020a0319841660048201523360248201529051600092600160a060020a03169163d113033c91604480830192602092919082900301818787803b15801561061857600080fd5b600354604080517ff8b2cb4f000000000000000000000000000000000000000000000000000000008152336004820152905160009283928392839283928392600160a060020a039092169163f8b2cb4f9160248082019260209290919082900301818787803b1580156118df57600080fd5b505af11580156118f3573d6000803e3d6000fd5b505050506040513d602081101561190957600080fd5b50516040805160e060020a633c5e6c9702815290519197508991600160a060020a038c1691633c5e6c979160048083019260209291908290030181600087803b15801561195557600080fd5b505af1158015611969573d6000803e3d6000fd5b505050506040513d602081101561197f57600080fd5b5051604080517f5b98c83d0000000000000000000000000000000000000000000000000000000081529051929091029650600160a060020a038b1691635b98c83d916004808201926020929091908290030181600087803b1580156119e357600080fd5b505af11580156119f7573d6000803e3d6000fd5b505050506040513d6020811015611a0d57600080fd5b5051935084871080611a1e57508486105b80611a2857508388115b15611a3257600080fd5b611b8189600160a060020a0316633c5e6c976040518163ffffffff1660e060020a028152600401602060405180830381600087803b158015611a7357600080fd5b505af1158015611a87573d6000803e3d6000fd5b505050506040513d6020811015611a9d57600080fd5b5051604080517f8622d35f0000000000000000000000000000000000000000000000000000000081529051600160a060020a038d1691638622d35f9160048083019260209291908290030181600087803b158015611afa57600080fd5b505af1158015611b0e573d6000803e3d6000fd5b505050506040513d6020811015611b2457600080fd5b5051604080517f5e2b956d0000000000000000000000000000000000000000000000000000000081529051600160a060020a038e1691635e2b956d9160048083019260209291908290030181600087803b15801561112c57600080fd5b8093508194505050600360009054906101000a9004600160a060020a0316600160a060020a0316637f6cdfa6338b600160a060020a03166308551a536040518163ffffffff1660e060020a028152600401602060405180830381600087803b158015611bec57600080fd5b505af1158015611c00573d6000803e3d6000fd5b505050506040513d6020811015611c1657600080fd5b50516040805160e060020a63ffffffff8616028152600160a060020a039384166004820152929091166024830152604482018690525160648083019260209291908290030181600087803b158015611c6d57600080fd5b505af1158015611c81573d6000803e3d6000fd5b505050506040513d6020811015611c9757600080fd5b50506000831115611e3f575060005b88600160a060020a0316638622d35f6040518163ffffffff1660e060020a028152600401602060405180830381600087803b158015611ce457600080fd5b505af1158015611cf8573d6000803e3d6000fd5b505050506040513d6020811015611d0e57600080fd5b5051811015611e3f57600354604080517f62030a86000000000000000000000000000000000000000000000000000000008152600481018490529051600160a060020a0392831692637f6cdfa6923392918e16916362030a86916024808201926020929091908290030181600087803b158015611d8a57600080fd5b505af1158015611d9e573d6000803e3d6000fd5b505050506040513d6020811015611db457600080fd5b50516040805160e060020a63ffffffff8616028152600160a060020a039384166004820152929091166024830152604482018790525160648083019260209291908290030181600087803b158015611e0b57600080fd5b505af1158015611e1f573d6000803e3d6000fd5b505050506040513d6020811015611e3557600080fd5b5050600101611ca6565b600254604080517f2a342099000000000000000000000000000000000000000000000000000000008152600160a060020a03198d166004820152600160a060020a038c81166024830152336044830152606482018c9052608482018b905291519190921691632a3420999160a48083019260209291908290030181600087803b158015611ecb57600080fd5b505af1158015611edf573d6000803e3d6000fd5b505050506040513d6020811015611ef557600080fd5b5050600354604080517feb95f04a000000000000000000000000000000000000000000000000000000008152600160a060020a038c81166004830152602482018c90529151919092169163eb95f04a91604480830192600092919082900301818387803b158015611f6557600080fd5b505af1158015611f79573d6000803e3d6000fd5b50506040805160048152600160a060020a038d16602082015281517f2539b4cc2b40f86b739ed651d0bf19a6b3db2c37cde9a6de9bd20707832c26779450908190039091019150a150505050505050505050565b600354604080517ff8b2cb4f0000000000000000000000000000000000000000000000000000000081523360048201529051600092839283928392600160a060020a03169163f8b2cb4f91602480830192602092919082900301818787803b15801561203857600080fd5b505af115801561204c573d6000803e3d6000fd5b505050506040513d602081101561206257600080fd5b505193508484101561207357600080fd5b61207c8761095c565b9250600583600781111561208c57fe5b141561232557600254604080517f10617ac4000000000000000000000000000000000000000000000000000000008152600160a060020a03198a16600482015290518792600160a060020a0316916310617ac49160248083019260209291908290030181600087803b15801561210157600080fd5b505af1158015612115573d6000803e3d6000fd5b505050506040513d602081101561212b57600080fd5b50516040805160e060020a633c5e6c970281529051929091019250600160a060020a03881691633c5e6c97916004808201926020929091908290030181600087803b15801561217957600080fd5b505af115801561218d573d6000803e3d6000fd5b505050506040513d60208110156121a357600080fd5b50518110156121b35760056121b6565b60065b600354604080517f7f6cdfa6000000000000000000000000000000000000000000000000000000008152336004820152600160a060020a038a81166024830152604482018a90529151939550911691637f6cdfa6916064808201926020929091908290030181600087803b15801561222d57600080fd5b505af1158015612241573d6000803e3d6000fd5b505050506040513d602081101561225757600080fd5b50506002546040517fcbbc27cf000000000000000000000000000000000000000000000000000000008152600160a060020a0319891660048201908152336024830181905260448301899052600160a060020a039093169263cbbc27cf928b928a918891906064018260078111156122cb57fe5b60ff168152602001945050505050602060405180830381600087803b1580156122f357600080fd5b505af1158015612307573d6000803e3d6000fd5b505050506040513d602081101561231d57600080fd5b506125149050565b85600160a060020a0316633c5e6c976040518163ffffffff1660e060020a028152600401602060405180830381600087803b15801561236357600080fd5b505af1158015612377573d6000803e3d6000fd5b505050506040513d602081101561238d57600080fd5b505185101561239d5760056123a0565b60065b600354604080517f7f6cdfa6000000000000000000000000000000000000000000000000000000008152336004820152600160a060020a038a81166024830152604482018a90529151939550911691637f6cdfa6916064808201926020929091908290030181600087803b15801561241757600080fd5b505af115801561242b573d6000803e3d6000fd5b505050506040513d602081101561244157600080fd5b50506002546040517f676f5c48000000000000000000000000000000000000000000000000000000008152600160a060020a0319891660048201908152600160a060020a0389811660248401523360448401819052606484018a905293169263676f5c48928b928b92918b9189916084018260078111156124be57fe5b60ff16815260200195505050505050602060405180830381600087803b1580156124e757600080fd5b505af11580156124fb573d6000803e3d6000fd5b505050506040513d602081101561251157600080fd5b50505b600682600781111561252257fe5b141561273157600360009054906101000a9004600160a060020a0316600160a060020a0316637f6cdfa68788600160a060020a03166308551a536040518163ffffffff1660e060020a028152600401602060405180830381600087803b15801561258b57600080fd5b505af115801561259f573d6000803e3d6000fd5b505050506040513d60208110156125b557600080fd5b50516040805160e060020a633c5e6c970281529051600160a060020a038c1691633c5e6c979160048083019260209291908290030181600087803b1580156125fc57600080fd5b505af1158015612610573d6000803e3d6000fd5b505050506040513d602081101561262657600080fd5b50516040805160e060020a63ffffffff8716028152600160a060020a0394851660048201529290931660248301526044820152905160648083019260209291908290030181600087803b15801561267c57600080fd5b505af1158015612690573d6000803e3d6000fd5b505050506040513d60208110156126a657600080fd5b5050600354604080517f14fc5a5a000000000000000000000000000000000000000000000000000000008152600160a060020a038981166004808401919091526024830152915191909216916314fc5a5a91604480830192600092919082900301818387803b15801561271857600080fd5b505af115801561272c573d6000803e3d6000fd5b505050505b6040805160028152600160a060020a038816602082015281517f2539b4cc2b40f86b739ed651d0bf19a6b3db2c37cde9a6de9bd20707832c2677929181900390910190a1505050505050505600a165627a7a72305820e4380918ce2aead5331a94511ef36f6d3a6fe6c6ecfdcb3c558e1817d45287cc00296080604052600160025560008054600160a060020a03191633179055610f428061002a6000396000f3006080604052600436106101745763ffffffff7c01000000000000000000000000000000000000000000000000000000006000350416630c2a8f37811461017957806310617ac4146101b75780632986c0e5146101eb5780632a342099146102005780633062a1981461024e57806330ea0c73146102705780633bc32df6146102b557806353219fff146102dd57806354fd4d50146102ff5780635c5c9a311461017957806365c0ea7814610314578063676f5c481461033657806379ba509714610373578063848b06631461038a5780638da5cb5b146103b25780638f10aa0b146103c7578063916e476e146103ef578063920a1b22146104355780639c8796b714610456578063b29b5139146104e1578063b75e49b41461050f578063cbbc27cf146105b6578063d113033c146105ed578063d309b5001461061b578063d8f1626e14610646578063e30c397814610667578063ea308a4c1461067c578063ed481cf1146106b0578063f2fde38b146106c8575b600080fd5b34801561018557600080fd5b5061019b600160a060020a0319600435166106e9565b60408051600160a060020a039092168252519081900360200190f35b3480156101c357600080fd5b506101d9600160a060020a031960043516610721565b60408051918252519081900360200190f35b3480156101f757600080fd5b506101d9610740565b34801561020c57600080fd5b5061023a600435600160a060020a031916600160a060020a0360243581169060443516606435608435610746565b604080519115158252519081900360200190f35b34801561025a57600080fd5b506101d9600160a060020a031960043516610905565b34801561027c57600080fd5b50610298600160a060020a031960043581169060243516610925565b60408051600160a060020a03199092168252519081900360200190f35b3480156102c157600080fd5b5061019b600160a060020a03196004358116906024351661095b565b3480156102e957600080fd5b506101d9600160a060020a031960043516610994565b34801561030b57600080fd5b506101d96109b3565b34801561032057600080fd5b5061019b600160a060020a0319600435166109b9565b34801561034257600080fd5b506101d9600435600160a060020a031916600160a060020a036024358116906044351660643560843560ff166109e1565b34801561037f57600080fd5b50610388610ade565b005b34801561039657600080fd5b5061023a600160a060020a03196004351660ff60243516610b19565b3480156103be57600080fd5b5061019b610b72565b3480156103d357600080fd5b506101d9600160a060020a031960043581169060243516610b81565b3480156103fb57600080fd5b50610411600160a060020a031960043516610bb1565b6040518082600781111561042157fe5b60ff16815260200191505060405180910390f35b34801561044157600080fd5b50610298600160a060020a0360043516610bd3565b34801561046257600080fd5b50610478600160a060020a031960043516610beb565b60408051888152600160a060020a031988166020820152600160a060020a038781169282019290925290851660608201526080810184905260a0810183905260c081018260078111156104c757fe5b60ff16815260200197505050505050505060405180910390f35b3480156104ed57600080fd5b5061023a600160a060020a031960043581169060243581169060443516610c53565b34801561051b57600080fd5b50610531600160a060020a031960043516610cbc565b604080518a8152600160a060020a03198a166020820152600160a060020a038981169282019290925290871660608201526080810186905260a0810185905260c0810184600781111561058057fe5b60ff16815260200183600481111561059457fe5b60ff168152602001828152602001995050505050505050505060405180910390f35b3480156105c257600080fd5b506101d9600160a060020a031960043516602435600160a060020a031660443560ff60643516610d28565b3480156105f957600080fd5b506101d9600160a060020a031960043516602435600160a060020a0316610db2565b34801561062757600080fd5b5061023a600160a060020a031960043581169060243516604435610de9565b34801561065257600080fd5b50610298600160a060020a0360043516610e36565b34801561067357600080fd5b5061019b610e57565b34801561068857600080fd5b5061023a600160a060020a031960043581169060243516604435600160a060020a0316610e66565b3480156106bc57600080fd5b50610298600435610ec5565b3480156106d457600080fd5b50610388600160a060020a0360043516610edd565b600160a060020a0319166000908152600360205260409020600101546c010000000000000000000000009004600160a060020a031690565b600160a060020a03191660009081526003602052604090206006015490565b60065481565b60008054600160a060020a0316331461075e57600080fd5b61012060405190810160405280600254815260200187600160a060020a031916815260200186600160a060020a0316815260200185600160a060020a03168152602001848152602001838152602001600160078111156107ba57fe5b81526020016000815260006020918201819052600160a060020a031989811682526003808452604092839020855181559385015160018086018054958801516bffffffffffffffffffffffff6bffffffffffffffffffffffff1990971660a060020a90940493909317959095166c01000000000000000000000000600160a060020a039384160217909455606086015160028601805490941691161790915560808401519083015560a0830151600483015560c08301516005830180549192909160ff19169083600781111561088c57fe5b021790555060e082015160058201805461ff0019166101008360048111156108b057fe5b0217905550610100919091015160069182015580546000908152600560205260409020805460a060020a89046bffffffffffffffffffffffff1990911617905580546001908101909155905095945050505050565b600160a060020a0319166000908152600360208190526040909120015490565b600160a060020a031991821660009081526003602090815260408083209390941682526008909201909152205460a060020a0290565b600160a060020a03199182166000908152600360209081526040808320939094168252600a9092019091522054600160a060020a031690565b600160a060020a03191660009081526003602052604090206004015490565b60025481565b600160a060020a031916600090815260036020526040902060020154600160a060020a031690565b60008054600160a060020a031633146109f957600080fd5b600254600160a060020a031987166000908152600360205260409020908155600180820180546bffffffffffffffffffffffff166c01000000000000000000000000600160a060020a038a160217905560059091018054849260ff1990911690836007811115610a6557fe5b0217905550600160a060020a031986166000908152600360209081526040808320600160a060020a0397881684526007810183528184208054880190556006018054909601909555959094168452600490945250902080546bffffffffffffffffffffffff191660a060020a9093049290921790915590565b600154600160a060020a03163314610af557600080fd5b60015460008054600160a060020a031916600160a060020a03909216919091179055565b60008054600160a060020a03163314610b3157600080fd5b600160a060020a031983166000908152600360205260409020600501805483919060ff19166001836007811115610b6457fe5b021790555060019392505050565b600054600160a060020a031681565b600160a060020a031991821660009081526003602090815260408083209390941682526009909201909152205490565b600160a060020a03191660009081526003602052604090206005015460ff1690565b60046020526000908152604090205460a060020a0281565b600160a060020a0319166000908152600360208190526040909120805460018201546002830154938301546004840154600590940154929560a060020a830295600160a060020a036c0100000000000000000000000090940484169593169391929160ff1690565b60008054600160a060020a03163314610c6b57600080fd5b50600160a060020a0319808416600090815260036020908152604080832093861683526008909301905220805460a060020a83046bffffffffffffffffffffffff1990911617905560019392505050565b60036020819052600091825260409091208054600182015460028301549383015460048401546005850154600690950154939560a060020a8402956c01000000000000000000000000909404600160a060020a039081169591169360ff80821692610100909204169089565b60008054600160a060020a03163314610d4057600080fd5b600160a060020a031985166000818152600360208181526040808420600160a060020a038a1685526007808201845291852080548a01905594909352526006820180548601905560059091018054849260ff19909116906001908490811115610da557fe5b0217905550949350505050565b600160a060020a031982166000908152600360209081526040808320600160a060020a038516845260070190915290205492915050565b60008054600160a060020a03163314610e0157600080fd5b50600160a060020a03199283166000908152600360209081526040808320949095168252600990930190925291902055600190565b600160a060020a031660009081526004602052604090205460a060020a0290565b600154600160a060020a031681565b60008054600160a060020a03163314610e7e57600080fd5b50600160a060020a031992831660009081526003602090815260408083209486168352600a9094019052919091208054909216600160a060020a0391909116179055600190565b60056020526000908152604090205460a060020a0281565b600054600160a060020a03163314610ef457600080fd5b60018054600160a060020a031916600160a060020a03929092169190911790555600a165627a7a72305820299cd6260cf041879ef92dcf3c1f625b1f75ff7c2b8b26dfa65f12668823791e0029",
  "source": "pragma solidity ^0.4.24;\n\nimport \"./Owned.sol\";\nimport \"./Events.sol\";\nimport \"./OrderData.sol\";\nimport \"./Asset.sol\";\nimport \"./SplytManager.sol\";\nimport \"./AssetManager.sol\";\nimport \"./ArbitrationManager.sol\";\n\ncontract OrderManager is Owned, Events {\n    \n    enum Reason { DEFECTIVE, NO_REASON, CHANGED_MIND, OTHER }\n    enum Statuses { PAID, CLOSED, REQUESTED_REFUND, REFUNDED, ARBITRATION, OTHER }\n\n    OrderData public orderData;\n    SplytManager public splytManager;\n\n    modifier onlyBuyer(bytes12 _orderId) {\n        address buyer = orderData.getBuyer(_orderId);  \n        require(buyer == msg.sender);\n        _;\n    }\n    \n    modifier onlySeller(bytes12 _orderId) {\n        address seller = Asset(orderData.getAsset(_orderId)).seller();          \n        require(seller == msg.sender);\n        _;\n    }\n\n    //@dev middleware to check for certain asset statuses to continue\n    modifier onlyAssetStatus(Asset.Statuses _status, address _assetAddress) {\n        require(_status == Asset(_assetAddress).status());\n        _;\n    }  \n\n    //@dev middleware to check for certain order statuses to continue\n    modifier onlyOrderStatus(bytes12 _orderId, OrderData.Statuses _status) {\n        require(_status == orderData.getStatus(_orderId));\n        _;\n    }    \n\n    //@dev middleware to bind functions that should be called by fractional\n    modifier onlyFractionalAsset(address _assetAddress) {\n        require(Asset.AssetTypes.FRACTIONAL == Asset(_assetAddress).assetType());\n        _;\n    }    \n\n    //@dev if buyer sends total amount\n    // modifier onlyOrderRequestQualifies(address _assetAddress, uint _qty, uint _tokenAmount) {     \n    //     uint buyerBalance = splytManager.getBalance(msg.sender);\n    //     uint totalCost = Asset(_assetAddress).totalCost() * _qty;\n    //     uint qty = Asset(_assetAddress).inventoryCount();\n    //     require(_tokenAmount >=totalCost && buyerBalance >= totalCost && _qty <= qty);\n    //     _;\n    // } \n\n    constructor(address _splytManager) public {\n        orderData = new OrderData();\n        splytManager = SplytManager(_splytManager); //splytManager address\n    }\n\n    //@dev buyer must pay it in full to create order\n    // To succcessfully purchase an asset, buy must purchase the whole amount times the quantity.\n    // The asset must be in 'ACTIVE' status.    \n    function purchase(bytes12 _orderId, address _assetAddress, uint _qty, uint _tokenAmount) public onlyAssetStatus(Asset.Statuses.ACTIVE, _assetAddress) returns (bool) {\n\n        Asset asset = Asset(_assetAddress);\n\n        //Regular asset purchase or a fractional purchase\n        if (asset.assetType() == Asset.AssetTypes.NORMAL) {\n            createOrder(_orderId, asset, _qty, _tokenAmount);\n        } else {\n            //Fractional ownership\n            contributeOrder(_orderId, asset, _tokenAmount);            \n        }\n\n        return true;\n    }\n\n    //@dev for regular normal purchase order\n    function createOrder(bytes12 _orderId, Asset _asset, uint _qty, uint _tokenAmount) private {\n\n        uint buyerBalance = splytManager.getBalance(msg.sender);\n        uint totalCost = _asset.totalCost() * _qty;\n        uint inventoryCount = _asset.inventoryCount();\n        if (_tokenAmount < totalCost || buyerBalance < totalCost || _qty > inventoryCount) {\n            revert();\n        }\n\n        uint mpGets; //marketplaces commission\n        uint sellerGets;\n\n        (mpGets, sellerGets) = calcDistribution(_asset.totalCost(), _asset.getMarketPlacesLength(), _asset.kickbackAmount());\n        splytManager.internalContribute(msg.sender, _asset.seller(), sellerGets);\n        \n        //distribute commission to all the market places\n        if(mpGets > 0) {\n            for(uint i = 0; i < _asset.getMarketPlacesLength(); i++) {\n                splytManager.internalContribute(msg.sender, _asset.getMarketPlaceByIndex(i), mpGets);\n            }\n        }\n\n        orderData.save(_orderId, address(_asset), msg.sender, _qty, _tokenAmount); //save it to the data contract                \n        splytManager.subtractInventory(address(_asset), _qty); //update inventory\n        emit Success(4, address(_asset));\n\n    }\n\n    //@dev for fractional purchases\n    function contributeOrder(bytes12 _orderId, Asset _asset, uint _tokenAmount) private {\n       \n        uint buyerBalance = splytManager.getBalance(msg.sender);\n        //check if buyer has the amount he proposes to use to contribute\n        if (buyerBalance < _tokenAmount) {\n            revert();\n        }\n\n        // uint orderId = orderData.getFractionalOrderIdByAsset(address(_asset));\n        OrderData.Statuses currentStatus = getStatus(_orderId);\n        \n        OrderData.Statuses updatedStatus;\n        //check if theres' existing\n        if (currentStatus == OrderData.Statuses.CONTRIBUTIONS_OPEN) {\n            uint totalContributions = orderData.getTotalContributions(_orderId) + _tokenAmount;         \n            updatedStatus = totalContributions >= _asset.totalCost() ? OrderData.Statuses.CONTRIBUTIONS_FULFILLED : OrderData.Statuses.CONTRIBUTIONS_OPEN;   \n            splytManager.internalContribute(msg.sender, address(_asset), _tokenAmount); //transfer contributed amount to asset contract\n            orderData.updateFractional(_orderId, msg.sender, _tokenAmount, updatedStatus);       \n        } else {\n            //create new fractional order\n            updatedStatus = _tokenAmount >=  _asset.totalCost() ? OrderData.Statuses.CONTRIBUTIONS_FULFILLED : OrderData.Statuses.CONTRIBUTIONS_OPEN;          \n            splytManager.internalContribute(msg.sender, address(_asset), _tokenAmount);  //transfer contributed amount to asset contract\n            orderData.saveFractional(_orderId, address(_asset), msg.sender, _tokenAmount, updatedStatus);                      \n        }\n\n        //updated asset status to PIF once all contributions are in place\n        if (updatedStatus == OrderData.Statuses.CONTRIBUTIONS_FULFILLED) {\n            splytManager.internalContribute(address(_asset), _asset.seller(), _asset.totalCost()); //Once all has been contributed, transfer to seller\n            splytManager.setAssetStatus(address(_asset), Asset.Statuses.SOLD_OUT);            \n        }\n\n        emit Success(2, address(_asset));\n\n    }\n \n    function setStatus(bytes12 _orderId, OrderData.Statuses _status) public returns (bool) {\n\n        orderData.setStatus(_orderId, _status); //update the status                \n \n        return true;\n    }\n\n    function getStatus(bytes12 _orderId) public view returns (OrderData.Statuses) {\n\n        return orderData.getStatus(_orderId);                \n \n    }\n\n    function calcDistribution(uint _totalCost, uint _length, uint _kickbackAmount) public pure returns (uint, uint) {\n        // Asset asset = Asset(_assetAddress);\n        // uint length = asset.getMarketPlacesLength();\n\n        uint kickbackWitheld = _kickbackAmount / _length;\n        uint sellerGets = _totalCost - kickbackWitheld * _length;\n        return (kickbackWitheld, sellerGets);\n    }\n\n\n    //@dev seller gets refund to buyer and marketplaces\n    function approveRefund(bytes12 _orderId) public onlySeller(_orderId) {\n        \n        uint sellerBalance = splytManager.getBalance(msg.sender);\n        uint totalRefundAmount = orderData.getPaidAmount(_orderId);\n        uint quantity = orderData.getQuantity(_orderId);\n\n        //make sure seller has enough to refund\n        if (sellerBalance < totalRefundAmount) {\n            revert();\n        }\n\n        uint mpRefunds; //marketplaces commission\n        uint buyerRefundFromSeller;\n        address assetAddress = orderData.getAssetAddress(_orderId);\n\n        Asset asset = Asset(assetAddress);\n\n        //TODO: check marketplaces have enough balance to refund or error out\n\n        (mpRefunds, buyerRefundFromSeller) = calcDistribution(asset.totalCost(), asset.getMarketPlacesLength(), asset.kickbackAmount());\n        splytManager.internalContribute(msg.sender, orderData.getBuyer(_orderId), buyerRefundFromSeller);\n        \n        //refund commission to buyer from marketplaces\n        if(mpRefunds > 0) {\n            for(uint i = 0; i < asset.getMarketPlacesLength(); i++) {\n                splytManager.internalContribute(asset.getMarketPlaceByIndex(i), orderData.getBuyer(_orderId), mpRefunds);\n            }\n        }\n          \n        splytManager.addInventory(assetAddress, quantity); //update inventory\n        orderData.setStatus(_orderId, OrderData.Statuses.REFUNDED); //save it to the data contract         \n\n    }\n    \n    function requestRefund(bytes12 _orderId) public onlyBuyer(_orderId) {\n        orderData.setStatus(_orderId, OrderData.Statuses.REQUESTED_REFUND); //save it to the data contract              \n    }    \n\n    function getTotalContributions(bytes12 _orderId) public view returns (uint) {\n        return orderData.getTotalContributions(_orderId);\n    }\n    \n\n    function getMyContributions(bytes12 _orderId) public view returns (uint) {\n        return orderData.getMyContributions(_orderId, msg.sender);\n    }\n    \n\n    function setSplytManager(address _address) public onlyOwner {\n        splytManager = SplytManager(_address);\n    }\n\n    function getDataContractAddress() public view returns (address) {\n       return address(orderData);\n    }\n\n    function setDataContract(address _orderData) public onlyOwner {\n       orderData = OrderData(_orderData);\n    }\n\n    function getOrderByOrderId(bytes12 _orderId) public view returns (uint, bytes12, address, address, uint, uint, OrderData.Statuses) {\n      return orderData.getOrderByOrderId(_orderId);\n    }    \n\n    function getDataVersion() public view returns (uint) {\n      return orderData.version();\n    }    \n\n    //@dev will return error if trying to retrieve order id that is not a fractional asset\n    function getFractionalOrderIdByAsset(address _assetAddress) public view onlyFractionalAsset(_assetAddress) returns (bytes12) {\n        return orderData.getFractionalOrderIdByAsset(_assetAddress);\n    }   \n\n    function getOrdersLength() public view returns (uint) {\n      return orderData.index();\n    }       \n   //@dev new manager contract that's going to be replacing this\n   //Old manager call this function and proposes the new address\n    function transferOwnership(address _newAddress) public onlyOwner {\n        orderData.transferOwnership(_newAddress);\n    }\n\n    //@dev if new data contract is deployed, the creator proposes manager adress then the manager needs to accept\n    function acceptOwnership() public onlyOwner {\n        orderData.acceptOwnership();\n\n    }    \n    \n}",
  "sourcePath": "/Users/scott/git/splytprotocol/contracts/OrderManager.sol",
  "compiler": {
    "name": "solc",
    "version": "0.4.24+commit.e67f0147.Emscripten.clang"
  },
  "schemaVersion": "2.0.1",
  "updatedAt": "2018-09-05T21:11:46.729Z"
}