{
  "contractName": "OrderManager",
  "abi": [
    {
      "constant": true,
      "inputs": [],
      "name": "orderData",
      "outputs": [
        {
          "name": "",
          "type": "address"
        }
      ],
      "payable": false,
      "stateMutability": "view",
      "type": "function"
    },
    {
      "constant": true,
      "inputs": [],
      "name": "splytManager",
      "outputs": [
        {
          "name": "",
          "type": "address"
        }
      ],
      "payable": false,
      "stateMutability": "view",
      "type": "function"
    },
    {
      "constant": true,
      "inputs": [],
      "name": "owner",
      "outputs": [
        {
          "name": "",
          "type": "address"
        }
      ],
      "payable": false,
      "stateMutability": "view",
      "type": "function"
    },
    {
      "constant": true,
      "inputs": [],
      "name": "pendingOwner",
      "outputs": [
        {
          "name": "",
          "type": "address"
        }
      ],
      "payable": false,
      "stateMutability": "view",
      "type": "function"
    },
    {
      "inputs": [
        {
          "name": "_splytManager",
          "type": "address"
        }
      ],
      "payable": false,
      "stateMutability": "nonpayable",
      "type": "constructor"
    },
    {
      "anonymous": false,
      "inputs": [
        {
          "indexed": false,
          "name": "_code",
          "type": "uint256"
        },
        {
          "indexed": false,
          "name": "_assetAddress",
          "type": "address"
        },
        {
          "indexed": false,
          "name": "_message",
          "type": "string"
        }
      ],
      "name": "Error",
      "type": "event"
    },
    {
      "anonymous": false,
      "inputs": [
        {
          "indexed": false,
          "name": "_code",
          "type": "uint256"
        },
        {
          "indexed": false,
          "name": "_assetAddress",
          "type": "address"
        }
      ],
      "name": "Success",
      "type": "event"
    },
    {
      "anonymous": false,
      "inputs": [
        {
          "indexed": false,
          "name": "_code",
          "type": "uint256"
        },
        {
          "indexed": false,
          "name": "_orderId",
          "type": "uint256"
        }
      ],
      "name": "NewOrder",
      "type": "event"
    },
    {
      "constant": false,
      "inputs": [
        {
          "name": "_assetAddress",
          "type": "address"
        },
        {
          "name": "_qty",
          "type": "uint256"
        },
        {
          "name": "_tokenAmount",
          "type": "uint256"
        }
      ],
      "name": "purchase",
      "outputs": [
        {
          "name": "",
          "type": "bool"
        }
      ],
      "payable": false,
      "stateMutability": "nonpayable",
      "type": "function"
    },
    {
      "constant": false,
      "inputs": [
        {
          "name": "_orderId",
          "type": "uint256"
        },
        {
          "name": "_status",
          "type": "uint8"
        }
      ],
      "name": "setStatus",
      "outputs": [
        {
          "name": "",
          "type": "bool"
        }
      ],
      "payable": false,
      "stateMutability": "nonpayable",
      "type": "function"
    },
    {
      "constant": true,
      "inputs": [
        {
          "name": "_orderId",
          "type": "uint256"
        }
      ],
      "name": "getStatus",
      "outputs": [
        {
          "name": "",
          "type": "uint8"
        }
      ],
      "payable": false,
      "stateMutability": "view",
      "type": "function"
    },
    {
      "constant": true,
      "inputs": [
        {
          "name": "_totalCost",
          "type": "uint256"
        },
        {
          "name": "_length",
          "type": "uint256"
        },
        {
          "name": "_kickbackAmount",
          "type": "uint256"
        }
      ],
      "name": "calcDistribution",
      "outputs": [
        {
          "name": "",
          "type": "uint256"
        },
        {
          "name": "",
          "type": "uint256"
        }
      ],
      "payable": false,
      "stateMutability": "pure",
      "type": "function"
    },
    {
      "constant": false,
      "inputs": [
        {
          "name": "_orderId",
          "type": "uint256"
        }
      ],
      "name": "approveRefund",
      "outputs": [],
      "payable": false,
      "stateMutability": "nonpayable",
      "type": "function"
    },
    {
      "constant": false,
      "inputs": [
        {
          "name": "_orderId",
          "type": "uint256"
        }
      ],
      "name": "requestRefund",
      "outputs": [],
      "payable": false,
      "stateMutability": "nonpayable",
      "type": "function"
    },
    {
      "constant": true,
      "inputs": [
        {
          "name": "_orderId",
          "type": "uint256"
        }
      ],
      "name": "getTotalContributions",
      "outputs": [
        {
          "name": "",
          "type": "uint256"
        }
      ],
      "payable": false,
      "stateMutability": "view",
      "type": "function"
    },
    {
      "constant": true,
      "inputs": [
        {
          "name": "_orderId",
          "type": "uint256"
        }
      ],
      "name": "getMyContributions",
      "outputs": [
        {
          "name": "",
          "type": "uint256"
        }
      ],
      "payable": false,
      "stateMutability": "view",
      "type": "function"
    },
    {
      "constant": false,
      "inputs": [
        {
          "name": "_address",
          "type": "address"
        }
      ],
      "name": "setSplytManager",
      "outputs": [],
      "payable": false,
      "stateMutability": "nonpayable",
      "type": "function"
    },
    {
      "constant": true,
      "inputs": [],
      "name": "getDataContractAddress",
      "outputs": [
        {
          "name": "",
          "type": "address"
        }
      ],
      "payable": false,
      "stateMutability": "view",
      "type": "function"
    },
    {
      "constant": false,
      "inputs": [
        {
          "name": "_orderData",
          "type": "address"
        }
      ],
      "name": "setDataContract",
      "outputs": [],
      "payable": false,
      "stateMutability": "nonpayable",
      "type": "function"
    },
    {
      "constant": true,
      "inputs": [
        {
          "name": "_orderId",
          "type": "uint256"
        }
      ],
      "name": "getOrderByOrderId",
      "outputs": [
        {
          "name": "",
          "type": "uint256"
        },
        {
          "name": "",
          "type": "uint256"
        },
        {
          "name": "",
          "type": "address"
        },
        {
          "name": "",
          "type": "address"
        },
        {
          "name": "",
          "type": "uint256"
        },
        {
          "name": "",
          "type": "uint256"
        },
        {
          "name": "",
          "type": "uint8"
        }
      ],
      "payable": false,
      "stateMutability": "view",
      "type": "function"
    },
    {
      "constant": true,
      "inputs": [],
      "name": "getDataVersion",
      "outputs": [
        {
          "name": "",
          "type": "uint256"
        }
      ],
      "payable": false,
      "stateMutability": "view",
      "type": "function"
    },
    {
      "constant": true,
      "inputs": [
        {
          "name": "_assetAddress",
          "type": "address"
        }
      ],
      "name": "getFractionalOrderIdByAsset",
      "outputs": [
        {
          "name": "",
          "type": "uint256"
        }
      ],
      "payable": false,
      "stateMutability": "view",
      "type": "function"
    },
    {
      "constant": true,
      "inputs": [],
      "name": "getOrdersLength",
      "outputs": [
        {
          "name": "",
          "type": "uint256"
        }
      ],
      "payable": false,
      "stateMutability": "view",
      "type": "function"
    },
    {
      "constant": false,
      "inputs": [
        {
          "name": "_newAddress",
          "type": "address"
        }
      ],
      "name": "transferOwnership",
      "outputs": [],
      "payable": false,
      "stateMutability": "nonpayable",
      "type": "function"
    },
    {
      "constant": false,
      "inputs": [],
      "name": "acceptOwnership",
      "outputs": [],
      "payable": false,
      "stateMutability": "nonpayable",
      "type": "function"
    }
  ],
  "bytecode": "0x60806040523480156200001157600080fd5b50604051602080620034ca833981016040525160008054600160a060020a031916331790556200004062000093565b604051809103906000f0801580156200005d573d6000803e3d6000fd5b5060028054600160a060020a03928316600160a060020a03199182161790915560038054939092169216919091179055620000a4565b604051610d94806200273683390190565b61268280620000b46000396000f3006080604052600436106101035763ffffffff60e060020a60003504166303959bb7811461010857806307c2e16c1461012b5780630bfc23ff146101525780631112af2514610167578063229e81fb1461017f578063348a71a6146101b057806352e06484146101c85780635bd1baaf146101ff5780635c622a0e1461021757806360532cd01461025357806361e91ea1146102dd57806379ba5097146102f25780637b36563e1461030757806387d556421461031c5780638da5cb5b1461033d57806398968f1514610352578063a4b2409e1461038d578063d896dd64146103a5578063d8f1626e146103c3578063e30c3978146103e4578063f2fde38b146103f9575b600080fd5b34801561011457600080fd5b50610129600160a060020a036004351661041a565b005b34801561013757600080fd5b50610140610460565b60408051918252519081900360200190f35b34801561015e57600080fd5b506101406104f0565b34801561017357600080fd5b5061014060043561054f565b34801561018b57600080fd5b506101946105ed565b60408051600160a060020a039092168252519081900360200190f35b3480156101bc57600080fd5b506101296004356105fc565b3480156101d457600080fd5b506101e6600435602435604435610fd0565b6040805192835260208301919091528051918290030190f35b34801561020b57600080fd5b50610140600435610ff1565b34801561022357600080fd5b5061022f600435611057565b6040518082600781111561023f57fe5b60ff16815260200191505060405180910390f35b34801561025f57600080fd5b5061026b6004356110bd565b6040518088815260200187815260200186600160a060020a0316600160a060020a0316815260200185600160a060020a0316600160a060020a031681526020018481526020018381526020018260078111156102c357fe5b60ff16815260200197505050505050505060405180910390f35b3480156102e957600080fd5b50610194611188565b3480156102fe57600080fd5b50610129611197565b34801561031357600080fd5b5061019461121b565b34801561032857600080fd5b50610129600160a060020a036004351661122a565b34801561034957600080fd5b50610194611270565b34801561035e57600080fd5b50610379600160a060020a036004351660243560443561127f565b604080519115158252519081900360200190f35b34801561039957600080fd5b506101296004356113b7565b3480156103b157600080fd5b5061037960043560ff60243516611504565b3480156103cf57600080fd5b50610140600160a060020a03600435166115b6565b3480156103f057600080fd5b506101946116d5565b34801561040557600080fd5b50610129600160a060020a03600435166116e4565b600054600160a060020a0316331461043157600080fd5b6002805473ffffffffffffffffffffffffffffffffffffffff1916600160a060020a0392909216919091179055565b600254604080517f163de5e50000000000000000000000000000000000000000000000000000000081529051600092600160a060020a03169163163de5e591600480830192602092919082900301818787803b1580156104bf57600080fd5b505af11580156104d3573d6000803e3d6000fd5b505050506040513d60208110156104e957600080fd5b5051905090565b600254604080517f54fd4d500000000000000000000000000000000000000000000000000000000081529051600092600160a060020a0316916354fd4d5091600480830192602092919082900301818787803b1580156104bf57600080fd5b600254604080517f27ceed96000000000000000000000000000000000000000000000000000000008152600481018490523360248201529051600092600160a060020a0316916327ceed9691604480830192602092919082900301818787803b1580156105bb57600080fd5b505af11580156105cf573d6000803e3d6000fd5b505050506040513d60208110156105e557600080fd5b505192915050565b600254600160a060020a031681565b600080600080600080600080886000600260009054906101000a9004600160a060020a0316600160a060020a031663eac8f5b8836040518263ffffffff1660e060020a02815260040180828152602001915050602060405180830381600087803b15801561066957600080fd5b505af115801561067d573d6000803e3d6000fd5b505050506040513d602081101561069357600080fd5b5051604080517f08551a530000000000000000000000000000000000000000000000000000000081529051600160a060020a03909216916308551a53916004808201926020929091908290030181600087803b1580156106f257600080fd5b505af1158015610706573d6000803e3d6000fd5b505050506040513d602081101561071c57600080fd5b50519050600160a060020a038116331461073557600080fd5b600354604080517ff8b2cb4f0000000000000000000000000000000000000000000000000000000081523360048201529051600160a060020a039092169163f8b2cb4f916024808201926020929091908290030181600087803b15801561079b57600080fd5b505af11580156107af573d6000803e3d6000fd5b505050506040513d60208110156107c557600080fd5b5051600254604080517f141947b2000000000000000000000000000000000000000000000000000000008152600481018f90529051929c50600160a060020a039091169163141947b2916024808201926020929091908290030181600087803b15801561083157600080fd5b505af1158015610845573d6000803e3d6000fd5b505050506040513d602081101561085b57600080fd5b5051600254604080517f5ebd9ded000000000000000000000000000000000000000000000000000000008152600481018f90529051929b50600160a060020a0390911691635ebd9ded916024808201926020929091908290030181600087803b1580156108c757600080fd5b505af11580156108db573d6000803e3d6000fd5b505050506040513d60208110156108f157600080fd5b50519750888a101561090257600080fd5b600254604080517fe1a52306000000000000000000000000000000000000000000000000000000008152600481018e90529051600160a060020a039092169163e1a52306916024808201926020929091908290030181600087803b15801561096957600080fd5b505af115801561097d573d6000803e3d6000fd5b505050506040513d602081101561099357600080fd5b50516040805160e060020a633c5e6c970281529051919650869550610b2391600160a060020a03871691633c5e6c979160048083019260209291908290030181600087803b1580156109e457600080fd5b505af11580156109f8573d6000803e3d6000fd5b505050506040513d6020811015610a0e57600080fd5b5051604080517f8622d35f0000000000000000000000000000000000000000000000000000000081529051600160a060020a03881691638622d35f9160048083019260209291908290030181600087803b158015610a6b57600080fd5b505af1158015610a7f573d6000803e3d6000fd5b505050506040513d6020811015610a9557600080fd5b5051604080517f5e2b956d0000000000000000000000000000000000000000000000000000000081529051600160a060020a03891691635e2b956d9160048083019260209291908290030181600087803b158015610af257600080fd5b505af1158015610b06573d6000803e3d6000fd5b505050506040513d6020811015610b1c57600080fd5b5051610fd0565b8097508198505050600360009054906101000a9004600160a060020a0316600160a060020a0316637f6cdfa633600260009054906101000a9004600160a060020a0316600160a060020a0316635bf608b88f6040518263ffffffff1660e060020a02815260040180828152602001915050602060405180830381600087803b158015610bae57600080fd5b505af1158015610bc2573d6000803e3d6000fd5b505050506040513d6020811015610bd857600080fd5b50516040805160e060020a63ffffffff8616028152600160a060020a039384166004820152929091166024830152604482018a90525160648083019260209291908290030181600087803b158015610c2f57600080fd5b505af1158015610c43573d6000803e3d6000fd5b505050506040513d6020811015610c5957600080fd5b50506000871115610e9c57600092505b83600160a060020a0316638622d35f6040518163ffffffff1660e060020a028152600401602060405180830381600087803b158015610ca757600080fd5b505af1158015610cbb573d6000803e3d6000fd5b505050506040513d6020811015610cd157600080fd5b5051831015610e9c57600354604080517f62030a86000000000000000000000000000000000000000000000000000000008152600481018690529051600160a060020a0392831692637f6cdfa692908816916362030a86916024808201926020929091908290030181600087803b158015610d4b57600080fd5b505af1158015610d5f573d6000803e3d6000fd5b505050506040513d6020811015610d7557600080fd5b8101908080519060200190929190505050600260009054906101000a9004600160a060020a0316600160a060020a0316635bf608b88f6040518263ffffffff1660e060020a02815260040180828152602001915050602060405180830381600087803b158015610de457600080fd5b505af1158015610df8573d6000803e3d6000fd5b505050506040513d6020811015610e0e57600080fd5b50516040805160e060020a63ffffffff8616028152600160a060020a039384166004820152929091166024830152604482018b90525160648083019260209291908290030181600087803b158015610e6557600080fd5b505af1158015610e79573d6000803e3d6000fd5b505050506040513d6020811015610e8f57600080fd5b5050600190920191610c69565b600354604080517f7a34748a000000000000000000000000000000000000000000000000000000008152600160a060020a038881166004830152602482018c905291519190921691637a34748a91604480830192600092919082900301818387803b158015610f0a57600080fd5b505af1158015610f1e573d6000803e3d6000fd5b50505050600260009054906101000a9004600160a060020a0316600160a060020a031663d896dd648c60046040518363ffffffff1660e060020a02815260040180838152602001826007811115610f7157fe5b60ff16815260200192505050602060405180830381600087803b158015610f9757600080fd5b505af1158015610fab573d6000803e3d6000fd5b505050506040513d6020811015610fc157600080fd5b50505050505050505050505050565b6000806000808585811515610fe157fe5b0497958802909603955050505050565b600254604080517f5bd1baaf000000000000000000000000000000000000000000000000000000008152600481018490529051600092600160a060020a031691635bd1baaf91602480830192602092919082900301818787803b1580156105bb57600080fd5b600254604080517f5c622a0e000000000000000000000000000000000000000000000000000000008152600481018490529051600092600160a060020a031691635c622a0e91602480830192602092919082900301818787803b1580156105bb57600080fd5b6000806000806000806000600260009054906101000a9004600160a060020a0316600160a060020a03166360532cd0896040518263ffffffff1660e060020a0281526004018082815260200191505060e060405180830381600087803b15801561112657600080fd5b505af115801561113a573d6000803e3d6000fd5b505050506040513d60e081101561115057600080fd5b508051602082015160408301516060840151608085015160a086015160c090960151949e939d50919b50995097509195509350915050565b600254600160a060020a031690565b600054600160a060020a031633146111ae57600080fd5b600260009054906101000a9004600160a060020a0316600160a060020a03166379ba50976040518163ffffffff1660e060020a028152600401600060405180830381600087803b15801561120157600080fd5b505af1158015611215573d6000803e3d6000fd5b50505050565b600354600160a060020a031681565b600054600160a060020a0316331461124157600080fd5b6003805473ffffffffffffffffffffffffffffffffffffffff1916600160a060020a0392909216919091179055565b600054600160a060020a031681565b60008060018580600160a060020a031663200d2ed26040518163ffffffff1660e060020a028152600401602060405180830381600087803b1580156112c357600080fd5b505af11580156112d7573d6000803e3d6000fd5b505050506040513d60208110156112ed57600080fd5b505160068111156112fa57fe5b82600681111561130657fe5b1461131057600080fd5b869250600083600160a060020a0316633fe3347a6040518163ffffffff1660e060020a028152600401602060405180830381600087803b15801561135357600080fd5b505af1158015611367573d6000803e3d6000fd5b505050506040513d602081101561137d57600080fd5b5051600181111561138a57fe5b14156113a05761139b838787611776565b6113aa565b6113aa8386611e72565b5060019695505050505050565b600254604080517f5bf608b80000000000000000000000000000000000000000000000000000000081526004810184905290518392600092600160a060020a0390911691635bf608b89160248082019260209290919082900301818787803b15801561142257600080fd5b505af1158015611436573d6000803e3d6000fd5b505050506040513d602081101561144c57600080fd5b50519050600160a060020a038116331461146557600080fd5b600254604080517fd896dd6400000000000000000000000000000000000000000000000000000000815260048101869052600360248201529051600160a060020a039092169163d896dd64916044808201926020929091908290030181600087803b1580156114d357600080fd5b505af11580156114e7573d6000803e3d6000fd5b505050506040513d60208110156114fd57600080fd5b5050505050565b6002546040517fd896dd6400000000000000000000000000000000000000000000000000000000815260048101848152600092600160a060020a03169163d896dd6491869186919060240182600781111561155b57fe5b60ff16815260200192505050602060405180830381600087803b15801561158157600080fd5b505af1158015611595573d6000803e3d6000fd5b505050506040513d60208110156115ab57600080fd5b506001949350505050565b60008180600160a060020a0316633fe3347a6040518163ffffffff1660e060020a028152600401602060405180830381600087803b1580156115f757600080fd5b505af115801561160b573d6000803e3d6000fd5b505050506040513d602081101561162157600080fd5b5051600181111561162e57fe5b60011461163a57600080fd5b600254604080517fd8f1626e000000000000000000000000000000000000000000000000000000008152600160a060020a0386811660048301529151919092169163d8f1626e9160248083019260209291908290030181600087803b1580156116a257600080fd5b505af11580156116b6573d6000803e3d6000fd5b505050506040513d60208110156116cc57600080fd5b50519392505050565b600154600160a060020a031681565b600054600160a060020a031633146116fb57600080fd5b600254604080517ff2fde38b000000000000000000000000000000000000000000000000000000008152600160a060020a0384811660048301529151919092169163f2fde38b91602480830192600092919082900301818387803b15801561176257600080fd5b505af11580156114fd573d6000803e3d6000fd5b600354604080517ff8b2cb4f000000000000000000000000000000000000000000000000000000008152336004820152905160009283928392839283928392600160a060020a039092169163f8b2cb4f9160248082019260209290919082900301818787803b1580156117e857600080fd5b505af11580156117fc573d6000803e3d6000fd5b505050506040513d602081101561181257600080fd5b50516040805160e060020a633c5e6c9702815290519197508991600160a060020a038c1691633c5e6c979160048083019260209291908290030181600087803b15801561185e57600080fd5b505af1158015611872573d6000803e3d6000fd5b505050506040513d602081101561188857600080fd5b5051604080517f5b98c83d0000000000000000000000000000000000000000000000000000000081529051929091029650600160a060020a038b1691635b98c83d916004808201926020929091908290030181600087803b1580156118ec57600080fd5b505af1158015611900573d6000803e3d6000fd5b505050506040513d602081101561191657600080fd5b505193508487108061192757508486105b8061193157508388115b1561193b57600080fd5b611a8a89600160a060020a0316633c5e6c976040518163ffffffff1660e060020a028152600401602060405180830381600087803b15801561197c57600080fd5b505af1158015611990573d6000803e3d6000fd5b505050506040513d60208110156119a657600080fd5b5051604080517f8622d35f0000000000000000000000000000000000000000000000000000000081529051600160a060020a038d1691638622d35f9160048083019260209291908290030181600087803b158015611a0357600080fd5b505af1158015611a17573d6000803e3d6000fd5b505050506040513d6020811015611a2d57600080fd5b5051604080517f5e2b956d0000000000000000000000000000000000000000000000000000000081529051600160a060020a038e1691635e2b956d9160048083019260209291908290030181600087803b158015610af257600080fd5b8093508194505050600360009054906101000a9004600160a060020a0316600160a060020a0316637f6cdfa6338b600160a060020a03166308551a536040518163ffffffff1660e060020a028152600401602060405180830381600087803b158015611af557600080fd5b505af1158015611b09573d6000803e3d6000fd5b505050506040513d6020811015611b1f57600080fd5b50516040805160e060020a63ffffffff8616028152600160a060020a039384166004820152929091166024830152604482018690525160648083019260209291908290030181600087803b158015611b7657600080fd5b505af1158015611b8a573d6000803e3d6000fd5b505050506040513d6020811015611ba057600080fd5b50506000831115611d48575060005b88600160a060020a0316638622d35f6040518163ffffffff1660e060020a028152600401602060405180830381600087803b158015611bed57600080fd5b505af1158015611c01573d6000803e3d6000fd5b505050506040513d6020811015611c1757600080fd5b5051811015611d4857600354604080517f62030a86000000000000000000000000000000000000000000000000000000008152600481018490529051600160a060020a0392831692637f6cdfa6923392918e16916362030a86916024808201926020929091908290030181600087803b158015611c9357600080fd5b505af1158015611ca7573d6000803e3d6000fd5b505050506040513d6020811015611cbd57600080fd5b50516040805160e060020a63ffffffff8616028152600160a060020a039384166004820152929091166024830152604482018790525160648083019260209291908290030181600087803b158015611d1457600080fd5b505af1158015611d28573d6000803e3d6000fd5b505050506040513d6020811015611d3e57600080fd5b5050600101611baf565b600254604080517f559af7fe000000000000000000000000000000000000000000000000000000008152600160a060020a038c81166004830152336024830152604482018c9052606482018b90529151919092169163559af7fe9160848083019260209291908290030181600087803b158015611dc457600080fd5b505af1158015611dd8573d6000803e3d6000fd5b505050506040513d6020811015611dee57600080fd5b5050600354604080517feb95f04a000000000000000000000000000000000000000000000000000000008152600160a060020a038c81166004830152602482018c90529151919092169163eb95f04a91604480830192600092919082900301818387803b158015611e5e57600080fd5b505af1158015610fc1573d6000803e3d6000fd5b600354604080517ff8b2cb4f00000000000000000000000000000000000000000000000000000000815233600482015290516000928392839283928392600160a060020a039091169163f8b2cb4f9160248082019260209290919082900301818787803b158015611ee257600080fd5b505af1158015611ef6573d6000803e3d6000fd5b505050506040513d6020811015611f0c57600080fd5b5051945085851015611f1d57600080fd5b600254604080517fd8f1626e000000000000000000000000000000000000000000000000000000008152600160a060020a038a811660048301529151919092169163d8f1626e9160248083019260209291908290030181600087803b158015611f8557600080fd5b505af1158015611f99573d6000803e3d6000fd5b505050506040513d6020811015611faf57600080fd5b50519350611fbc84611057565b92506005836007811115611fcc57fe5b141561225157600254604080517f5bd1baaf0000000000000000000000000000000000000000000000000000000081526004810187905290518892600160a060020a031691635bd1baaf9160248083019260209291908290030181600087803b15801561203857600080fd5b505af115801561204c573d6000803e3d6000fd5b505050506040513d602081101561206257600080fd5b50516040805160e060020a633c5e6c970281529051929091019250600160a060020a03891691633c5e6c97916004808201926020929091908290030181600087803b1580156120b057600080fd5b505af11580156120c4573d6000803e3d6000fd5b505050506040513d60208110156120da57600080fd5b50518110156120ea5760056120ed565b60065b600354604080517f7f6cdfa6000000000000000000000000000000000000000000000000000000008152336004820152600160a060020a038b81166024830152604482018b90529151939550911691637f6cdfa6916064808201926020929091908290030181600087803b15801561216457600080fd5b505af1158015612178573d6000803e3d6000fd5b505050506040513d602081101561218e57600080fd5b50506002546040517fe171d3fa000000000000000000000000000000000000000000000000000000008152600481018681523360248301819052604483018a9052600160a060020a039093169263e171d3fa9288928b918891906064018260078111156121f757fe5b60ff168152602001945050505050602060405180830381600087803b15801561221f57600080fd5b505af1158015612233573d6000803e3d6000fd5b505050506040513d602081101561224957600080fd5b506124309050565b86600160a060020a0316633c5e6c976040518163ffffffff1660e060020a028152600401602060405180830381600087803b15801561228f57600080fd5b505af11580156122a3573d6000803e3d6000fd5b505050506040513d60208110156122b957600080fd5b50518610156122c95760056122cc565b60065b600354604080517f7f6cdfa6000000000000000000000000000000000000000000000000000000008152336004820152600160a060020a038b81166024830152604482018b90529151939550911691637f6cdfa6916064808201926020929091908290030181600087803b15801561234357600080fd5b505af1158015612357573d6000803e3d6000fd5b505050506040513d602081101561236d57600080fd5b50506002546040517f3fc8904b000000000000000000000000000000000000000000000000000000008152600160a060020a03898116600483019081523360248401819052604484018b90529190931692633fc8904b928b92918b918891906064018260078111156123db57fe5b60ff168152602001945050505050602060405180830381600087803b15801561240357600080fd5b505af1158015612417573d6000803e3d6000fd5b505050506040513d602081101561242d57600080fd5b50505b600682600781111561243e57fe5b141561264d57600360009054906101000a9004600160a060020a0316600160a060020a0316637f6cdfa68889600160a060020a03166308551a536040518163ffffffff1660e060020a028152600401602060405180830381600087803b1580156124a757600080fd5b505af11580156124bb573d6000803e3d6000fd5b505050506040513d60208110156124d157600080fd5b50516040805160e060020a633c5e6c970281529051600160a060020a038d1691633c5e6c979160048083019260209291908290030181600087803b15801561251857600080fd5b505af115801561252c573d6000803e3d6000fd5b505050506040513d602081101561254257600080fd5b50516040805160e060020a63ffffffff8716028152600160a060020a0394851660048201529290931660248301526044820152905160648083019260209291908290030181600087803b15801561259857600080fd5b505af11580156125ac573d6000803e3d6000fd5b505050506040513d60208110156125c257600080fd5b5050600354604080517f14fc5a5a000000000000000000000000000000000000000000000000000000008152600160a060020a038a81166004808401919091526024830152915191909216916314fc5a5a91604480830192600092919082900301818387803b15801561263457600080fd5b505af1158015612648573d6000803e3d6000fd5b505050505b505050505050505600a165627a7a72305820c0bcf45081ec82b54f540224026d6596cdba2f98bdf515d41e66fd646ab4992500296080604052600160025560008054600160a060020a03191633179055610d6a8061002a6000396000f3006080604052600436106101695763ffffffff7c0100000000000000000000000000000000000000000000000000000000600035041663141947b2811461016e578063163de5e514610198578063204edb11146101ad57806327ceed96146101ec5780633fc8904b1461021057806354fd4d5014610240578063559af7fe146102555780635bd1baaf146102825780635bf608b81461029a5780635c622a0e146102ce5780635ebd9ded1461030a57806360532cd0146103225780636455c434146103ac57806379ba5097146103d15780638d5866d9146103e85780638da5cb5b1461040d578063920a1b22146104225780639f7f691b14610443578063a85c38ef1461046b578063b8c5ee2414610511578063d896dd6414610553578063d8f1626e14610571578063e171d3fa14610592578063e1a52306146105bf578063e30c3978146105d7578063ea45e24b146105ec578063eac8f5b8146105bf578063f2fde38b1461061d575b600080fd5b34801561017a57600080fd5b5061018660043561063e565b60408051918252519081900360200190f35b3480156101a457600080fd5b50610186610653565b3480156101b957600080fd5b506101d8600435600160a060020a031960243581169060443516610659565b604080519115158252519081900360200190f35b3480156101f857600080fd5b50610186600435600160a060020a03602435166106cf565b34801561021c57600080fd5b50610186600160a060020a036004358116906024351660443560ff606435166106fb565b34801561024c57600080fd5b506101866107da565b34801561026157600080fd5b50610186600160a060020a03600435811690602435166044356064356107e0565b34801561028e57600080fd5b5061018660043561093a565b3480156102a657600080fd5b506102b260043561094f565b60408051600160a060020a039092168252519081900360200190f35b3480156102da57600080fd5b506102e660043561096e565b604051808260078111156102f657fe5b60ff16815260200191505060405180910390f35b34801561031657600080fd5b50610186600435610986565b34801561032e57600080fd5b5061033a60043561099b565b6040518088815260200187815260200186600160a060020a0316600160a060020a0316815260200185600160a060020a0316600160a060020a0316815260200184815260200183815260200182600781111561039257fe5b60ff16815260200197505050505050505060405180910390f35b3480156103b857600080fd5b50610186600435600160a060020a0319602435166109e9565b3480156103dd57600080fd5b506103e6610a16565b005b3480156103f457600080fd5b506102b2600435600160a060020a031960243516610a51565b34801561041957600080fd5b506102b2610a87565b34801561042e57600080fd5b50610186600160a060020a0360043516610a96565b34801561044f57600080fd5b506101d8600435600160a060020a031960243516604435610aa8565b34801561047757600080fd5b50610483600435610af0565b604051808a815260200189815260200188600160a060020a0316600160a060020a0316815260200187600160a060020a0316600160a060020a031681526020018681526020018581526020018460078111156104db57fe5b60ff1681526020018360048111156104ef57fe5b60ff168152602001828152602001995050505050505050505060405180910390f35b34801561051d57600080fd5b50610536600435600160a060020a031960243516610b4f565b60408051600160a060020a03199092168252519081900360200190f35b34801561055f57600080fd5b506101d860043560ff60243516610b93565b34801561057d57600080fd5b50610186600160a060020a0360043516610be1565b34801561059e57600080fd5b50610186600435600160a060020a036024351660443560ff60643516610bfc565b3480156105cb57600080fd5b506102b2600435610c7b565b3480156105e357600080fd5b506102b2610c99565b3480156105f857600080fd5b506101d8600435600160a060020a031960243516604435600160a060020a0316610ca8565b34801561062957600080fd5b506103e6600160a060020a0360043516610d05565b60009081526003602052604090206005015490565b60055481565b60008054600160a060020a0316331461067157600080fd5b506000838152600360209081526040808320600160a060020a031986168452600901909152902080547401000000000000000000000000000000000000000083046bffffffffffffffffffffffff1990911617905560019392505050565b6000828152600360209081526040808320600160a060020a038516845260080190915290205492915050565b60008054600160a060020a0316331461071357600080fd5b600280546005805460009081526003602052604080822093909355815481528281209093018054600160a060020a031916600160a060020a038a161790555482529020600601805483919060ff1916600183600781111561077057fe5b0217905550600580546000908152600360208181526040808420600160a060020a03998a1685526008018252808420805489019055845484529181528183206007018054909701909655825497909616815260049094529390922084905550600192909201905590565b60025481565b60008054600160a060020a031633146107f857600080fd5b610120604051908101604052806002548152602001600554815260200186600160a060020a0316815260200185600160a060020a031681526020018481526020018381526020016001600781111561084c57fe5b815260200160008152600060209182018190526005805482526003808452604092839020855181559385015160018086019190915592850151600285018054600160a060020a03928316600160a060020a031991821617909155606087015192860180549390921692169190911790556080840151600484015560a08401519083015560c08301516006830180549192909160ff1916908360078111156108ef57fe5b021790555060e082015160068201805461ff00191661010083600481111561091357fe5b02179055506101009190910151600790910155506005805460010190819055949350505050565b60009081526003602052604090206007015490565b60009081526003602081905260409091200154600160a060020a031690565b60009081526003602052604090206006015460ff1690565b60009081526003602052604090206004015490565b6000908152600360208190526040909120805460018201546002830154938301546004840154600585015460069095015493969295600160a060020a0390811695921693909260ff90911690565b6000828152600360209081526040808320600160a060020a031985168452600a0190915290205492915050565b600154600160a060020a03163314610a2d57600080fd5b60015460008054600160a060020a031916600160a060020a03909216919091179055565b6000828152600360209081526040808320600160a060020a031985168452600b01909152902054600160a060020a031692915050565b600054600160a060020a031681565b60046020526000908152604090205481565b60008054600160a060020a03163314610ac057600080fd5b506000928352600360209081526040808520600160a060020a0319949094168552600a9093019052912055600190565b60036020819052600091825260409091208054600182015460028301549383015460048401546005850154600686015460079096015494969395600160a060020a039485169594909316939192909160ff808316926101009004169089565b6000828152600360209081526040808320600160a060020a031985168452600901909152902054740100000000000000000000000000000000000000000292915050565b60008054600160a060020a03163314610bab57600080fd5b6000838152600360205260409020600601805483919060ff19166001836007811115610bd357fe5b021790555060019392505050565b600160a060020a031660009081526004602052604090205490565b60008054600160a060020a03163314610c1457600080fd5b6000858152600360208181526040808420600160a060020a03891685526008810183529084208054880190559288905252600780820180548601905560069091018054849260ff19909116906001908490811115610c6e57fe5b0217905550949350505050565b600090815260036020526040902060020154600160a060020a031690565b600154600160a060020a031681565b60008054600160a060020a03163314610cc057600080fd5b506000928352600360209081526040808520600160a060020a03199485168652600b019091529092208054909116600160a060020a0392909216919091179055600190565b600054600160a060020a03163314610d1c57600080fd5b60018054600160a060020a031916600160a060020a03929092169190911790555600a165627a7a72305820e17237d0fa837590086fd645da2f6b8abeb71e729c202c8409993f8e6f2d49fd0029",
  "source": "pragma solidity ^0.4.24;\n\nimport \"./Owned.sol\";\nimport \"./Events.sol\";\nimport \"./OrderData.sol\";\nimport \"./Asset.sol\";\nimport \"./SplytManager.sol\";\nimport \"./AssetManager.sol\";\nimport \"./ArbitrationManager.sol\";\n\ncontract OrderManager is Owned, Events {\n    \n    enum Reason { DEFECTIVE, NO_REASON, CHANGED_MIND, OTHER }\n    enum Statuses { PAID, CLOSED, REQUESTED_REFUND, REFUNDED, ARBITRATION, OTHER }\n\n    OrderData public orderData;\n    SplytManager public splytManager;\n\n    modifier onlyBuyer(uint _orderId) {\n        address buyer = orderData.getBuyer(_orderId);  \n        require(buyer == msg.sender);\n        _;\n    }\n    \n    modifier onlySeller(uint _orderId) {\n        address seller = Asset(orderData.getAsset(_orderId)).seller();          \n        require(seller == msg.sender);\n        _;\n    }\n\n    //@desc middleware to check for certain asset statuses to continue\n    modifier onlyAssetStatus(Asset.Statuses _status, address _assetAddress) {\n        require(_status == Asset(_assetAddress).status());\n        _;\n    }  \n\n    //@desc middleware to check for certain order statuses to continue\n    modifier onlyOrderStatus(uint _orderId, OrderData.Statuses _status) {\n        require(_status == orderData.getStatus(_orderId));\n        _;\n    }    \n\n    //@desc middleware to bind functions that should be called by fractional\n    modifier onlyFractionalAsset(address _assetAddress) {\n        require(Asset.AssetTypes.FRACTIONAL == Asset(_assetAddress).assetType());\n        _;\n    }    \n\n    //@desc if buyer sends total amount\n    // modifier onlyOrderRequestQualifies(address _assetAddress, uint _qty, uint _tokenAmount) {     \n    //     uint buyerBalance = splytManager.getBalance(msg.sender);\n    //     uint totalCost = Asset(_assetAddress).totalCost() * _qty;\n    //     uint qty = Asset(_assetAddress).inventoryCount();\n    //     require(_tokenAmount >=totalCost && buyerBalance >= totalCost && _qty <= qty);\n    //     _;\n    // } \n\n    constructor(address _splytManager) public {\n        orderData = new OrderData();\n        splytManager = SplytManager(_splytManager); //splytManager address\n    }\n\n    //@desc buyer must pay it in full to create order\n    // To succcessfully purchase an asset, buy must purchase the whole amount times the quantity.\n    // The asset must be in 'ACTIVE' status.    \n    function purchase(address _assetAddress, uint _qty, uint _tokenAmount) public onlyAssetStatus(Asset.Statuses.ACTIVE, _assetAddress) returns (bool) {\n\n        Asset asset = Asset(_assetAddress);\n\n        //Regular asset purchase or a fractional purchase\n        if (asset.assetType() == Asset.AssetTypes.NORMAL) {\n            createOrder(asset, _qty, _tokenAmount);\n        } else {\n            //Fractional ownership\n            contributeOrder(asset, _tokenAmount);            \n        }\n\n        return true;\n    }\n\n    //@desc for regular normal purchase order\n    function createOrder(Asset _asset, uint _qty, uint _tokenAmount) private {\n\n        uint buyerBalance = splytManager.getBalance(msg.sender);\n        uint totalCost = _asset.totalCost() * _qty;\n        uint inventoryCount = _asset.inventoryCount();\n        if (_tokenAmount < totalCost || buyerBalance < totalCost || _qty > inventoryCount) {\n            revert();\n        }\n\n        uint mpGets; //marketplaces commission\n        uint sellerGets;\n\n        (mpGets, sellerGets) = calcDistribution(_asset.totalCost(), _asset.getMarketPlacesLength(), _asset.kickbackAmount());\n        splytManager.internalContribute(msg.sender, _asset.seller(), sellerGets);\n        \n        //distribute commission to all the market places\n        if(mpGets > 0) {\n            for(uint i = 0; i < _asset.getMarketPlacesLength(); i++) {\n                splytManager.internalContribute(msg.sender, _asset.getMarketPlaceByIndex(i), mpGets);\n            }\n        }\n\n        orderData.save(address(_asset), msg.sender, _qty, _tokenAmount); //save it to the data contract                \n        splytManager.subtractInventory(address(_asset), _qty); //update inventory\n    //     emit NewOrder(200, orderId);\n    //     return orderId;\n    }\n\n    //@desc for fractional purchases\n    function contributeOrder(Asset _asset, uint _tokenAmount) private {\n       \n        uint buyerBalance = splytManager.getBalance(msg.sender);\n        //check if buyer has the amount he proposes to use to contribute\n        if (buyerBalance < _tokenAmount) {\n            revert();\n        }\n\n        uint orderId = orderData.getFractionalOrderIdByAsset(address(_asset));\n        OrderData.Statuses currentStatus = getStatus(orderId);\n        \n        OrderData.Statuses updatedStatus;\n        //check if theres' existing\n        if (currentStatus == OrderData.Statuses.CONTRIBUTIONS_OPEN) {\n            uint totalContributions = orderData.getTotalContributions(orderId) + _tokenAmount;         \n            updatedStatus = totalContributions >= _asset.totalCost() ? OrderData.Statuses.CONTRIBUTIONS_FULFILLED : OrderData.Statuses.CONTRIBUTIONS_OPEN;   \n            splytManager.internalContribute(msg.sender, address(_asset), _tokenAmount); //transfer contributed amount to asset contract\n            orderData.updateFractional(orderId, msg.sender, _tokenAmount, updatedStatus);       \n        } else {\n            //create new fractional order\n            updatedStatus = _tokenAmount >=  _asset.totalCost() ? OrderData.Statuses.CONTRIBUTIONS_FULFILLED : OrderData.Statuses.CONTRIBUTIONS_OPEN;          \n            splytManager.internalContribute(msg.sender, address(_asset), _tokenAmount);  //transfer contributed amount to asset contract\n            orderData.saveFractional(address(_asset), msg.sender, _tokenAmount, updatedStatus);                      \n        }\n\n        //updated asset status to PIF once all contributions are in place\n        if (updatedStatus == OrderData.Statuses.CONTRIBUTIONS_FULFILLED) {\n            splytManager.internalContribute(address(_asset), _asset.seller(), _asset.totalCost()); //Once all has been contributed, transfer to seller\n            splytManager.setAssetStatus(address(_asset), Asset.Statuses.SOLD_OUT);            \n        }\n\n    }\n \n    function setStatus(uint _orderId, OrderData.Statuses _status) public returns (bool) {\n\n        orderData.setStatus(_orderId, _status); //update the status                \n \n        return true;\n    }\n\n    function getStatus(uint _orderId) public view returns (OrderData.Statuses) {\n\n        return orderData.getStatus(_orderId);                \n \n    }\n\n    function calcDistribution(uint _totalCost, uint _length, uint _kickbackAmount) public pure returns (uint, uint) {\n        // Asset asset = Asset(_assetAddress);\n        // uint length = asset.getMarketPlacesLength();\n\n        uint kickbackWitheld = _kickbackAmount / _length;\n        uint sellerGets = _totalCost - kickbackWitheld * _length;\n        return (kickbackWitheld, sellerGets);\n    }\n\n\n    //@desc seller gets refund to buyer and marketplaces\n    function approveRefund(uint _orderId) public onlySeller(_orderId) {\n        \n        uint sellerBalance = splytManager.getBalance(msg.sender);\n        uint totalRefundAmount = orderData.getPaidAmount(_orderId);\n        uint quantity = orderData.getQuantity(_orderId);\n\n        //make sure seller has enough to refund\n        if (sellerBalance < totalRefundAmount) {\n            revert();\n        }\n\n        uint mpRefunds; //marketplaces commission\n        uint buyerRefundFromSeller;\n        address assetAddress = orderData.getAssetAddress(_orderId);\n\n        Asset asset = Asset(assetAddress);\n\n        //TODO: check marketplaces have enough balance to refund or error out\n\n        (mpRefunds, buyerRefundFromSeller) = calcDistribution(asset.totalCost(), asset.getMarketPlacesLength(), asset.kickbackAmount());\n        splytManager.internalContribute(msg.sender, orderData.getBuyer(_orderId), buyerRefundFromSeller);\n        \n        //refund commission to buyer from marketplaces\n        if(mpRefunds > 0) {\n            for(uint i = 0; i < asset.getMarketPlacesLength(); i++) {\n                splytManager.internalContribute(asset.getMarketPlaceByIndex(i), orderData.getBuyer(_orderId), mpRefunds);\n            }\n        }\n          \n        splytManager.addInventory(assetAddress, quantity); //update inventory\n        orderData.setStatus(_orderId, OrderData.Statuses.REFUNDED); //save it to the data contract         \n\n    }\n    \n    function requestRefund(uint _orderId) public onlyBuyer(_orderId) {\n        orderData.setStatus(_orderId, OrderData.Statuses.REQUESTED_REFUND); //save it to the data contract              \n    }    \n\n    function getTotalContributions(uint _orderId) public view returns (uint) {\n        return orderData.getTotalContributions(_orderId);\n    }\n    \n\n    function getMyContributions(uint _orderId) public view returns (uint) {\n        return orderData.getMyContributions(_orderId, msg.sender);\n    }\n    \n\n    function setSplytManager(address _address) public onlyOwner {\n        splytManager = SplytManager(_address);\n    }\n\n    function getDataContractAddress() public view returns (address) {\n       return address(orderData);\n    }\n\n    function setDataContract(address _orderData) public onlyOwner {\n       orderData = OrderData(_orderData);\n    }\n\n    function getOrderByOrderId(uint _orderId) public view returns (uint, uint, address, address, uint, uint, OrderData.Statuses) {\n      return orderData.getOrderByOrderId(_orderId);\n    }    \n\n    function getDataVersion() public view returns (uint) {\n      return orderData.version();\n    }    \n\n    //@desc will return error if trying to retrieve order id that is not a fractional asset\n    function getFractionalOrderIdByAsset(address _assetAddress) public view onlyFractionalAsset(_assetAddress) returns (uint) {\n        return orderData.getFractionalOrderIdByAsset(_assetAddress);\n    }   \n\n    function getOrdersLength() public view returns (uint) {\n      return orderData.orderId();\n    }       \n   //@desc new manager contract that's going to be replacing this\n   //Old manager call this function and proposes the new address\n    function transferOwnership(address _newAddress) public onlyOwner {\n        orderData.transferOwnership(_newAddress);\n    }\n\n    //@desc if new data contract is deployed, the creator proposes manager adress then the manager needs to accept\n    function acceptOwnership() public onlyOwner {\n        orderData.acceptOwnership();\n\n    }    \n    \n}",
  "sourcePath": "/Users/scott/git/splytprotocol/contracts/OrderManager.sol",
  "compiler": {
    "name": "solc",
    "version": "0.4.24+commit.e67f0147.Emscripten.clang"
  },
  "schemaVersion": "2.0.1",
  "updatedAt": "2018-08-27T20:01:18.379Z"
}