{
  "contractName": "OrderManager",
  "abi": [
    {
      "constant": true,
      "inputs": [],
      "name": "orderData",
      "outputs": [
        {
          "name": "",
          "type": "address"
        }
      ],
      "payable": false,
      "stateMutability": "view",
      "type": "function"
    },
    {
      "constant": true,
      "inputs": [],
      "name": "splytManager",
      "outputs": [
        {
          "name": "",
          "type": "address"
        }
      ],
      "payable": false,
      "stateMutability": "view",
      "type": "function"
    },
    {
      "constant": true,
      "inputs": [],
      "name": "owner",
      "outputs": [
        {
          "name": "",
          "type": "address"
        }
      ],
      "payable": false,
      "stateMutability": "view",
      "type": "function"
    },
    {
      "constant": true,
      "inputs": [],
      "name": "pendingOwner",
      "outputs": [
        {
          "name": "",
          "type": "address"
        }
      ],
      "payable": false,
      "stateMutability": "view",
      "type": "function"
    },
    {
      "inputs": [
        {
          "name": "_splytManager",
          "type": "address"
        }
      ],
      "payable": false,
      "stateMutability": "nonpayable",
      "type": "constructor"
    },
    {
      "anonymous": false,
      "inputs": [
        {
          "indexed": false,
          "name": "_code",
          "type": "uint256"
        },
        {
          "indexed": false,
          "name": "_assetAddress",
          "type": "address"
        },
        {
          "indexed": false,
          "name": "_message",
          "type": "string"
        }
      ],
      "name": "Error",
      "type": "event"
    },
    {
      "anonymous": false,
      "inputs": [
        {
          "indexed": false,
          "name": "_code",
          "type": "uint256"
        },
        {
          "indexed": false,
          "name": "_address",
          "type": "address"
        }
      ],
      "name": "Success",
      "type": "event"
    },
    {
      "constant": false,
      "inputs": [
        {
          "name": "_orderId",
          "type": "bytes12"
        },
        {
          "name": "_assetAddress",
          "type": "address"
        },
        {
          "name": "_qty",
          "type": "uint256"
        },
        {
          "name": "_tokenAmount",
          "type": "uint256"
        },
        {
          "name": "_marketPlace",
          "type": "address"
        }
      ],
      "name": "purchase",
      "outputs": [
        {
          "name": "",
          "type": "bool"
        }
      ],
      "payable": false,
      "stateMutability": "nonpayable",
      "type": "function"
    },
    {
      "constant": true,
      "inputs": [
        {
          "name": "_asset",
          "type": "address"
        }
      ],
      "name": "isFractionalOrderExists",
      "outputs": [
        {
          "name": "",
          "type": "bool"
        }
      ],
      "payable": false,
      "stateMutability": "view",
      "type": "function"
    },
    {
      "constant": false,
      "inputs": [
        {
          "name": "_orderId",
          "type": "bytes12"
        },
        {
          "name": "_status",
          "type": "uint8"
        }
      ],
      "name": "setStatus",
      "outputs": [
        {
          "name": "",
          "type": "bool"
        }
      ],
      "payable": false,
      "stateMutability": "nonpayable",
      "type": "function"
    },
    {
      "constant": true,
      "inputs": [
        {
          "name": "_orderId",
          "type": "bytes12"
        }
      ],
      "name": "getStatus",
      "outputs": [
        {
          "name": "",
          "type": "uint8"
        }
      ],
      "payable": false,
      "stateMutability": "view",
      "type": "function"
    },
    {
      "constant": true,
      "inputs": [
        {
          "name": "_totalCost",
          "type": "uint256"
        },
        {
          "name": "_length",
          "type": "uint256"
        },
        {
          "name": "_kickbackAmount",
          "type": "uint256"
        }
      ],
      "name": "calcDistribution",
      "outputs": [
        {
          "name": "",
          "type": "uint256"
        },
        {
          "name": "",
          "type": "uint256"
        }
      ],
      "payable": false,
      "stateMutability": "pure",
      "type": "function"
    },
    {
      "constant": false,
      "inputs": [
        {
          "name": "_orderId",
          "type": "bytes12"
        }
      ],
      "name": "approveRefund",
      "outputs": [],
      "payable": false,
      "stateMutability": "nonpayable",
      "type": "function"
    },
    {
      "constant": false,
      "inputs": [
        {
          "name": "_orderId",
          "type": "bytes12"
        }
      ],
      "name": "requestRefund",
      "outputs": [],
      "payable": false,
      "stateMutability": "nonpayable",
      "type": "function"
    },
    {
      "constant": true,
      "inputs": [
        {
          "name": "_orderId",
          "type": "bytes12"
        }
      ],
      "name": "getTotalContributions",
      "outputs": [
        {
          "name": "",
          "type": "uint256"
        }
      ],
      "payable": false,
      "stateMutability": "view",
      "type": "function"
    },
    {
      "constant": false,
      "inputs": [
        {
          "name": "_address",
          "type": "address"
        }
      ],
      "name": "setSplytManager",
      "outputs": [],
      "payable": false,
      "stateMutability": "nonpayable",
      "type": "function"
    },
    {
      "constant": true,
      "inputs": [],
      "name": "getDataContractAddress",
      "outputs": [
        {
          "name": "",
          "type": "address"
        }
      ],
      "payable": false,
      "stateMutability": "view",
      "type": "function"
    },
    {
      "constant": false,
      "inputs": [
        {
          "name": "_orderData",
          "type": "address"
        }
      ],
      "name": "setDataContract",
      "outputs": [],
      "payable": false,
      "stateMutability": "nonpayable",
      "type": "function"
    },
    {
      "constant": true,
      "inputs": [
        {
          "name": "_asset",
          "type": "address"
        }
      ],
      "name": "getFractionOrderIdByAssetAddress",
      "outputs": [
        {
          "name": "",
          "type": "bytes12"
        }
      ],
      "payable": false,
      "stateMutability": "view",
      "type": "function"
    },
    {
      "constant": true,
      "inputs": [
        {
          "name": "_orderId",
          "type": "bytes12"
        }
      ],
      "name": "getOrderInfoByOrderId",
      "outputs": [
        {
          "name": "",
          "type": "uint256"
        },
        {
          "name": "",
          "type": "bytes12"
        },
        {
          "name": "",
          "type": "address"
        },
        {
          "name": "",
          "type": "address"
        },
        {
          "name": "",
          "type": "uint256"
        },
        {
          "name": "",
          "type": "uint256"
        },
        {
          "name": "",
          "type": "uint8"
        }
      ],
      "payable": false,
      "stateMutability": "view",
      "type": "function"
    },
    {
      "constant": true,
      "inputs": [
        {
          "name": "_orderId",
          "type": "bytes12"
        }
      ],
      "name": "getMarketPlaceByOrderId",
      "outputs": [
        {
          "name": "",
          "type": "address"
        }
      ],
      "payable": false,
      "stateMutability": "view",
      "type": "function"
    },
    {
      "constant": true,
      "inputs": [
        {
          "name": "_index",
          "type": "uint256"
        }
      ],
      "name": "getOrderInfoByIndex",
      "outputs": [
        {
          "name": "",
          "type": "uint256"
        },
        {
          "name": "",
          "type": "bytes12"
        },
        {
          "name": "",
          "type": "address"
        },
        {
          "name": "",
          "type": "address"
        },
        {
          "name": "",
          "type": "uint256"
        },
        {
          "name": "",
          "type": "uint256"
        },
        {
          "name": "",
          "type": "uint8"
        }
      ],
      "payable": false,
      "stateMutability": "view",
      "type": "function"
    },
    {
      "constant": true,
      "inputs": [
        {
          "name": "_index",
          "type": "uint256"
        }
      ],
      "name": "getMarketPlaceByIndex",
      "outputs": [
        {
          "name": "",
          "type": "address"
        }
      ],
      "payable": false,
      "stateMutability": "view",
      "type": "function"
    },
    {
      "constant": true,
      "inputs": [
        {
          "name": "_orderId",
          "type": "bytes12"
        }
      ],
      "name": "getContributionsLength",
      "outputs": [
        {
          "name": "",
          "type": "uint256"
        }
      ],
      "payable": false,
      "stateMutability": "view",
      "type": "function"
    },
    {
      "constant": true,
      "inputs": [
        {
          "name": "_orderId",
          "type": "bytes12"
        },
        {
          "name": "_index",
          "type": "uint256"
        }
      ],
      "name": "getContributionByOrderIdAndIndex",
      "outputs": [
        {
          "name": "",
          "type": "address"
        },
        {
          "name": "",
          "type": "uint256"
        },
        {
          "name": "",
          "type": "uint256"
        }
      ],
      "payable": false,
      "stateMutability": "view",
      "type": "function"
    },
    {
      "constant": true,
      "inputs": [],
      "name": "getDataVersion",
      "outputs": [
        {
          "name": "",
          "type": "uint256"
        }
      ],
      "payable": false,
      "stateMutability": "view",
      "type": "function"
    },
    {
      "constant": true,
      "inputs": [
        {
          "name": "_assetAddress",
          "type": "address"
        }
      ],
      "name": "getFractionalOrderIdByAsset",
      "outputs": [
        {
          "name": "",
          "type": "bytes12"
        }
      ],
      "payable": false,
      "stateMutability": "view",
      "type": "function"
    },
    {
      "constant": true,
      "inputs": [],
      "name": "getOrdersLength",
      "outputs": [
        {
          "name": "",
          "type": "uint256"
        }
      ],
      "payable": false,
      "stateMutability": "view",
      "type": "function"
    },
    {
      "constant": false,
      "inputs": [
        {
          "name": "_newAddress",
          "type": "address"
        }
      ],
      "name": "transferOwnership",
      "outputs": [],
      "payable": false,
      "stateMutability": "nonpayable",
      "type": "function"
    },
    {
      "constant": false,
      "inputs": [],
      "name": "acceptOwnership",
      "outputs": [],
      "payable": false,
      "stateMutability": "nonpayable",
      "type": "function"
    }
  ],
  "bytecode": "0x60806040523480156200001157600080fd5b5060405160208062004349833981016040525160008054600160a060020a031916331790556200004062000093565b604051809103906000f0801580156200005d573d6000803e3d6000fd5b5060028054600160a060020a03928316600160a060020a03199182161790915560038054939092169216919091179055620000a4565b60405161128f80620030ba83390190565b61300680620000b46000396000f3006080604052600436106101455763ffffffff60e060020a60003504166303959bb7811461014a57806307c2e16c1461016d5780630bfc23ff1461019457806310617ac4146101a957806319a2917a146101cb5780631e88dff414610209578063229e81fb1461025957806334c1084a1461026e5780635108ce7e146102ac57806352e06484146102cd57806361e91ea11461030457806362030a861461031957806362d8405f1461033157806379ba50971461037e5780637b36563e14610393578063848b0663146103a857806387d55642146103d05780638ac6ebd1146103f15780638da5cb5b14610413578063916e476e1461042857806397c13e591461046e578063b7969051146104f9578063c321fa9614610511578063cba9a1a414610533578063d8f1626e14610555578063e30c397814610576578063f2fde38b1461058b575b600080fd5b34801561015657600080fd5b5061016b600160a060020a03600435166105ac565b005b34801561017957600080fd5b506101826105e5565b60408051918252519081900360200190f35b3480156101a057600080fd5b50610182610675565b3480156101b557600080fd5b50610182600160a060020a0319600435166106d4565b3480156101d757600080fd5b506101ed600160a060020a031960043516610775565b60408051600160a060020a039092168252519081900360200190f35b34801561021557600080fd5b50610245600435600160a060020a031916600160a060020a036024358116906044359060643590608435166107e4565b604080519115158252519081900360200190f35b34801561026557600080fd5b506101ed610a5d565b34801561027a57600080fd5b5061028f600160a060020a0360043516610a6c565b60408051600160a060020a03199092168252519081900360200190f35b3480156102b857600080fd5b50610245600160a060020a0360043516610ad7565b3480156102d957600080fd5b506102eb600435602435604435610b93565b6040805192835260208301919091528051918290030190f35b34801561031057600080fd5b506101ed610bb4565b34801561032557600080fd5b506101ed600435610bc3565b34801561033d57600080fd5b50610356600160a060020a031960043516602435610ca3565b60408051600160a060020a039094168452602084019290925282820152519081900360600190f35b34801561038a57600080fd5b5061016b610d65565b34801561039f57600080fd5b506101ed610de9565b3480156103b457600080fd5b50610245600160a060020a03196004351660ff60243516610df8565b3480156103dc57600080fd5b5061016b600160a060020a0360043516610eb5565b3480156103fd57600080fd5b50610182600160a060020a031960043516610eee565b34801561041f57600080fd5b506101ed610f5d565b34801561043457600080fd5b5061044a600160a060020a031960043516610f6c565b6040518082600781111561045a57fe5b60ff16815260200191505060405180910390f35b34801561047a57600080fd5b50610490600160a060020a031960043516610fdb565b60408051888152600160a060020a031988166020820152600160a060020a038781169282019290925290851660608201526080810184905260a0810183905260c081018260078111156104df57fe5b60ff16815260200197505050505050505060405180910390f35b34801561050557600080fd5b506104906004356110b8565b34801561051d57600080fd5b5061016b600160a060020a0319600435166111a4565b34801561053f57600080fd5b5061016b600160a060020a031960043516611303565b34801561056157600080fd5b5061028f600160a060020a0360043516611d34565b34801561058257600080fd5b506101ed611e53565b34801561059757600080fd5b5061016b600160a060020a0360043516611e62565b600054600160a060020a031633146105c357600080fd5b60028054600160a060020a031916600160a060020a0392909216919091179055565b600254604080517f2986c0e50000000000000000000000000000000000000000000000000000000081529051600092600160a060020a031691632986c0e591600480830192602092919082900301818787803b15801561064457600080fd5b505af1158015610658573d6000803e3d6000fd5b505050506040513d602081101561066e57600080fd5b5051905090565b600254604080517f54fd4d500000000000000000000000000000000000000000000000000000000081529051600092600160a060020a0316916354fd4d5091600480830192602092919082900301818787803b15801561064457600080fd5b600254604080517f10617ac4000000000000000000000000000000000000000000000000000000008152600160a060020a0319841660048201529051600092600160a060020a0316916310617ac491602480830192602092919082900301818787803b15801561074357600080fd5b505af1158015610757573d6000803e3d6000fd5b505050506040513d602081101561076d57600080fd5b505192915050565b600254604080517f19a2917a000000000000000000000000000000000000000000000000000000008152600160a060020a0319841660048201529051600092600160a060020a0316916319a2917a91602480830192602092919082900301818787803b15801561074357600080fd5b600080600060018780600160a060020a031663200d2ed26040518163ffffffff1660e060020a028152600401602060405180830381600087803b15801561082a57600080fd5b505af115801561083e573d6000803e3d6000fd5b505050506040513d602081101561085457600080fd5b5051600681111561086157fe5b82600681111561086d57fe5b1461087757600080fd5b600354604080517fd3add997000000000000000000000000000000000000000000000000000000008152600160a060020a03808d166004830152898116602483015291518c9750919092169163d3add99791604480830192600092919082900301818387803b1580156108e957600080fd5b505af11580156108fd573d6000803e3d6000fd5b506000925061090a915050565b84600160a060020a0316633fe3347a6040518163ffffffff1660e060020a028152600401602060405180830381600087803b15801561094857600080fd5b505af115801561095c573d6000803e3d6000fd5b505050506040513d602081101561097257600080fd5b5051600181111561097f57fe5b1415610997576109928a858a8a8a611ef4565b610a4d565b600254604080517f920a1b22000000000000000000000000000000000000000000000000000000008152600160a060020a038c811660048301529151919092169163920a1b229160248083019260209291908290030181600087803b1580156109ff57600080fd5b505af1158015610a13573d6000803e3d6000fd5b505050506040513d6020811015610a2957600080fd5b50519250600160a060020a031983161515610a42578992505b610a4d838589612829565b5060019998505050505050505050565b600254600160a060020a031681565b600254604080517f920a1b22000000000000000000000000000000000000000000000000000000008152600160a060020a0384811660048301529151600093929092169163920a1b229160248082019260209290919082900301818787803b15801561074357600080fd5b600254604080517f920a1b22000000000000000000000000000000000000000000000000000000008152600160a060020a03848116600483015291516000938493169163920a1b2291602480830192602092919082900301818787803b158015610b4057600080fd5b505af1158015610b54573d6000803e3d6000fd5b505050506040513d6020811015610b6a57600080fd5b50519050600160a060020a031981161515610b885760009150610b8d565b600191505b50919050565b6000806000808585811515610ba457fe5b0497958802909603955050505050565b600254600160a060020a031690565b600254604080517fed481cf1000000000000000000000000000000000000000000000000000000008152600481018490529051600092600160a060020a0316916319a2917a91839163ed481cf191602480830192602092919082900301818987803b158015610c3157600080fd5b505af1158015610c45573d6000803e3d6000fd5b505050506040513d6020811015610c5b57600080fd5b50516040805160e060020a63ffffffff8516028152600160a060020a031990921660048301525160248083019260209291908290030181600087803b15801561074357600080fd5b600254604080517f62d8405f000000000000000000000000000000000000000000000000000000008152600160a060020a03198516600482015260248101849052905160009283928392600160a060020a03909216916362d8405f9160448082019260609290919082900301818787803b158015610d2057600080fd5b505af1158015610d34573d6000803e3d6000fd5b505050506040513d6060811015610d4a57600080fd5b50805160208201516040909201519097919650945092505050565b600054600160a060020a03163314610d7c57600080fd5b600260009054906101000a9004600160a060020a0316600160a060020a03166379ba50976040518163ffffffff1660e060020a028152600401600060405180830381600087803b158015610dcf57600080fd5b505af1158015610de3573d6000803e3d6000fd5b50505050565b600354600160a060020a031681565b6002546040517f848b0663000000000000000000000000000000000000000000000000000000008152600160a060020a0319841660048201908152600092600160a060020a03169163848b0663918691869190602401826007811115610e5a57fe5b60ff16815260200192505050602060405180830381600087803b158015610e8057600080fd5b505af1158015610e94573d6000803e3d6000fd5b505050506040513d6020811015610eaa57600080fd5b506001949350505050565b600054600160a060020a03163314610ecc57600080fd5b60038054600160a060020a031916600160a060020a0392909216919091179055565b600254604080517fc27fef91000000000000000000000000000000000000000000000000000000008152600160a060020a0319841660048201529051600092600160a060020a03169163c27fef9191602480830192602092919082900301818787803b15801561074357600080fd5b600054600160a060020a031681565b600254604080517f916e476e000000000000000000000000000000000000000000000000000000008152600160a060020a0319841660048201529051600092600160a060020a03169163916e476e91602480830192602092919082900301818787803b15801561074357600080fd5b600254604080517f9c8796b7000000000000000000000000000000000000000000000000000000008152600160a060020a0319841660048201529051600092839283928392839283928392600160a060020a031691639c8796b79160248083019260e092919082900301818787803b15801561105657600080fd5b505af115801561106a573d6000803e3d6000fd5b505050506040513d60e081101561108057600080fd5b508051602082015160408301516060840151608085015160a086015160c090960151949e939d50919b50995097509195509350915050565b600254604080517fed481cf1000000000000000000000000000000000000000000000000000000008152600481018490529051600092839283928392839283928392600160a060020a031691639c8796b791839163ed481cf191602480830192602092919082900301818987803b15801561113257600080fd5b505af1158015611146573d6000803e3d6000fd5b505050506040513d602081101561115c57600080fd5b50516040805160e060020a63ffffffff8516028152600160a060020a031990921660048301525160248083019260e09291908290030181600087803b15801561105657600080fd5b600254604080517f65c0ea78000000000000000000000000000000000000000000000000000000008152600160a060020a03198416600482015290518392600092600160a060020a03909116916365c0ea789160248082019260209290919082900301818787803b15801561121857600080fd5b505af115801561122c573d6000803e3d6000fd5b505050506040513d602081101561124257600080fd5b50519050600160a060020a038116331461125b57600080fd5b600254604080517f848b0663000000000000000000000000000000000000000000000000000000008152600160a060020a031986166004820152600360248201529051600160a060020a039092169163848b0663916044808201926020929091908290030181600087803b1580156112d257600080fd5b505af11580156112e6573d6000803e3d6000fd5b505050506040513d60208110156112fc57600080fd5b5050505050565b600254604080517f5c5c9a31000000000000000000000000000000000000000000000000000000008152600160a060020a031984166004820152905160009283928392839283928392839283928b928492600160a060020a031691635c5c9a3191602480830192602092919082900301818787803b15801561138457600080fd5b505af1158015611398573d6000803e3d6000fd5b505050506040513d60208110156113ae57600080fd5b5051604080517f08551a530000000000000000000000000000000000000000000000000000000081529051600160a060020a03909216916308551a53916004808201926020929091908290030181600087803b15801561140d57600080fd5b505af1158015611421573d6000803e3d6000fd5b505050506040513d602081101561143757600080fd5b50519050600160a060020a038116331461145057600080fd5b600354604080517ff8b2cb4f0000000000000000000000000000000000000000000000000000000081523360048201529051600160a060020a039092169163f8b2cb4f916024808201926020929091908290030181600087803b1580156114b657600080fd5b505af11580156114ca573d6000803e3d6000fd5b505050506040513d60208110156114e057600080fd5b5051600254604080517f53219fff000000000000000000000000000000000000000000000000000000008152600160a060020a03198f1660048201529051929c50600160a060020a03909116916353219fff916024808201926020929091908290030181600087803b15801561155557600080fd5b505af1158015611569573d6000803e3d6000fd5b505050506040513d602081101561157f57600080fd5b5051600254604080517f3062a198000000000000000000000000000000000000000000000000000000008152600160a060020a03198f1660048201529051929b50600160a060020a0390911691633062a198916024808201926020929091908290030181600087803b1580156115f457600080fd5b505af1158015611608573d6000803e3d6000fd5b505050506040513d602081101561161e57600080fd5b50519750888a101561162f57600080fd5b600254604080517f0c2a8f37000000000000000000000000000000000000000000000000000000008152600160a060020a03198e1660048201529051600160a060020a0390921691630c2a8f37916024808201926020929091908290030181600087803b15801561169f57600080fd5b505af11580156116b3573d6000803e3d6000fd5b505050506040513d60208110156116c957600080fd5b50516040805160e060020a633c5e6c97028152905191965086955061185991600160a060020a03871691633c5e6c979160048083019260209291908290030181600087803b15801561171a57600080fd5b505af115801561172e573d6000803e3d6000fd5b505050506040513d602081101561174457600080fd5b5051604080517f8622d35f0000000000000000000000000000000000000000000000000000000081529051600160a060020a03881691638622d35f9160048083019260209291908290030181600087803b1580156117a157600080fd5b505af11580156117b5573d6000803e3d6000fd5b505050506040513d60208110156117cb57600080fd5b5051604080517f5e2b956d0000000000000000000000000000000000000000000000000000000081529051600160a060020a03891691635e2b956d9160048083019260209291908290030181600087803b15801561182857600080fd5b505af115801561183c573d6000803e3d6000fd5b505050506040513d602081101561185257600080fd5b5051610b93565b8097508198505050600360009054906101000a9004600160a060020a0316600160a060020a0316637f6cdfa633600260009054906101000a9004600160a060020a0316600160a060020a03166365c0ea788f6040518263ffffffff1660e060020a0281526004018082600160a060020a031916600160a060020a0319168152602001915050602060405180830381600087803b1580156118f857600080fd5b505af115801561190c573d6000803e3d6000fd5b505050506040513d602081101561192257600080fd5b50516040805160e060020a63ffffffff8616028152600160a060020a039384166004820152929091166024830152604482018a90525160648083019260209291908290030181600087803b15801561197957600080fd5b505af115801561198d573d6000803e3d6000fd5b505050506040513d60208110156119a357600080fd5b50506000871115611bfa57600092505b83600160a060020a0316638622d35f6040518163ffffffff1660e060020a028152600401602060405180830381600087803b1580156119f157600080fd5b505af1158015611a05573d6000803e3d6000fd5b505050506040513d6020811015611a1b57600080fd5b5051831015611bfa57600354604080517f62030a86000000000000000000000000000000000000000000000000000000008152600481018690529051600160a060020a0392831692637f6cdfa692908816916362030a86916024808201926020929091908290030181600087803b158015611a9557600080fd5b505af1158015611aa9573d6000803e3d6000fd5b505050506040513d6020811015611abf57600080fd5b8101908080519060200190929190505050600260009054906101000a9004600160a060020a0316600160a060020a03166365c0ea788f6040518263ffffffff1660e060020a0281526004018082600160a060020a031916600160a060020a0319168152602001915050602060405180830381600087803b158015611b4257600080fd5b505af1158015611b56573d6000803e3d6000fd5b505050506040513d6020811015611b6c57600080fd5b50516040805160e060020a63ffffffff8616028152600160a060020a039384166004820152929091166024830152604482018b90525160648083019260209291908290030181600087803b158015611bc357600080fd5b505af1158015611bd7573d6000803e3d6000fd5b505050506040513d6020811015611bed57600080fd5b50506001909201916119b3565b600354604080517f7a34748a000000000000000000000000000000000000000000000000000000008152600160a060020a038881166004830152602482018c905291519190921691637a34748a91604480830192600092919082900301818387803b158015611c6857600080fd5b505af1158015611c7c573d6000803e3d6000fd5b50506002546040517f848b0663000000000000000000000000000000000000000000000000000000008152600160a060020a03198f166004828101918252600160a060020a03909316945063848b066393508f92916024018260ff16815260200192505050602060405180830381600087803b158015611cfb57600080fd5b505af1158015611d0f573d6000803e3d6000fd5b505050506040513d6020811015611d2557600080fd5b50505050505050505050505050565b60008180600160a060020a0316633fe3347a6040518163ffffffff1660e060020a028152600401602060405180830381600087803b158015611d7557600080fd5b505af1158015611d89573d6000803e3d6000fd5b505050506040513d6020811015611d9f57600080fd5b50516001811115611dac57fe5b600114611db857600080fd5b600254604080517fd8f1626e000000000000000000000000000000000000000000000000000000008152600160a060020a0386811660048301529151919092169163d8f1626e9160248083019260209291908290030181600087803b158015611e2057600080fd5b505af1158015611e34573d6000803e3d6000fd5b505050506040513d6020811015611e4a57600080fd5b50519392505050565b600154600160a060020a031681565b600054600160a060020a03163314611e7957600080fd5b600254604080517ff2fde38b000000000000000000000000000000000000000000000000000000008152600160a060020a0384811660048301529151919092169163f2fde38b91602480830192600092919082900301818387803b158015611ee057600080fd5b505af11580156112fc573d6000803e3d6000fd5b600354604080517ff8b2cb4f0000000000000000000000000000000000000000000000000000000081523360048201529051600092839283928392839283928392600160a060020a03169163f8b2cb4f91602480830192602092919082900301818787803b158015611f6557600080fd5b505af1158015611f79573d6000803e3d6000fd5b505050506040513d6020811015611f8f57600080fd5b50516040805160e060020a633c5e6c9702815290519198508b91600160a060020a038e1691633c5e6c979160048083019260209291908290030181600087803b158015611fdb57600080fd5b505af1158015611fef573d6000803e3d6000fd5b505050506040513d602081101561200557600080fd5b5051604080517f5b98c83d0000000000000000000000000000000000000000000000000000000081529051929091029750600160a060020a038d1691635b98c83d916004808201926020929091908290030181600087803b15801561206957600080fd5b505af115801561207d573d6000803e3d6000fd5b505050506040513d602081101561209357600080fd5b50519450888610806120a457508686105b806120ae57508985105b15156120b657fe5b600090508a600160a060020a031663e676856c6040518163ffffffff1660e060020a028152600401602060405180830381600087803b1580156120f857600080fd5b505af115801561210c573d6000803e3d6000fd5b505050506040513d602081101561212257600080fd5b5051156121a15760018b600160a060020a0316638622d35f6040518163ffffffff1660e060020a028152600401602060405180830381600087803b15801561216957600080fd5b505af115801561217d573d6000803e3d6000fd5b505050506040513d602081101561219357600080fd5b50510391506001905061220e565b8a600160a060020a0316638622d35f6040518163ffffffff1660e060020a028152600401602060405180830381600087803b1580156121df57600080fd5b505af11580156121f3573d6000803e3d6000fd5b505050506040513d602081101561220957600080fd5b505191505b61225186838d600160a060020a0316635e2b956d6040518163ffffffff1660e060020a028152600401602060405180830381600087803b15801561182857600080fd5b8094508195505050600360009054906101000a9004600160a060020a0316600160a060020a0316637f6cdfa6338d600160a060020a03166308551a536040518163ffffffff1660e060020a028152600401602060405180830381600087803b1580156122bc57600080fd5b505af11580156122d0573d6000803e3d6000fd5b505050506040513d60208110156122e657600080fd5b50516040805160e060020a63ffffffff8616028152600160a060020a039384166004820152929091166024830152604482018790525160648083019260209291908290030181600087803b15801561233d57600080fd5b505af1158015612351573d6000803e3d6000fd5b505050506040513d602081101561236757600080fd5b50506000841115612507575b8a600160a060020a0316638622d35f6040518163ffffffff1660e060020a028152600401602060405180830381600087803b1580156123b157600080fd5b505af11580156123c5573d6000803e3d6000fd5b505050506040513d60208110156123db57600080fd5b505181101561250757600360009054906101000a9004600160a060020a0316600160a060020a0316637f6cdfa6338d600160a060020a03166362030a86856040518263ffffffff1660e060020a02815260040180828152602001915050602060405180830381600087803b15801561245257600080fd5b505af1158015612466573d6000803e3d6000fd5b505050506040513d602081101561247c57600080fd5b50516040805160e060020a63ffffffff8616028152600160a060020a039384166004820152929091166024830152604482018890525160648083019260209291908290030181600087803b1580156124d357600080fd5b505af11580156124e7573d6000803e3d6000fd5b505050506040513d60208110156124fd57600080fd5b5050600101612373565b600360009054906101000a9004600160a060020a0316600160a060020a0316637f6cdfa68c8d600160a060020a03166308551a536040518163ffffffff1660e060020a028152600401602060405180830381600087803b15801561256a57600080fd5b505af115801561257e573d6000803e3d6000fd5b505050506040513d602081101561259457600080fd5b81019080805190602001909291905050508d8f600160a060020a0316635433e2f56040518163ffffffff1660e060020a028152600401602060405180830381600087803b1580156125e457600080fd5b505af11580156125f8573d6000803e3d6000fd5b505050506040513d602081101561260e57600080fd5b50516040805160e060020a63ffffffff8816028152600160a060020a039586166004820152939094166024840152026044820152905160648083019260209291908290030181600087803b15801561266557600080fd5b505af1158015612679573d6000803e3d6000fd5b505050506040513d602081101561268f57600080fd5b5050600254604080517f236efc14000000000000000000000000000000000000000000000000000000008152600160a060020a03198f166004820152600160a060020a038e81166024830152336044830152606482018e9052608482018d90528b811660a48301529151919092169163236efc149160c48083019260209291908290030181600087803b15801561272557600080fd5b505af1158015612739573d6000803e3d6000fd5b505050506040513d602081101561274f57600080fd5b5050600354604080517feb95f04a000000000000000000000000000000000000000000000000000000008152600160a060020a038e81166004830152602482018e90529151919092169163eb95f04a91604480830192600092919082900301818387803b1580156127bf57600080fd5b505af11580156127d3573d6000803e3d6000fd5b50506040805160048152600160a060020a038f16602082015281517f2539b4cc2b40f86b739ed651d0bf19a6b3db2c37cde9a6de9bd20707832c26779450908190039091019150a1505050505050505050505050565b600354604080517ff8b2cb4f0000000000000000000000000000000000000000000000000000000081523360048201529051600092839283928392600160a060020a03169163f8b2cb4f91602480830192602092919082900301818787803b15801561289457600080fd5b505af11580156128a8573d6000803e3d6000fd5b505050506040513d60208110156128be57600080fd5b50519350848410156128cf57600080fd5b6128d887610f6c565b925060058360078111156128e857fe5b1415612b8157600254604080517f10617ac4000000000000000000000000000000000000000000000000000000008152600160a060020a03198a16600482015290518792600160a060020a0316916310617ac49160248083019260209291908290030181600087803b15801561295d57600080fd5b505af1158015612971573d6000803e3d6000fd5b505050506040513d602081101561298757600080fd5b50516040805160e060020a633c5e6c970281529051929091019250600160a060020a03881691633c5e6c97916004808201926020929091908290030181600087803b1580156129d557600080fd5b505af11580156129e9573d6000803e3d6000fd5b505050506040513d60208110156129ff57600080fd5b5051811015612a0f576005612a12565b60065b600354604080517f7f6cdfa6000000000000000000000000000000000000000000000000000000008152336004820152600160a060020a038a81166024830152604482018a90529151939550911691637f6cdfa6916064808201926020929091908290030181600087803b158015612a8957600080fd5b505af1158015612a9d573d6000803e3d6000fd5b505050506040513d6020811015612ab357600080fd5b50506002546040517f795a5dfc000000000000000000000000000000000000000000000000000000008152600160a060020a0319891660048201908152336024830181905260448301899052600160a060020a039093169263795a5dfc928b928a91889190606401826007811115612b2757fe5b60ff168152602001945050505050602060405180830381600087803b158015612b4f57600080fd5b505af1158015612b63573d6000803e3d6000fd5b505050506040513d6020811015612b7957600080fd5b50612d709050565b85600160a060020a0316633c5e6c976040518163ffffffff1660e060020a028152600401602060405180830381600087803b158015612bbf57600080fd5b505af1158015612bd3573d6000803e3d6000fd5b505050506040513d6020811015612be957600080fd5b5051851015612bf9576005612bfc565b60065b600354604080517f7f6cdfa6000000000000000000000000000000000000000000000000000000008152336004820152600160a060020a038a81166024830152604482018a90529151939550911691637f6cdfa6916064808201926020929091908290030181600087803b158015612c7357600080fd5b505af1158015612c87573d6000803e3d6000fd5b505050506040513d6020811015612c9d57600080fd5b50506002546040517f676f5c48000000000000000000000000000000000000000000000000000000008152600160a060020a0319891660048201908152600160a060020a0389811660248401523360448401819052606484018a905293169263676f5c48928b928b92918b918991608401826007811115612d1a57fe5b60ff16815260200195505050505050602060405180830381600087803b158015612d4357600080fd5b505af1158015612d57573d6000803e3d6000fd5b505050506040513d6020811015612d6d57600080fd5b50505b6006826007811115612d7e57fe5b1415612f8d57600360009054906101000a9004600160a060020a0316600160a060020a0316637f6cdfa68788600160a060020a03166308551a536040518163ffffffff1660e060020a028152600401602060405180830381600087803b158015612de757600080fd5b505af1158015612dfb573d6000803e3d6000fd5b505050506040513d6020811015612e1157600080fd5b50516040805160e060020a633c5e6c970281529051600160a060020a038c1691633c5e6c979160048083019260209291908290030181600087803b158015612e5857600080fd5b505af1158015612e6c573d6000803e3d6000fd5b505050506040513d6020811015612e8257600080fd5b50516040805160e060020a63ffffffff8716028152600160a060020a0394851660048201529290931660248301526044820152905160648083019260209291908290030181600087803b158015612ed857600080fd5b505af1158015612eec573d6000803e3d6000fd5b505050506040513d6020811015612f0257600080fd5b5050600354604080517f14fc5a5a000000000000000000000000000000000000000000000000000000008152600160a060020a038981166004808401919091526024830152915191909216916314fc5a5a91604480830192600092919082900301818387803b158015612f7457600080fd5b505af1158015612f88573d6000803e3d6000fd5b505050505b6040805160028152600160a060020a038816602082015281517f2539b4cc2b40f86b739ed651d0bf19a6b3db2c37cde9a6de9bd20707832c2677929181900390910190a1505050505050505600a165627a7a72305820345316f2b16dce96f5996e40ae5248806acab59f2cf1c1cf9d8942a5f1b4b41200296080604052600160025560008054600160a060020a031916331790556112658061002a6000396000f30060806040526004361061018a5763ffffffff7c01000000000000000000000000000000000000000000000000000000006000350416630c2a8f37811461018f57806310617ac4146101cd57806319a2917a14610201578063236efc14146102235780632986c0e5146102795780633062a1981461028e57806330ea0c73146102b05780633bc32df6146102f557806353219fff1461031d57806354fd4d501461033f5780635c5c9a311461018f57806362d8405f1461035457806365c0ea78146103a1578063676f5c48146103c3578063795a5dfc1461040057806379ba509714610437578063848b06631461044e5780638da5cb5b146104765780638f10aa0b1461048b578063916e476e146104b3578063920a1b22146104f95780639c8796b71461051a578063b29b5139146105a5578063b75e49b4146105d3578063c27fef9114610683578063d309b500146106a5578063d8f1626e146106d0578063e30c3978146106f1578063ea308a4c14610706578063ed481cf11461073a578063f2fde38b14610752575b600080fd5b34801561019b57600080fd5b506101b1600160a060020a031960043516610773565b60408051600160a060020a039092168252519081900360200190f35b3480156101d957600080fd5b506101ef600160a060020a0319600435166107ab565b60408051918252519081900360200190f35b34801561020d57600080fd5b506101b1600160a060020a031960043516610823565b34801561022f57600080fd5b50610265600435600160a060020a031916600160a060020a03602435811690604435811690606435906084359060a43516610850565b604080519115158252519081900360200190f35b34801561028557600080fd5b506101ef610abe565b34801561029a57600080fd5b506101ef600160a060020a031960043516610ac4565b3480156102bc57600080fd5b506102d8600160a060020a031960043581169060243516610ae4565b60408051600160a060020a03199092168252519081900360200190f35b34801561030157600080fd5b506101b1600160a060020a031960043581169060243516610b1a565b34801561032957600080fd5b506101ef600160a060020a031960043516610b53565b34801561034b57600080fd5b506101ef610b72565b34801561036057600080fd5b50610379600160a060020a031960043516602435610b78565b60408051600160a060020a039094168452602084019290925282820152519081900360600190f35b3480156103ad57600080fd5b506101b1600160a060020a031960043516610c3c565b3480156103cf57600080fd5b50610265600435600160a060020a031916600160a060020a036024358116906044351660643560843560ff16610c64565b34801561040c57600080fd5b506101ef600160a060020a031960043516602435600160a060020a031660443560ff60643516610dcd565b34801561044357600080fd5b5061044c610e8d565b005b34801561045a57600080fd5b50610265600160a060020a03196004351660ff60243516610ec8565b34801561048257600080fd5b506101b1610f21565b34801561049757600080fd5b506101ef600160a060020a031960043581169060243516610f30565b3480156104bf57600080fd5b506104d5600160a060020a031960043516610f60565b604051808260078111156104e557fe5b60ff16815260200191505060405180910390f35b34801561050557600080fd5b506102d8600160a060020a0360043516610f82565b34801561052657600080fd5b5061053c600160a060020a031960043516610f9a565b60408051888152600160a060020a031988166020820152600160a060020a038781169282019290925290851660608201526080810184905260a0810183905260c0810182600781111561058b57fe5b60ff16815260200197505050505050505060405180910390f35b3480156105b157600080fd5b50610265600160a060020a031960043581169060243581169060443516611002565b3480156105df57600080fd5b506105f5600160a060020a03196004351661106b565b604080518a8152600160a060020a03198a166020820152600160a060020a038981169282019290925290871660608201526080810186905260a0810185905260c0810184600781111561064457fe5b60ff168152600160a060020a038416602082015260400182600481111561066757fe5b60ff168152602001995050505050505050505060405180910390f35b34801561068f57600080fd5b506101ef600160a060020a0319600435166110ed565b3480156106b157600080fd5b50610265600160a060020a03196004358116906024351660443561110c565b3480156106dc57600080fd5b506102d8600160a060020a0360043516611159565b3480156106fd57600080fd5b506101b161117a565b34801561071257600080fd5b50610265600160a060020a031960043581169060243516604435600160a060020a0316611189565b34801561074657600080fd5b506102d86004356111e8565b34801561075e57600080fd5b5061044c600160a060020a0360043516611200565b600160a060020a0319166000908152600360205260409020600101546c010000000000000000000000009004600160a060020a031690565b600160a060020a0319811660009081526003602052604081206006015481805b8281101561081b57600160a060020a0319851660009081526003602052604090206006018054829081106107fb57fe5b6000918252602090912060016003909202018101549290920191016107cb565b509392505050565b600160a060020a0319166000908152600360205260409020600501546101009004600160a060020a031690565b60008054600160a060020a0316331461086857600080fd5b6002546003600089600160a060020a031916600160a060020a031916815260200190815260200160002060000181905550866003600089600160a060020a031916600160a060020a031916815260200190815260200160002060010160006101000a8154816bffffffffffffffffffffffff021916908360a060020a90040217905550856003600089600160a060020a031916600160a060020a0319168152602001908152602001600020600101600c6101000a815481600160a060020a030219169083600160a060020a03160217905550846003600089600160a060020a031916600160a060020a031916815260200190815260200160002060020160006101000a815481600160a060020a030219169083600160a060020a03160217905550836003600089600160a060020a031916600160a060020a031916815260200190815260200160002060030181905550826003600089600160a060020a031916600160a060020a03191681526020019081526020016000206004018190555060016003600089600160a060020a031916600160a060020a031916815260200190815260200160002060050160006101000a81548160ff02191690836007811115610a2e57fe5b021790555050600160a060020a03198616600090815260036020908152604080832060059081018054600160a060020a0387166101000274ffffffffffffffffffffffffffffffffffffffff00199091161790556006805485529252909120805460a060020a89046bffffffffffffffffffffffff19909116179055805460019081019091559695505050505050565b60065481565b600160a060020a0319166000908152600360208190526040909120015490565b600160a060020a031991821660009081526003602090815260408083209390941682526007909201909152205460a060020a0290565b600160a060020a0319918216600090815260036020908152604080832093909416825260099092019091522054600160a060020a031690565b600160a060020a03191660009081526003602052604090206004015490565b60025481565b600160a060020a03198216600090815260036020526040812060060180548291829185908110610ba457fe5b6000918252602080832060039283020154600160a060020a03198916845291905260409091206006018054600160a060020a039092169186908110610be557fe5b6000918252602080832060039283020160010154600160a060020a03198a1684529190526040909120600601805487908110610c1d57fe5b9060005260206000209060030201600201549250925092509250925092565b600160a060020a031916600090815260036020526040902060020154600160a060020a031690565b60008054600160a060020a03163314610c7c57600080fd5b600254600160a060020a031987166000908152600360205260409020908155600180820180546bffffffffffffffffffffffff6bffffffffffffffffffffffff1990911660a060020a8b0417166c01000000000000000000000000600160a060020a038a160217905560059091018054849260ff1990911690836007811115610d0157fe5b02179055505050600160a060020a031984811660009081526003602081815260408084208151606081018352600160a060020a039889168152808401978852428184019081526006928301805460018082018355918952868920935197029092018054909816958a1695909517875596518688015592516002909501949094559590941681526004855281812080546bffffffffffffffffffffffff1990811660a060020a90980497881790915584548252600590955220805490931690931790915580548201905590565b60008054600160a060020a03163314610de557600080fd5b600160a060020a031980861660008181526003602081815260408084208151606081018352600160a060020a038c811682528185018c81524294830194855260068401805460018181018355918a52878a20945190890290940180549490931693909a1692909217815590518189015591516002909201919091559390925290526005018054849260ff1990911690836007811115610e8057fe5b0217905550949350505050565b600154600160a060020a03163314610ea457600080fd5b60015460008054600160a060020a031916600160a060020a03909216919091179055565b60008054600160a060020a03163314610ee057600080fd5b600160a060020a031983166000908152600360205260409020600501805483919060ff19166001836007811115610f1357fe5b021790555060019392505050565b600054600160a060020a031681565b600160a060020a031991821660009081526003602090815260408083209390941682526008909201909152205490565b600160a060020a03191660009081526003602052604090206005015460ff1690565b60046020526000908152604090205460a060020a0281565b600160a060020a0319166000908152600360208190526040909120805460018201546002830154938301546004840154600590940154929560a060020a830295600160a060020a036c0100000000000000000000000090940484169593169391929160ff1690565b60008054600160a060020a0316331461101a57600080fd5b50600160a060020a0319808416600090815260036020908152604080832093861683526007909301905220805460a060020a83046bffffffffffffffffffffffff1990911617905560019392505050565b6003602081905260009182526040909120805460018201546002830154938301546004840154600590940154929460a060020a830294600160a060020a036c0100000000000000000000000090940484169491841693909160ff8082169261010083041691750100000000000000000000000000000000000000000090041689565b600160a060020a03191660009081526003602052604090206006015490565b60008054600160a060020a0316331461112457600080fd5b50600160a060020a03199283166000908152600360209081526040808320949095168252600890930190925291902055600190565b600160a060020a031660009081526004602052604090205460a060020a0290565b600154600160a060020a031681565b60008054600160a060020a031633146111a157600080fd5b50600160a060020a03199283166000908152600360209081526040808320948616835260099094019052919091208054909216600160a060020a0391909116179055600190565b60056020526000908152604090205460a060020a0281565b600054600160a060020a0316331461121757600080fd5b60018054600160a060020a031916600160a060020a03929092169190911790555600a165627a7a7230582045d5cb787232385a2f14849983305ab39f6e1bef3193032cbe29ce5330fa1d1a0029",
  "source": "pragma solidity ^0.4.24;\n\nimport \"./Owned.sol\";\nimport \"./Events.sol\";\nimport \"./OrderData.sol\";\nimport \"./Asset.sol\";\nimport \"./SplytManager.sol\";\nimport \"./AssetManager.sol\";\nimport \"./ArbitrationManager.sol\";\n\ncontract OrderManager is Owned, Events {\n    \n    enum Reason { DEFECTIVE, NO_REASON, CHANGED_MIND, OTHER }\n    enum Statuses { PAID, CLOSED, REQUESTED_REFUND, REFUNDED, ARBITRATION, OTHER }\n\n    OrderData public orderData;\n    SplytManager public splytManager;\n\n    modifier onlyBuyer(bytes12 _orderId) {\n        address buyer = orderData.getBuyer(_orderId);  \n        require(buyer == msg.sender);\n        _;\n    }\n    \n    modifier onlySeller(bytes12 _orderId) {\n        address seller = Asset(orderData.getAsset(_orderId)).seller();          \n        require(seller == msg.sender);\n        _;\n    }\n\n    //@dev middleware to check for certain asset statuses to continue\n    modifier onlyAssetStatus(Asset.Statuses _status, address _assetAddress) {\n        require(_status == Asset(_assetAddress).status());\n        _;\n    }  \n\n    //@dev middleware to check for certain order statuses to continue\n    modifier onlyOrderStatus(bytes12 _orderId, OrderData.Statuses _status) {\n        require(_status == orderData.getStatus(_orderId));\n        _;\n    }    \n\n    //@dev middleware to bind functions that should be called by fractional\n    modifier onlyFractionalAsset(address _assetAddress) {\n        require(Asset.AssetTypes.FRACTIONAL == Asset(_assetAddress).assetType());\n        _;\n    }    \n\n    //@dev if buyer sends total amount\n    // modifier onlyOrderRequestQualifies(address _assetAddress, uint _qty, uint _tokenAmount) {     \n    //     uint buyerBalance = splytManager.getBalance(msg.sender);\n    //     uint totalCost = Asset(_assetAddress).totalCost() * _qty;\n    //     uint qty = Asset(_assetAddress).inventoryCount();\n    //     require(_tokenAmount >=totalCost && buyerBalance >= totalCost && _qty <= qty);\n    //     _;\n    // } \n\n    constructor(address _splytManager) public {\n        orderData = new OrderData();\n        splytManager = SplytManager(_splytManager); //splytManager address\n    }\n\n    //@dev buyer must pay it in full to create order\n    // To succcessfully purchase an asset, buy must purchase the whole amount times the quantity.\n    // The asset must be in 'ACTIVE' status.    \n    function purchase(bytes12 _orderId, address _assetAddress, uint _qty, uint _tokenAmount, address _marketPlace) public onlyAssetStatus(Asset.Statuses.ACTIVE, _assetAddress) returns (bool) {\n\n        Asset asset = Asset(_assetAddress);\n\n        //add to marketplace\n        splytManager.addMarketPlace(_assetAddress, _marketPlace);\n\n        //Regular asset purchase or a fractional purchase\n        if (asset.assetType() == Asset.AssetTypes.NORMAL) {\n            createOrder(_orderId, asset, _qty, _tokenAmount, _marketPlace);\n        } else {\n            //Fractional ownership. check if already exist\n            bytes12 fractionalOrderId = orderData.fractionalOrders(_assetAddress);\n            if (fractionalOrderId == bytes12(0)) {\n                fractionalOrderId = _orderId;\n            }\n            contributeOrder(fractionalOrderId, asset, _tokenAmount);   \n        }\n\n        return true;\n    }\n\n    //@dev for regular normal purchase order\n    function createOrder(bytes12 _orderId, Asset _asset, uint _qty, uint _tokenAmount, address _marketPlace) private {\n\n        uint buyerBalance = splytManager.getBalance(msg.sender);\n        uint totalCost = _asset.totalCost() * _qty;\n\n        uint inventoryCount = _asset.inventoryCount();\n\n        // uint updatedBalance = buyerBalance - totalCost; //used to prevent Reentrancy Attack\n        // if (updatedBalance < 0) {\n        //     revert()\n        // }\n\n        assert(totalCost < _tokenAmount || totalCost < buyerBalance || inventoryCount < _qty);\n\n        uint mpGets; //marketplaces commission\n        uint sellerGets;\n        uint mpLength;\n        uint i = 0;\n\n        if(_asset.isOnlyAffiliate()) {\n            mpLength = _asset.getMarketPlacesLength() - 1;\n            i = 1;\n        } else {\n            mpLength = _asset.getMarketPlacesLength();\n        }\n                         \n        (mpGets, sellerGets) = calcDistribution(totalCost, mpLength, _asset.kickbackAmount());\n       \n        splytManager.internalContribute(msg.sender, _asset.seller(), sellerGets);\n        \n        // distribute commission to all the market places\n        if(mpGets > 0) {\n            for(i; i < _asset.getMarketPlacesLength(); i++) {\n                splytManager.internalContribute(msg.sender, _asset.getMarketPlaceByIndex(i), mpGets);\n            }\n        }\n\n        //return stake to seller\n        splytManager.internalContribute(address(_asset), _asset.seller(), (_asset.initialStakeAmount() * _qty));\n\n        orderData.save(_orderId, address(_asset), msg.sender, _qty, _tokenAmount, _marketPlace); //save it to the data contract                \n        splytManager.subtractInventory(address(_asset), _qty); //update inventory\n        emit Success(4, address(_asset));\n\n    }\n\n    //@dev for fractional purchases\n    function isFractionalOrderExists(address _asset) public view returns (bool) {\n        bytes12 fractionalOrderId = orderData.fractionalOrders(_asset);\n        if (fractionalOrderId == bytes12(0)) {\n            return false;\n        } else {\n            return true;\n        }\n\n    }\n\n    //@dev for fractional purchases\n    function contributeOrder(bytes12 _orderId, Asset _asset, uint _tokenAmount) private {\n       \n        uint buyerBalance = splytManager.getBalance(msg.sender);\n        //check if buyer has the amount he proposes to use to contribute\n \n        if (buyerBalance < _tokenAmount) {\n            revert();\n        }\n\n        // uint orderId = orderData.getFractionalOrderIdByAsset(address(_asset));\n        OrderData.Statuses currentStatus = getStatus(_orderId);\n        \n        OrderData.Statuses updatedStatus;\n        //check if theres' existing\n        if (currentStatus == OrderData.Statuses.CONTRIBUTIONS_OPEN) {\n            uint totalContributions = orderData.getTotalContributions(_orderId) + _tokenAmount;         \n            updatedStatus = totalContributions >= _asset.totalCost() ? OrderData.Statuses.CONTRIBUTIONS_FULFILLED : OrderData.Statuses.CONTRIBUTIONS_OPEN;   \n            splytManager.internalContribute(msg.sender, address(_asset), _tokenAmount); //transfer contributed amount to asset contract\n            orderData.addContribution(_orderId, msg.sender, _tokenAmount, updatedStatus);       \n        } else {\n            //create new fractional order\n            updatedStatus = _tokenAmount >=  _asset.totalCost() ? OrderData.Statuses.CONTRIBUTIONS_FULFILLED : OrderData.Statuses.CONTRIBUTIONS_OPEN;          \n            splytManager.internalContribute(msg.sender, address(_asset), _tokenAmount);  //transfer contributed amount to asset contract\n            orderData.saveFractional(_orderId, address(_asset), msg.sender, _tokenAmount, updatedStatus);                      \n        }\n\n        //updated asset status to PIF once all contributions are in place\n        if (updatedStatus == OrderData.Statuses.CONTRIBUTIONS_FULFILLED) {\n            splytManager.internalContribute(address(_asset), _asset.seller(), _asset.totalCost()); //Once all has been contributed, transfer to seller\n            splytManager.setAssetStatus(address(_asset), Asset.Statuses.SOLD_OUT);            \n        }\n\n        emit Success(2, address(_asset));\n\n    }\n \n    function setStatus(bytes12 _orderId, OrderData.Statuses _status) public returns (bool) {\n\n        orderData.setStatus(_orderId, _status); //update the status                \n \n        return true;\n    }\n\n    function getStatus(bytes12 _orderId) public view returns (OrderData.Statuses) {\n\n        return orderData.getStatus(_orderId);                \n \n    }\n\n    function calcDistribution(uint _totalCost, uint _length, uint _kickbackAmount) public pure returns (uint, uint) {\n        // Asset asset = Asset(_assetAddress);\n        // uint length = asset.getMarketPlacesLength();\n\n        uint kickbackWitheld = _kickbackAmount / _length;\n        uint sellerGets = _totalCost - kickbackWitheld * _length;\n        return (kickbackWitheld, sellerGets);\n    }\n\n\n    //@dev seller gets refund to buyer and marketplaces\n    function approveRefund(bytes12 _orderId) public onlySeller(_orderId) {\n        \n        uint sellerBalance = splytManager.getBalance(msg.sender);\n        uint totalRefundAmount = orderData.getPaidAmount(_orderId);\n        uint quantity = orderData.getQuantity(_orderId);\n\n        //make sure seller has enough to refund\n        if (sellerBalance < totalRefundAmount) {\n            revert();\n        }\n\n        uint mpRefunds; //marketplaces commission\n        uint buyerRefundFromSeller;\n        address assetAddress = orderData.getAssetAddress(_orderId);\n\n        Asset asset = Asset(assetAddress);\n\n        //TODO: check marketplaces have enough balance to refund or error out\n\n        (mpRefunds, buyerRefundFromSeller) = calcDistribution(asset.totalCost(), asset.getMarketPlacesLength(), asset.kickbackAmount());\n        splytManager.internalContribute(msg.sender, orderData.getBuyer(_orderId), buyerRefundFromSeller);\n        \n        //refund commission to buyer from marketplaces\n        if(mpRefunds > 0) {\n            for(uint i = 0; i < asset.getMarketPlacesLength(); i++) {\n                splytManager.internalContribute(asset.getMarketPlaceByIndex(i), orderData.getBuyer(_orderId), mpRefunds);\n            }\n        }\n          \n        splytManager.addInventory(assetAddress, quantity); //update inventory\n        orderData.setStatus(_orderId, OrderData.Statuses.REFUNDED); //save it to the data contract         \n\n    }\n    \n    function requestRefund(bytes12 _orderId) public onlyBuyer(_orderId) {\n        orderData.setStatus(_orderId, OrderData.Statuses.REQUESTED_REFUND); //save it to the data contract              \n    }    \n\n    function getTotalContributions(bytes12 _orderId) public view returns (uint) {\n        return orderData.getTotalContributions(_orderId);\n    }\n\n    function setSplytManager(address _address) public onlyOwner {\n        splytManager = SplytManager(_address);\n    }\n\n    function getDataContractAddress() public view returns (address) {\n       return address(orderData);\n    }\n\n    function setDataContract(address _orderData) public onlyOwner {\n       orderData = OrderData(_orderData);\n    }\n\n    function getFractionOrderIdByAssetAddress(address _asset) public view returns (bytes12) {\n      return orderData.fractionalOrders(_asset);\n    }    \n\n    function getOrderInfoByOrderId(bytes12 _orderId) public view returns (uint, bytes12, address, address, uint, uint, OrderData.Statuses) {\n      return orderData.getOrderByOrderId(_orderId);\n    }    \n\n    function getMarketPlaceByOrderId(bytes12 _orderId) public view returns (address) {\n      return orderData.getMarketPlaceByOrderId(_orderId);\n    }    \n\n    function getOrderInfoByIndex(uint _index) public view returns (uint, bytes12, address, address, uint, uint, OrderData.Statuses) {\n      return orderData.getOrderByOrderId(orderData.orderIdByIndex(_index));\n    }    \n\n    function getMarketPlaceByIndex(uint _index) public view returns (address) {\n      return orderData.getMarketPlaceByOrderId(orderData.orderIdByIndex(_index));\n    }    \n\n\n    function getContributionsLength(bytes12 _orderId) public view returns (uint) {\n      return orderData.getContributionsLengthByOrderId(_orderId);\n    }    \n\n\n    function getContributionByOrderIdAndIndex(bytes12 _orderId, uint _index) public view returns (address, uint, uint) {\n      return orderData.getContributionByOrderIdAndIndex(_orderId, _index);\n    }    \n\n\n    function getDataVersion() public view returns (uint) {\n      return orderData.version();\n    }    \n\n    //@dev will return error if trying to retrieve order id that is not a fractional asset\n    function getFractionalOrderIdByAsset(address _assetAddress) public view onlyFractionalAsset(_assetAddress) returns (bytes12) {\n        return orderData.getFractionalOrderIdByAsset(_assetAddress);\n    }   \n\n    function getOrdersLength() public view returns (uint) {\n      return orderData.index();\n    }       \n   //@dev new manager contract that's going to be replacing this\n   //Old manager call this function and proposes the new address\n    function transferOwnership(address _newAddress) public onlyOwner {\n        orderData.transferOwnership(_newAddress);\n    }\n\n    //@dev if new data contract is deployed, the creator proposes manager adress then the manager needs to accept\n    function acceptOwnership() public onlyOwner {\n        orderData.acceptOwnership();\n\n    }    \n    \n}",
  "sourcePath": "/Users/scott/git/splytprotocol/contracts/OrderManager.sol",
  "compiler": {
    "name": "solc",
    "version": "0.4.24+commit.e67f0147.Emscripten.clang"
  },
  "schemaVersion": "2.0.1",
  "updatedAt": "2018-12-12T00:50:02.191Z"
}