{
  "contractName": "OrderManager",
  "abi": [
    {
      "constant": true,
      "inputs": [],
      "name": "orderData",
      "outputs": [
        {
          "name": "",
          "type": "address"
        }
      ],
      "payable": false,
      "stateMutability": "view",
      "type": "function"
    },
    {
      "constant": true,
      "inputs": [],
      "name": "splytManager",
      "outputs": [
        {
          "name": "",
          "type": "address"
        }
      ],
      "payable": false,
      "stateMutability": "view",
      "type": "function"
    },
    {
      "constant": true,
      "inputs": [],
      "name": "owner",
      "outputs": [
        {
          "name": "",
          "type": "address"
        }
      ],
      "payable": false,
      "stateMutability": "view",
      "type": "function"
    },
    {
      "constant": true,
      "inputs": [],
      "name": "pendingOwner",
      "outputs": [
        {
          "name": "",
          "type": "address"
        }
      ],
      "payable": false,
      "stateMutability": "view",
      "type": "function"
    },
    {
      "inputs": [
        {
          "name": "_splytManager",
          "type": "address"
        }
      ],
      "payable": false,
      "stateMutability": "nonpayable",
      "type": "constructor"
    },
    {
      "anonymous": false,
      "inputs": [
        {
          "indexed": false,
          "name": "_code",
          "type": "uint256"
        },
        {
          "indexed": false,
          "name": "_assetAddress",
          "type": "address"
        },
        {
          "indexed": false,
          "name": "_message",
          "type": "string"
        }
      ],
      "name": "Error",
      "type": "event"
    },
    {
      "anonymous": false,
      "inputs": [
        {
          "indexed": false,
          "name": "_code",
          "type": "uint256"
        },
        {
          "indexed": false,
          "name": "_address",
          "type": "address"
        }
      ],
      "name": "Success",
      "type": "event"
    },
    {
      "constant": false,
      "inputs": [
        {
          "name": "_orderId",
          "type": "bytes12"
        },
        {
          "name": "_assetAddress",
          "type": "address"
        },
        {
          "name": "_qty",
          "type": "uint256"
        },
        {
          "name": "_tokenAmount",
          "type": "uint256"
        }
      ],
      "name": "purchase",
      "outputs": [
        {
          "name": "",
          "type": "bool"
        }
      ],
      "payable": false,
      "stateMutability": "nonpayable",
      "type": "function"
    },
    {
      "constant": false,
      "inputs": [
        {
          "name": "_orderId",
          "type": "bytes12"
        },
        {
          "name": "_status",
          "type": "uint8"
        }
      ],
      "name": "setStatus",
      "outputs": [
        {
          "name": "",
          "type": "bool"
        }
      ],
      "payable": false,
      "stateMutability": "nonpayable",
      "type": "function"
    },
    {
      "constant": true,
      "inputs": [
        {
          "name": "_orderId",
          "type": "bytes12"
        }
      ],
      "name": "getStatus",
      "outputs": [
        {
          "name": "",
          "type": "uint8"
        }
      ],
      "payable": false,
      "stateMutability": "view",
      "type": "function"
    },
    {
      "constant": true,
      "inputs": [
        {
          "name": "_totalCost",
          "type": "uint256"
        },
        {
          "name": "_length",
          "type": "uint256"
        },
        {
          "name": "_kickbackAmount",
          "type": "uint256"
        }
      ],
      "name": "calcDistribution",
      "outputs": [
        {
          "name": "",
          "type": "uint256"
        },
        {
          "name": "",
          "type": "uint256"
        }
      ],
      "payable": false,
      "stateMutability": "pure",
      "type": "function"
    },
    {
      "constant": false,
      "inputs": [
        {
          "name": "_orderId",
          "type": "bytes12"
        }
      ],
      "name": "approveRefund",
      "outputs": [],
      "payable": false,
      "stateMutability": "nonpayable",
      "type": "function"
    },
    {
      "constant": false,
      "inputs": [
        {
          "name": "_orderId",
          "type": "bytes12"
        }
      ],
      "name": "requestRefund",
      "outputs": [],
      "payable": false,
      "stateMutability": "nonpayable",
      "type": "function"
    },
    {
      "constant": true,
      "inputs": [
        {
          "name": "_orderId",
          "type": "bytes12"
        }
      ],
      "name": "getTotalContributions",
      "outputs": [
        {
          "name": "",
          "type": "uint256"
        }
      ],
      "payable": false,
      "stateMutability": "view",
      "type": "function"
    },
    {
      "constant": true,
      "inputs": [
        {
          "name": "_orderId",
          "type": "bytes12"
        }
      ],
      "name": "getMyContributions",
      "outputs": [
        {
          "name": "",
          "type": "uint256"
        }
      ],
      "payable": false,
      "stateMutability": "view",
      "type": "function"
    },
    {
      "constant": false,
      "inputs": [
        {
          "name": "_address",
          "type": "address"
        }
      ],
      "name": "setSplytManager",
      "outputs": [],
      "payable": false,
      "stateMutability": "nonpayable",
      "type": "function"
    },
    {
      "constant": true,
      "inputs": [],
      "name": "getDataContractAddress",
      "outputs": [
        {
          "name": "",
          "type": "address"
        }
      ],
      "payable": false,
      "stateMutability": "view",
      "type": "function"
    },
    {
      "constant": false,
      "inputs": [
        {
          "name": "_orderData",
          "type": "address"
        }
      ],
      "name": "setDataContract",
      "outputs": [],
      "payable": false,
      "stateMutability": "nonpayable",
      "type": "function"
    },
    {
      "constant": true,
      "inputs": [
        {
          "name": "_orderId",
          "type": "bytes12"
        }
      ],
      "name": "getOrderInfoByOrderId",
      "outputs": [
        {
          "name": "",
          "type": "uint256"
        },
        {
          "name": "",
          "type": "bytes12"
        },
        {
          "name": "",
          "type": "address"
        },
        {
          "name": "",
          "type": "address"
        },
        {
          "name": "",
          "type": "uint256"
        },
        {
          "name": "",
          "type": "uint256"
        },
        {
          "name": "",
          "type": "uint8"
        }
      ],
      "payable": false,
      "stateMutability": "view",
      "type": "function"
    },
    {
      "constant": true,
      "inputs": [
        {
          "name": "_index",
          "type": "uint256"
        }
      ],
      "name": "getOrderInfoByIndex",
      "outputs": [
        {
          "name": "",
          "type": "uint256"
        },
        {
          "name": "",
          "type": "bytes12"
        },
        {
          "name": "",
          "type": "address"
        },
        {
          "name": "",
          "type": "address"
        },
        {
          "name": "",
          "type": "uint256"
        },
        {
          "name": "",
          "type": "uint256"
        },
        {
          "name": "",
          "type": "uint8"
        }
      ],
      "payable": false,
      "stateMutability": "view",
      "type": "function"
    },
    {
      "constant": true,
      "inputs": [
        {
          "name": "_orderId",
          "type": "bytes12"
        }
      ],
      "name": "getContributorsLength",
      "outputs": [
        {
          "name": "",
          "type": "uint256"
        }
      ],
      "payable": false,
      "stateMutability": "view",
      "type": "function"
    },
    {
      "constant": true,
      "inputs": [
        {
          "name": "_orderId",
          "type": "bytes12"
        },
        {
          "name": "_index",
          "type": "uint256"
        }
      ],
      "name": "getContributionByOrderIdAndIndex",
      "outputs": [
        {
          "name": "",
          "type": "address"
        },
        {
          "name": "",
          "type": "uint256"
        },
        {
          "name": "",
          "type": "uint256"
        }
      ],
      "payable": false,
      "stateMutability": "view",
      "type": "function"
    },
    {
      "constant": true,
      "inputs": [
        {
          "name": "_orderId",
          "type": "bytes12"
        },
        {
          "name": "_index",
          "type": "uint256"
        }
      ],
      "name": "getContributorByOrderIdAndIndex",
      "outputs": [
        {
          "name": "",
          "type": "address"
        }
      ],
      "payable": false,
      "stateMutability": "view",
      "type": "function"
    },
    {
      "constant": true,
      "inputs": [],
      "name": "getDataVersion",
      "outputs": [
        {
          "name": "",
          "type": "uint256"
        }
      ],
      "payable": false,
      "stateMutability": "view",
      "type": "function"
    },
    {
      "constant": true,
      "inputs": [
        {
          "name": "_assetAddress",
          "type": "address"
        }
      ],
      "name": "getFractionalOrderIdByAsset",
      "outputs": [
        {
          "name": "",
          "type": "bytes12"
        }
      ],
      "payable": false,
      "stateMutability": "view",
      "type": "function"
    },
    {
      "constant": true,
      "inputs": [],
      "name": "getOrdersLength",
      "outputs": [
        {
          "name": "",
          "type": "uint256"
        }
      ],
      "payable": false,
      "stateMutability": "view",
      "type": "function"
    },
    {
      "constant": false,
      "inputs": [
        {
          "name": "_newAddress",
          "type": "address"
        }
      ],
      "name": "transferOwnership",
      "outputs": [],
      "payable": false,
      "stateMutability": "nonpayable",
      "type": "function"
    },
    {
      "constant": false,
      "inputs": [],
      "name": "acceptOwnership",
      "outputs": [],
      "payable": false,
      "stateMutability": "nonpayable",
      "type": "function"
    }
  ],
  "bytecode": "0x60806040523480156200001157600080fd5b5060405160208062003ca0833981016040525160008054600160a060020a031916331790556200004062000093565b604051809103906000f0801580156200005d573d6000803e3d6000fd5b5060028054600160a060020a03928316600160a060020a03199182161790915560038054939092169216919091179055620000a4565b60405161115d8062002b4383390190565b612a8f80620000b46000396000f30060806040526004361061012f5763ffffffff60e060020a60003504166303959bb7811461013457806307c2e16c146101575780630bfc23ff1461017e57806310617ac414610193578063229e81fb146101b55780634e1a9756146101e657806352e064841461022e57806361e91ea11461026557806362d8405f1461027a57806379ba5097146102c75780637b36563e146102dc578063848b0663146102f157806387d55642146103195780638da5cb5b1461033a578063916e476e1461034f57806397c13e5914610395578063b796905114610420578063c321fa9614610438578063ca81fd091461045a578063cba9a1a41461047c578063d3bbeb8f1461049e578063d8f1626e146104c3578063e30c397814610501578063f2fde38b14610516578063f6fd35ed14610537575b600080fd5b34801561014057600080fd5b50610155600160a060020a0360043516610559565b005b34801561016357600080fd5b5061016c610592565b60408051918252519081900360200190f35b34801561018a57600080fd5b5061016c610622565b34801561019f57600080fd5b5061016c600160a060020a031960043516610681565b3480156101c157600080fd5b506101ca610722565b60408051600160a060020a039092168252519081900360200190f35b3480156101f257600080fd5b5061021a600160a060020a031960043516602435600160a060020a0316604435606435610731565b604080519115158252519081900360200190f35b34801561023a57600080fd5b5061024c60043560243560443561086c565b6040805192835260208301919091528051918290030190f35b34801561027157600080fd5b506101ca61088d565b34801561028657600080fd5b5061029f600160a060020a03196004351660243561089c565b60408051600160a060020a039094168452602084019290925282820152519081900360600190f35b3480156102d357600080fd5b5061015561095e565b3480156102e857600080fd5b506101ca6109e2565b3480156102fd57600080fd5b5061021a600160a060020a03196004351660ff602435166109f1565b34801561032557600080fd5b50610155600160a060020a0360043516610aae565b34801561034657600080fd5b506101ca610ae7565b34801561035b57600080fd5b50610371600160a060020a031960043516610af6565b6040518082600781111561038157fe5b60ff16815260200191505060405180910390f35b3480156103a157600080fd5b506103b7600160a060020a031960043516610b65565b60408051888152600160a060020a031988166020820152600160a060020a038781169282019290925290851660608201526080810184905260a0810183905260c0810182600781111561040657fe5b60ff16815260200197505050505050505060405180910390f35b34801561042c57600080fd5b506103b7600435610c42565b34801561044457600080fd5b50610155600160a060020a031960043516610d2e565b34801561046657600080fd5b5061016c600160a060020a031960043516610e8d565b34801561048857600080fd5b50610155600160a060020a031960043516610efc565b3480156104aa57600080fd5b506101ca600160a060020a03196004351660243561192d565b3480156104cf57600080fd5b506104e4600160a060020a03600435166119d6565b60408051600160a060020a03199092168252519081900360200190f35b34801561050d57600080fd5b506101ca611ac2565b34801561052257600080fd5b50610155600160a060020a0360043516611ad1565b34801561054357600080fd5b5061016c600160a060020a031960043516611b63565b600054600160a060020a0316331461057057600080fd5b60028054600160a060020a031916600160a060020a0392909216919091179055565b600254604080517f2986c0e50000000000000000000000000000000000000000000000000000000081529051600092600160a060020a031691632986c0e591600480830192602092919082900301818787803b1580156105f157600080fd5b505af1158015610605573d6000803e3d6000fd5b505050506040513d602081101561061b57600080fd5b5051905090565b600254604080517f54fd4d500000000000000000000000000000000000000000000000000000000081529051600092600160a060020a0316916354fd4d5091600480830192602092919082900301818787803b1580156105f157600080fd5b600254604080517f10617ac4000000000000000000000000000000000000000000000000000000008152600160a060020a0319841660048201529051600092600160a060020a0316916310617ac491602480830192602092919082900301818787803b1580156106f057600080fd5b505af1158015610704573d6000803e3d6000fd5b505050506040513d602081101561071a57600080fd5b505192915050565b600254600160a060020a031681565b60008060018580600160a060020a031663200d2ed26040518163ffffffff1660e060020a028152600401602060405180830381600087803b15801561077557600080fd5b505af1158015610789573d6000803e3d6000fd5b505050506040513d602081101561079f57600080fd5b505160068111156107ac57fe5b8260068111156107b857fe5b146107c257600080fd5b869250600083600160a060020a0316633fe3347a6040518163ffffffff1660e060020a028152600401602060405180830381600087803b15801561080557600080fd5b505af1158015610819573d6000803e3d6000fd5b505050506040513d602081101561082f57600080fd5b5051600181111561083c57fe5b14156108535761084e88848888611bd8565b61085e565b61085e8884876122b2565b506001979650505050505050565b600080600080858581151561087d57fe5b0497958802909603955050505050565b600254600160a060020a031690565b600254604080517f62d8405f000000000000000000000000000000000000000000000000000000008152600160a060020a03198516600482015260248101849052905160009283928392600160a060020a03909216916362d8405f9160448082019260609290919082900301818787803b15801561091957600080fd5b505af115801561092d573d6000803e3d6000fd5b505050506040513d606081101561094357600080fd5b50805160208201516040909201519097919650945092505050565b600054600160a060020a0316331461097557600080fd5b600260009054906101000a9004600160a060020a0316600160a060020a03166379ba50976040518163ffffffff1660e060020a028152600401600060405180830381600087803b1580156109c857600080fd5b505af11580156109dc573d6000803e3d6000fd5b50505050565b600354600160a060020a031681565b6002546040517f848b0663000000000000000000000000000000000000000000000000000000008152600160a060020a0319841660048201908152600092600160a060020a03169163848b0663918691869190602401826007811115610a5357fe5b60ff16815260200192505050602060405180830381600087803b158015610a7957600080fd5b505af1158015610a8d573d6000803e3d6000fd5b505050506040513d6020811015610aa357600080fd5b506001949350505050565b600054600160a060020a03163314610ac557600080fd5b60038054600160a060020a031916600160a060020a0392909216919091179055565b600054600160a060020a031681565b600254604080517f916e476e000000000000000000000000000000000000000000000000000000008152600160a060020a0319841660048201529051600092600160a060020a03169163916e476e91602480830192602092919082900301818787803b1580156106f057600080fd5b600254604080517f9c8796b7000000000000000000000000000000000000000000000000000000008152600160a060020a0319841660048201529051600092839283928392839283928392600160a060020a031691639c8796b79160248083019260e092919082900301818787803b158015610be057600080fd5b505af1158015610bf4573d6000803e3d6000fd5b505050506040513d60e0811015610c0a57600080fd5b508051602082015160408301516060840151608085015160a086015160c090960151949e939d50919b50995097509195509350915050565b600254604080517fed481cf1000000000000000000000000000000000000000000000000000000008152600481018490529051600092839283928392839283928392600160a060020a031691639c8796b791839163ed481cf191602480830192602092919082900301818987803b158015610cbc57600080fd5b505af1158015610cd0573d6000803e3d6000fd5b505050506040513d6020811015610ce657600080fd5b50516040805160e060020a63ffffffff8516028152600160a060020a031990921660048301525160248083019260e09291908290030181600087803b158015610be057600080fd5b600254604080517f65c0ea78000000000000000000000000000000000000000000000000000000008152600160a060020a03198416600482015290518392600092600160a060020a03909116916365c0ea789160248082019260209290919082900301818787803b158015610da257600080fd5b505af1158015610db6573d6000803e3d6000fd5b505050506040513d6020811015610dcc57600080fd5b50519050600160a060020a0381163314610de557600080fd5b600254604080517f848b0663000000000000000000000000000000000000000000000000000000008152600160a060020a031986166004820152600360248201529051600160a060020a039092169163848b0663916044808201926020929091908290030181600087803b158015610e5c57600080fd5b505af1158015610e70573d6000803e3d6000fd5b505050506040513d6020811015610e8657600080fd5b5050505050565b600254604080517fa7fbd052000000000000000000000000000000000000000000000000000000008152600160a060020a0319841660048201529051600092600160a060020a03169163a7fbd05291602480830192602092919082900301818787803b1580156106f057600080fd5b600254604080517f5c5c9a31000000000000000000000000000000000000000000000000000000008152600160a060020a031984166004820152905160009283928392839283928392839283928b928492600160a060020a031691635c5c9a3191602480830192602092919082900301818787803b158015610f7d57600080fd5b505af1158015610f91573d6000803e3d6000fd5b505050506040513d6020811015610fa757600080fd5b5051604080517f08551a530000000000000000000000000000000000000000000000000000000081529051600160a060020a03909216916308551a53916004808201926020929091908290030181600087803b15801561100657600080fd5b505af115801561101a573d6000803e3d6000fd5b505050506040513d602081101561103057600080fd5b50519050600160a060020a038116331461104957600080fd5b600354604080517ff8b2cb4f0000000000000000000000000000000000000000000000000000000081523360048201529051600160a060020a039092169163f8b2cb4f916024808201926020929091908290030181600087803b1580156110af57600080fd5b505af11580156110c3573d6000803e3d6000fd5b505050506040513d60208110156110d957600080fd5b5051600254604080517f53219fff000000000000000000000000000000000000000000000000000000008152600160a060020a03198f1660048201529051929c50600160a060020a03909116916353219fff916024808201926020929091908290030181600087803b15801561114e57600080fd5b505af1158015611162573d6000803e3d6000fd5b505050506040513d602081101561117857600080fd5b5051600254604080517f3062a198000000000000000000000000000000000000000000000000000000008152600160a060020a03198f1660048201529051929b50600160a060020a0390911691633062a198916024808201926020929091908290030181600087803b1580156111ed57600080fd5b505af1158015611201573d6000803e3d6000fd5b505050506040513d602081101561121757600080fd5b50519750888a101561122857600080fd5b600254604080517f0c2a8f37000000000000000000000000000000000000000000000000000000008152600160a060020a03198e1660048201529051600160a060020a0390921691630c2a8f37916024808201926020929091908290030181600087803b15801561129857600080fd5b505af11580156112ac573d6000803e3d6000fd5b505050506040513d60208110156112c257600080fd5b50516040805160e060020a633c5e6c97028152905191965086955061145291600160a060020a03871691633c5e6c979160048083019260209291908290030181600087803b15801561131357600080fd5b505af1158015611327573d6000803e3d6000fd5b505050506040513d602081101561133d57600080fd5b5051604080517f8622d35f0000000000000000000000000000000000000000000000000000000081529051600160a060020a03881691638622d35f9160048083019260209291908290030181600087803b15801561139a57600080fd5b505af11580156113ae573d6000803e3d6000fd5b505050506040513d60208110156113c457600080fd5b5051604080517f5e2b956d0000000000000000000000000000000000000000000000000000000081529051600160a060020a03891691635e2b956d9160048083019260209291908290030181600087803b15801561142157600080fd5b505af1158015611435573d6000803e3d6000fd5b505050506040513d602081101561144b57600080fd5b505161086c565b8097508198505050600360009054906101000a9004600160a060020a0316600160a060020a0316637f6cdfa633600260009054906101000a9004600160a060020a0316600160a060020a03166365c0ea788f6040518263ffffffff1660e060020a0281526004018082600160a060020a031916600160a060020a0319168152602001915050602060405180830381600087803b1580156114f157600080fd5b505af1158015611505573d6000803e3d6000fd5b505050506040513d602081101561151b57600080fd5b50516040805160e060020a63ffffffff8616028152600160a060020a039384166004820152929091166024830152604482018a90525160648083019260209291908290030181600087803b15801561157257600080fd5b505af1158015611586573d6000803e3d6000fd5b505050506040513d602081101561159c57600080fd5b505060008711156117f357600092505b83600160a060020a0316638622d35f6040518163ffffffff1660e060020a028152600401602060405180830381600087803b1580156115ea57600080fd5b505af11580156115fe573d6000803e3d6000fd5b505050506040513d602081101561161457600080fd5b50518310156117f357600354604080517f62030a86000000000000000000000000000000000000000000000000000000008152600481018690529051600160a060020a0392831692637f6cdfa692908816916362030a86916024808201926020929091908290030181600087803b15801561168e57600080fd5b505af11580156116a2573d6000803e3d6000fd5b505050506040513d60208110156116b857600080fd5b8101908080519060200190929190505050600260009054906101000a9004600160a060020a0316600160a060020a03166365c0ea788f6040518263ffffffff1660e060020a0281526004018082600160a060020a031916600160a060020a0319168152602001915050602060405180830381600087803b15801561173b57600080fd5b505af115801561174f573d6000803e3d6000fd5b505050506040513d602081101561176557600080fd5b50516040805160e060020a63ffffffff8616028152600160a060020a039384166004820152929091166024830152604482018b90525160648083019260209291908290030181600087803b1580156117bc57600080fd5b505af11580156117d0573d6000803e3d6000fd5b505050506040513d60208110156117e657600080fd5b50506001909201916115ac565b600354604080517f7a34748a000000000000000000000000000000000000000000000000000000008152600160a060020a038881166004830152602482018c905291519190921691637a34748a91604480830192600092919082900301818387803b15801561186157600080fd5b505af1158015611875573d6000803e3d6000fd5b50506002546040517f848b0663000000000000000000000000000000000000000000000000000000008152600160a060020a03198f166004828101918252600160a060020a03909316945063848b066393508f92916024018260ff16815260200192505050602060405180830381600087803b1580156118f457600080fd5b505af1158015611908573d6000803e3d6000fd5b505050506040513d602081101561191e57600080fd5b50505050505050505050505050565b600254604080517fd3bbeb8f000000000000000000000000000000000000000000000000000000008152600160a060020a031985166004820152602481018490529051600092600160a060020a03169163d3bbeb8f91604480830192602092919082900301818787803b1580156119a357600080fd5b505af11580156119b7573d6000803e3d6000fd5b505050506040513d60208110156119cd57600080fd5b50519392505050565b60008180600160a060020a0316633fe3347a6040518163ffffffff1660e060020a028152600401602060405180830381600087803b158015611a1757600080fd5b505af1158015611a2b573d6000803e3d6000fd5b505050506040513d6020811015611a4157600080fd5b50516001811115611a4e57fe5b600114611a5a57600080fd5b600254604080517fd8f1626e000000000000000000000000000000000000000000000000000000008152600160a060020a0386811660048301529151919092169163d8f1626e9160248083019260209291908290030181600087803b1580156119a357600080fd5b600154600160a060020a031681565b600054600160a060020a03163314611ae857600080fd5b600254604080517ff2fde38b000000000000000000000000000000000000000000000000000000008152600160a060020a0384811660048301529151919092169163f2fde38b91602480830192600092919082900301818387803b158015611b4f57600080fd5b505af1158015610e86573d6000803e3d6000fd5b600254604080517fd113033c000000000000000000000000000000000000000000000000000000008152600160a060020a0319841660048201523360248201529051600092600160a060020a03169163d113033c91604480830192602092919082900301818787803b1580156106f057600080fd5b600354604080517ff8b2cb4f000000000000000000000000000000000000000000000000000000008152336004820152905160009283928392839283928392600160a060020a039092169163f8b2cb4f9160248082019260209290919082900301818787803b158015611c4a57600080fd5b505af1158015611c5e573d6000803e3d6000fd5b505050506040513d6020811015611c7457600080fd5b50516040805160e060020a633c5e6c9702815290519197508991600160a060020a038c1691633c5e6c979160048083019260209291908290030181600087803b158015611cc057600080fd5b505af1158015611cd4573d6000803e3d6000fd5b505050506040513d6020811015611cea57600080fd5b5051604080517f5b98c83d0000000000000000000000000000000000000000000000000000000081529051929091029650600160a060020a038b1691635b98c83d916004808201926020929091908290030181600087803b158015611d4e57600080fd5b505af1158015611d62573d6000803e3d6000fd5b505050506040513d6020811015611d7857600080fd5b5051935084871080611d8957508486105b80611d9357508388115b15611d9d57600080fd5b611e66858a600160a060020a0316638622d35f6040518163ffffffff1660e060020a028152600401602060405180830381600087803b158015611ddf57600080fd5b505af1158015611df3573d6000803e3d6000fd5b505050506040513d6020811015611e0957600080fd5b5051604080517f5e2b956d0000000000000000000000000000000000000000000000000000000081529051600160a060020a038e1691635e2b956d9160048083019260209291908290030181600087803b15801561142157600080fd5b8093508194505050600360009054906101000a9004600160a060020a0316600160a060020a0316637f6cdfa6338b600160a060020a03166308551a536040518163ffffffff1660e060020a028152600401602060405180830381600087803b158015611ed157600080fd5b505af1158015611ee5573d6000803e3d6000fd5b505050506040513d6020811015611efb57600080fd5b50516040805160e060020a63ffffffff8616028152600160a060020a039384166004820152929091166024830152604482018690525160648083019260209291908290030181600087803b158015611f5257600080fd5b505af1158015611f66573d6000803e3d6000fd5b505050506040513d6020811015611f7c57600080fd5b50506000831115612124575060005b88600160a060020a0316638622d35f6040518163ffffffff1660e060020a028152600401602060405180830381600087803b158015611fc957600080fd5b505af1158015611fdd573d6000803e3d6000fd5b505050506040513d6020811015611ff357600080fd5b505181101561212457600354604080517f62030a86000000000000000000000000000000000000000000000000000000008152600481018490529051600160a060020a0392831692637f6cdfa6923392918e16916362030a86916024808201926020929091908290030181600087803b15801561206f57600080fd5b505af1158015612083573d6000803e3d6000fd5b505050506040513d602081101561209957600080fd5b50516040805160e060020a63ffffffff8616028152600160a060020a039384166004820152929091166024830152604482018790525160648083019260209291908290030181600087803b1580156120f057600080fd5b505af1158015612104573d6000803e3d6000fd5b505050506040513d602081101561211a57600080fd5b5050600101611f8b565b600254604080517f2a342099000000000000000000000000000000000000000000000000000000008152600160a060020a03198d166004820152600160a060020a038c81166024830152336044830152606482018c9052608482018b905291519190921691632a3420999160a48083019260209291908290030181600087803b1580156121b057600080fd5b505af11580156121c4573d6000803e3d6000fd5b505050506040513d60208110156121da57600080fd5b5050600354604080517feb95f04a000000000000000000000000000000000000000000000000000000008152600160a060020a038c81166004830152602482018c90529151919092169163eb95f04a91604480830192600092919082900301818387803b15801561224a57600080fd5b505af115801561225e573d6000803e3d6000fd5b50506040805160048152600160a060020a038d16602082015281517f2539b4cc2b40f86b739ed651d0bf19a6b3db2c37cde9a6de9bd20707832c26779450908190039091019150a150505050505050505050565b600354604080517ff8b2cb4f0000000000000000000000000000000000000000000000000000000081523360048201529051600092839283928392600160a060020a03169163f8b2cb4f91602480830192602092919082900301818787803b15801561231d57600080fd5b505af1158015612331573d6000803e3d6000fd5b505050506040513d602081101561234757600080fd5b505193508484101561235857600080fd5b61236187610af6565b9250600583600781111561237157fe5b141561260a57600254604080517f10617ac4000000000000000000000000000000000000000000000000000000008152600160a060020a03198a16600482015290518792600160a060020a0316916310617ac49160248083019260209291908290030181600087803b1580156123e657600080fd5b505af11580156123fa573d6000803e3d6000fd5b505050506040513d602081101561241057600080fd5b50516040805160e060020a633c5e6c970281529051929091019250600160a060020a03881691633c5e6c97916004808201926020929091908290030181600087803b15801561245e57600080fd5b505af1158015612472573d6000803e3d6000fd5b505050506040513d602081101561248857600080fd5b505181101561249857600561249b565b60065b600354604080517f7f6cdfa6000000000000000000000000000000000000000000000000000000008152336004820152600160a060020a038a81166024830152604482018a90529151939550911691637f6cdfa6916064808201926020929091908290030181600087803b15801561251257600080fd5b505af1158015612526573d6000803e3d6000fd5b505050506040513d602081101561253c57600080fd5b50506002546040517f795a5dfc000000000000000000000000000000000000000000000000000000008152600160a060020a0319891660048201908152336024830181905260448301899052600160a060020a039093169263795a5dfc928b928a918891906064018260078111156125b057fe5b60ff168152602001945050505050602060405180830381600087803b1580156125d857600080fd5b505af11580156125ec573d6000803e3d6000fd5b505050506040513d602081101561260257600080fd5b506127f99050565b85600160a060020a0316633c5e6c976040518163ffffffff1660e060020a028152600401602060405180830381600087803b15801561264857600080fd5b505af115801561265c573d6000803e3d6000fd5b505050506040513d602081101561267257600080fd5b5051851015612682576005612685565b60065b600354604080517f7f6cdfa6000000000000000000000000000000000000000000000000000000008152336004820152600160a060020a038a81166024830152604482018a90529151939550911691637f6cdfa6916064808201926020929091908290030181600087803b1580156126fc57600080fd5b505af1158015612710573d6000803e3d6000fd5b505050506040513d602081101561272657600080fd5b50506002546040517f676f5c48000000000000000000000000000000000000000000000000000000008152600160a060020a0319891660048201908152600160a060020a0389811660248401523360448401819052606484018a905293169263676f5c48928b928b92918b9189916084018260078111156127a357fe5b60ff16815260200195505050505050602060405180830381600087803b1580156127cc57600080fd5b505af11580156127e0573d6000803e3d6000fd5b505050506040513d60208110156127f657600080fd5b50505b600682600781111561280757fe5b1415612a1657600360009054906101000a9004600160a060020a0316600160a060020a0316637f6cdfa68788600160a060020a03166308551a536040518163ffffffff1660e060020a028152600401602060405180830381600087803b15801561287057600080fd5b505af1158015612884573d6000803e3d6000fd5b505050506040513d602081101561289a57600080fd5b50516040805160e060020a633c5e6c970281529051600160a060020a038c1691633c5e6c979160048083019260209291908290030181600087803b1580156128e157600080fd5b505af11580156128f5573d6000803e3d6000fd5b505050506040513d602081101561290b57600080fd5b50516040805160e060020a63ffffffff8716028152600160a060020a0394851660048201529290931660248301526044820152905160648083019260209291908290030181600087803b15801561296157600080fd5b505af1158015612975573d6000803e3d6000fd5b505050506040513d602081101561298b57600080fd5b5050600354604080517f14fc5a5a000000000000000000000000000000000000000000000000000000008152600160a060020a038981166004808401919091526024830152915191909216916314fc5a5a91604480830192600092919082900301818387803b1580156129fd57600080fd5b505af1158015612a11573d6000803e3d6000fd5b505050505b6040805160028152600160a060020a038816602082015281517f2539b4cc2b40f86b739ed651d0bf19a6b3db2c37cde9a6de9bd20707832c2677929181900390910190a1505050505050505600a165627a7a723058201094694c5b2622b03a84d39e5abcdcdc25367e41962a257a963dec536d033fda00296080604052600160025560008054600160a060020a031916331790556111338061002a6000396000f3006080604052600436106101955763ffffffff7c01000000000000000000000000000000000000000000000000000000006000350416630c2a8f37811461019a57806310617ac4146101d85780632986c0e51461020c5780632a342099146102215780633062a1981461026f57806330ea0c73146102915780633bc32df6146102d657806353219fff146102fe57806354fd4d50146103205780635c5c9a311461019a57806362d8405f1461033557806365c0ea7814610382578063676f5c48146103a4578063795a5dfc146103e157806379ba509714610418578063848b06631461042f5780638da5cb5b146104575780638f10aa0b1461046c578063916e476e14610494578063920a1b22146104da5780639c8796b7146104fb578063a7fbd05214610586578063b29b5139146105a8578063b75e49b4146105d6578063d113033c14610676578063d309b500146106a4578063d3bbeb8f146106cf578063d8f1626e146106f4578063e30c397814610715578063ea308a4c1461072a578063ed481cf11461075e578063f2fde38b14610776575b600080fd5b3480156101a657600080fd5b506101bc600160a060020a031960043516610797565b60408051600160a060020a039092168252519081900360200190f35b3480156101e457600080fd5b506101fa600160a060020a0319600435166107cf565b60408051918252519081900360200190f35b34801561021857600080fd5b506101fa61087d565b34801561022d57600080fd5b5061025b600435600160a060020a031916600160a060020a0360243581169060443516606435608435610883565b604080519115158252519081900360200190f35b34801561027b57600080fd5b506101fa600160a060020a031960043516610961565b34801561029d57600080fd5b506102b9600160a060020a031960043581169060243516610981565b60408051600160a060020a03199092168252519081900360200190f35b3480156102e257600080fd5b506101bc600160a060020a0319600435811690602435166109b7565b34801561030a57600080fd5b506101fa600160a060020a0319600435166109f0565b34801561032c57600080fd5b506101fa610a0f565b34801561034157600080fd5b5061035a600160a060020a031960043516602435610a15565b60408051600160a060020a039094168452602084019290925282820152519081900360600190f35b34801561038e57600080fd5b506101bc600160a060020a031960043516610a9b565b3480156103b057600080fd5b5061025b600435600160a060020a031916600160a060020a036024358116906044351660643560843560ff16610ac3565b3480156103ed57600080fd5b506101fa600160a060020a031960043516602435600160a060020a031660443560ff60643516610c22565b34801561042457600080fd5b5061042d610cf9565b005b34801561043b57600080fd5b5061025b600160a060020a03196004351660ff60243516610d34565b34801561046357600080fd5b506101bc610d8d565b34801561047857600080fd5b506101fa600160a060020a031960043581169060243516610d9c565b3480156104a057600080fd5b506104b6600160a060020a031960043516610dcc565b604051808260078111156104c657fe5b60ff16815260200191505060405180910390f35b3480156104e657600080fd5b506102b9600160a060020a0360043516610dee565b34801561050757600080fd5b5061051d600160a060020a031960043516610e06565b60408051888152600160a060020a031988166020820152600160a060020a038781169282019290925290851660608201526080810184905260a0810183905260c0810182600781111561056c57fe5b60ff16815260200197505050505050505060405180910390f35b34801561059257600080fd5b506101fa600160a060020a031960043516610e6e565b3480156105b457600080fd5b5061025b600160a060020a031960043581169060243581169060443516610e8d565b3480156105e257600080fd5b506105f8600160a060020a031960043516610ef6565b60408051898152600160a060020a031989166020820152600160a060020a038881169282019290925290861660608201526080810185905260a0810184905260c0810183600781111561064757fe5b60ff16815260200182600481111561065b57fe5b60ff1681526020019850505050505050505060405180910390f35b34801561068257600080fd5b506101fa600160a060020a031960043516602435600160a060020a0316610f5c565b3480156106b057600080fd5b5061025b600160a060020a031960043581169060243516604435610f96565b3480156106db57600080fd5b506101bc600160a060020a031960043516602435610fe3565b34801561070057600080fd5b506102b9600160a060020a0360043516611027565b34801561072157600080fd5b506101bc611048565b34801561073657600080fd5b5061025b600160a060020a031960043581169060243516604435600160a060020a0316611057565b34801561076a57600080fd5b506102b96004356110b6565b34801561078257600080fd5b5061042d600160a060020a03600435166110ce565b600160a060020a0319166000908152600360205260409020600101546c010000000000000000000000009004600160a060020a031690565b600160a060020a031981166000908152600360205260408120600701548180805b8382101561087357600160a060020a03198616600090815260036020526040902060070180548390811061082057fe5b6000918252602080832090910154600160a060020a031989168352600382526040808420600160a060020a03909216808552600690920190925291206001908101549490940193929092019190506107f0565b5090949350505050565b60065481565b60008054600160a060020a0316331461089b57600080fd5b5060028054600160a060020a0319878116600090815260036020818152604080842095865560018087018054600160a060020a039d8e166c010000000000000000000000000260a060020a909f046bffffffffffffffffffffffff1991821681176bffffffffffffffffffffffff169f909f1790915597870180549b909c169a9095169990991790995583019590955560048201939093556005908101805460ff1916841790556006805485529552929091208054909216909317905580548201905590565b600160a060020a0319166000908152600360208190526040909120015490565b600160a060020a031991821660009081526003602090815260408083209390941682526008909201909152205460a060020a0290565b600160a060020a03199182166000908152600360209081526040808320939094168252600a9092019091522054600160a060020a031690565b600160a060020a03191660009081526003602052604090206004015490565b60025481565b600160a060020a03198216600090815260036020526040812060070180548291829182919086908110610a4457fe5b600091825260208083209190910154600160a060020a0319989098168252600381526040808320600160a060020a039099168084526006909901909152902060018101546002909101549697909695509350505050565b600160a060020a031916600090815260036020526040902060020154600160a060020a031690565b60008054600160a060020a03163314610adb57600080fd5b600254600160a060020a031987166000908152600360205260409020908155600180820180546bffffffffffffffffffffffff6bffffffffffffffffffffffff1990911660a060020a8b0417166c01000000000000000000000000600160a060020a038a160217905560059091018054849260ff1990911690836007811115610b6057fe5b021790555050600160a060020a03198086166000908152600360209081526040808320600160a060020a0388811680865260068084018652848720600180820180548d01905542600283015581548a1684179091556007909401805480860182559088528688200180549098169091179096558916845260048352818420805460a060020a8c046bffffffffffffffffffffffff1991821681179092558654865260059094529190932080549092161790558154810190915595945050505050565b60008054600160a060020a03163314610c3a57600080fd5b600160a060020a03198086166000818152600360208181526040808420600160a060020a038b16808652600682018452918520600180820180548d01905542600283015581549098169092179091559390925290526005018054849260ff1990911690836007811115610ca957fe5b0217905550600160a060020a03199485166000908152600360209081526040822060070180546001810182559083529120018054909516600160a060020a03949094169390931790935550919050565b600154600160a060020a03163314610d1057600080fd5b60015460008054600160a060020a031916600160a060020a03909216919091179055565b60008054600160a060020a03163314610d4c57600080fd5b600160a060020a031983166000908152600360205260409020600501805483919060ff19166001836007811115610d7f57fe5b021790555060019392505050565b600054600160a060020a031681565b600160a060020a031991821660009081526003602090815260408083209390941682526009909201909152205490565b600160a060020a03191660009081526003602052604090206005015460ff1690565b60046020526000908152604090205460a060020a0281565b600160a060020a0319166000908152600360208190526040909120805460018201546002830154938301546004840154600590940154929560a060020a830295600160a060020a036c0100000000000000000000000090940484169593169391929160ff1690565b600160a060020a03191660009081526003602052604090206007015490565b60008054600160a060020a03163314610ea557600080fd5b50600160a060020a0319808416600090815260036020908152604080832093861683526008909301905220805460a060020a83046bffffffffffffffffffffffff1990911617905560019392505050565b6003602081905260009182526040909120805460018201546002830154938301546004840154600590940154929460a060020a8302946c01000000000000000000000000909304600160a060020a03908116949116929060ff8082169161010090041688565b600160a060020a031982166000908152600360209081526040808320600160a060020a038516845260060190915290206001015492915050565b60008054600160a060020a03163314610fae57600080fd5b50600160a060020a03199283166000908152600360209081526040808320949095168252600990930190925291902055600190565b600160a060020a03198216600090815260036020526040812060070180548390811061100b57fe5b600091825260209091200154600160a060020a03169392505050565b600160a060020a031660009081526004602052604090205460a060020a0290565b600154600160a060020a031681565b60008054600160a060020a0316331461106f57600080fd5b50600160a060020a031992831660009081526003602090815260408083209486168352600a9094019052919091208054909216600160a060020a0391909116179055600190565b60056020526000908152604090205460a060020a0281565b600054600160a060020a031633146110e557600080fd5b60018054600160a060020a031916600160a060020a03929092169190911790555600a165627a7a723058200408a13cd72a1427db902b08125a13b5d5958b38fc7a6755050f4fed74a609ce0029",
  "source": "pragma solidity ^0.4.24;\n\nimport \"./Owned.sol\";\nimport \"./Events.sol\";\nimport \"./OrderData.sol\";\nimport \"./Asset.sol\";\nimport \"./SplytManager.sol\";\nimport \"./AssetManager.sol\";\nimport \"./ArbitrationManager.sol\";\n\ncontract OrderManager is Owned, Events {\n    \n    enum Reason { DEFECTIVE, NO_REASON, CHANGED_MIND, OTHER }\n    enum Statuses { PAID, CLOSED, REQUESTED_REFUND, REFUNDED, ARBITRATION, OTHER }\n\n    OrderData public orderData;\n    SplytManager public splytManager;\n\n    modifier onlyBuyer(bytes12 _orderId) {\n        address buyer = orderData.getBuyer(_orderId);  \n        require(buyer == msg.sender);\n        _;\n    }\n    \n    modifier onlySeller(bytes12 _orderId) {\n        address seller = Asset(orderData.getAsset(_orderId)).seller();          \n        require(seller == msg.sender);\n        _;\n    }\n\n    //@dev middleware to check for certain asset statuses to continue\n    modifier onlyAssetStatus(Asset.Statuses _status, address _assetAddress) {\n        require(_status == Asset(_assetAddress).status());\n        _;\n    }  \n\n    //@dev middleware to check for certain order statuses to continue\n    modifier onlyOrderStatus(bytes12 _orderId, OrderData.Statuses _status) {\n        require(_status == orderData.getStatus(_orderId));\n        _;\n    }    \n\n    //@dev middleware to bind functions that should be called by fractional\n    modifier onlyFractionalAsset(address _assetAddress) {\n        require(Asset.AssetTypes.FRACTIONAL == Asset(_assetAddress).assetType());\n        _;\n    }    \n\n    //@dev if buyer sends total amount\n    // modifier onlyOrderRequestQualifies(address _assetAddress, uint _qty, uint _tokenAmount) {     \n    //     uint buyerBalance = splytManager.getBalance(msg.sender);\n    //     uint totalCost = Asset(_assetAddress).totalCost() * _qty;\n    //     uint qty = Asset(_assetAddress).inventoryCount();\n    //     require(_tokenAmount >=totalCost && buyerBalance >= totalCost && _qty <= qty);\n    //     _;\n    // } \n\n    constructor(address _splytManager) public {\n        orderData = new OrderData();\n        splytManager = SplytManager(_splytManager); //splytManager address\n    }\n\n    //@dev buyer must pay it in full to create order\n    // To succcessfully purchase an asset, buy must purchase the whole amount times the quantity.\n    // The asset must be in 'ACTIVE' status.    \n    function purchase(bytes12 _orderId, address _assetAddress, uint _qty, uint _tokenAmount) public onlyAssetStatus(Asset.Statuses.ACTIVE, _assetAddress) returns (bool) {\n\n        Asset asset = Asset(_assetAddress);\n\n        //Regular asset purchase or a fractional purchase\n        if (asset.assetType() == Asset.AssetTypes.NORMAL) {\n            createOrder(_orderId, asset, _qty, _tokenAmount);\n        } else {\n            //Fractional ownership\n            contributeOrder(_orderId, asset, _tokenAmount);            \n        }\n\n        return true;\n    }\n\n    //@dev for regular normal purchase order\n    function createOrder(bytes12 _orderId, Asset _asset, uint _qty, uint _tokenAmount) private {\n\n        uint buyerBalance = splytManager.getBalance(msg.sender);\n        uint totalCost = _asset.totalCost() * _qty;\n\n        uint inventoryCount = _asset.inventoryCount();\n\n        // uint updatedBalance = buyerBalance - totalCost; //used to prevent Reentrancy Attack\n        // if (updatedBalance < 0) {\n        //     revert()\n        // }\n\n        if (_tokenAmount < totalCost || buyerBalance < totalCost || _qty > inventoryCount) {\n            revert();\n        }\n\n        uint mpGets; //marketplaces commission\n        uint sellerGets;\n\n        (mpGets, sellerGets) = calcDistribution(totalCost, _asset.getMarketPlacesLength(), _asset.kickbackAmount());\n        splytManager.internalContribute(msg.sender, _asset.seller(), sellerGets);\n        \n        //distribute commission to all the market places\n        if(mpGets > 0) {\n            for(uint i = 0; i < _asset.getMarketPlacesLength(); i++) {\n                splytManager.internalContribute(msg.sender, _asset.getMarketPlaceByIndex(i), mpGets);\n            }\n        }\n\n        orderData.save(_orderId, address(_asset), msg.sender, _qty, _tokenAmount); //save it to the data contract                \n        splytManager.subtractInventory(address(_asset), _qty); //update inventory\n        emit Success(4, address(_asset));\n\n    }\n\n    //@dev for fractional purchases\n    function contributeOrder(bytes12 _orderId, Asset _asset, uint _tokenAmount) private {\n       \n        uint buyerBalance = splytManager.getBalance(msg.sender);\n        //check if buyer has the amount he proposes to use to contribute\n        if (buyerBalance < _tokenAmount) {\n            revert();\n        }\n\n        // uint orderId = orderData.getFractionalOrderIdByAsset(address(_asset));\n        OrderData.Statuses currentStatus = getStatus(_orderId);\n        \n        OrderData.Statuses updatedStatus;\n        //check if theres' existing\n        if (currentStatus == OrderData.Statuses.CONTRIBUTIONS_OPEN) {\n            uint totalContributions = orderData.getTotalContributions(_orderId) + _tokenAmount;         \n            updatedStatus = totalContributions >= _asset.totalCost() ? OrderData.Statuses.CONTRIBUTIONS_FULFILLED : OrderData.Statuses.CONTRIBUTIONS_OPEN;   \n            splytManager.internalContribute(msg.sender, address(_asset), _tokenAmount); //transfer contributed amount to asset contract\n            orderData.addContribution(_orderId, msg.sender, _tokenAmount, updatedStatus);       \n        } else {\n            //create new fractional order\n            updatedStatus = _tokenAmount >=  _asset.totalCost() ? OrderData.Statuses.CONTRIBUTIONS_FULFILLED : OrderData.Statuses.CONTRIBUTIONS_OPEN;          \n            splytManager.internalContribute(msg.sender, address(_asset), _tokenAmount);  //transfer contributed amount to asset contract\n            orderData.saveFractional(_orderId, address(_asset), msg.sender, _tokenAmount, updatedStatus);                      \n        }\n\n        //updated asset status to PIF once all contributions are in place\n        if (updatedStatus == OrderData.Statuses.CONTRIBUTIONS_FULFILLED) {\n            splytManager.internalContribute(address(_asset), _asset.seller(), _asset.totalCost()); //Once all has been contributed, transfer to seller\n            splytManager.setAssetStatus(address(_asset), Asset.Statuses.SOLD_OUT);            \n        }\n\n        emit Success(2, address(_asset));\n\n    }\n \n    function setStatus(bytes12 _orderId, OrderData.Statuses _status) public returns (bool) {\n\n        orderData.setStatus(_orderId, _status); //update the status                \n \n        return true;\n    }\n\n    function getStatus(bytes12 _orderId) public view returns (OrderData.Statuses) {\n\n        return orderData.getStatus(_orderId);                \n \n    }\n\n    function calcDistribution(uint _totalCost, uint _length, uint _kickbackAmount) public pure returns (uint, uint) {\n        // Asset asset = Asset(_assetAddress);\n        // uint length = asset.getMarketPlacesLength();\n\n        uint kickbackWitheld = _kickbackAmount / _length;\n        uint sellerGets = _totalCost - kickbackWitheld * _length;\n        return (kickbackWitheld, sellerGets);\n    }\n\n\n    //@dev seller gets refund to buyer and marketplaces\n    function approveRefund(bytes12 _orderId) public onlySeller(_orderId) {\n        \n        uint sellerBalance = splytManager.getBalance(msg.sender);\n        uint totalRefundAmount = orderData.getPaidAmount(_orderId);\n        uint quantity = orderData.getQuantity(_orderId);\n\n        //make sure seller has enough to refund\n        if (sellerBalance < totalRefundAmount) {\n            revert();\n        }\n\n        uint mpRefunds; //marketplaces commission\n        uint buyerRefundFromSeller;\n        address assetAddress = orderData.getAssetAddress(_orderId);\n\n        Asset asset = Asset(assetAddress);\n\n        //TODO: check marketplaces have enough balance to refund or error out\n\n        (mpRefunds, buyerRefundFromSeller) = calcDistribution(asset.totalCost(), asset.getMarketPlacesLength(), asset.kickbackAmount());\n        splytManager.internalContribute(msg.sender, orderData.getBuyer(_orderId), buyerRefundFromSeller);\n        \n        //refund commission to buyer from marketplaces\n        if(mpRefunds > 0) {\n            for(uint i = 0; i < asset.getMarketPlacesLength(); i++) {\n                splytManager.internalContribute(asset.getMarketPlaceByIndex(i), orderData.getBuyer(_orderId), mpRefunds);\n            }\n        }\n          \n        splytManager.addInventory(assetAddress, quantity); //update inventory\n        orderData.setStatus(_orderId, OrderData.Statuses.REFUNDED); //save it to the data contract         \n\n    }\n    \n    function requestRefund(bytes12 _orderId) public onlyBuyer(_orderId) {\n        orderData.setStatus(_orderId, OrderData.Statuses.REQUESTED_REFUND); //save it to the data contract              \n    }    \n\n    function getTotalContributions(bytes12 _orderId) public view returns (uint) {\n        return orderData.getTotalContributions(_orderId);\n    }\n    \n\n    function getMyContributions(bytes12 _orderId) public view returns (uint) {\n        return orderData.getMyContributions(_orderId, msg.sender);\n    }\n    \n\n    function setSplytManager(address _address) public onlyOwner {\n        splytManager = SplytManager(_address);\n    }\n\n    function getDataContractAddress() public view returns (address) {\n       return address(orderData);\n    }\n\n    function setDataContract(address _orderData) public onlyOwner {\n       orderData = OrderData(_orderData);\n    }\n\n    function getOrderInfoByOrderId(bytes12 _orderId) public view returns (uint, bytes12, address, address, uint, uint, OrderData.Statuses) {\n      return orderData.getOrderByOrderId(_orderId);\n    }    \n\n    function getOrderInfoByIndex(uint _index) public view returns (uint, bytes12, address, address, uint, uint, OrderData.Statuses) {\n      return orderData.getOrderByOrderId(orderData.orderIdByIndex(_index));\n    }    \n\n\n    function getContributorsLength(bytes12 _orderId) public view returns (uint) {\n      return orderData.getContributorsLengthByOrderId(_orderId);\n    }    \n\n\n    function getContributionByOrderIdAndIndex(bytes12 _orderId, uint _index) public view returns (address, uint, uint) {\n      return orderData.getContributionByOrderIdAndIndex(_orderId, _index);\n    }    \n\n    function getContributorByOrderIdAndIndex(bytes12 _orderId, uint _index) public view returns (address) {\n      return orderData.getContributorByOrderIdAndIndex(_orderId, _index);\n    }    \n\n\n    function getDataVersion() public view returns (uint) {\n      return orderData.version();\n    }    \n\n    //@dev will return error if trying to retrieve order id that is not a fractional asset\n    function getFractionalOrderIdByAsset(address _assetAddress) public view onlyFractionalAsset(_assetAddress) returns (bytes12) {\n        return orderData.getFractionalOrderIdByAsset(_assetAddress);\n    }   \n\n    function getOrdersLength() public view returns (uint) {\n      return orderData.index();\n    }       \n   //@dev new manager contract that's going to be replacing this\n   //Old manager call this function and proposes the new address\n    function transferOwnership(address _newAddress) public onlyOwner {\n        orderData.transferOwnership(_newAddress);\n    }\n\n    //@dev if new data contract is deployed, the creator proposes manager adress then the manager needs to accept\n    function acceptOwnership() public onlyOwner {\n        orderData.acceptOwnership();\n\n    }    \n    \n}",
  "sourcePath": "/Users/scott/git/splytprotocol/contracts/OrderManager.sol",
  "compiler": {
    "name": "solc",
    "version": "0.4.24+commit.e67f0147.Emscripten.clang"
  },
  "schemaVersion": "2.0.1",
  "updatedAt": "2018-11-15T00:05:24.721Z"
}