{
  "contractName": "ReputationManager",
  "abi": [
    {
      "constant": true,
      "inputs": [],
      "name": "reputationData",
      "outputs": [
        {
          "name": "",
          "type": "address"
        }
      ],
      "payable": false,
      "stateMutability": "view",
      "type": "function"
    },
    {
      "constant": true,
      "inputs": [],
      "name": "splytManager",
      "outputs": [
        {
          "name": "",
          "type": "address"
        }
      ],
      "payable": false,
      "stateMutability": "view",
      "type": "function"
    },
    {
      "constant": true,
      "inputs": [],
      "name": "owner",
      "outputs": [
        {
          "name": "",
          "type": "address"
        }
      ],
      "payable": false,
      "stateMutability": "view",
      "type": "function"
    },
    {
      "constant": true,
      "inputs": [],
      "name": "pendingOwner",
      "outputs": [
        {
          "name": "",
          "type": "address"
        }
      ],
      "payable": false,
      "stateMutability": "view",
      "type": "function"
    },
    {
      "inputs": [
        {
          "name": "_splytManager",
          "type": "address"
        }
      ],
      "payable": false,
      "stateMutability": "nonpayable",
      "type": "constructor"
    },
    {
      "anonymous": false,
      "inputs": [
        {
          "indexed": false,
          "name": "_code",
          "type": "uint256"
        },
        {
          "indexed": false,
          "name": "_assetAddress",
          "type": "address"
        },
        {
          "indexed": false,
          "name": "_message",
          "type": "string"
        }
      ],
      "name": "Error",
      "type": "event"
    },
    {
      "anonymous": false,
      "inputs": [
        {
          "indexed": false,
          "name": "_code",
          "type": "uint256"
        },
        {
          "indexed": false,
          "name": "_address",
          "type": "address"
        }
      ],
      "name": "Success",
      "type": "event"
    },
    {
      "constant": false,
      "inputs": [
        {
          "name": "_wallet",
          "type": "address"
        },
        {
          "name": "_rating",
          "type": "uint256"
        }
      ],
      "name": "createRate",
      "outputs": [],
      "payable": false,
      "stateMutability": "nonpayable",
      "type": "function"
    },
    {
      "constant": true,
      "inputs": [],
      "name": "getDataContractAddress",
      "outputs": [
        {
          "name": "",
          "type": "address"
        }
      ],
      "payable": false,
      "stateMutability": "view",
      "type": "function"
    },
    {
      "constant": false,
      "inputs": [
        {
          "name": "_reputationData",
          "type": "address"
        }
      ],
      "name": "setDataContract",
      "outputs": [],
      "payable": false,
      "stateMutability": "nonpayable",
      "type": "function"
    },
    {
      "constant": false,
      "inputs": [
        {
          "name": "_address",
          "type": "address"
        }
      ],
      "name": "setSplytManager",
      "outputs": [],
      "payable": false,
      "stateMutability": "nonpayable",
      "type": "function"
    },
    {
      "constant": true,
      "inputs": [
        {
          "name": "_wallet",
          "type": "address"
        }
      ],
      "name": "getReputationByWallet",
      "outputs": [
        {
          "name": "",
          "type": "address"
        }
      ],
      "payable": false,
      "stateMutability": "view",
      "type": "function"
    },
    {
      "constant": true,
      "inputs": [
        {
          "name": "_address",
          "type": "address"
        }
      ],
      "name": "isManager",
      "outputs": [
        {
          "name": "",
          "type": "bool"
        }
      ],
      "payable": false,
      "stateMutability": "view",
      "type": "function"
    },
    {
      "constant": true,
      "inputs": [
        {
          "name": "_wallet",
          "type": "address"
        }
      ],
      "name": "getAverageRatingByWallet",
      "outputs": [
        {
          "name": "",
          "type": "uint256"
        }
      ],
      "payable": false,
      "stateMutability": "view",
      "type": "function"
    },
    {
      "constant": true,
      "inputs": [
        {
          "name": "_wallet",
          "type": "address"
        }
      ],
      "name": "getTotalRatingByWallet",
      "outputs": [
        {
          "name": "",
          "type": "uint256"
        }
      ],
      "payable": false,
      "stateMutability": "view",
      "type": "function"
    },
    {
      "constant": false,
      "inputs": [
        {
          "name": "_newAddress",
          "type": "address"
        }
      ],
      "name": "transferOwnership",
      "outputs": [],
      "payable": false,
      "stateMutability": "nonpayable",
      "type": "function"
    },
    {
      "constant": false,
      "inputs": [],
      "name": "acceptOwnership",
      "outputs": [],
      "payable": false,
      "stateMutability": "nonpayable",
      "type": "function"
    }
  ],
  "bytecode": "0x608060405234801561001057600080fd5b50604051602080611789833981016040525160008054600160a060020a0319163317905561003c61008d565b604051809103906000f080158015610058573d6000803e3d6000fd5b5060028054600160a060020a03928316600160a060020a0319918216179091556003805493909216921691909117905561009d565b6040516103628061142783390190565b61137b806100ac6000396000f3006080604052600436106100b65763ffffffff60e060020a60003504166303959bb781146100bb5780632f594b89146100de5780634dfdb2ff1461010257806361e91ea114610135578063639b48361461016657806379ba50971461017b5780637b36563e146101905780638225f185146101a557806387d55642146101c65780638da5cb5b146101e75780639997f227146101fc578063e30c39781461021d578063f2fde38b14610232578063f3ae241514610253575b600080fd5b3480156100c757600080fd5b506100dc600160a060020a0360043516610288565b005b3480156100ea57600080fd5b506100dc600160a060020a03600435166024356102ce565b34801561010e57600080fd5b50610123600160a060020a03600435166106b1565b60408051918252519081900360200190f35b34801561014157600080fd5b5061014a6108bc565b60408051600160a060020a039092168252519081900360200190f35b34801561017257600080fd5b5061014a6108cb565b34801561018757600080fd5b506100dc6108da565b34801561019c57600080fd5b5061014a61095e565b3480156101b157600080fd5b5061014a600160a060020a036004351661096d565b3480156101d257600080fd5b506100dc600160a060020a03600435166109f4565b3480156101f357600080fd5b5061014a610a51565b34801561020857600080fd5b50610123600160a060020a0360043516610a60565b34801561022957600080fd5b5061014a610bf2565b34801561023e57600080fd5b506100dc600160a060020a0360043516610c01565b34801561025f57600080fd5b50610274600160a060020a0360043516610cb1565b604080519115158252519081900360200190f35b600054600160a060020a0316331461029f57600080fd5b6002805473ffffffffffffffffffffffffffffffffffffffff1916600160a060020a0392909216919091179055565b6000806000806000856000811180156102e75750600681105b15156102f257600080fd5b6002546040805160e260020a6335c18109028152600160a060020a038b811660048301529151919092169163d70604249160248083019260209291908290030181600087803b15801561034457600080fd5b505af1158015610358573d6000803e3d6000fd5b505050506040513d602081101561036e57600080fd5b50519550600160a060020a038616151561046157863361038c610d1c565b918252600160a060020a03166020820152604080519182900301906000f0801580156103bc573d6000803e3d6000fd5b50600254604080517f3326fed5000000000000000000000000000000000000000000000000000000008152600160a060020a038c8116600483015280851660248301529151939850911691633326fed5916044808201926020929091908290030181600087803b15801561042f57600080fd5b505af1158015610443573d6000803e3d6000fd5b505050506040513d602081101561045957600080fd5b506106639050565b85935060009250600091505b83600160a060020a031663381c5cb56040518163ffffffff1660e060020a028152600401602060405180830381600087803b1580156104ab57600080fd5b505af11580156104bf573d6000803e3d6000fd5b505050506040513d60208110156104d557600080fd5b50518210156105dc5783600160a060020a031663f1713a36836040518263ffffffff1660e060020a02815260040180828152602001915050602060405180830381600087803b15801561052757600080fd5b505af115801561053b573d6000803e3d6000fd5b505050506040513d602081101561055157600080fd5b5051600160a060020a03163314156105d15783600160a060020a031663405abb4183896040518363ffffffff1660e060020a0281526004018083815260200182815260200192505050600060405180830381600087803b1580156105b457600080fd5b505af11580156105c8573d6000803e3d6000fd5b50505050600192505b60019091019061046d565b82151561066357604080517f274d0b4d000000000000000000000000000000000000000000000000000000008152600481018990523360248201529051600160a060020a0386169163274d0b4d91604480830192600092919082900301818387803b15801561064a57600080fd5b505af115801561065e573d6000803e3d6000fd5b505050505b6040805160058152600160a060020a038816602082015281517f2539b4cc2b40f86b739ed651d0bf19a6b3db2c37cde9a6de9bd20707832c2677929181900390910190a15050505050505050565b6002546040805160e260020a6335c18109028152600160a060020a03848116600483015291516000938493849384938493929092169163d70604249160248082019260209290919082900301818787803b15801561070e57600080fd5b505af1158015610722573d6000803e3d6000fd5b505050506040513d602081101561073857600080fd5b50519350839250600091508190505b82600160a060020a031663381c5cb56040518163ffffffff1660e060020a028152600401602060405180830381600087803b15801561078557600080fd5b505af1158015610799573d6000803e3d6000fd5b505050506040513d60208110156107af57600080fd5b505181101561083a5782600160a060020a031663b5ba833d826040518263ffffffff1660e060020a02815260040180828152602001915050602060405180830381600087803b15801561080157600080fd5b505af1158015610815573d6000803e3d6000fd5b505050506040513d602081101561082b57600080fd5b50519190910190600101610747565b82600160a060020a031663381c5cb56040518163ffffffff1660e060020a028152600401602060405180830381600087803b15801561087857600080fd5b505af115801561088c573d6000803e3d6000fd5b505050506040513d60208110156108a257600080fd5b5051606483028115156108b157fe5b049695505050505050565b600254600160a060020a031690565b600254600160a060020a031681565b600054600160a060020a031633146108f157600080fd5b600260009054906101000a9004600160a060020a0316600160a060020a03166379ba50976040518163ffffffff1660e060020a028152600401600060405180830381600087803b15801561094457600080fd5b505af1158015610958573d6000803e3d6000fd5b50505050565b600354600160a060020a031681565b6002546040805160e260020a6335c18109028152600160a060020a0384811660048301529151600093929092169163d70604249160248082019260209290919082900301818787803b1580156109c257600080fd5b505af11580156109d6573d6000803e3d6000fd5b505050506040513d60208110156109ec57600080fd5b505192915050565b600054600160a060020a0316331480610a175750600354600160a060020a031633145b1515610a2257600080fd5b6003805473ffffffffffffffffffffffffffffffffffffffff1916600160a060020a0392909216919091179055565b600054600160a060020a031681565b6002546040805160e260020a6335c18109028152600160a060020a03848116600483015291516000938493849384938493929092169163d70604249160248082019260209290919082900301818787803b158015610abd57600080fd5b505af1158015610ad1573d6000803e3d6000fd5b505050506040513d6020811015610ae757600080fd5b50519350839250600091508190505b82600160a060020a031663381c5cb56040518163ffffffff1660e060020a028152600401602060405180830381600087803b158015610b3457600080fd5b505af1158015610b48573d6000803e3d6000fd5b505050506040513d6020811015610b5e57600080fd5b5051811015610be95782600160a060020a031663b5ba833d826040518263ffffffff1660e060020a02815260040180828152602001915050602060405180830381600087803b158015610bb057600080fd5b505af1158015610bc4573d6000803e3d6000fd5b505050506040513d6020811015610bda57600080fd5b50519190910190600101610af6565b50949350505050565b600154600160a060020a031681565b600054600160a060020a0316331480610c245750600354600160a060020a031633145b1515610c2f57600080fd5b600254604080517ff2fde38b000000000000000000000000000000000000000000000000000000008152600160a060020a0384811660048301529151919092169163f2fde38b91602480830192600092919082900301818387803b158015610c9657600080fd5b505af1158015610caa573d6000803e3d6000fd5b5050505050565b600354604080517ff3ae2415000000000000000000000000000000000000000000000000000000008152600160a060020a0384811660048301529151600093929092169163f3ae24159160248082019260209290919082900301818787803b1580156109c257600080fd5b60405161062380610d2d833901905600608060405234801561001057600080fd5b506040516040806106238339810160408181528251602093840151606084018352908352600160a060020a0390811693830193845242918301918252600180548082018255600091825293517fb10e2d527612073b26eecdfd717e6a320cf44b4afac2b0732d9fcbe2b7fa0cf660039095029485015593517fb10e2d527612073b26eecdfd717e6a320cf44b4afac2b0732d9fcbe2b7fa0cf784018054600160a060020a03191691909216179055517fb10e2d527612073b26eecdfd717e6a320cf44b4afac2b0732d9fcbe2b7fa0cf89091015561052f9081906100f490396000f3006080604052600436106100825763ffffffff7c010000000000000000000000000000000000000000000000000000000060003504166319e499f08114610087578063274d0b4d146100c6578063381c5cb5146100f9578063405abb4114610120578063b5ba833d1461013b578063dd418ae214610153578063f1713a361461019e575b600080fd5b34801561009357600080fd5b5061009c6101df565b6040805173ffffffffffffffffffffffffffffffffffffffff199092168252519081900360200190f35b3480156100d257600080fd5b506100f760043573ffffffffffffffffffffffffffffffffffffffff602435166101fc565b005b34801561010557600080fd5b5061010e61036a565b60408051918252519081900360200190f35b34801561012c57600080fd5b506100f7600435602435610370565b34801561014757600080fd5b5061010e60043561044e565b34801561015f57600080fd5b5061016b600435610478565b6040805193845273ffffffffffffffffffffffffffffffffffffffff909216602084015282820152519081900360600190f35b3480156101aa57600080fd5b506101b66004356104c2565b6040805173ffffffffffffffffffffffffffffffffffffffff9092168252519081900360200190f35b600054740100000000000000000000000000000000000000000281565b604080517ff3ae24150000000000000000000000000000000000000000000000000000000081523360048201819052915163f3ae2415916024808201926020929091908290030181600087803b15801561025557600080fd5b505af1158015610269573d6000803e3d6000fd5b505050506040513d602081101561027f57600080fd5b5051151560011461028f57600080fd5b6040805160608101825292835273ffffffffffffffffffffffffffffffffffffffff918216602084019081524291840191825260018054808201825560009190915293517fb10e2d527612073b26eecdfd717e6a320cf44b4afac2b0732d9fcbe2b7fa0cf6600390950294850155517fb10e2d527612073b26eecdfd717e6a320cf44b4afac2b0732d9fcbe2b7fa0cf78401805473ffffffffffffffffffffffffffffffffffffffff19169190931617909155517fb10e2d527612073b26eecdfd717e6a320cf44b4afac2b0732d9fcbe2b7fa0cf890910155565b60015490565b604080517ff3ae24150000000000000000000000000000000000000000000000000000000081523360048201819052915163f3ae2415916024808201926020929091908290030181600087803b1580156103c957600080fd5b505af11580156103dd573d6000803e3d6000fd5b505050506040513d60208110156103f357600080fd5b5051151560011461040357600080fd5b8060018381548110151561041357fe5b6000918252602090912060039091020155600180544291908490811061043557fe5b9060005260206000209060030201600201819055505050565b600060018281548110151561045f57fe5b9060005260206000209060030201600001549050919050565b600180548290811061048657fe5b600091825260209091206003909102018054600182015460029092015490925073ffffffffffffffffffffffffffffffffffffffff9091169083565b60006001828154811015156104d357fe5b600091825260209091206003909102016001015473ffffffffffffffffffffffffffffffffffffffff16929150505600a165627a7a723058204c0af741e2ddec7a470e09e05137bb0e110b33f83b3b180f49ed0a29deb789580029a165627a7a72305820e2321b995c22c9dc9c1f272cf9bbfb81f72c066133eecab3e609a9db321cba3e0029608060405260008054600160a060020a0319163317905561033d806100256000396000f30060806040526004361061008d5763ffffffff7c01000000000000000000000000000000000000000000000000000000006000350416632986c0e581146100925780633326fed5146100b957806379ba5097146100f45780638da5cb5b1461010b578063d70604241461013c578063e30c39781461015d578063f2fde38b14610172578063fa32d38c14610193575b600080fd5b34801561009e57600080fd5b506100a76101ab565b60408051918252519081900360200190f35b3480156100c557600080fd5b506100e0600160a060020a03600435811690602435166101b1565b604080519115158252519081900360200190f35b34801561010057600080fd5b5061010961022f565b005b34801561011757600080fd5b50610120610277565b60408051600160a060020a039092168252519081900360200190f35b34801561014857600080fd5b50610120600160a060020a0360043516610286565b34801561016957600080fd5b506101206102a1565b34801561017e57600080fd5b50610109600160a060020a03600435166102b0565b34801561019f57600080fd5b506101206004356102f6565b60045481565b60008054600160a060020a031633146101c957600080fd5b50600160a060020a03918216600090815260026020908152604080832080549490951673ffffffffffffffffffffffffffffffffffffffff1994851681179095556004805484526003909252909120805490921690921790558054600190810190915590565b600154600160a060020a0316331461024657600080fd5b6001546000805473ffffffffffffffffffffffffffffffffffffffff1916600160a060020a03909216919091179055565b600054600160a060020a031681565b600260205260009081526040902054600160a060020a031681565b600154600160a060020a031681565b600054600160a060020a031633146102c757600080fd5b6001805473ffffffffffffffffffffffffffffffffffffffff1916600160a060020a0392909216919091179055565b600360205260009081526040902054600160a060020a0316815600a165627a7a7230582029eb377251b61491568568592700ae39b064d010d6c29c63522fa0c1ca77a3bd0029",
  "source": "pragma solidity ^0.4.24;\n\nimport \"./Owned.sol\";\nimport \"./Events.sol\";\n\nimport \"./Reputation.sol\";\nimport \"./ReputationData.sol\";\nimport \"./SplytManager.sol\";\n\ncontract ReputationManager is Owned, Events  {\n    \n    ReputationData public reputationData;\n    SplytManager public splytManager;\n\n    //@dev allow owner or splytManager\n    modifier onlyOwnerOrSplyt() {\n        require(owner == msg.sender || address(splytManager) == msg.sender);\n        _;\n    }\n\n    //@dev only within 1-5\n    modifier onlyValidRange(uint _rating) {\n        require( _rating > 0 && _rating < 6);\n        _;\n    }\n\n    constructor(address _splytManager) public {\n        reputationData = new ReputationData();\n        splytManager = SplytManager(_splytManager);\n    }\n\n    //@dev only create new review when it creates first review\n    function createRate(address _wallet, uint _rating) public onlyValidRange(_rating) {\n\n         address reputationAddress = reputationData.reputationByWallet(_wallet);\n\n         if (reputationAddress == address(0)) {\n            Reputation reputation = new Reputation(_rating, msg.sender);\n            reputationData.save(_wallet, address(reputation));\n         } else {\n            Reputation rep = Reputation(reputationAddress);\n            //@if found,update else create new\n            bool found = false;\n            for (uint i =0; i < rep.getRatesLength(); i++) {\n                if (msg.sender == rep.getRaterByIndex(i)) {\n                    rep.updateRate(i, _rating);\n                    found = true;\n                }              \n            }\n            if (!found) {\n                rep.addRate(_rating, msg.sender);\n            }\n         }\n         emit Success(5, reputationAddress);\n        \n    }\n\n    function getDataContractAddress() public view returns (address) {\n       return address(reputationData);\n    }\n\n\n    //@dev update data contract address\n    function setDataContract(address _reputationData) onlyOwner public {\n       reputationData = ReputationData(_reputationData);\n    }\n\n    //@dev get asset stat\n\n    function setSplytManager(address _address) public onlyOwnerOrSplyt {\n        splytManager = SplytManager(_address);\n    }\n\n\n    function getReputationByWallet(address _wallet) public view returns (address) {\n      return reputationData.reputationByWallet(_wallet);\n    }  \n\n    //@dev checks if address is authorized write to the data contracts\n    function isManager(address _address) public view returns (bool) {\n        return splytManager.isManager(_address);\n    }\n   \n    //@dev assume 2 decimals\n    function getAverageRatingByWallet(address _wallet) public view returns (uint) {\n        address reputationAddress = reputationData.reputationByWallet(_wallet);\n        Reputation rep = Reputation(reputationAddress);\n        uint totalScore = 0;\n        for (uint i =0; i < rep.getRatesLength(); i++) {\n            totalScore += rep.getRatingByIndex(i);\n        }\n       return ((totalScore * 100) / rep.getRatesLength());\n\n    } \n    //@dev get total ratings\n    function getTotalRatingByWallet(address _wallet) public view returns (uint) {\n        address reputationAddress = reputationData.reputationByWallet(_wallet);\n        Reputation rep = Reputation(reputationAddress);\n        uint totalScore = 0;\n        for (uint i =0; i < rep.getRatesLength(); i++) {\n            totalScore += rep.getRatingByIndex(i);\n        }\n       return totalScore;\n\n    } \n    //@dev get total ratings\n    // function getTotalScore(Reputation _rep) public view returns (uint) {\n    //     address reputationAddress = reputationData.reputationByWallet(_wallet);\n    //     Reputation rep = Reputation(reputationAddress);\n    //     uint totalScore = 0;\n    //     for (uint i =0; i < rep.getReviewsLength(); i++) {\n    //         totalScore += rep.reviews[i];\n    //     }\n    //    return totolScore;\n\n    // } \n\n   //@dev new manager contract that's going to be replacing this\n   //Old manager call this function and proposes the new address\n    function transferOwnership(address _newAddress) public onlyOwnerOrSplyt {\n        reputationData.transferOwnership(_newAddress);\n    }\n\n    //@dev if new data contract is deployed, the creator proposes manager adress then the manager needs to accept\n    //The new updated manager contract calls this function\n    function acceptOwnership() public onlyOwner {\n        reputationData.acceptOwnership();\n    }\n\n} ",
  "sourcePath": "/Users/scott/git/splytprotocol/contracts/ReputationManager.sol",
  "compiler": {
    "name": "solc",
    "version": "0.4.24+commit.e67f0147.Emscripten.clang"
  },
  "schemaVersion": "2.0.1",
  "updatedAt": "2018-09-05T21:11:46.750Z"
}