{
  "contractName": "ReputationManager",
  "abi": [
    {
      "constant": true,
      "inputs": [],
      "name": "reputationData",
      "outputs": [
        {
          "name": "",
          "type": "address"
        }
      ],
      "payable": false,
      "stateMutability": "view",
      "type": "function"
    },
    {
      "constant": true,
      "inputs": [],
      "name": "splytManager",
      "outputs": [
        {
          "name": "",
          "type": "address"
        }
      ],
      "payable": false,
      "stateMutability": "view",
      "type": "function"
    },
    {
      "constant": true,
      "inputs": [],
      "name": "owner",
      "outputs": [
        {
          "name": "",
          "type": "address"
        }
      ],
      "payable": false,
      "stateMutability": "view",
      "type": "function"
    },
    {
      "constant": true,
      "inputs": [],
      "name": "pendingOwner",
      "outputs": [
        {
          "name": "",
          "type": "address"
        }
      ],
      "payable": false,
      "stateMutability": "view",
      "type": "function"
    },
    {
      "inputs": [
        {
          "name": "_splytManager",
          "type": "address"
        }
      ],
      "payable": false,
      "stateMutability": "nonpayable",
      "type": "constructor"
    },
    {
      "anonymous": false,
      "inputs": [
        {
          "indexed": false,
          "name": "_code",
          "type": "uint256"
        },
        {
          "indexed": false,
          "name": "_assetAddress",
          "type": "address"
        },
        {
          "indexed": false,
          "name": "_message",
          "type": "string"
        }
      ],
      "name": "Error",
      "type": "event"
    },
    {
      "anonymous": false,
      "inputs": [
        {
          "indexed": false,
          "name": "_code",
          "type": "uint256"
        },
        {
          "indexed": false,
          "name": "_address",
          "type": "address"
        }
      ],
      "name": "Success",
      "type": "event"
    },
    {
      "constant": false,
      "inputs": [
        {
          "name": "_wallet",
          "type": "address"
        },
        {
          "name": "_rating",
          "type": "uint256"
        }
      ],
      "name": "createRate",
      "outputs": [],
      "payable": false,
      "stateMutability": "nonpayable",
      "type": "function"
    },
    {
      "constant": true,
      "inputs": [
        {
          "name": "_wallet",
          "type": "address"
        },
        {
          "name": "_index",
          "type": "uint256"
        }
      ],
      "name": "getRateInfoByWalletAndIndex",
      "outputs": [
        {
          "name": "",
          "type": "uint256"
        },
        {
          "name": "",
          "type": "address"
        },
        {
          "name": "",
          "type": "uint256"
        },
        {
          "name": "",
          "type": "address"
        }
      ],
      "payable": false,
      "stateMutability": "view",
      "type": "function"
    },
    {
      "constant": true,
      "inputs": [
        {
          "name": "_index",
          "type": "uint256"
        }
      ],
      "name": "getReputationInfoByIndex",
      "outputs": [
        {
          "name": "",
          "type": "address"
        },
        {
          "name": "",
          "type": "uint256"
        },
        {
          "name": "",
          "type": "uint256"
        },
        {
          "name": "",
          "type": "address"
        }
      ],
      "payable": false,
      "stateMutability": "view",
      "type": "function"
    },
    {
      "constant": true,
      "inputs": [
        {
          "name": "_wallet",
          "type": "address"
        }
      ],
      "name": "getReputationInfoByWallet",
      "outputs": [
        {
          "name": "",
          "type": "address"
        },
        {
          "name": "",
          "type": "uint256"
        },
        {
          "name": "",
          "type": "uint256"
        },
        {
          "name": "",
          "type": "address"
        }
      ],
      "payable": false,
      "stateMutability": "view",
      "type": "function"
    },
    {
      "constant": true,
      "inputs": [],
      "name": "getReputationsLength",
      "outputs": [
        {
          "name": "",
          "type": "uint256"
        }
      ],
      "payable": false,
      "stateMutability": "view",
      "type": "function"
    },
    {
      "constant": true,
      "inputs": [],
      "name": "getDataContractAddress",
      "outputs": [
        {
          "name": "",
          "type": "address"
        }
      ],
      "payable": false,
      "stateMutability": "view",
      "type": "function"
    },
    {
      "constant": false,
      "inputs": [
        {
          "name": "_reputationData",
          "type": "address"
        }
      ],
      "name": "setDataContract",
      "outputs": [],
      "payable": false,
      "stateMutability": "nonpayable",
      "type": "function"
    },
    {
      "constant": false,
      "inputs": [
        {
          "name": "_address",
          "type": "address"
        }
      ],
      "name": "setSplytManager",
      "outputs": [],
      "payable": false,
      "stateMutability": "nonpayable",
      "type": "function"
    },
    {
      "constant": true,
      "inputs": [
        {
          "name": "_wallet",
          "type": "address"
        }
      ],
      "name": "getReputationAddressByWallet",
      "outputs": [
        {
          "name": "",
          "type": "address"
        }
      ],
      "payable": false,
      "stateMutability": "view",
      "type": "function"
    },
    {
      "constant": true,
      "inputs": [
        {
          "name": "_address",
          "type": "address"
        }
      ],
      "name": "isManager",
      "outputs": [
        {
          "name": "",
          "type": "bool"
        }
      ],
      "payable": false,
      "stateMutability": "view",
      "type": "function"
    },
    {
      "constant": true,
      "inputs": [
        {
          "name": "_wallet",
          "type": "address"
        }
      ],
      "name": "getAverageRatingByWallet",
      "outputs": [
        {
          "name": "",
          "type": "uint256"
        }
      ],
      "payable": false,
      "stateMutability": "view",
      "type": "function"
    },
    {
      "constant": true,
      "inputs": [
        {
          "name": "_wallet",
          "type": "address"
        }
      ],
      "name": "getTotalRatingByWallet",
      "outputs": [
        {
          "name": "",
          "type": "uint256"
        }
      ],
      "payable": false,
      "stateMutability": "view",
      "type": "function"
    },
    {
      "constant": false,
      "inputs": [
        {
          "name": "_newAddress",
          "type": "address"
        }
      ],
      "name": "transferOwnership",
      "outputs": [],
      "payable": false,
      "stateMutability": "nonpayable",
      "type": "function"
    },
    {
      "constant": false,
      "inputs": [],
      "name": "acceptOwnership",
      "outputs": [],
      "payable": false,
      "stateMutability": "nonpayable",
      "type": "function"
    }
  ],
  "bytecode": "0x608060405234801561001057600080fd5b50604051602080611dab833981016040525160008054600160a060020a0319163317905561003c61008d565b604051809103906000f080158015610058573d6000803e3d6000fd5b5060028054600160a060020a03928316600160a060020a0319918216179091556003805493909216921691909117905561009d565b60405161036280611a4983390190565b61199d806100ac6000396000f3006080604052600436106100e25763ffffffff60e060020a60003504166303959bb781146100e7578063153c2ce11461010a5780632f594b89146101475780634dfdb2ff1461016b57806361e91ea11461019e578063639b4836146101b35780636657a766146101c857806379ba5097146101dd5780637b36563e146101f257806387d55642146102075780638da5cb5b146102285780639997f2271461023d578063a82aacbc1461025e578063e30c3978146102b3578063e61bc2c3146102c8578063f2fde38b146102e0578063f3ae241514610301578063fb43dfe614610336575b600080fd5b3480156100f357600080fd5b50610108600160a060020a036004351661038b565b005b34801561011657600080fd5b5061012b600160a060020a03600435166103d1565b60408051600160a060020a039092168252519081900360200190f35b34801561015357600080fd5b50610108600160a060020a0360043516602435610458565b34801561017757600080fd5b5061018c600160a060020a036004351661084b565b60408051918252519081900360200190f35b3480156101aa57600080fd5b5061012b610a56565b3480156101bf57600080fd5b5061012b610a65565b3480156101d457600080fd5b5061018c610a74565b3480156101e957600080fd5b50610108610b04565b3480156101fe57600080fd5b5061012b610b88565b34801561021357600080fd5b50610108600160a060020a0360043516610b97565b34801561023457600080fd5b5061012b610bf4565b34801561024957600080fd5b5061018c600160a060020a0360043516610c03565b34801561026a57600080fd5b5061027f600160a060020a0360043516610d95565b60408051600160a060020a039586168152602081019490945283810192909252909216606082015290519081900360800190f35b3480156102bf57600080fd5b5061012b610fb9565b3480156102d457600080fd5b5061027f600435610fc8565b3480156102ec57600080fd5b50610108600160a060020a0360043516611031565b34801561030d57600080fd5b50610322600160a060020a03600435166110e1565b604080519115158252519081900360200190f35b34801561034257600080fd5b5061035a600160a060020a036004351660243561114c565b60408051948552600160a060020a039384166020860152848101929092529091166060830152519081900360800190f35b600054600160a060020a031633146103a257600080fd5b6002805473ffffffffffffffffffffffffffffffffffffffff1916600160a060020a0392909216919091179055565b6002546040805160e260020a6335c18109028152600160a060020a0384811660048301529151600093929092169163d70604249160248082019260209290919082900301818787803b15801561042657600080fd5b505af115801561043a573d6000803e3d6000fd5b505050506040513d602081101561045057600080fd5b505192915050565b6000806000806000856000811180156104715750600681105b151561047c57600080fd5b6002546040805160e260020a6335c18109028152600160a060020a038b811660048301529151919092169163d70604249160248083019260209291908290030181600087803b1580156104ce57600080fd5b505af11580156104e2573d6000803e3d6000fd5b505050506040513d60208110156104f857600080fd5b50519550600160a060020a03861615156105fb57878733610517611289565b600160a060020a03938416815260208101929092529091166040808301919091525190819003606001906000f080158015610556573d6000803e3d6000fd5b50600254604080517f3326fed5000000000000000000000000000000000000000000000000000000008152600160a060020a038c8116600483015280851660248301529151939850911691633326fed5916044808201926020929091908290030181600087803b1580156105c957600080fd5b505af11580156105dd573d6000803e3d6000fd5b505050506040513d60208110156105f357600080fd5b506107fd9050565b85935060009250600091505b83600160a060020a031663381c5cb56040518163ffffffff1660e060020a028152600401602060405180830381600087803b15801561064557600080fd5b505af1158015610659573d6000803e3d6000fd5b505050506040513d602081101561066f57600080fd5b50518210156107765783600160a060020a031663f1713a36836040518263ffffffff1660e060020a02815260040180828152602001915050602060405180830381600087803b1580156106c157600080fd5b505af11580156106d5573d6000803e3d6000fd5b505050506040513d60208110156106eb57600080fd5b5051600160a060020a031633141561076b5783600160a060020a031663405abb4183896040518363ffffffff1660e060020a0281526004018083815260200182815260200192505050600060405180830381600087803b15801561074e57600080fd5b505af1158015610762573d6000803e3d6000fd5b50505050600192505b600190910190610607565b8215156107fd57604080517f274d0b4d000000000000000000000000000000000000000000000000000000008152600481018990523360248201529051600160a060020a0386169163274d0b4d91604480830192600092919082900301818387803b1580156107e457600080fd5b505af11580156107f8573d6000803e3d6000fd5b505050505b6040805160058152600160a060020a038816602082015281517f2539b4cc2b40f86b739ed651d0bf19a6b3db2c37cde9a6de9bd20707832c2677929181900390910190a15050505050505050565b6002546040805160e260020a6335c18109028152600160a060020a03848116600483015291516000938493849384938493929092169163d70604249160248082019260209290919082900301818787803b1580156108a857600080fd5b505af11580156108bc573d6000803e3d6000fd5b505050506040513d60208110156108d257600080fd5b50519350839250600091508190505b82600160a060020a031663381c5cb56040518163ffffffff1660e060020a028152600401602060405180830381600087803b15801561091f57600080fd5b505af1158015610933573d6000803e3d6000fd5b505050506040513d602081101561094957600080fd5b50518110156109d45782600160a060020a031663b5ba833d826040518263ffffffff1660e060020a02815260040180828152602001915050602060405180830381600087803b15801561099b57600080fd5b505af11580156109af573d6000803e3d6000fd5b505050506040513d60208110156109c557600080fd5b505191909101906001016108e1565b82600160a060020a031663381c5cb56040518163ffffffff1660e060020a028152600401602060405180830381600087803b158015610a1257600080fd5b505af1158015610a26573d6000803e3d6000fd5b505050506040513d6020811015610a3c57600080fd5b505160648302811515610a4b57fe5b049695505050505050565b600254600160a060020a031690565b600254600160a060020a031681565b600254604080517f2986c0e50000000000000000000000000000000000000000000000000000000081529051600092600160a060020a031691632986c0e591600480830192602092919082900301818787803b158015610ad357600080fd5b505af1158015610ae7573d6000803e3d6000fd5b505050506040513d6020811015610afd57600080fd5b5051905090565b600054600160a060020a03163314610b1b57600080fd5b600260009054906101000a9004600160a060020a0316600160a060020a03166379ba50976040518163ffffffff1660e060020a028152600401600060405180830381600087803b158015610b6e57600080fd5b505af1158015610b82573d6000803e3d6000fd5b50505050565b600354600160a060020a031681565b600054600160a060020a0316331480610bba5750600354600160a060020a031633145b1515610bc557600080fd5b6003805473ffffffffffffffffffffffffffffffffffffffff1916600160a060020a0392909216919091179055565b600054600160a060020a031681565b6002546040805160e260020a6335c18109028152600160a060020a03848116600483015291516000938493849384938493929092169163d70604249160248082019260209290919082900301818787803b158015610c6057600080fd5b505af1158015610c74573d6000803e3d6000fd5b505050506040513d6020811015610c8a57600080fd5b50519350839250600091508190505b82600160a060020a031663381c5cb56040518163ffffffff1660e060020a028152600401602060405180830381600087803b158015610cd757600080fd5b505af1158015610ceb573d6000803e3d6000fd5b505050506040513d6020811015610d0157600080fd5b5051811015610d8c5782600160a060020a031663b5ba833d826040518263ffffffff1660e060020a02815260040180828152602001915050602060405180830381600087803b158015610d5357600080fd5b505af1158015610d67573d6000803e3d6000fd5b505050506040513d6020811015610d7d57600080fd5b50519190910190600101610c99565b50949350505050565b6002546040805160e260020a6335c18109028152600160a060020a038481166004830152915160009384938493849384938493849391169163d70604249160248082019260209290919082900301818787803b158015610df457600080fd5b505af1158015610e08573d6000803e3d6000fd5b505050506040513d6020811015610e1e57600080fd5b5051604080517f381c5cb50000000000000000000000000000000000000000000000000000000081529051919450600160a060020a0385169163381c5cb5916004808201926020929091908290030181600087803b158015610e7f57600080fd5b505af1158015610e93573d6000803e3d6000fd5b505050506040513d6020811015610ea957600080fd5b5051604080517f521eb2730000000000000000000000000000000000000000000000000000000081529051919350610f3e91600160a060020a0386169163521eb2739160048083019260209291908290030181600087803b158015610f0d57600080fd5b505af1158015610f21573d6000803e3d6000fd5b505050506040513d6020811015610f3757600080fd5b505161084b565b905082600160a060020a031663521eb2736040518163ffffffff1660e060020a028152600401602060405180830381600087803b158015610f7e57600080fd5b505af1158015610f92573d6000803e3d6000fd5b505050506040513d6020811015610fa857600080fd5b505196509450925090509193509193565b600154600160a060020a031681565b6000806000806000806000600260009054906101000a9004600160a060020a0316600160a060020a031663fa32d38c896040518263ffffffff1660e060020a02815260040180828152602001915050602060405180830381600087803b158015610df457600080fd5b600054600160a060020a03163314806110545750600354600160a060020a031633145b151561105f57600080fd5b600254604080517ff2fde38b000000000000000000000000000000000000000000000000000000008152600160a060020a0384811660048301529151919092169163f2fde38b91602480830192600092919082900301818387803b1580156110c657600080fd5b505af11580156110da573d6000803e3d6000fd5b5050505050565b600354604080517ff3ae2415000000000000000000000000000000000000000000000000000000008152600160a060020a0384811660048301529151600093929092169163f3ae24159160248082019260209290919082900301818787803b15801561042657600080fd5b6002546040805160e260020a6335c18109028152600160a060020a03858116600483015291516000938493849384938493929092169163d70604249160248082019260209290919082900301818787803b1580156111a957600080fd5b505af11580156111bd573d6000803e3d6000fd5b505050506040513d60208110156111d357600080fd5b5051604080517f160b87da000000000000000000000000000000000000000000000000000000008152600481018990529051919250600160a060020a0383169163160b87da916024808201926080929091908290030181600087803b15801561123b57600080fd5b505af115801561124f573d6000803e3d6000fd5b505050506040513d608081101561126557600080fd5b50805160208201516040830151606090930151919a90995091975095509350505050565b6040516106d88061129a833901905600608060405234801561001057600080fd5b506040516060806106d883398101604081815282516020808501519483015160008054600160a060020a03948516600160a060020a0319918216178255606087018652968652908316918501918252429385019384526001805480820182559152935160039094027fb10e2d527612073b26eecdfd717e6a320cf44b4afac2b0732d9fcbe2b7fa0cf6810194909455517fb10e2d527612073b26eecdfd717e6a320cf44b4afac2b0732d9fcbe2b7fa0cf7840180549190921694169390931790925590517fb10e2d527612073b26eecdfd717e6a320cf44b4afac2b0732d9fcbe2b7fa0cf8909101556105d0806101086000396000f3006080604052600436106100985763ffffffff7c0100000000000000000000000000000000000000000000000000000000600035041663160b87da811461009d578063274d0b4d146100e6578063381c5cb51461010c578063405abb4114610133578063521eb2731461014e578063b5ba833d1461017f578063dd418ae214610197578063f1713a36146101d5578063fdca5e45146101ed575b600080fd5b3480156100a957600080fd5b506100b5600435610205565b60408051948552600160a060020a039384166020860152848101929092529091166060830152519081900360800190f35b3480156100f257600080fd5b5061010a600435600160a060020a036024351661028b565b005b34801561011857600080fd5b506101216103ec565b60408051918252519081900360200190f35b34801561013f57600080fd5b5061010a6004356024356103f2565b34801561015a57600080fd5b506101636104d0565b60408051600160a060020a039092168252519081900360200190f35b34801561018b57600080fd5b506101216004356104df565b3480156101a357600080fd5b506101af600435610509565b60408051938452600160a060020a03909216602084015282820152519081900360600190f35b3480156101e157600080fd5b50610163600435610546565b3480156101f957600080fd5b5061012160043561057a565b60008060008060018581548110151561021a57fe5b90600052602060002090600302016000015460018681548110151561023b57fe5b6000918252602090912060016003909202018101548154600160a060020a0390911691908890811061026957fe5b9060005260206000209060030201600201543093509350935093509193509193565b604080517ff3ae24150000000000000000000000000000000000000000000000000000000081523360048201819052915163f3ae2415916024808201926020929091908290030181600087803b1580156102e457600080fd5b505af11580156102f8573d6000803e3d6000fd5b505050506040513d602081101561030e57600080fd5b5051151560011461031e57600080fd5b60408051606081018252928352600160a060020a03918216602084019081524291840191825260018054808201825560009190915293517fb10e2d527612073b26eecdfd717e6a320cf44b4afac2b0732d9fcbe2b7fa0cf6600390950294850155517fb10e2d527612073b26eecdfd717e6a320cf44b4afac2b0732d9fcbe2b7fa0cf78401805473ffffffffffffffffffffffffffffffffffffffff19169190931617909155517fb10e2d527612073b26eecdfd717e6a320cf44b4afac2b0732d9fcbe2b7fa0cf890910155565b60015490565b604080517ff3ae24150000000000000000000000000000000000000000000000000000000081523360048201819052915163f3ae2415916024808201926020929091908290030181600087803b15801561044b57600080fd5b505af115801561045f573d6000803e3d6000fd5b505050506040513d602081101561047557600080fd5b5051151560011461048557600080fd5b8060018381548110151561049557fe5b600091825260209091206003909102015560018054429190849081106104b757fe5b9060005260206000209060030201600201819055505050565b600054600160a060020a031681565b60006001828154811015156104f057fe5b9060005260206000209060030201600001549050919050565b600180548290811061051757fe5b6000918252602090912060039091020180546001820154600290920154909250600160a060020a039091169083565b600060018281548110151561055757fe5b6000918252602090912060039091020160010154600160a060020a031692915050565b600060018281548110151561058b57fe5b90600052602060002090600302016002015490509190505600a165627a7a723058206c0c9cc9dfea12b7f49618b987b196716b29282cf6d7f0e642a4e8ded81223810029a165627a7a72305820004849037b371ab49d377ca81fdca8b7f7cb71e2d83b6872afdc1bdd0df19c9b0029608060405260008054600160a060020a0319163317905561033d806100256000396000f30060806040526004361061008d5763ffffffff7c01000000000000000000000000000000000000000000000000000000006000350416632986c0e581146100925780633326fed5146100b957806379ba5097146100f45780638da5cb5b1461010b578063d70604241461013c578063e30c39781461015d578063f2fde38b14610172578063fa32d38c14610193575b600080fd5b34801561009e57600080fd5b506100a76101ab565b60408051918252519081900360200190f35b3480156100c557600080fd5b506100e0600160a060020a03600435811690602435166101b1565b604080519115158252519081900360200190f35b34801561010057600080fd5b5061010961022f565b005b34801561011757600080fd5b50610120610277565b60408051600160a060020a039092168252519081900360200190f35b34801561014857600080fd5b50610120600160a060020a0360043516610286565b34801561016957600080fd5b506101206102a1565b34801561017e57600080fd5b50610109600160a060020a03600435166102b0565b34801561019f57600080fd5b506101206004356102f6565b60045481565b60008054600160a060020a031633146101c957600080fd5b50600160a060020a03918216600090815260026020908152604080832080549490951673ffffffffffffffffffffffffffffffffffffffff1994851681179095556004805484526003909252909120805490921690921790558054600190810190915590565b600154600160a060020a0316331461024657600080fd5b6001546000805473ffffffffffffffffffffffffffffffffffffffff1916600160a060020a03909216919091179055565b600054600160a060020a031681565b600260205260009081526040902054600160a060020a031681565b600154600160a060020a031681565b600054600160a060020a031633146102c757600080fd5b6001805473ffffffffffffffffffffffffffffffffffffffff1916600160a060020a0392909216919091179055565b600360205260009081526040902054600160a060020a0316815600a165627a7a72305820e4d3769398267e79fdeaa8167b6aac6e2e7291fcb319832717ec3242599c8d7d0029",
  "source": "pragma solidity ^0.4.24;\n\nimport \"./Owned.sol\";\nimport \"./Events.sol\";\n\nimport \"./Reputation.sol\";\nimport \"./ReputationData.sol\";\nimport \"./SplytManager.sol\";\n\ncontract ReputationManager is Owned, Events  {\n    \n    ReputationData public reputationData;\n    SplytManager public splytManager;\n\n    //@dev allow owner or splytManager\n    modifier onlyOwnerOrSplyt() {\n        require(owner == msg.sender || address(splytManager) == msg.sender);\n        _;\n    }\n\n    //@dev only within 1-5\n    modifier onlyValidRange(uint _rating) {\n        require( _rating > 0 && _rating < 6);\n        _;\n    }\n\n    constructor(address _splytManager) public {\n        reputationData = new ReputationData();\n        splytManager = SplytManager(_splytManager);\n    }\n\n    //@dev only create new review when it creates first review\n    function createRate(address _wallet, uint _rating) public onlyValidRange(_rating) {\n\n         address reputationAddress = reputationData.reputationByWallet(_wallet);\n\n         if (reputationAddress == address(0)) {\n            Reputation reputation = new Reputation(_wallet, _rating, msg.sender);\n            reputationData.save(_wallet, address(reputation));\n         } else {\n            Reputation rep = Reputation(reputationAddress);\n            //@if found,update else create new\n            bool found = false;\n            for (uint i =0; i < rep.getRatesLength(); i++) {\n                if (msg.sender == rep.getRaterByIndex(i)) {\n                    rep.updateRate(i, _rating);\n                    found = true;\n                }              \n            }\n            if (!found) {\n                rep.addRate(_rating, msg.sender);\n            }\n         }\n\n         emit Success(5, reputationAddress);   \n    }\n\n    //@dev get review information\n    function getRateInfoByWalletAndIndex(address _wallet, uint _index) public view returns (uint, address, uint, address) {\n\n        Reputation rep = Reputation(reputationData.reputationByWallet(_wallet));\n        return rep.getRateInfoByIndex(_index);      \n    }  \n\n    //@dev get review information\n    function getReputationInfoByIndex(uint _index) public view returns (address, uint, uint, address) {\n\n        Reputation rep = Reputation(reputationData.reputationByIndex(_index));\n        uint length = rep.getRatesLength();\n        uint average = getAverageRatingByWallet(rep.wallet());\n\n        return (rep.wallet(), average, length, address(rep));      \n    }  \n\n    //@dev get review information\n    function getReputationInfoByWallet(address _wallet) public view returns (address, uint, uint, address) {\n\n        Reputation rep = Reputation(reputationData.reputationByWallet(_wallet));\n        uint length = rep.getRatesLength();\n        uint average = getAverageRatingByWallet(rep.wallet());\n\n        return (rep.wallet(), average, length, address(rep));      \n    }  \n\n\n    function getReputationsLength() public view returns (uint) {\n       return reputationData.index();\n    }\n\n\n    function getDataContractAddress() public view returns (address) {\n       return address(reputationData);\n    }\n\n\n    //@dev update data contract address\n    function setDataContract(address _reputationData) onlyOwner public {\n       reputationData = ReputationData(_reputationData);\n    }\n\n    //@dev get asset stat\n\n    function setSplytManager(address _address) public onlyOwnerOrSplyt {\n        splytManager = SplytManager(_address);\n    }\n\n\n    function getReputationAddressByWallet(address _wallet) public view returns (address) {\n      return reputationData.reputationByWallet(_wallet);\n    }  \n\n    //@dev checks if address is authorized write to the data contracts\n    function isManager(address _address) public view returns (bool) {\n        return splytManager.isManager(_address);\n    }\n   \n    //@dev assume 2 decimals\n    function getAverageRatingByWallet(address _wallet) public view returns (uint) {\n        address reputationAddress = reputationData.reputationByWallet(_wallet);\n        Reputation rep = Reputation(reputationAddress);\n        uint totalScore = 0;\n        for (uint i =0; i < rep.getRatesLength(); i++) {\n            totalScore += rep.getRatingByIndex(i);\n        }\n       return ((totalScore * 100) / rep.getRatesLength());\n\n    } \n    //@dev get total ratings\n    function getTotalRatingByWallet(address _wallet) public view returns (uint) {\n        address reputationAddress = reputationData.reputationByWallet(_wallet);\n        Reputation rep = Reputation(reputationAddress);\n        uint totalScore = 0;\n        for (uint i =0; i < rep.getRatesLength(); i++) {\n            totalScore += rep.getRatingByIndex(i);\n        }\n       return totalScore;\n\n    } \n    \n   //@dev new manager contract that's going to be replacing this\n   //Old manager call this function and proposes the new address\n    function transferOwnership(address _newAddress) public onlyOwnerOrSplyt {\n        reputationData.transferOwnership(_newAddress);\n    }\n\n    //@dev if new data contract is deployed, the creator proposes manager adress then the manager needs to accept\n    //The new updated manager contract calls this function\n    function acceptOwnership() public onlyOwner {\n        reputationData.acceptOwnership();\n    }\n\n} ",
  "sourcePath": "/Users/scott/git/splytprotocol/contracts/ReputationManager.sol",
  "compiler": {
    "name": "solc",
    "version": "0.4.24+commit.e67f0147.Emscripten.clang"
  },
  "schemaVersion": "2.0.1",
  "updatedAt": "2018-11-06T23:35:18.659Z"
}