{
  "contractName": "ReputationManager",
  "abi": [
    {
      "constant": true,
      "inputs": [],
      "name": "reputationData",
      "outputs": [
        {
          "name": "",
          "type": "address"
        }
      ],
      "payable": false,
      "stateMutability": "view",
      "type": "function"
    },
    {
      "constant": true,
      "inputs": [],
      "name": "splytManager",
      "outputs": [
        {
          "name": "",
          "type": "address"
        }
      ],
      "payable": false,
      "stateMutability": "view",
      "type": "function"
    },
    {
      "constant": true,
      "inputs": [],
      "name": "owner",
      "outputs": [
        {
          "name": "",
          "type": "address"
        }
      ],
      "payable": false,
      "stateMutability": "view",
      "type": "function"
    },
    {
      "constant": true,
      "inputs": [],
      "name": "pendingOwner",
      "outputs": [
        {
          "name": "",
          "type": "address"
        }
      ],
      "payable": false,
      "stateMutability": "view",
      "type": "function"
    },
    {
      "inputs": [
        {
          "name": "_splytManager",
          "type": "address"
        }
      ],
      "payable": false,
      "stateMutability": "nonpayable",
      "type": "constructor"
    },
    {
      "anonymous": false,
      "inputs": [
        {
          "indexed": false,
          "name": "_code",
          "type": "uint256"
        },
        {
          "indexed": false,
          "name": "_assetAddress",
          "type": "address"
        },
        {
          "indexed": false,
          "name": "_message",
          "type": "string"
        }
      ],
      "name": "Error",
      "type": "event"
    },
    {
      "anonymous": false,
      "inputs": [
        {
          "indexed": false,
          "name": "_code",
          "type": "uint256"
        },
        {
          "indexed": false,
          "name": "_address",
          "type": "address"
        }
      ],
      "name": "Success",
      "type": "event"
    },
    {
      "constant": false,
      "inputs": [
        {
          "name": "_wallet",
          "type": "address"
        },
        {
          "name": "_rating",
          "type": "uint256"
        }
      ],
      "name": "createRate",
      "outputs": [],
      "payable": false,
      "stateMutability": "nonpayable",
      "type": "function"
    },
    {
      "constant": true,
      "inputs": [
        {
          "name": "_wallet",
          "type": "address"
        },
        {
          "name": "_index",
          "type": "uint256"
        }
      ],
      "name": "getRateInfoByWalletAndIndex",
      "outputs": [
        {
          "name": "",
          "type": "uint256"
        },
        {
          "name": "",
          "type": "address"
        },
        {
          "name": "",
          "type": "uint256"
        }
      ],
      "payable": false,
      "stateMutability": "view",
      "type": "function"
    },
    {
      "constant": true,
      "inputs": [
        {
          "name": "_index",
          "type": "uint256"
        }
      ],
      "name": "getReputationInfoByIndex",
      "outputs": [
        {
          "name": "",
          "type": "address"
        },
        {
          "name": "",
          "type": "uint256"
        },
        {
          "name": "",
          "type": "uint256"
        }
      ],
      "payable": false,
      "stateMutability": "view",
      "type": "function"
    },
    {
      "constant": true,
      "inputs": [
        {
          "name": "_wallet",
          "type": "address"
        }
      ],
      "name": "getReputationInfoByWallet",
      "outputs": [
        {
          "name": "",
          "type": "address"
        },
        {
          "name": "",
          "type": "uint256"
        },
        {
          "name": "",
          "type": "uint256"
        }
      ],
      "payable": false,
      "stateMutability": "view",
      "type": "function"
    },
    {
      "constant": true,
      "inputs": [],
      "name": "getReputationsLength",
      "outputs": [
        {
          "name": "",
          "type": "uint256"
        }
      ],
      "payable": false,
      "stateMutability": "view",
      "type": "function"
    },
    {
      "constant": true,
      "inputs": [],
      "name": "getDataContractAddress",
      "outputs": [
        {
          "name": "",
          "type": "address"
        }
      ],
      "payable": false,
      "stateMutability": "view",
      "type": "function"
    },
    {
      "constant": false,
      "inputs": [
        {
          "name": "_reputationData",
          "type": "address"
        }
      ],
      "name": "setDataContract",
      "outputs": [],
      "payable": false,
      "stateMutability": "nonpayable",
      "type": "function"
    },
    {
      "constant": false,
      "inputs": [
        {
          "name": "_address",
          "type": "address"
        }
      ],
      "name": "setSplytManager",
      "outputs": [],
      "payable": false,
      "stateMutability": "nonpayable",
      "type": "function"
    },
    {
      "constant": true,
      "inputs": [
        {
          "name": "_wallet",
          "type": "address"
        }
      ],
      "name": "getReputationAddressByWallet",
      "outputs": [
        {
          "name": "",
          "type": "address"
        }
      ],
      "payable": false,
      "stateMutability": "view",
      "type": "function"
    },
    {
      "constant": true,
      "inputs": [
        {
          "name": "_address",
          "type": "address"
        }
      ],
      "name": "isManager",
      "outputs": [
        {
          "name": "",
          "type": "bool"
        }
      ],
      "payable": false,
      "stateMutability": "view",
      "type": "function"
    },
    {
      "constant": true,
      "inputs": [
        {
          "name": "_wallet",
          "type": "address"
        }
      ],
      "name": "getAverageRatingByWallet",
      "outputs": [
        {
          "name": "",
          "type": "uint256"
        }
      ],
      "payable": false,
      "stateMutability": "view",
      "type": "function"
    },
    {
      "constant": true,
      "inputs": [
        {
          "name": "_wallet",
          "type": "address"
        }
      ],
      "name": "getTotalRatingByWallet",
      "outputs": [
        {
          "name": "",
          "type": "uint256"
        }
      ],
      "payable": false,
      "stateMutability": "view",
      "type": "function"
    },
    {
      "constant": false,
      "inputs": [
        {
          "name": "_newAddress",
          "type": "address"
        }
      ],
      "name": "transferOwnership",
      "outputs": [],
      "payable": false,
      "stateMutability": "nonpayable",
      "type": "function"
    },
    {
      "constant": false,
      "inputs": [],
      "name": "acceptOwnership",
      "outputs": [],
      "payable": false,
      "stateMutability": "nonpayable",
      "type": "function"
    }
  ],
  "bytecode": "0x608060405234801561001057600080fd5b50604051602080611d4c833981016040525160008054600160a060020a0319163317905561003c61008d565b604051809103906000f080158015610058573d6000803e3d6000fd5b5060028054600160a060020a03928316600160a060020a0319918216179091556003805493909216921691909117905561009d565b604051610362806119ea83390190565b61193e806100ac6000396000f3006080604052600436106100e25763ffffffff60e060020a60003504166303959bb781146100e7578063153c2ce11461010a5780632f594b89146101475780634dfdb2ff1461016b57806361e91ea11461019e578063639b4836146101b35780636657a766146101c857806379ba5097146101dd5780637b36563e146101f257806387d55642146102075780638da5cb5b146102285780639997f2271461023d578063a82aacbc1461025e578063e30c3978146102a7578063e61bc2c3146102bc578063f2fde38b146102d4578063f3ae2415146102f5578063fb43dfe61461032a575b600080fd5b3480156100f357600080fd5b50610108600160a060020a0360043516610374565b005b34801561011657600080fd5b5061012b600160a060020a03600435166103ba565b60408051600160a060020a039092168252519081900360200190f35b34801561015357600080fd5b50610108600160a060020a0360043516602435610441565b34801561017757600080fd5b5061018c600160a060020a0360043516610834565b60408051918252519081900360200190f35b3480156101aa57600080fd5b5061012b610a3f565b3480156101bf57600080fd5b5061012b610a4e565b3480156101d457600080fd5b5061018c610a5d565b3480156101e957600080fd5b50610108610aed565b3480156101fe57600080fd5b5061012b610b71565b34801561021357600080fd5b50610108600160a060020a0360043516610b80565b34801561023457600080fd5b5061012b610bdd565b34801561024957600080fd5b5061018c600160a060020a0360043516610bec565b34801561026a57600080fd5b5061027f600160a060020a0360043516610d7e565b60408051600160a060020a039094168452602084019290925282820152519081900360600190f35b3480156102b357600080fd5b5061012b610f9c565b3480156102c857600080fd5b5061027f600435610fab565b3480156102e057600080fd5b50610108600160a060020a0360043516611012565b34801561030157600080fd5b50610316600160a060020a03600435166110c2565b604080519115158252519081900360200190f35b34801561033657600080fd5b5061034e600160a060020a036004351660243561112d565b60408051938452600160a060020a03909216602084015282820152519081900360600190f35b600054600160a060020a0316331461038b57600080fd5b6002805473ffffffffffffffffffffffffffffffffffffffff1916600160a060020a0392909216919091179055565b6002546040805160e260020a6335c18109028152600160a060020a0384811660048301529151600093929092169163d70604249160248082019260209290919082900301818787803b15801561040f57600080fd5b505af1158015610423573d6000803e3d6000fd5b505050506040513d602081101561043957600080fd5b505192915050565b60008060008060008560008111801561045a5750600681105b151561046557600080fd5b6002546040805160e260020a6335c18109028152600160a060020a038b811660048301529151919092169163d70604249160248083019260209291908290030181600087803b1580156104b757600080fd5b505af11580156104cb573d6000803e3d6000fd5b505050506040513d60208110156104e157600080fd5b50519550600160a060020a03861615156105e45787873361050061125f565b600160a060020a03938416815260208101929092529091166040808301919091525190819003606001906000f08015801561053f573d6000803e3d6000fd5b50600254604080517f3326fed5000000000000000000000000000000000000000000000000000000008152600160a060020a038c8116600483015280851660248301529151939850911691633326fed5916044808201926020929091908290030181600087803b1580156105b257600080fd5b505af11580156105c6573d6000803e3d6000fd5b505050506040513d60208110156105dc57600080fd5b506107e69050565b85935060009250600091505b83600160a060020a031663381c5cb56040518163ffffffff1660e060020a028152600401602060405180830381600087803b15801561062e57600080fd5b505af1158015610642573d6000803e3d6000fd5b505050506040513d602081101561065857600080fd5b505182101561075f5783600160a060020a031663f1713a36836040518263ffffffff1660e060020a02815260040180828152602001915050602060405180830381600087803b1580156106aa57600080fd5b505af11580156106be573d6000803e3d6000fd5b505050506040513d60208110156106d457600080fd5b5051600160a060020a03163314156107545783600160a060020a031663405abb4183896040518363ffffffff1660e060020a0281526004018083815260200182815260200192505050600060405180830381600087803b15801561073757600080fd5b505af115801561074b573d6000803e3d6000fd5b50505050600192505b6001909101906105f0565b8215156107e657604080517f274d0b4d000000000000000000000000000000000000000000000000000000008152600481018990523360248201529051600160a060020a0386169163274d0b4d91604480830192600092919082900301818387803b1580156107cd57600080fd5b505af11580156107e1573d6000803e3d6000fd5b505050505b6040805160058152600160a060020a038816602082015281517f2539b4cc2b40f86b739ed651d0bf19a6b3db2c37cde9a6de9bd20707832c2677929181900390910190a15050505050505050565b6002546040805160e260020a6335c18109028152600160a060020a03848116600483015291516000938493849384938493929092169163d70604249160248082019260209290919082900301818787803b15801561089157600080fd5b505af11580156108a5573d6000803e3d6000fd5b505050506040513d60208110156108bb57600080fd5b50519350839250600091508190505b82600160a060020a031663381c5cb56040518163ffffffff1660e060020a028152600401602060405180830381600087803b15801561090857600080fd5b505af115801561091c573d6000803e3d6000fd5b505050506040513d602081101561093257600080fd5b50518110156109bd5782600160a060020a031663b5ba833d826040518263ffffffff1660e060020a02815260040180828152602001915050602060405180830381600087803b15801561098457600080fd5b505af1158015610998573d6000803e3d6000fd5b505050506040513d60208110156109ae57600080fd5b505191909101906001016108ca565b82600160a060020a031663381c5cb56040518163ffffffff1660e060020a028152600401602060405180830381600087803b1580156109fb57600080fd5b505af1158015610a0f573d6000803e3d6000fd5b505050506040513d6020811015610a2557600080fd5b505160648302811515610a3457fe5b049695505050505050565b600254600160a060020a031690565b600254600160a060020a031681565b600254604080517f2986c0e50000000000000000000000000000000000000000000000000000000081529051600092600160a060020a031691632986c0e591600480830192602092919082900301818787803b158015610abc57600080fd5b505af1158015610ad0573d6000803e3d6000fd5b505050506040513d6020811015610ae657600080fd5b5051905090565b600054600160a060020a03163314610b0457600080fd5b600260009054906101000a9004600160a060020a0316600160a060020a03166379ba50976040518163ffffffff1660e060020a028152600401600060405180830381600087803b158015610b5757600080fd5b505af1158015610b6b573d6000803e3d6000fd5b50505050565b600354600160a060020a031681565b600054600160a060020a0316331480610ba35750600354600160a060020a031633145b1515610bae57600080fd5b6003805473ffffffffffffffffffffffffffffffffffffffff1916600160a060020a0392909216919091179055565b600054600160a060020a031681565b6002546040805160e260020a6335c18109028152600160a060020a03848116600483015291516000938493849384938493929092169163d70604249160248082019260209290919082900301818787803b158015610c4957600080fd5b505af1158015610c5d573d6000803e3d6000fd5b505050506040513d6020811015610c7357600080fd5b50519350839250600091508190505b82600160a060020a031663381c5cb56040518163ffffffff1660e060020a028152600401602060405180830381600087803b158015610cc057600080fd5b505af1158015610cd4573d6000803e3d6000fd5b505050506040513d6020811015610cea57600080fd5b5051811015610d755782600160a060020a031663b5ba833d826040518263ffffffff1660e060020a02815260040180828152602001915050602060405180830381600087803b158015610d3c57600080fd5b505af1158015610d50573d6000803e3d6000fd5b505050506040513d6020811015610d6657600080fd5b50519190910190600101610c82565b50949350505050565b6002546040805160e260020a6335c18109028152600160a060020a038481166004830152915160009384938493849384938493169163d706042491602480830192602092919082900301818787803b158015610dd957600080fd5b505af1158015610ded573d6000803e3d6000fd5b505050506040513d6020811015610e0357600080fd5b5051604080517f381c5cb50000000000000000000000000000000000000000000000000000000081529051919450600160a060020a0385169163381c5cb5916004808201926020929091908290030181600087803b158015610e6457600080fd5b505af1158015610e78573d6000803e3d6000fd5b505050506040513d6020811015610e8e57600080fd5b5051604080517f521eb2730000000000000000000000000000000000000000000000000000000081529051919350610f2391600160a060020a0386169163521eb2739160048083019260209291908290030181600087803b158015610ef257600080fd5b505af1158015610f06573d6000803e3d6000fd5b505050506040513d6020811015610f1c57600080fd5b5051610834565b905082600160a060020a031663521eb2736040518163ffffffff1660e060020a028152600401602060405180830381600087803b158015610f6357600080fd5b505af1158015610f77573d6000803e3d6000fd5b505050506040513d6020811015610f8d57600080fd5b50519790965090945092505050565b600154600160a060020a031681565b600080600080600080600260009054906101000a9004600160a060020a0316600160a060020a031663fa32d38c886040518263ffffffff1660e060020a02815260040180828152602001915050602060405180830381600087803b158015610dd957600080fd5b600054600160a060020a03163314806110355750600354600160a060020a031633145b151561104057600080fd5b600254604080517ff2fde38b000000000000000000000000000000000000000000000000000000008152600160a060020a0384811660048301529151919092169163f2fde38b91602480830192600092919082900301818387803b1580156110a757600080fd5b505af11580156110bb573d6000803e3d6000fd5b5050505050565b600354604080517ff3ae2415000000000000000000000000000000000000000000000000000000008152600160a060020a0384811660048301529151600093929092169163f3ae24159160248082019260209290919082900301818787803b15801561040f57600080fd5b6002546040805160e260020a6335c18109028152600160a060020a0385811660048301529151600093849384938493919092169163d706042491602480830192602092919082900301818787803b15801561118757600080fd5b505af115801561119b573d6000803e3d6000fd5b505050506040513d60208110156111b157600080fd5b5051604080517f160b87da000000000000000000000000000000000000000000000000000000008152600481018890529051919250600160a060020a0383169163160b87da916024808201926060929091908290030181600087803b15801561121957600080fd5b505af115801561122d573d6000803e3d6000fd5b505050506040513d606081101561124357600080fd5b5080516020820151604090920151909891975095509350505050565b6040516106a380611270833901905600608060405234801561001057600080fd5b506040516060806106a383398101604081815282516020808501519483015160008054600160a060020a03948516600160a060020a0319918216178255606087018652968652908316918501918252429385019384526001805480820182559152935160039094027fb10e2d527612073b26eecdfd717e6a320cf44b4afac2b0732d9fcbe2b7fa0cf6810194909455517fb10e2d527612073b26eecdfd717e6a320cf44b4afac2b0732d9fcbe2b7fa0cf7840180549190921694169390931790925590517fb10e2d527612073b26eecdfd717e6a320cf44b4afac2b0732d9fcbe2b7fa0cf89091015561059b806101086000396000f3006080604052600436106100985763ffffffff7c0100000000000000000000000000000000000000000000000000000000600035041663160b87da811461009d578063274d0b4d146100db578063381c5cb514610101578063405abb4114610128578063521eb27314610143578063b5ba833d14610174578063dd418ae21461018c578063f1713a36146101a4578063fdca5e45146101bc575b600080fd5b3480156100a957600080fd5b506100b56004356101d4565b60408051938452600160a060020a03909216602084015282820152519081900360600190f35b3480156100e757600080fd5b506100ff600435600160a060020a0360243516610256565b005b34801561010d57600080fd5b506101166103b7565b60408051918252519081900360200190f35b34801561013457600080fd5b506100ff6004356024356103bd565b34801561014f57600080fd5b5061015861049b565b60408051600160a060020a039092168252519081900360200190f35b34801561018057600080fd5b506101166004356104aa565b34801561019857600080fd5b506100b56004356104d4565b3480156101b057600080fd5b50610158600435610511565b3480156101c857600080fd5b50610116600435610545565b60008060006001848154811015156101e857fe5b90600052602060002090600302016000015460018581548110151561020957fe5b6000918252602090912060016003909202018101548154600160a060020a0390911691908790811061023757fe5b9060005260206000209060030201600201549250925092509193909250565b604080517ff3ae24150000000000000000000000000000000000000000000000000000000081523360048201819052915163f3ae2415916024808201926020929091908290030181600087803b1580156102af57600080fd5b505af11580156102c3573d6000803e3d6000fd5b505050506040513d60208110156102d957600080fd5b505115156001146102e957600080fd5b60408051606081018252928352600160a060020a03918216602084019081524291840191825260018054808201825560009190915293517fb10e2d527612073b26eecdfd717e6a320cf44b4afac2b0732d9fcbe2b7fa0cf6600390950294850155517fb10e2d527612073b26eecdfd717e6a320cf44b4afac2b0732d9fcbe2b7fa0cf78401805473ffffffffffffffffffffffffffffffffffffffff19169190931617909155517fb10e2d527612073b26eecdfd717e6a320cf44b4afac2b0732d9fcbe2b7fa0cf890910155565b60015490565b604080517ff3ae24150000000000000000000000000000000000000000000000000000000081523360048201819052915163f3ae2415916024808201926020929091908290030181600087803b15801561041657600080fd5b505af115801561042a573d6000803e3d6000fd5b505050506040513d602081101561044057600080fd5b5051151560011461045057600080fd5b8060018381548110151561046057fe5b6000918252602090912060039091020155600180544291908490811061048257fe5b9060005260206000209060030201600201819055505050565b600054600160a060020a031681565b60006001828154811015156104bb57fe5b9060005260206000209060030201600001549050919050565b60018054829081106104e257fe5b6000918252602090912060039091020180546001820154600290920154909250600160a060020a039091169083565b600060018281548110151561052257fe5b6000918252602090912060039091020160010154600160a060020a031692915050565b600060018281548110151561055657fe5b90600052602060002090600302016002015490509190505600a165627a7a723058201d4ed82f96ad01d3bd7a6f709c2f265bb80cf6f8678d51340110bd39fea4bff40029a165627a7a72305820712400a99fdef64810482da9167fdd5c667079916b8c4f6774b28a4e535540fe0029608060405260008054600160a060020a0319163317905561033d806100256000396000f30060806040526004361061008d5763ffffffff7c01000000000000000000000000000000000000000000000000000000006000350416632986c0e581146100925780633326fed5146100b957806379ba5097146100f45780638da5cb5b1461010b578063d70604241461013c578063e30c39781461015d578063f2fde38b14610172578063fa32d38c14610193575b600080fd5b34801561009e57600080fd5b506100a76101ab565b60408051918252519081900360200190f35b3480156100c557600080fd5b506100e0600160a060020a03600435811690602435166101b1565b604080519115158252519081900360200190f35b34801561010057600080fd5b5061010961022f565b005b34801561011757600080fd5b50610120610277565b60408051600160a060020a039092168252519081900360200190f35b34801561014857600080fd5b50610120600160a060020a0360043516610286565b34801561016957600080fd5b506101206102a1565b34801561017e57600080fd5b50610109600160a060020a03600435166102b0565b34801561019f57600080fd5b506101206004356102f6565b60045481565b60008054600160a060020a031633146101c957600080fd5b50600160a060020a03918216600090815260026020908152604080832080549490951673ffffffffffffffffffffffffffffffffffffffff1994851681179095556004805484526003909252909120805490921690921790558054600190810190915590565b600154600160a060020a0316331461024657600080fd5b6001546000805473ffffffffffffffffffffffffffffffffffffffff1916600160a060020a03909216919091179055565b600054600160a060020a031681565b600260205260009081526040902054600160a060020a031681565b600154600160a060020a031681565b600054600160a060020a031633146102c757600080fd5b6001805473ffffffffffffffffffffffffffffffffffffffff1916600160a060020a0392909216919091179055565b600360205260009081526040902054600160a060020a0316815600a165627a7a72305820e4d3769398267e79fdeaa8167b6aac6e2e7291fcb319832717ec3242599c8d7d0029",
  "source": "pragma solidity ^0.4.24;\n\nimport \"./Owned.sol\";\nimport \"./Events.sol\";\n\nimport \"./Reputation.sol\";\nimport \"./ReputationData.sol\";\nimport \"./SplytManager.sol\";\n\ncontract ReputationManager is Owned, Events  {\n    \n    ReputationData public reputationData;\n    SplytManager public splytManager;\n\n    //@dev allow owner or splytManager\n    modifier onlyOwnerOrSplyt() {\n        require(owner == msg.sender || address(splytManager) == msg.sender);\n        _;\n    }\n\n    //@dev only within 1-5\n    modifier onlyValidRange(uint _rating) {\n        require( _rating > 0 && _rating < 6);\n        _;\n    }\n\n    constructor(address _splytManager) public {\n        reputationData = new ReputationData();\n        splytManager = SplytManager(_splytManager);\n    }\n\n    //@dev only create new review when it creates first review\n    function createRate(address _wallet, uint _rating) public onlyValidRange(_rating) {\n\n         address reputationAddress = reputationData.reputationByWallet(_wallet);\n\n         if (reputationAddress == address(0)) {\n            Reputation reputation = new Reputation(_wallet, _rating, msg.sender);\n            reputationData.save(_wallet, address(reputation));\n         } else {\n            Reputation rep = Reputation(reputationAddress);\n            //@if found,update else create new\n            bool found = false;\n            for (uint i =0; i < rep.getRatesLength(); i++) {\n                if (msg.sender == rep.getRaterByIndex(i)) {\n                    rep.updateRate(i, _rating);\n                    found = true;\n                }              \n            }\n            if (!found) {\n                rep.addRate(_rating, msg.sender);\n            }\n         }\n\n         emit Success(5, reputationAddress);   \n    }\n\n    //@dev get review information\n    function getRateInfoByWalletAndIndex(address _wallet, uint _index) public view returns (uint, address, uint) {\n\n        Reputation rep = Reputation(reputationData.reputationByWallet(_wallet));\n        return rep.getRateInfoByIndex(_index);      \n    }  \n\n    //@dev get review information\n    function getReputationInfoByIndex(uint _index) public view returns (address, uint, uint) {\n\n        Reputation rep = Reputation(reputationData.reputationByIndex(_index));\n        uint length = rep.getRatesLength();\n        uint average = getAverageRatingByWallet(rep.wallet());\n\n        return (rep.wallet(), average, length);      \n    }  \n\n    //@dev get review information\n    function getReputationInfoByWallet(address _wallet) public view returns (address, uint, uint) {\n\n        Reputation rep = Reputation(reputationData.reputationByWallet(_wallet));\n        uint length = rep.getRatesLength();\n        uint average = getAverageRatingByWallet(rep.wallet());\n\n        return (rep.wallet(), average, length);      \n    }  \n\n\n    function getReputationsLength() public view returns (uint) {\n       return reputationData.index();\n    }\n\n\n    function getDataContractAddress() public view returns (address) {\n       return address(reputationData);\n    }\n\n\n    //@dev update data contract address\n    function setDataContract(address _reputationData) onlyOwner public {\n       reputationData = ReputationData(_reputationData);\n    }\n\n    //@dev get asset stat\n\n    function setSplytManager(address _address) public onlyOwnerOrSplyt {\n        splytManager = SplytManager(_address);\n    }\n\n\n    function getReputationAddressByWallet(address _wallet) public view returns (address) {\n      return reputationData.reputationByWallet(_wallet);\n    }  \n\n    //@dev checks if address is authorized write to the data contracts\n    function isManager(address _address) public view returns (bool) {\n        return splytManager.isManager(_address);\n    }\n   \n    //@dev assume 2 decimals\n    function getAverageRatingByWallet(address _wallet) public view returns (uint) {\n        address reputationAddress = reputationData.reputationByWallet(_wallet);\n        Reputation rep = Reputation(reputationAddress);\n        uint totalScore = 0;\n        for (uint i =0; i < rep.getRatesLength(); i++) {\n            totalScore += rep.getRatingByIndex(i);\n        }\n       return ((totalScore * 100) / rep.getRatesLength());\n\n    } \n    //@dev get total ratings\n    function getTotalRatingByWallet(address _wallet) public view returns (uint) {\n        address reputationAddress = reputationData.reputationByWallet(_wallet);\n        Reputation rep = Reputation(reputationAddress);\n        uint totalScore = 0;\n        for (uint i =0; i < rep.getRatesLength(); i++) {\n            totalScore += rep.getRatingByIndex(i);\n        }\n       return totalScore;\n\n    } \n    \n   //@dev new manager contract that's going to be replacing this\n   //Old manager call this function and proposes the new address\n    function transferOwnership(address _newAddress) public onlyOwnerOrSplyt {\n        reputationData.transferOwnership(_newAddress);\n    }\n\n    //@dev if new data contract is deployed, the creator proposes manager adress then the manager needs to accept\n    //The new updated manager contract calls this function\n    function acceptOwnership() public onlyOwner {\n        reputationData.acceptOwnership();\n    }\n\n} ",
  "sourcePath": "/Users/scott/git/splytprotocol/contracts/ReputationManager.sol",
  "compiler": {
    "name": "solc",
    "version": "0.4.24+commit.e67f0147.Emscripten.clang"
  },
  "schemaVersion": "2.0.1",
  "updatedAt": "2018-09-14T20:06:09.609Z"
}