{
  "contractName": "SplytManager",
  "abi": [
    {
      "constant": true,
      "inputs": [],
      "name": "satToken",
      "outputs": [
        {
          "name": "",
          "type": "address"
        }
      ],
      "payable": false,
      "stateMutability": "view",
      "type": "function"
    },
    {
      "constant": true,
      "inputs": [],
      "name": "stake",
      "outputs": [
        {
          "name": "",
          "type": "address"
        }
      ],
      "payable": false,
      "stateMutability": "view",
      "type": "function"
    },
    {
      "constant": true,
      "inputs": [],
      "name": "version",
      "outputs": [
        {
          "name": "",
          "type": "uint256"
        }
      ],
      "payable": false,
      "stateMutability": "view",
      "type": "function"
    },
    {
      "constant": true,
      "inputs": [],
      "name": "reputationManager",
      "outputs": [
        {
          "name": "",
          "type": "address"
        }
      ],
      "payable": false,
      "stateMutability": "view",
      "type": "function"
    },
    {
      "constant": true,
      "inputs": [],
      "name": "arbitrator",
      "outputs": [
        {
          "name": "",
          "type": "address"
        }
      ],
      "payable": false,
      "stateMutability": "view",
      "type": "function"
    },
    {
      "constant": true,
      "inputs": [],
      "name": "arbitrationManager",
      "outputs": [
        {
          "name": "",
          "type": "address"
        }
      ],
      "payable": false,
      "stateMutability": "view",
      "type": "function"
    },
    {
      "constant": false,
      "inputs": [],
      "name": "acceptOwnership",
      "outputs": [],
      "payable": false,
      "stateMutability": "nonpayable",
      "type": "function"
    },
    {
      "constant": true,
      "inputs": [],
      "name": "owner",
      "outputs": [
        {
          "name": "",
          "type": "address"
        }
      ],
      "payable": false,
      "stateMutability": "view",
      "type": "function"
    },
    {
      "constant": true,
      "inputs": [],
      "name": "assetManager",
      "outputs": [
        {
          "name": "",
          "type": "address"
        }
      ],
      "payable": false,
      "stateMutability": "view",
      "type": "function"
    },
    {
      "constant": true,
      "inputs": [],
      "name": "ownedBy",
      "outputs": [
        {
          "name": "",
          "type": "string"
        }
      ],
      "payable": false,
      "stateMutability": "view",
      "type": "function"
    },
    {
      "constant": true,
      "inputs": [],
      "name": "pendingOwner",
      "outputs": [
        {
          "name": "",
          "type": "address"
        }
      ],
      "payable": false,
      "stateMutability": "view",
      "type": "function"
    },
    {
      "constant": true,
      "inputs": [],
      "name": "managerTracker",
      "outputs": [
        {
          "name": "",
          "type": "address"
        }
      ],
      "payable": false,
      "stateMutability": "view",
      "type": "function"
    },
    {
      "constant": false,
      "inputs": [
        {
          "name": "newOwner",
          "type": "address"
        }
      ],
      "name": "transferOwnership",
      "outputs": [],
      "payable": false,
      "stateMutability": "nonpayable",
      "type": "function"
    },
    {
      "constant": true,
      "inputs": [],
      "name": "orderManager",
      "outputs": [
        {
          "name": "",
          "type": "address"
        }
      ],
      "payable": false,
      "stateMutability": "view",
      "type": "function"
    },
    {
      "inputs": [
        {
          "name": "_tokenAddress",
          "type": "address"
        },
        {
          "name": "_stakeAddress",
          "type": "address"
        }
      ],
      "payable": false,
      "stateMutability": "nonpayable",
      "type": "constructor"
    },
    {
      "anonymous": false,
      "inputs": [
        {
          "indexed": false,
          "name": "_code",
          "type": "uint256"
        },
        {
          "indexed": false,
          "name": "_assetAddress",
          "type": "address"
        },
        {
          "indexed": false,
          "name": "_message",
          "type": "string"
        }
      ],
      "name": "Error",
      "type": "event"
    },
    {
      "anonymous": false,
      "inputs": [
        {
          "indexed": false,
          "name": "_code",
          "type": "uint256"
        },
        {
          "indexed": false,
          "name": "_address",
          "type": "address"
        }
      ],
      "name": "Success",
      "type": "event"
    },
    {
      "constant": false,
      "inputs": [
        {
          "name": "_assetManager",
          "type": "address"
        },
        {
          "name": "_orderManager",
          "type": "address"
        },
        {
          "name": "_arbitrationManager",
          "type": "address"
        }
      ],
      "name": "setManagers",
      "outputs": [],
      "payable": false,
      "stateMutability": "nonpayable",
      "type": "function"
    },
    {
      "constant": false,
      "inputs": [
        {
          "name": "_newAddress",
          "type": "address"
        }
      ],
      "name": "setManagerTracker",
      "outputs": [],
      "payable": false,
      "stateMutability": "nonpayable",
      "type": "function"
    },
    {
      "constant": false,
      "inputs": [
        {
          "name": "_newAddress",
          "type": "address"
        }
      ],
      "name": "setAssetManager",
      "outputs": [],
      "payable": false,
      "stateMutability": "nonpayable",
      "type": "function"
    },
    {
      "constant": false,
      "inputs": [
        {
          "name": "_newAddress",
          "type": "address"
        }
      ],
      "name": "setOrderManager",
      "outputs": [],
      "payable": false,
      "stateMutability": "nonpayable",
      "type": "function"
    },
    {
      "constant": false,
      "inputs": [
        {
          "name": "_newAddress",
          "type": "address"
        }
      ],
      "name": "setArbitrationManager",
      "outputs": [],
      "payable": false,
      "stateMutability": "nonpayable",
      "type": "function"
    },
    {
      "constant": false,
      "inputs": [
        {
          "name": "_newAddress",
          "type": "address"
        }
      ],
      "name": "setReputationManager",
      "outputs": [],
      "payable": false,
      "stateMutability": "nonpayable",
      "type": "function"
    },
    {
      "constant": false,
      "inputs": [
        {
          "name": "_newAddress",
          "type": "address"
        }
      ],
      "name": "setTokenContract",
      "outputs": [],
      "payable": false,
      "stateMutability": "nonpayable",
      "type": "function"
    },
    {
      "constant": false,
      "inputs": [
        {
          "name": "_newAddress",
          "type": "address"
        }
      ],
      "name": "setStakeContract",
      "outputs": [],
      "payable": false,
      "stateMutability": "nonpayable",
      "type": "function"
    },
    {
      "constant": false,
      "inputs": [
        {
          "name": "_from",
          "type": "address"
        },
        {
          "name": "_to",
          "type": "address"
        },
        {
          "name": "_amount",
          "type": "uint256"
        }
      ],
      "name": "internalContribute",
      "outputs": [
        {
          "name": "",
          "type": "bool"
        }
      ],
      "payable": false,
      "stateMutability": "nonpayable",
      "type": "function"
    },
    {
      "constant": false,
      "inputs": [
        {
          "name": "_listingAddress",
          "type": "address"
        },
        {
          "name": "_seller",
          "type": "address"
        },
        {
          "name": "_amount",
          "type": "uint256"
        }
      ],
      "name": "internalRedeemFunds",
      "outputs": [
        {
          "name": "",
          "type": "bool"
        }
      ],
      "payable": false,
      "stateMutability": "nonpayable",
      "type": "function"
    },
    {
      "constant": true,
      "inputs": [
        {
          "name": "_wallet",
          "type": "address"
        }
      ],
      "name": "getBalance",
      "outputs": [
        {
          "name": "",
          "type": "uint256"
        }
      ],
      "payable": false,
      "stateMutability": "view",
      "type": "function"
    },
    {
      "constant": true,
      "inputs": [
        {
          "name": "_amount",
          "type": "uint256"
        }
      ],
      "name": "calculateStakeTokens",
      "outputs": [
        {
          "name": "",
          "type": "uint256"
        }
      ],
      "payable": false,
      "stateMutability": "view",
      "type": "function"
    },
    {
      "constant": false,
      "inputs": [
        {
          "name": "_assetAddress",
          "type": "address"
        },
        {
          "name": "_qty",
          "type": "uint256"
        }
      ],
      "name": "subtractInventory",
      "outputs": [],
      "payable": false,
      "stateMutability": "nonpayable",
      "type": "function"
    },
    {
      "constant": false,
      "inputs": [
        {
          "name": "_assetAddress",
          "type": "address"
        },
        {
          "name": "_status",
          "type": "uint8"
        }
      ],
      "name": "setAssetStatus",
      "outputs": [],
      "payable": false,
      "stateMutability": "nonpayable",
      "type": "function"
    },
    {
      "constant": false,
      "inputs": [
        {
          "name": "_assetAddress",
          "type": "address"
        },
        {
          "name": "_quantity",
          "type": "uint256"
        }
      ],
      "name": "addInventory",
      "outputs": [],
      "payable": false,
      "stateMutability": "nonpayable",
      "type": "function"
    },
    {
      "constant": true,
      "inputs": [],
      "name": "getManagerTrackerAddress",
      "outputs": [
        {
          "name": "",
          "type": "address"
        }
      ],
      "payable": false,
      "stateMutability": "view",
      "type": "function"
    },
    {
      "constant": true,
      "inputs": [
        {
          "name": "_address",
          "type": "address"
        }
      ],
      "name": "isManager",
      "outputs": [
        {
          "name": "",
          "type": "bool"
        }
      ],
      "payable": false,
      "stateMutability": "view",
      "type": "function"
    }
  ],
  "bytecode": "0x608060405234801561001057600080fd5b506040516040806110c983398101604052805160209091015160008054600160a060020a0319908116331790915560048054600160a060020a0394851690831617905560068054939092169216919091179055611057806100726000396000f30060806040526004361061018a5763ffffffff7c010000000000000000000000000000000000000000000000000000000060003504166303234815811461018f57806314fc5a5a146101c0578063353ce1ac146101e95780633a4b66f114610227578063430602371461023c5780634a5288371461025d578063509484d51461028757806354fd4d50146102a857806356a837f4146102bd5780635d03999f146102de5780636b868afb1461030b5780636cc6cde114610320578063793ec15c1461033557806379ba50971461034a5780637a34748a1461035f5780637f6cdfa6146101e95780638da5cb5b146103835780638e56ba151461039857806394217ad1146103b9578063addcf55f146103ce578063bbcd5bbe14610458578063c0da840d14610479578063dcada7841461049a578063e30c3978146104af578063e3b37b3d146104c4578063eb95f04a146104e5578063ed806c5414610509578063f2fde38b1461051e578063f3ae24151461053f578063f8b2cb4f14610560578063f9b6117f14610581575b600080fd5b34801561019b57600080fd5b506101a4610596565b60408051600160a060020a039092168252519081900360200190f35b3480156101cc57600080fd5b506101e7600160a060020a036004351660ff602435166105a5565b005b3480156101f557600080fd5b50610213600160a060020a0360043581169060243516604435610681565b604080519115158252519081900360200190f35b34801561023357600080fd5b506101a4610779565b34801561024857600080fd5b506101e7600160a060020a0360043516610788565b34801561026957600080fd5b50610275600435610820565b60408051918252519081900360200190f35b34801561029357600080fd5b506101e7600160a060020a03600435166108b8565b3480156102b457600080fd5b506102756108f1565b3480156102c957600080fd5b506101e7600160a060020a03600435166108f7565b3480156102ea57600080fd5b506101e7600160a060020a0360043581169060243581169060443516610974565b34801561031757600080fd5b506101a4610afc565b34801561032c57600080fd5b506101a4610b0b565b34801561034157600080fd5b506101a4610b1a565b34801561035657600080fd5b506101e7610b29565b34801561036b57600080fd5b506101e7600160a060020a0360043516602435610b64565b34801561038f57600080fd5b506101a4610c15565b3480156103a457600080fd5b506101e7600160a060020a0360043516610c24565b3480156103c557600080fd5b506101a4610c5d565b3480156103da57600080fd5b506103e3610c6c565b6040805160208082528351818301528351919283929083019185019080838360005b8381101561041d578181015183820152602001610405565b50505050905090810190601f16801561044a5780820380516001836020036101000a031916815260200191505b509250505060405180910390f35b34801561046457600080fd5b506101e7600160a060020a0360043516610cfa565b34801561048557600080fd5b506101e7600160a060020a0360043516610d33565b3480156104a657600080fd5b506101a4610db0565b3480156104bb57600080fd5b506101a4610dbf565b3480156104d057600080fd5b506101e7600160a060020a0360043516610dce565b3480156104f157600080fd5b506101e7600160a060020a0360043516602435610e4b565b34801561051557600080fd5b506101a4610efc565b34801561052a57600080fd5b506101e7600160a060020a0360043516610f0b565b34801561054b57600080fd5b50610213600160a060020a0360043516610f44565b34801561056c57600080fd5b50610275600160a060020a0360043516610faf565b34801561058d57600080fd5b506101a461101c565b600454600160a060020a031681565b600854600160a060020a03163314806105c85750600754600160a060020a031633145b806105dd5750600954600160a060020a031633145b15156105e857600080fd5b6007546040517f278e07ce000000000000000000000000000000000000000000000000000000008152600160a060020a038481166004830190815292169163278e07ce918591859160240182600681111561063f57fe5b60ff16815260200192505050600060405180830381600087803b15801561066557600080fd5b505af1158015610679573d6000803e3d6000fd5b505050505050565b6008546000908190600160a060020a03163314806106a95750600754600160a060020a031633145b806106be5750600954600160a060020a031633145b15156106c957600080fd5b60048054604080517f23b872dd000000000000000000000000000000000000000000000000000000008152600160a060020a0389811694820194909452878416602482015260448101879052905192909116916323b872dd916064808201926020929091908290030181600087803b15801561074457600080fd5b505af1158015610758573d6000803e3d6000fd5b505050506040513d602081101561076e57600080fd5b505195945050505050565b600654600160a060020a031681565b600054600160a060020a0316331461079f57600080fd5b60078054600160a060020a031916600160a060020a03838116918217909255600b546040805160e060020a630a3b0a4f028152600481019390935251921691630a3b0a4f9160248082019260009290919082900301818387803b15801561080557600080fd5b505af1158015610819573d6000803e3d6000fd5b5050505050565b600654604080517f4a528837000000000000000000000000000000000000000000000000000000008152600481018490529051600092600160a060020a031691634a52883791602480830192602092919082900301818787803b15801561088657600080fd5b505af115801561089a573d6000803e3d6000fd5b505050506040513d60208110156108b057600080fd5b505192915050565b600054600160a060020a031633146108cf57600080fd5b60068054600160a060020a031916600160a060020a0392909216919091179055565b60025481565b600054600160a060020a0316331461090e57600080fd5b600a8054600160a060020a031916600160a060020a03838116918217909255600b546040805160e060020a630a3b0a4f028152600481019390935251921691630a3b0a4f9160248082019260009290919082900301818387803b15801561080557600080fd5b600054600160a060020a0316331461098b57600080fd5b60078054600160a060020a0319908116600160a060020a038681169182179093556008805483168685161790556009805490921684841617909155600b546040805160e060020a630a3b0a4f028152600481019390935251921691630a3b0a4f9160248082019260009290919082900301818387803b158015610a0d57600080fd5b505af1158015610a21573d6000803e3d6000fd5b5050600b546040805160e060020a630a3b0a4f028152600160a060020a0387811660048301529151919092169350630a3b0a4f9250602480830192600092919082900301818387803b158015610a7657600080fd5b505af1158015610a8a573d6000803e3d6000fd5b5050600b546040805160e060020a630a3b0a4f028152600160a060020a0386811660048301529151919092169350630a3b0a4f9250602480830192600092919082900301818387803b158015610adf57600080fd5b505af1158015610af3573d6000803e3d6000fd5b50505050505050565b600a54600160a060020a031681565b600554600160a060020a031681565b600954600160a060020a031681565b600154600160a060020a03163314610b4057600080fd5b60015460008054600160a060020a031916600160a060020a03909216919091179055565b600854600160a060020a0316331480610b875750600754600160a060020a031633145b80610b9c5750600954600160a060020a031633145b1515610ba757600080fd5b600754604080517f7a34748a000000000000000000000000000000000000000000000000000000008152600160a060020a0385811660048301526024820185905291519190921691637a34748a91604480830192600092919082900301818387803b15801561066557600080fd5b600054600160a060020a031681565b600054600160a060020a03163314610c3b57600080fd5b600b8054600160a060020a031916600160a060020a0392909216919091179055565b600754600160a060020a031681565b6003805460408051602060026001851615610100026000190190941693909304601f81018490048402820184019092528181529291830182828015610cf25780601f10610cc757610100808354040283529160200191610cf2565b820191906000526020600020905b815481529060010190602001808311610cd557829003601f168201915b505050505081565b600054600160a060020a03163314610d1157600080fd5b60048054600160a060020a031916600160a060020a0392909216919091179055565b600054600160a060020a03163314610d4a57600080fd5b60088054600160a060020a031916600160a060020a03838116918217909255600b546040805160e060020a630a3b0a4f028152600481019390935251921691630a3b0a4f9160248082019260009290919082900301818387803b15801561080557600080fd5b600b54600160a060020a031690565b600154600160a060020a031681565b600054600160a060020a03163314610de557600080fd5b60098054600160a060020a031916600160a060020a03838116918217909255600b546040805160e060020a630a3b0a4f028152600481019390935251921691630a3b0a4f9160248082019260009290919082900301818387803b15801561080557600080fd5b600854600160a060020a0316331480610e6e5750600754600160a060020a031633145b80610e835750600954600160a060020a031633145b1515610e8e57600080fd5b600754604080517feb95f04a000000000000000000000000000000000000000000000000000000008152600160a060020a038581166004830152602482018590529151919092169163eb95f04a91604480830192600092919082900301818387803b15801561066557600080fd5b600b54600160a060020a031681565b600054600160a060020a03163314610f2257600080fd5b60018054600160a060020a031916600160a060020a0392909216919091179055565b600b54604080517ff3ae2415000000000000000000000000000000000000000000000000000000008152600160a060020a0384811660048301529151600093929092169163f3ae24159160248082019260209290919082900301818787803b15801561088657600080fd5b60048054604080517f70a08231000000000000000000000000000000000000000000000000000000008152600160a060020a03858116948201949094529051600093909216916370a082319160248082019260209290919082900301818787803b15801561088657600080fd5b600854600160a060020a0316815600a165627a7a723058208c475da25ccfc34ccc53e6f55672c57fe5358a1b4e339d86d7652c72b4e2f64d0029",
  "source": "pragma solidity ^0.4.24;\n\n\n//TODO: use interfaces instead after we plan out what functions should be exposed to this contract.\nimport \"./AssetManager.sol\";\nimport \"./OrderManager.sol\";\nimport \"./ArbitrationManager.sol\";\nimport \"./ReputationManager.sol\";\n\nimport \"./ManagerTracker.sol\";\n\nimport \"./Events.sol\";\nimport \"./Owned.sol\";\n\nimport \"./SatToken.sol\";\nimport \"./Stake.sol\";\nimport \"./Asset.sol\";\n\n\n// contract StakeInterface {\n//     function calculateStakeTokens(uint _itemCost) public returns (uint _stakeToken);\n// }\n\n// contract TokenInterface {\n//     function transferFrom(address _from, address _to, uint _value) public returns (bool);\n//     function balanceOf(address _wallet) public returns (uint);\n// }\n\ncontract SplytManager is Events, Owned {\n\n    uint public version;\n    string public ownedBy;\n    SatToken public satToken;\n    address public arbitrator;\n    Stake public stake;\n    \n    AssetManager public assetManager;\n    OrderManager public orderManager;\n    ArbitrationManager public arbitrationManager;\n    ReputationManager public reputationManager;\n    ManagerTracker public managerTracker;\n\n\n\n    //only these managers are allowed to call these functions\n    modifier onlyManagers() {\n        require(msg.sender == address(orderManager) || msg.sender == address(assetManager) || msg.sender == address(arbitrationManager));\n        _;\n    }\n\n    // Events to notify other market places of something\n    // Success events gets triggered when a listing is created or a listing is fully funded\n    // _code: 1 = listing created, 2 = contributions came in\n    // _assetAddress: the asset address for which the code happened\n    // event Success(uint _code, address _assetAddress);\n    // event Error(uint _code, string _message);\n\n    //@dev set all contracts it's interacting with\n    constructor(address _tokenAddress, address _stakeAddress) public {\n        satToken = SatToken(_tokenAddress);\n        stake = Stake(_stakeAddress);      \n    }\n\n    //@dev sets all the managers at once\n    function setManagers(address _assetManager, address _orderManager, address _arbitrationManager) public onlyOwner {\n        assetManager = AssetManager(_assetManager);\n        orderManager = OrderManager(_orderManager);   \n        arbitrationManager = ArbitrationManager(_arbitrationManager);     \n\n        //add the managers to give rights to write\n        managerTracker.add(_assetManager);   \n        managerTracker.add(_orderManager);       \n        managerTracker.add(_arbitrationManager);                            \n    }        \n\n    //@dev tracks all the managers deployed\n    function setManagerTracker(address _newAddress) public onlyOwner {\n        managerTracker = ManagerTracker(_newAddress);\n    }    \n\n    //@dev used to update contracts\n    function setAssetManager(address _newAddress) public onlyOwner {\n        assetManager = AssetManager(_newAddress);\n        managerTracker.add(_newAddress);\n    }    \n\n    //@dev used to update contracts\n    function setOrderManager(address _newAddress) public onlyOwner {\n        orderManager = OrderManager(_newAddress);\n        managerTracker.add(_newAddress);\n    } \n    //@dev used to update contracts\n    function setArbitrationManager(address _newAddress) public onlyOwner {\n        arbitrationManager = ArbitrationManager(_newAddress);\n        managerTracker.add(_newAddress);\n    }      \n \n    //@dev used to update contracts\n    function setReputationManager(address _newAddress) public onlyOwner {\n        reputationManager = ReputationManager(_newAddress);\n        managerTracker.add(_newAddress);\n    }      \n\n    function setTokenContract(address _newAddress) public onlyOwner {\n        satToken = SatToken(_newAddress);\n    }      \n\n    function setStakeContract(address _newAddress) public onlyOwner {\n        stake = Stake(_newAddress);\n    } \n\n    //@dev User for single buy to transfer tokens from buyer address to seller address\n    function internalContribute(address _from, address _to, uint _amount) public onlyManagers returns (bool) {\n        bool result = satToken.transferFrom(_from, _to, _amount);\n        return result;\n    }\n    \n    // @dev Used for fractional ownership to transfer tokens from user address to listing address\n    function internalRedeemFunds(address _listingAddress, address _seller, uint _amount) public onlyManagers returns (bool) {\n        \n        bool result = satToken.transferFrom(_listingAddress, _seller, _amount);\n        return result;\n    }\n\n    //@dev Getter function. returns token contract address\n    function getBalance(address _wallet) public view returns (uint) {\n        return satToken.balanceOf(_wallet);\n    }\n\n    //@dev calculate stake\n    function calculateStakeTokens(uint _amount) public view returns (uint) {\n        return stake.calculateStakeTokens(_amount); \n    }\n\n    function subtractInventory(address _assetAddress, uint _qty) public onlyManagers {\n        assetManager.subtractInventory(_assetAddress, _qty); \n    }    \n\n    //@dev used to update    \n    function setAssetStatus(address _assetAddress, Asset.Statuses _status) public onlyManagers {\n        assetManager.setStatus(_assetAddress, _status);\n    }    \n    //@dev used to update    \n    function addInventory(address _assetAddress, uint _quantity) public onlyManagers {\n        assetManager.addInventory(_assetAddress, _quantity);\n    }    \n\n    //@dev used to update    \n    function getManagerTrackerAddress() public view returns (address) {\n        return address(managerTracker);\n    }    \n\n    function isManager(address _address) public view returns (bool) {\n        return managerTracker.isManager(_address);\n    }\n\n}",
  "sourcePath": "/Users/scott/git/splytprotocol/contracts/SplytManager.sol",
  "compiler": {
    "name": "solc",
    "version": "0.4.24+commit.e67f0147.Emscripten.clang"
  },
  "schemaVersion": "2.0.1",
  "updatedAt": "2018-09-05T21:11:46.754Z"
}