{
  "contractName": "SplytManager",
  "abi": [
    {
      "constant": true,
      "inputs": [],
      "name": "satToken",
      "outputs": [
        {
          "name": "",
          "type": "address"
        }
      ],
      "payable": false,
      "stateMutability": "view",
      "type": "function"
    },
    {
      "constant": true,
      "inputs": [],
      "name": "stake",
      "outputs": [
        {
          "name": "",
          "type": "address"
        }
      ],
      "payable": false,
      "stateMutability": "view",
      "type": "function"
    },
    {
      "constant": true,
      "inputs": [],
      "name": "version",
      "outputs": [
        {
          "name": "",
          "type": "uint256"
        }
      ],
      "payable": false,
      "stateMutability": "view",
      "type": "function"
    },
    {
      "constant": true,
      "inputs": [],
      "name": "arbitrator",
      "outputs": [
        {
          "name": "",
          "type": "address"
        }
      ],
      "payable": false,
      "stateMutability": "view",
      "type": "function"
    },
    {
      "constant": true,
      "inputs": [],
      "name": "arbitrationManager",
      "outputs": [
        {
          "name": "",
          "type": "address"
        }
      ],
      "payable": false,
      "stateMutability": "view",
      "type": "function"
    },
    {
      "constant": false,
      "inputs": [],
      "name": "acceptOwnership",
      "outputs": [],
      "payable": false,
      "stateMutability": "nonpayable",
      "type": "function"
    },
    {
      "constant": true,
      "inputs": [],
      "name": "owner",
      "outputs": [
        {
          "name": "",
          "type": "address"
        }
      ],
      "payable": false,
      "stateMutability": "view",
      "type": "function"
    },
    {
      "constant": true,
      "inputs": [],
      "name": "assetManager",
      "outputs": [
        {
          "name": "",
          "type": "address"
        }
      ],
      "payable": false,
      "stateMutability": "view",
      "type": "function"
    },
    {
      "constant": true,
      "inputs": [],
      "name": "ownedBy",
      "outputs": [
        {
          "name": "",
          "type": "string"
        }
      ],
      "payable": false,
      "stateMutability": "view",
      "type": "function"
    },
    {
      "constant": true,
      "inputs": [],
      "name": "pendingOwner",
      "outputs": [
        {
          "name": "",
          "type": "address"
        }
      ],
      "payable": false,
      "stateMutability": "view",
      "type": "function"
    },
    {
      "constant": true,
      "inputs": [],
      "name": "managerTracker",
      "outputs": [
        {
          "name": "",
          "type": "address"
        }
      ],
      "payable": false,
      "stateMutability": "view",
      "type": "function"
    },
    {
      "constant": false,
      "inputs": [
        {
          "name": "newOwner",
          "type": "address"
        }
      ],
      "name": "transferOwnership",
      "outputs": [],
      "payable": false,
      "stateMutability": "nonpayable",
      "type": "function"
    },
    {
      "constant": true,
      "inputs": [],
      "name": "orderManager",
      "outputs": [
        {
          "name": "",
          "type": "address"
        }
      ],
      "payable": false,
      "stateMutability": "view",
      "type": "function"
    },
    {
      "inputs": [
        {
          "name": "_tokenAddress",
          "type": "address"
        },
        {
          "name": "_stakeAddress",
          "type": "address"
        }
      ],
      "payable": false,
      "stateMutability": "nonpayable",
      "type": "constructor"
    },
    {
      "anonymous": false,
      "inputs": [
        {
          "indexed": false,
          "name": "_code",
          "type": "uint256"
        },
        {
          "indexed": false,
          "name": "_assetAddress",
          "type": "address"
        },
        {
          "indexed": false,
          "name": "_message",
          "type": "string"
        }
      ],
      "name": "Error",
      "type": "event"
    },
    {
      "anonymous": false,
      "inputs": [
        {
          "indexed": false,
          "name": "_code",
          "type": "uint256"
        },
        {
          "indexed": false,
          "name": "_assetAddress",
          "type": "address"
        }
      ],
      "name": "Success",
      "type": "event"
    },
    {
      "anonymous": false,
      "inputs": [
        {
          "indexed": false,
          "name": "_code",
          "type": "uint256"
        },
        {
          "indexed": false,
          "name": "_orderId",
          "type": "uint256"
        }
      ],
      "name": "NewOrder",
      "type": "event"
    },
    {
      "constant": false,
      "inputs": [
        {
          "name": "_assetManager",
          "type": "address"
        },
        {
          "name": "_orderManager",
          "type": "address"
        },
        {
          "name": "_arbitrationManager",
          "type": "address"
        }
      ],
      "name": "setManagers",
      "outputs": [],
      "payable": false,
      "stateMutability": "nonpayable",
      "type": "function"
    },
    {
      "constant": false,
      "inputs": [
        {
          "name": "_newAddress",
          "type": "address"
        }
      ],
      "name": "setManagerTracker",
      "outputs": [],
      "payable": false,
      "stateMutability": "nonpayable",
      "type": "function"
    },
    {
      "constant": false,
      "inputs": [
        {
          "name": "_newAddress",
          "type": "address"
        }
      ],
      "name": "setAssetManager",
      "outputs": [],
      "payable": false,
      "stateMutability": "nonpayable",
      "type": "function"
    },
    {
      "constant": false,
      "inputs": [
        {
          "name": "_newAddress",
          "type": "address"
        }
      ],
      "name": "setOrderManager",
      "outputs": [],
      "payable": false,
      "stateMutability": "nonpayable",
      "type": "function"
    },
    {
      "constant": false,
      "inputs": [
        {
          "name": "_newAddress",
          "type": "address"
        }
      ],
      "name": "setArbitrationManager",
      "outputs": [],
      "payable": false,
      "stateMutability": "nonpayable",
      "type": "function"
    },
    {
      "constant": false,
      "inputs": [
        {
          "name": "_newAddress",
          "type": "address"
        }
      ],
      "name": "setTokenContract",
      "outputs": [],
      "payable": false,
      "stateMutability": "nonpayable",
      "type": "function"
    },
    {
      "constant": false,
      "inputs": [
        {
          "name": "_newAddress",
          "type": "address"
        }
      ],
      "name": "setStakeContract",
      "outputs": [],
      "payable": false,
      "stateMutability": "nonpayable",
      "type": "function"
    },
    {
      "constant": false,
      "inputs": [
        {
          "name": "_from",
          "type": "address"
        },
        {
          "name": "_to",
          "type": "address"
        },
        {
          "name": "_amount",
          "type": "uint256"
        }
      ],
      "name": "internalContribute",
      "outputs": [
        {
          "name": "",
          "type": "bool"
        }
      ],
      "payable": false,
      "stateMutability": "nonpayable",
      "type": "function"
    },
    {
      "constant": false,
      "inputs": [
        {
          "name": "_listingAddress",
          "type": "address"
        },
        {
          "name": "_seller",
          "type": "address"
        },
        {
          "name": "_amount",
          "type": "uint256"
        }
      ],
      "name": "internalRedeemFunds",
      "outputs": [
        {
          "name": "",
          "type": "bool"
        }
      ],
      "payable": false,
      "stateMutability": "nonpayable",
      "type": "function"
    },
    {
      "constant": true,
      "inputs": [
        {
          "name": "_wallet",
          "type": "address"
        }
      ],
      "name": "getBalance",
      "outputs": [
        {
          "name": "",
          "type": "uint256"
        }
      ],
      "payable": false,
      "stateMutability": "view",
      "type": "function"
    },
    {
      "constant": true,
      "inputs": [
        {
          "name": "_amount",
          "type": "uint256"
        }
      ],
      "name": "calculateStakeTokens",
      "outputs": [
        {
          "name": "",
          "type": "uint256"
        }
      ],
      "payable": false,
      "stateMutability": "view",
      "type": "function"
    },
    {
      "constant": false,
      "inputs": [
        {
          "name": "_assetAddress",
          "type": "address"
        },
        {
          "name": "_qty",
          "type": "uint256"
        }
      ],
      "name": "subtractInventory",
      "outputs": [],
      "payable": false,
      "stateMutability": "nonpayable",
      "type": "function"
    },
    {
      "constant": false,
      "inputs": [
        {
          "name": "_assetAddress",
          "type": "address"
        },
        {
          "name": "_status",
          "type": "uint8"
        }
      ],
      "name": "setAssetStatus",
      "outputs": [],
      "payable": false,
      "stateMutability": "nonpayable",
      "type": "function"
    },
    {
      "constant": false,
      "inputs": [
        {
          "name": "_assetAddress",
          "type": "address"
        },
        {
          "name": "_quantity",
          "type": "uint256"
        }
      ],
      "name": "addInventory",
      "outputs": [],
      "payable": false,
      "stateMutability": "nonpayable",
      "type": "function"
    },
    {
      "constant": true,
      "inputs": [],
      "name": "getManagerTrackerAddress",
      "outputs": [
        {
          "name": "",
          "type": "address"
        }
      ],
      "payable": false,
      "stateMutability": "view",
      "type": "function"
    },
    {
      "constant": true,
      "inputs": [
        {
          "name": "_address",
          "type": "address"
        }
      ],
      "name": "isManager",
      "outputs": [
        {
          "name": "",
          "type": "bool"
        }
      ],
      "payable": false,
      "stateMutability": "view",
      "type": "function"
    }
  ],
  "bytecode": "0x608060405234801561001057600080fd5b50604051604080610ff183398101604052805160209091015160008054600160a060020a0319908116331790915560048054600160a060020a0394851690831617905560068054939092169216919091179055610f7f806100726000396000f3006080604052600436106101745763ffffffff7c010000000000000000000000000000000000000000000000000000000060003504166303234815811461017957806314fc5a5a146101aa578063353ce1ac146101d35780633a4b66f11461021157806343060237146102265780634a52883714610247578063509484d51461027157806354fd4d50146102925780635d03999f146102a75780636cc6cde1146102d4578063793ec15c146102e957806379ba5097146102fe5780637a34748a146103135780637f6cdfa6146101d35780638da5cb5b146103375780638e56ba151461034c57806394217ad11461036d578063addcf55f14610382578063bbcd5bbe1461040c578063c0da840d1461042d578063dcada7841461044e578063e30c397814610463578063e3b37b3d14610478578063eb95f04a14610499578063ed806c54146104bd578063f2fde38b146104d2578063f3ae2415146104f3578063f8b2cb4f14610514578063f9b6117f14610535575b600080fd5b34801561018557600080fd5b5061018e61054a565b60408051600160a060020a039092168252519081900360200190f35b3480156101b657600080fd5b506101d1600160a060020a036004351660ff60243516610559565b005b3480156101df57600080fd5b506101fd600160a060020a0360043581169060243516604435610635565b604080519115158252519081900360200190f35b34801561021d57600080fd5b5061018e61072d565b34801561023257600080fd5b506101d1600160a060020a036004351661073c565b34801561025357600080fd5b5061025f6004356107d4565b60408051918252519081900360200190f35b34801561027d57600080fd5b506101d1600160a060020a036004351661086c565b34801561029e57600080fd5b5061025f6108a5565b3480156102b357600080fd5b506101d1600160a060020a03600435811690602435811690604435166108ab565b3480156102e057600080fd5b5061018e610a33565b3480156102f557600080fd5b5061018e610a42565b34801561030a57600080fd5b506101d1610a51565b34801561031f57600080fd5b506101d1600160a060020a0360043516602435610a8c565b34801561034357600080fd5b5061018e610b3d565b34801561035857600080fd5b506101d1600160a060020a0360043516610b4c565b34801561037957600080fd5b5061018e610b85565b34801561038e57600080fd5b50610397610b94565b6040805160208082528351818301528351919283929083019185019080838360005b838110156103d15781810151838201526020016103b9565b50505050905090810190601f1680156103fe5780820380516001836020036101000a031916815260200191505b509250505060405180910390f35b34801561041857600080fd5b506101d1600160a060020a0360043516610c22565b34801561043957600080fd5b506101d1600160a060020a0360043516610c5b565b34801561045a57600080fd5b5061018e610cd8565b34801561046f57600080fd5b5061018e610ce7565b34801561048457600080fd5b506101d1600160a060020a0360043516610cf6565b3480156104a557600080fd5b506101d1600160a060020a0360043516602435610d73565b3480156104c957600080fd5b5061018e610e24565b3480156104de57600080fd5b506101d1600160a060020a0360043516610e33565b3480156104ff57600080fd5b506101fd600160a060020a0360043516610e6c565b34801561052057600080fd5b5061025f600160a060020a0360043516610ed7565b34801561054157600080fd5b5061018e610f44565b600454600160a060020a031681565b600854600160a060020a031633148061057c5750600754600160a060020a031633145b806105915750600954600160a060020a031633145b151561059c57600080fd5b6007546040517f278e07ce000000000000000000000000000000000000000000000000000000008152600160a060020a038481166004830190815292169163278e07ce91859185916024018260068111156105f357fe5b60ff16815260200192505050600060405180830381600087803b15801561061957600080fd5b505af115801561062d573d6000803e3d6000fd5b505050505050565b6008546000908190600160a060020a031633148061065d5750600754600160a060020a031633145b806106725750600954600160a060020a031633145b151561067d57600080fd5b60048054604080517f23b872dd000000000000000000000000000000000000000000000000000000008152600160a060020a0389811694820194909452878416602482015260448101879052905192909116916323b872dd916064808201926020929091908290030181600087803b1580156106f857600080fd5b505af115801561070c573d6000803e3d6000fd5b505050506040513d602081101561072257600080fd5b505195945050505050565b600654600160a060020a031681565b600054600160a060020a0316331461075357600080fd5b60078054600160a060020a031916600160a060020a03838116918217909255600a546040805160e060020a630a3b0a4f028152600481019390935251921691630a3b0a4f9160248082019260009290919082900301818387803b1580156107b957600080fd5b505af11580156107cd573d6000803e3d6000fd5b5050505050565b600654604080517f4a528837000000000000000000000000000000000000000000000000000000008152600481018490529051600092600160a060020a031691634a52883791602480830192602092919082900301818787803b15801561083a57600080fd5b505af115801561084e573d6000803e3d6000fd5b505050506040513d602081101561086457600080fd5b505192915050565b600054600160a060020a0316331461088357600080fd5b60068054600160a060020a031916600160a060020a0392909216919091179055565b60025481565b600054600160a060020a031633146108c257600080fd5b60078054600160a060020a0319908116600160a060020a038681169182179093556008805483168685161790556009805490921684841617909155600a546040805160e060020a630a3b0a4f028152600481019390935251921691630a3b0a4f9160248082019260009290919082900301818387803b15801561094457600080fd5b505af1158015610958573d6000803e3d6000fd5b5050600a546040805160e060020a630a3b0a4f028152600160a060020a0387811660048301529151919092169350630a3b0a4f9250602480830192600092919082900301818387803b1580156109ad57600080fd5b505af11580156109c1573d6000803e3d6000fd5b5050600a546040805160e060020a630a3b0a4f028152600160a060020a0386811660048301529151919092169350630a3b0a4f9250602480830192600092919082900301818387803b158015610a1657600080fd5b505af1158015610a2a573d6000803e3d6000fd5b50505050505050565b600554600160a060020a031681565b600954600160a060020a031681565b600154600160a060020a03163314610a6857600080fd5b60015460008054600160a060020a031916600160a060020a03909216919091179055565b600854600160a060020a0316331480610aaf5750600754600160a060020a031633145b80610ac45750600954600160a060020a031633145b1515610acf57600080fd5b600754604080517f7a34748a000000000000000000000000000000000000000000000000000000008152600160a060020a0385811660048301526024820185905291519190921691637a34748a91604480830192600092919082900301818387803b15801561061957600080fd5b600054600160a060020a031681565b600054600160a060020a03163314610b6357600080fd5b600a8054600160a060020a031916600160a060020a0392909216919091179055565b600754600160a060020a031681565b6003805460408051602060026001851615610100026000190190941693909304601f81018490048402820184019092528181529291830182828015610c1a5780601f10610bef57610100808354040283529160200191610c1a565b820191906000526020600020905b815481529060010190602001808311610bfd57829003601f168201915b505050505081565b600054600160a060020a03163314610c3957600080fd5b60048054600160a060020a031916600160a060020a0392909216919091179055565b600054600160a060020a03163314610c7257600080fd5b60088054600160a060020a031916600160a060020a03838116918217909255600a546040805160e060020a630a3b0a4f028152600481019390935251921691630a3b0a4f9160248082019260009290919082900301818387803b1580156107b957600080fd5b600a54600160a060020a031690565b600154600160a060020a031681565b600054600160a060020a03163314610d0d57600080fd5b60098054600160a060020a031916600160a060020a03838116918217909255600a546040805160e060020a630a3b0a4f028152600481019390935251921691630a3b0a4f9160248082019260009290919082900301818387803b1580156107b957600080fd5b600854600160a060020a0316331480610d965750600754600160a060020a031633145b80610dab5750600954600160a060020a031633145b1515610db657600080fd5b600754604080517feb95f04a000000000000000000000000000000000000000000000000000000008152600160a060020a038581166004830152602482018590529151919092169163eb95f04a91604480830192600092919082900301818387803b15801561061957600080fd5b600a54600160a060020a031681565b600054600160a060020a03163314610e4a57600080fd5b60018054600160a060020a031916600160a060020a0392909216919091179055565b600a54604080517ff3ae2415000000000000000000000000000000000000000000000000000000008152600160a060020a0384811660048301529151600093929092169163f3ae24159160248082019260209290919082900301818787803b15801561083a57600080fd5b60048054604080517f70a08231000000000000000000000000000000000000000000000000000000008152600160a060020a03858116948201949094529051600093909216916370a082319160248082019260209290919082900301818787803b15801561083a57600080fd5b600854600160a060020a0316815600a165627a7a7230582026e51b5bf9da381e871b3f6449ae29a00f5374f806fce30f3fda51e47e3ee3610029",
  "source": "pragma solidity ^0.4.24;\n\nimport \"./AssetManager.sol\";\nimport \"./OrderManager.sol\";\nimport \"./ArbitrationManager.sol\";\nimport \"./ManagerTracker.sol\";\n\nimport \"./Events.sol\";\nimport \"./Owned.sol\";\n\nimport \"./SatToken.sol\";\nimport \"./Stake.sol\";\nimport \"./Asset.sol\";\n\n\n// contract StakeInterface {\n//     function calculateStakeTokens(uint _itemCost) public returns (uint _stakeToken);\n// }\n\n// contract TokenInterface {\n//     function transferFrom(address _from, address _to, uint _value) public returns (bool);\n//     function balanceOf(address _wallet) public returns (uint);\n// }\n\ncontract SplytManager is Events, Owned {\n\n    uint public version;\n    string public ownedBy;\n    SatToken public satToken;\n    address public arbitrator;\n    Stake public stake;\n    \n    AssetManager public assetManager;\n    OrderManager public orderManager;\n    ArbitrationManager public arbitrationManager;\n\n    ManagerTracker public managerTracker;\n\n    //only these managers are allowed to call these functions\n    modifier onlyManagers() {\n        require(msg.sender == address(orderManager) || msg.sender == address(assetManager) || msg.sender == address(arbitrationManager));\n        _;\n    }\n\n    // Events to notify other market places of something\n    // Success events gets triggered when a listing is created or a listing is fully funded\n    // _code: 1 = listing created, 2 = contributions came in\n    // _assetAddress: the asset address for which the code happened\n    // event Success(uint _code, address _assetAddress);\n    // event Error(uint _code, string _message);\n\n    //@desc set all contracts it's interacting with\n    constructor(address _tokenAddress, address _stakeAddress) public {\n        satToken = SatToken(_tokenAddress);\n        stake = Stake(_stakeAddress);      \n    }\n\n    //@desc sets all the managers at once\n    function setManagers(address _assetManager, address _orderManager, address _arbitrationManager) public onlyOwner {\n        assetManager = AssetManager(_assetManager);\n        orderManager = OrderManager(_orderManager);   \n        arbitrationManager = ArbitrationManager(_arbitrationManager);     \n\n        //add the managers to give rights to write\n        managerTracker.add(_assetManager);   \n        managerTracker.add(_orderManager);       \n        managerTracker.add(_arbitrationManager);                            \n    }        \n\n    //@desc tracks all the managers deployed\n    function setManagerTracker(address _newAddress) public onlyOwner {\n        managerTracker = ManagerTracker(_newAddress);\n    }    \n\n    //@desc used to update contracts\n    function setAssetManager(address _newAddress) public onlyOwner {\n        assetManager = AssetManager(_newAddress);\n        managerTracker.add(_newAddress);\n    }    \n\n    //@desc used to update contracts\n    function setOrderManager(address _newAddress) public onlyOwner {\n        orderManager = OrderManager(_newAddress);\n        managerTracker.add(_newAddress);\n    } \n    //@desc used to update contracts\n    function setArbitrationManager(address _newAddress) public onlyOwner {\n        arbitrationManager = ArbitrationManager(_newAddress);\n        managerTracker.add(_newAddress);\n    }      \n \n    function setTokenContract(address _newAddress) public onlyOwner {\n        satToken = SatToken(_newAddress);\n    }      \n\n    function setStakeContract(address _newAddress) public onlyOwner {\n        stake = Stake(_newAddress);\n    } \n\n    //@desc User for single buy to transfer tokens from buyer address to seller address\n    //TODO: add security\n    function internalContribute(address _from, address _to, uint _amount) public onlyManagers returns (bool) {\n        bool result = satToken.transferFrom(_from, _to, _amount);\n        return result;\n    }\n    \n    // @desc Used for fractional ownership to transfer tokens from user address to listing address\n    // TODO: add security\n    function internalRedeemFunds(address _listingAddress, address _seller, uint _amount) public onlyManagers returns (bool) {\n        \n        bool result = satToken.transferFrom(_listingAddress, _seller, _amount);\n        return result;\n    }\n\n    //@desc Getter function. returns token contract address\n    function getBalance(address _wallet) public view returns (uint) {\n        return satToken.balanceOf(_wallet);\n    }\n\n    //@desc calculate stake\n    function calculateStakeTokens(uint _amount) public view returns (uint) {\n        return stake.calculateStakeTokens(_amount); \n    }\n\n    function subtractInventory(address _assetAddress, uint _qty) public onlyManagers {\n        assetManager.subtractInventory(_assetAddress, _qty); \n    }    \n\n    //@desc used to update    \n    function setAssetStatus(address _assetAddress, Asset.Statuses _status) public onlyManagers {\n        assetManager.setStatus(_assetAddress, _status);\n    }    \n    //@desc used to update    \n    function addInventory(address _assetAddress, uint _quantity) public onlyManagers {\n        assetManager.addInventory(_assetAddress, _quantity);\n    }    \n\n    //@desc used to update    \n    function getManagerTrackerAddress() public view returns (address) {\n        return address(managerTracker);\n    }    \n\n    function isManager(address _address) public view returns (bool) {\n        return managerTracker.isManager(_address);\n    }\n\n}",
  "sourcePath": "/Users/scott/git/splytprotocol/contracts/SplytManager.sol",
  "compiler": {
    "name": "solc",
    "version": "0.4.24+commit.e67f0147.Emscripten.clang"
  },
  "schemaVersion": "2.0.1",
  "updatedAt": "2018-08-27T20:01:18.317Z"
}